:10000000C0330020252D0000392A0000332D0000C8
:10001000332D0000332D0000332D0000332D000060
:10002000000000000000000000000000790E000049
:10003000332D000000000000B50E0000250F000069
:100040009B1D0000251C0000BB1E0000131F0000AC
:100050009B1D0000251C0000BB1E0000131F00009C
:100060000000000000000000000000000000000090
:100070000000000000000000000000000000000080
:100080000000000000000000000000000000000070
:100090000000000000000000000000000000000060
:1000A0000000000000000000000000000000000050
:1000B0000000000000000000000000000000000040
:1000C0000000000000000000000000000000000030
:1000D0000000000000000000000000000000000020
:1000E0000000000000000000000000000000000010
:1000F0000000000000000000000000000000000000
:1001000000000000000000000000000000000000EF
:1001100000000000000000000000000000000000DF
:1001200000000000000000000000000000000000CF
:1001300000000000000000000000000000000000BF
:1001400000000000000000000000000000000000AF
:10015000000000000000000000000000000000009F
:10016000000000000000000000000000000000008F
:10017000000000000000000000000000000000007F
:10018000000000000000000000000000000000006F
:10019000000000000000000000000000000000005F
:1001A000000000000000000000000000000000004F
:1001B000000000000000000000000000000000003F
:1001C000FFFFFFFFFFFFFFFFFFFFFFFFFFFFFFFF3F
:1001D000FFFFFFFFFFFFFFFFFFFFFFFFFFFFFFFF2F
:1001E000FFFFFFFFFFFFFFFFFFFFFFFFFFFFFFFF1F
:1001F000FFFFFFFFFFFFFFFFFFFFFFFFFFFFFFFF0F
:1002000010B5054C237833B9044B13B1044800E012
:1002100000BF0123237010BD600400200000000017
:10022000348C000008B5034B1BB10349034800E0C0
:1002300000BF08BD0000000064040020348C0000F2
:1002400080B586B000AFF860B9607A60FB687B610A
:10025000BB683B6100BF3B6907F110027968184633
:1002600006F028FC01467B691A1D7A610A461A606D
:100270001B68002BEFD100BF00BF1837BD4680BD03
:1002800080B586B000AF786039607B681B78002B42
:1002900001D1002340E0786805F0F2FC53EC102B0C
:1002A0001046194605F09CFC03467B61D7ED057AA4
:1002B0009FED1B7AF4EEC77AF1EE10FA01D5002318
:1002C0002AE097ED057ADFED166AC7EE267AFDEE95
:1002D000E77A17EE903A3B613B6907EE903AF8EE09
:1002E000E77A9FED0F7A67EE877A97ED057A37EE1A
:1002F000677ADFED0C6AC7EE267AC7ED037A3B69B1
:1003000007EE903AB8EEE77AD7ED037A77EE277AE0
:100310003B68C3ED007A012318461837BD4680BDFF
:100320000000C8420000704280B582B000AF786023
:10033000786803F04BFD00BF0837BD4680BD80B430
:1003400083B000AF78600B46FB707B68FA789A72D6
:10035000002318460C37BD465DF8047B704780B417
:1003600083B000AF7860002318460C37BD465DF8B7
:10037000047B704780B584B000AF78600B46FB709B
:100380007B68FB60FB6818687B681B89FA781946F4
:1003900001F054FFB860BB6818461037BD4680BDF9
:1003A00080B584B000AF78607B68FB600023FB728F
:1003B000FB6818687B681B8907F10B02194601F07E
:1003C000DBFEFB7A18461037BD4680BD80B586B08F
:1003D00000AFF860B9607A60FB685B687B617B693D
:1003E0001B687A68B968184601F081F90346184617
:1003F0001837BD4680BD80B483B000AF78603960E7
:10040000002318460C37BD465DF8047B704780B466
:1004100083B000AF78600B46FB70002318460C37A2
:10042000BD465DF8047B704780B483B000AF786050
:100430000B46FB70002318460C37BD465DF8047B65
:10044000704780B584B000AF78607B685B68FB6004
:10045000FB681A68FB685B681946104600F0F6FFF7
:10046000034618461037BD4680BD80B584B000AF46
:1004700078607B685B68FB60FB681B68184601F06E
:10048000CBF8034618461037BD4680BD80B584B012
:1004900000AF78607B685B68FB60FB681B680221CB
:1004A000184601F0D5F9034618461037BD4680BD01
:1004B00080B584B000AF78607B685B68FB60FB68E8
:1004C0001B680121184601F0C3F90346184610378E
:1004D000BD4680BD80B500AF0249034800F0B6FFBD
:1004E00000BF80BDA47B0000CC10002080B582B08E
:1004F00000AF78607B681B79042B09D17B689B680F
:10050000DAB2094B1A71084B9B680748984706E016
:100510007B681B79022B02D1044B01221A7000BFA9
:100520000837BD4680BD00BFD40D00207C040020EC
:1005300080B500AF2449254801F0CAFD02222449B4
:10054000244804F03AFE0346234A13602349244812
:1005500004F04EFE0346234A1360224B1B681B68BF
:100560001B69204A12681046984740F20312184946
:10057000184804F022FE03461B4A13604FF48272AF
:100580001349144804F019FE0346184A136040F258
:1005900002420F490F4804F010FE0346144A13604C
:1005A00040F20B120A490B4804F007FE0346114AB9
:1005B000136040F202320649064804F0FEFD03468D
:1005C0000D4A136000BF80BD7C7C0000C410002079
:1005D000847B00000000002084040020F87B0000E1
:1005E0001000002080040020880400208C040020DB
:1005F00090040020940400209804002080B584B06A
:1006000000AF78607B681B79042B0CD17B689B68FA
:100610005BB2FB730A4B1B6807F10F0101221846FE
:1006200004F046FE08E07B681B79022B04D1044BE2
:100630001B68184604F04FFE00BF1037BD4680BD52
:100640008004002080B582B000AF174B7B607B68D0
:10065000164A1A617B684FF48072DA827B68144A0A
:10066000C3F8A8207B68134AC3F8CC217B68D3F871
:10067000CC31114A9A607B68104AC3F8B4207B6879
:10068000D3F8B430184605F09BFB0346DAB27B681A
:1006900083F8B8207B68002283F8D021FFF71AFF87
:1006A00000BF0837BD4680BDB80E00209C04002066
:1006B0009C050020D40D0020C1060000407B0000F6
:1006C00080B584B000AF78602C4BFB602C4BD3F826
:1006D000E830FA68128813447A68043212781A7083
:1006E000FB681B8801339AB2FB681A80FB681A8882
:1006F000234B93F890319BB29A422AD37B681B79A3
:100700000D2B03D07B681B790A2B34D11C4BD3F8FB
:10071000E820FB681B88013B134400221A70184B29
:1007200093F8A83283F00103DBB2002B0DD0144BF9
:10073000D3F8E810FB681B88013B1A46114805F006
:10074000B1FA0F4B012283F8A822FB6800221A801D
:1007500011E07B681B791946094BD3F88C21FB68A3
:100760001B88013B134493F90030994203D0FB6886
:1007700000221A8000BF1037BD4680BDCC0E00207D
:10078000E00D0020720F002080B582B000AF104B4A
:100790007B60104B1A687B689A600F4B1A687B6805
:1007A0001A600E4B1A687B685A600D4B1A687B689A
:1007B000DA600C4B1A687B681A61786804F048FBB1
:1007C000786804F048FC00BF0837BD4680BD00BF14
:1007D000A40E002090040020880400208C04002037
:1007E000940400209804002080B500AF00F00CF8BD
:1007F00000F02CF800F042F800F058F800F06EF825
:1008000000F084F800BF80BD80B582B000AF0C4B13
:100810007B600C220021786804F03DFC094BDB6D05
:10082000184604F0BBFC0346032B04D10022064902
:10083000786804F0E7FB00BF0837BD4680BD00BF05
:10084000A40E0020E00D0020487B000080B582B09F
:1008500000AF084B7B6000220121786804F01BFC8C
:1008600000220549786804F0CDFB00BF0837BD467B
:1008700080BD00BFA40E00204C7B000080B582B07C
:1008800000AF084B7B6007220121786804F003FC6D
:1008900000220549786804F0B5FB00BF0837BD4663
:1008A00080BD00BFA40E0020547B000080B582B044
:1008B00000AF084B7B6000220221786804F0EBFB5C
:1008C00000220549786804F09DFB00BF0837BD464B
:1008D00080BD00BFA40E00205C7B000080B582B00C
:1008E00000AF084B7B6000220321786804F0D3FB43
:1008F00000220549786804F085FB00BF0837BD4633
:1009000080BD00BFA40E0020687B000080B582B0CF
:1009100000AF0D4B7B6000220421786804F0BBFB24
:1009200000220A49786804F06DFB002205217868EE
:1009300004F0B1FB00220649786804F063FB00BFB5
:100940000837BD4680BD00BFA40E0020707B0000AC
:10095000787B000080B582B000AF0346FB71FB7965
:10096000022B05D1044B5B681946044801F0B0FB2B
:1009700000BF0837BD4680BD847B0000C410002046
:1009800080B582B000AF7860FFF7D2FDFFF7FCFEC4
:10099000FFF72AFF012003F019FAF9E780B584B0C8
:1009A00000AF7860204BFB60FB68204AC3F8BC2195
:1009B000FB681F4AC3F8C021FFF744FEFB6893F8A9
:1009C000D031002B2BD0FB68BA331A4A19461A488B
:1009D000FFF736FC184B9A68FB6803F5DE7319467F
:1009E0001046FFF74DFC0346002B10D0124B1A693E
:1009F000FB6803F5E07319461046FFF741FC034618
:100A0000002B04D0FB68012283F8B92003E0FB68C7
:100A1000002283F8B920FB68002283F8D02101204E
:100A200003F0D4F9CAE700BFB80E00209E4BA841DE
:100A30002793D342807B00008C10002080B582B0C9
:100A400000AF7860012003F0C1F9FBE780B400AF8C
:100A500000BFBD465DF8047B704780B500AFFFF76F
:100A6000F5FF00BF80BD80B483B000AF786039600F
:100A700000BE00BF0C37BD465DF8047B7047FFFF2A
:100A800080B582B000AF204B1B684FF0FF31184695
:100A900002F010FE78607B68012B05D01A4B1B68B2
:100AA00000211846FFF7DFFF184B1B7883F0010386
:100AB000DBB2002B24D0154B01221A70FFF7CDFFBB
:100AC000134B1B68013B124A136015E00E4B18686C
:100AD00000230022002102F089FB78607B68012B53
:100AE00005D0094B1B6800211846FFF7BCFF084BD7
:100AF0001B68013B064A1360054B1B68002BE5D1C0
:100B000000BF0837BD4680BD781100207C11002051
:100B10007411002080B500AF114B00221A60114BF8
:100B200000221A70104A01214FF4807002F026FB57
:100B300003460E4A13600D4B1B68002B05D10B4B6F
:100B40001B6800211846FFF78EFF00F0C9F800F07F
:100B500085F800F041F803F071F90023184680BDD4
:100B6000741100207C1100202C110020781100202D
:100B700080B485B000AFF860B9607A60FB68074A5E
:100B80001A60BB68064A1A607B6880221A6000BF40
:100B90001437BD465DF8047B704700BFDC050020BC
:100BA0003C06002080B485B000AFF860B9607A6080
:100BB000FB68074A1A60BB68064A1A607B68802295
:100BC0001A6000BF1437BD465DF8047B704700BF54
:100BD0003C0800209C08002080B584B004AF114B75
:100BE0001B6801330F4A13600F4B02930F4B0193A5
:100BF000082300930E4B4FF480720E490E4802F00A
:100C000089FF03460D4A13600C4B1B68002B05D16E
:100C10000A4B1B6800211846FFF725FF00BFBD46A1
:100C200080BD00BF741100209C0A0020C03300204A
:100C3000847C0000887C0000410C000080110020B2
:100C400080B582B000AF7860FFF71AFF7868FFF7D1
:100C500097FE00BF0837BD4680BDFFFF80B584B05A
:100C600004AF114B1B6801330F4A13600F4B029303
:100C70000F4B0193082300930E4B4FF480720E49E3
:100C80000E4802F047FF03460D4A13600C4B1B68E9
:100C9000002B05D10A4B1B6800211846FFF7E3FE25
:100CA00000BFBD4680BD00BF74110020FC0A0020BB
:100CB000C03700208C7C0000907C0000C50C000038
:100CC0008411002080B582B000AF7860FFF7D8FEB5
:100CD0007868FFF763FE00BF0837BD4680BDFFFFA1
:100CE00080B584B004AF114B1B6801330F4A136009
:100CF0000F4B02930F4B0193082300930E4B4FF4BD
:100D000080620E490E4802F005FF03460D4A13604B
:100D10000C4B1B68002B05D10A4B1B6800211846A1
:100D2000FFF7A1FE00BFBD4680BD00BF74110020CB
:100D30005C0B0020C03B0020947C0000987C0000ED
:100D4000490D00008811002080B582B000AF7860A6
:100D5000FFF796FE7868FFF771FE00BF0837BD46C3
:100D600080BDFFFF80B483B000AF03463960FB71E4
:100D700097F90730002B0ADB3B68DAB20C4997F988
:100D800007301201D2B20B4483F800230AE03B681B
:100D9000DAB20849FB7903F00F03043B1201D2B227
:100DA0000B441A7600BF0C37BD465DF8047B7047D4
:100DB00000E100E000ED00E080B483B000AF034646
:100DC000FB7197F90730002B09DB0D4A97F90730C3
:100DD000134493F80033DBB21B09DBB209E0094A84
:100DE000FB7903F00F03043B13441B7EDBB21B09AA
:100DF000DBB218460C37BD465DF8047B704700BF78
:100E000000E100E000ED00E080B582B000AF786066
:100E10007B68013BB3F1807F01D301230FE00A4AD5
:100E20007B68013B53600F214FF0FF30FFF79AFFC3
:100E3000054B00229A60044B07221A6000231846D3
:100E40000837BD4680BD00BF10E000E080B483B02D
:100E500000AFEFF303837B607B683B603B88C3F3A9
:100E600008039BB2DBB2103BDBB25BB218460C3717
:100E7000BD465DF8047B70471EF0040F0CBFEFF316
:100E80000880EFF309800149084700BF6D0F00009B
:100E900080B400AF62B600BFBFF36F8F00BFEFF347
:100EA000148C2CF0040C8CF31488BFF36F8F02DFCA
:100EB00000BEFDE7104B1968EFF309821EF0100F1A
:100EC00008BF22ED108A22E9F04FEFF30B8342F8BE
:100ED000043D0A604FF0100080F31188BFF34F8F7C
:100EE000BFF36F8F03F080F94FF0000080F311889B
:100EF00000F004B800BF0000CC0B002008480168D7
:100F00000A6802CA81F30B88B2E8F04F1EF0100F96
:100F100008BFB2EC108A82F30988704700BF000056
:100F2000CC0B002080B584B000AFEFF311837B6061
:100F30007B68FB601023BB60BB6883F3118800BF34
:100F400003F0A6F80346002B03D0074B4FF0805266
:100F50005A60FB683B603B6883F3118800BF00BFA9
:100F60001037BD4680BD00BF00ED00E080B584B005
:100F700000AF78607B689B69FB60FB68023B1B7875
:100F8000FB72FB7A022B03D1FFF7B8FF00BF09E029
:100F9000FB7A032B06D9054B054A40F2054105486B
:100FA00001F086FC00BF1037BD4680BD5C7D0000AF
:100FB000207E0000707D000080B485B000AFF86036
:100FC000B9607A603B60FB68043BFB60FB684FF0F4
:100FD00080721A60FB68043BFB607B6823F00102AF
:100FE000FB681A60FB68043BFB60114AFB681A60EF
:100FF000FB68143BFB603A68FB681A60FB68043BC3
:10100000FB60FB686FF002021A60FB68203BFB602C
:10101000FB68043BFB60BB6803F12802FB681A60B5
:10102000FB6818461437BD465DF8047B704700BF67
:101030003510000080B400AF00BEFEE780B500AF01
:10104000FF216FF00100FFF78DFE00F0DDF8064B89
:101050005B68054A43F040435360FFF719FF03F014
:10106000C3F80023184680BD30EF00E080B584B09F
:1010700000AFEFF311837B607B68FB601023BB60E4
:10108000BB6883F3118800BF0E4B1B6801330D4A08
:1010900013600C4B1B68012B0FD10B4AFB681360CC
:1010A0000A4B5B68C3F30803002B06D0084B094AC0
:1010B00040F2F641084801F0FBFB00BF1037BD4687
:1010C00080BD00BFBC0B0020C00B002000ED00E085
:1010D000987D0000347E0000707D000080B582B0F5
:1010E00000AF0F4B1B68002B06D10E4B0E4A40F28F
:1010F000FF410E4801F0DCFB094B1B68013B084A2D
:101100001360074B1B68002B06D1094B1B687B60E3
:101110007B6883F3118800BF00BF0837BD4680BDE0
:10112000BC0B0020E07D0000487E0000707D0000C8
:10113000C00B002080B487B000AF786000237B61D3
:101140007B68002B2BD0264B9B899BB27B617B69F4
:1011500003F40043002B14D0214BB3F8FE339BB2B1
:101160003B611F4B4AF20252A3F8FE231C4B0022A4
:101170009A813B699AB21A491A4B13439BB2A1F860
:10118000FE33BFF34F8F00BF30BFBFF36F8F00BF81
:1011900062B600BFBFF36F8F00BF72B600BF7B693E
:1011A00003F40043002B15D00D4BB3F8FE339BB274
:1011B000FB600B4B4AF20252A3F8FE23084B7A69FC
:1011C00092B29A81FB689AB20549064B13439BB2CF
:1011D000A1F8FE3300BF1C37BD465DF8047B7047A5
:1011E00000E0014000A5FFFF80B500AF72B600BF70
:1011F00002F08EFE0120FFF79DFF62B600BF02F0F5
:1012000095FE00BF80BDFFFF80B500AF054B1B689A
:10121000054AA2FB03239B091846FFF7F5FD00BF13
:1012200080BD00BF58130020D34D621080B582B03E
:1012300000AFFFF70BFE0346FB7197F90730002B59
:1012400012DB97F907301846FFF7B6FD3860084BF8
:101250001B781A463B68934206D2064B064A4FF467
:10126000C161064801F024FB00BF0837BD4680BDC0
:10127000C40B0020F47D00005C7E0000707D000047
:1012800080B483B000AFEFF303837B607B683B6087
:101290003B88C3F308039BB2DBB2103BDBB25BB20B
:1012A00018460C37BD465DF8047B704780B483B0A8
:1012B00000AF03463960FB7197F9073004493A687B
:1012C00041F8232000BF0C37BD465DF8047B704712
:1012D000D011002080B483B000AF0346FB710849F1
:1012E00097F9073003F1C00251F822306FF3104331
:1012F00041F8223000BF0C37BD465DF8047B7047D3
:101300000060004080B584B000AF0346FB7197F9E0
:1013100007301846FFF7DEFF97F90730FB60FB68E0
:1013200003F01F02064997F907305B09012000FA14
:1013300002F2603341F8232000BF1037BD4680BD64
:1013400000E100E080B584B000AF0346B9607A6088
:10135000FB73BB68DAB2094997F90F301201D2B2B8
:101360000B4483F8002397F90F3079681846FFF78C
:101370009DFF00BF1037BD4680BD00BF00E100E00B
:1013800080B485B000AF0346FB7197F90730FB606E
:10139000FB6803F01F02074997F907305B0901203A
:1013A00000FA02F241F8232000BF1437BD465DF871
:1013B000047B704700E100E080B582B000AF0346D7
:1013C000FB7197F907301846FFF79CFF97F9073034
:1013D0001846FFF7D5FF00BF0837BD4680BDFFFFA9
:1013E00080B485B000AF0346FB7197F90730FB600E
:1013F000FB6803F01F020B4997F907305B090120D6
:1014000000FA02F2203341F82320BFF34F8F00BFD0
:10141000BFF36F8F00BF00BF1437BD465DF8047B7C
:10142000704700BF00E100E080B483B000AF034626
:10143000FB7197F90730044A52F8233018460C37ED
:10144000BD465DF8047B7047D011002080B58AB09E
:1014500000AF786039607B687B623B681B7803F57E
:10146000800303F58C531B021A467B6A1A627B6A5F
:1014700000221A703B681B781A4640F21923D340A9
:1014800003F00103002B02D07B6A10221A707B6AE2
:101490003A68DA613B685A697B6A5A623B689A69C2
:1014A0007B6ADA627B6A00229A627A6A9378012107
:1014B00061F3010393703B685B78002B05D17A6A76
:1014C0009378022161F3010393703968786A00F020
:1014D00015FB786A00F02EFA00233B62EFF31083CD
:1014E000FB60FB683B6201233B613B6983F310882F
:1014F00000BF474B5A683B681B7819464FF00043C2
:10150000CB40DB43424913404B60414B5B683B6A35
:101510007B617B6983F3108800BF7B6A1B6A0022B2
:101520009A707B6A1B6A00221A717B6A1B6A00220E
:101530005A727B6A1B6A00229A727B6A1B6A0022BB
:10154000DA727B6A1B6A00225A833B681B781A4650
:1015500040F21923D34003F00103002B03D07B6A30
:101560001B6A4022DA747B6A1B6A06221A77396882
:10157000786A00F0E9F97B6A0022DA607B6A00226F
:101580001A617B6A00225A617B6A00229A613B6879
:10159000DB69FB61FB691B7803F00303BB61BB697B
:1015A00043F01003BB617B6ADB6993F90530184691
:1015B000FFF702FF7B6ADB6993F90B301846FFF7F0
:1015C000FBFEBB6943F04003BB617B6ADB6993F9B7
:1015D00007301846FFF7F0FE7B6ADB6993F90930A4
:1015E0001846FFF7E9FEBB6943F02003BB617B6A45
:1015F0001B6ABA69D2B29A70FB695A897B6A1A81EE
:101600007B6A044A5A60002318462837BD4680BDCD
:10161000004008405549435380B588B000AF78601A
:101620007B68FB61FB6900225A60FB691B6A002230
:101630009A70FB69DB6993F905301846FFF7D0FE15
:10164000FB69DB6993F90B301846FFF7C9FEFB69AC
:10165000DB6993F907301846FFF7C2FEFB69DB69C7
:1016600093F909301846FFF7BBFE0023BB61EFF387
:101670001083FB60FB68BB6101233B613B6983F323
:10168000108800BF0D4B5A68FB69DB691B7819464F
:101690004FF00043CB40094913434B60074B5B6855
:1016A000BB697B617B6983F3108800BFF86900F038
:1016B00041F9002318462037BD4680BD0040084050
:1016C00080B487B000AFF860B9607A60FB687B6176
:1016D00000233B617B69BA685A617B697A689A61C9
:1016E0003B6918461C37BD465DF8047B704780B4E3
:1016F00087B000AFF860B9607A60FB687B617B6996
:101700001B6A9B78DAB27B691B6A02F07B02D2B259
:101710009A707B691B78002B06D07B697A681A6106
:101720007B69BA68DA6013E07B699B78C3F30103D5
:10173000DBB21A467B689A1A7B691A617B699B78CF
:10174000C3F30103DBB21A46BB681A447B69DA6053
:101750007B691B6A9B78DAB27B691B6A62F07F0245
:10176000D2B29A707B691B78002B16D17B699B786B
:1017700003F00303DBB2022B0AD1BB681B887A6932
:10178000126A6FEAC3536FEAD3539BB2D38104E06A
:101790007B691B6ABA681278DA70002318461C3716
:1017A000BD465DF8047B704780B487B000AFF86039
:1017B000B9607A603B60FB687B617B69BA685A629A
:1017C0007B697A68DA627B693A689A620023184614
:1017D0001C37BD465DF8047B704780B584B000AF10
:1017E000786039607B68FB60FB681B6A9B78DBB2C2
:1017F00003F07B03FB72FB681B6AFA7A22F070022B
:10180000D2B29A70FB680022DA60FB681B6A396802
:10181000184600F0A0F9FB681B6AFA7A9A70002358
:1018200018461037BD4680BD80B483B000AF7860E5
:1018300039603B684FF0FF325A603B684FF0FF322F
:101840001A60002318460C37BD465DF8047B7047CC
:1018500080B584B000AF78600B46FB707B68BB60DE
:101860000623FB60FB7803F00203DBB2002B29D0D8
:101870000023FB60BB681B6A9B78DAB2BB681B6AFB
:1018800002F07B02D2B29A70BB681B78002B0ED09C
:10189000BB681A6A938A43F00403938200BFBB6853
:1018A0001B6A9B8AC3F38003DBB2002BF7D1BB68B2
:1018B00000221A61B86800F03DF8FB68002B01D0E7
:1018C000FB681EE0FB7803F00103DBB2002B17D0AE
:1018D0000023FB60BB6800229A61BB681B78002B69
:1018E0000ED0BB681A6A938A43F00203938200BF4A
:1018F000BB681B6A9B8AC3F34003DBB2002BF7D1A2
:10190000FB6818461037BD4680BD80B485B000AF77
:10191000786039607B68FB60FB689A693B681A6095
:10192000FB6800229A61002318461437BD465DF813
:10193000047B704780B483B000AF786000BF0C3781
:10194000BD465DF8047B704780B586B000AF786017
:101950003960786800F07CF83B689B781A013B6836
:10196000DB78DB0013437B61F2233B613B685B78F0
:10197000032B04D17B6943F040037B6107E03B68A4
:101980005B78002B03D13B6923F010033B617B683C
:101990001B6A7A69D2B21A707B681B6A3A69D2B242
:1019A0009A713B68DB69BB60BB681B7B082B04D169
:1019B0007B681B6A0A225A7309E0BB681B7B5B00C9
:1019C000DAB27B681B6A02F00202D2B25A730023B9
:1019D000FB60BB685B78DB01DBB2FA681343FB603A
:1019E000BB689B785B0103F02003FA681343FB603C
:1019F0007B681B6A00221A72BB681B78022B03D01B
:101A0000BB681B78032B11D17B681B6AFF225A70BD
:101A1000BB681B78022B03D1FB6843F01003FB600B
:101A20007B681B6AFA68D2B2DA710DE07B681B6AC8
:101A3000FA68D2B2DA717B681A6ABB685B681946C9
:101A4000104600F088F800BF00BF1837BD4680BDC3
:101A500080B485B000AF78607B681B78002B2AD0FB
:101A60000123FB607B68DB69DB69BB607B681B78FB
:101A7000013BBA68127A13401B0203F47063FA68E0
:101A80001343FB607B681B78013B1B039BB2FA6826
:101A90001343FB60FB689AB27B681B6A42F0060244
:101AA00092B29A8200BF7B681B6A9B8A9BB21A46DD
:101AB000FB689342F7D100BF1437BD465DF8047B45
:101AC000704780B582B000AF78600B46FB7013465C
:101AD000BB7097F902301846FFF782FC97F9023085
:101AE0001846FFF7F7FBF97897F902307A6818463D
:101AF000FFF728FC00BF0837BD4680BD80B582B027
:101B000000AF786039603B68997A3B6893F90B3095
:101B10001A467868FFF7D5FF3B6819793B6893F957
:101B200005301A467868FFF7CCFF3B6899793B6827
:101B300093F907301A467868FFF7C3FF3B68197AB4
:101B40003B6893F909301A467868FFF7BAFF00BF7F
:101B50000837BD4680BD80B483B000AF786039607F
:101B60003B689A787B685A703B685B78C3F30103E3
:101B7000D9B27A68137861F3010313703B68DA789D
:101B80007B689A747B68DB79DBB223F05C03DAB2A2
:101B90003B681B7803F05C03DBB21343DAB27B686B
:101BA000DA7100BF0C37BD465DF8047B704790B515
:101BB0008BB000AFF860B9601346FB71FB689B6A9D
:101BC0007B627B6A002B03D107F114037B6205E083
:101BD0007B6A07F114040FCB84E80F00FB68DB6914
:101BE0001B781A467B6A1A607B6ABA689A607B6ABD
:101BF000FA791A71FB68DA6A7B6ADA60FB685B6AF9
:101C0000786A9847FB689B6A002B07D0FB689B6A41
:101C10001C4607F114030FCB84E80F0000BF2C37DC
:101C2000BD4690BD80B586B000AFFFF729FB0346E7
:101C3000FB7497F913301846FFF74CFB97F91330F4
:101C40001846FFF7F1FBF860FB68DB691B69002BA6
:101C50007FD1FB681B69002B7BD0FB681B78002BB6
:101C60004AD0FB681B6ADB8AC3F30423DBB2BB6088
:101C7000BB687B612FE0FB689B7803F00303DBB25A
:101C8000022B0BD1FB68DB681B88FA68126A6FEACB
:101C9000C3536FEAD3539BB2D38105E0FB68DA6884
:101CA000FB681B6A1278DA73FB681B69FA68927822
:101CB000C2F30102D2B29A1AFB681A61FB68DB68B0
:101CC000FA689278C2F30102D2B21A44FB68DA6071
:101CD0007B6901337B61FB681B781A467B69934201
:101CE00003D2FB681B69002BC5D1FB681A6A137904
:101CF0006FF3C71313712CE0FB689B7803F00303A9
:101D0000DBB2022B0BD1FB68DB681B88FA68126A16
:101D10006FEAC3536FEAD3539BB2D38105E0FB68EC
:101D2000DA68FB681B6A1278DA70FB681B69FA686C
:101D30009278C2F30102D2B29A1AFB681A61FB6868
:101D4000DB68FA689278C2F30102D2B21A44FB68E7
:101D5000DA60FB681B69002B1BD1FB681B6A9B7850
:101D6000FB71FB7943F00403FB71FB7903F07F0304
:101D7000FB71FB681B6AFA799A70FB680022DA60D3
:101D8000FB685B6A002B04D080220021F868FFF713
:101D90000EFF00BF1837BD4680BD80B584B000AFD0
:101DA000FFF76EFA0346FB7397F90F301846FFF7FB
:101DB00091FA97F90F301846FFF736FBB860BB6809
:101DC0001B78002B0FD0BB681B6ADB8AC3F30403AC
:101DD000DBB2002B64D0BB681B6A1B8A9BB2C3F3C7
:101DE00008037B6013E0BB689B7803F00303DBB25E
:101DF000022B07D1BB681B6A1B8A9BB2C3F3080383
:101E00007B6004E0BB681B6A5B79DBB27B60BB680C
:101E10009B69002B0AD1BB685B6A002B33D07B68BF
:101E200004221946B868FFF7C2FE2CE0BB68586967
:101E3000BB689B78C3F30103DBB21A463B1D19460E
:101E400003F030FFBB685B69BA689278C2F30102A5
:101E5000D2B21A44BB685A61BB689B69BA6892786F
:101E6000C2F30102D2B29A1ABB689A61BB689B693D
:101E7000002B08D1BB685B6A002B04D00122002133
:101E8000B868FFF794FEBB681B78002B09D0BB68CD
:101E90001B6ADB8AC3F30403DBB2002B8FD100E0A3
:101EA00000BFBB681B78002B03D0BB681B6ABE2237
:101EB0001A7100BF1037BD4680BD80B582B000AF3B
:101EC000FFF7DEF90346FB7197F907301846FFF775
:101ED000ABFA38603B681B6A9B78DAB23B681B6AD6
:101EE00002F07B02D2B29A703868FFF723FD3B689C
:101EF0005B6A002B04D0022200213868FFF757FEEE
:101F000097F907301846FFF7E5F900BF0837BD46D7
:101F100080BD80B584B000AFFFF7B2F90346BB7255
:101F200097F90A301846FFF77FFA78600023FB60C4
:101F30007B681B78002B06D17B689B7803F003033A
:101F4000DBB2022B07D17B681B6A1B8A9BB2C3F3EF
:101F50000803FB6004E07B681B6A5B79DBB2FB6013
:101F60007B681B6A1B79DBB203F03803FB72FB7AD8
:101F700003F01003002B0BD07B681B6A1B7FC3F39D
:101F80000003DBB2002B03D1FB7A43F04003FB726A
:101F90007B681B6A1B79DAB27B681B6A22F0380205
:101FA000D2B21A717868FFF7C5FC7B685B6A002BB8
:101FB00005D0FB7A1A46F9687868FFF7F8FD97F9BB
:101FC0000A301846FFF786F900BF1037BD4680BDBE
:101FD00080B483B000AF0346FB800A49FB881B0A2C
:101FE0009BB21A46FB88DBB21201134451F823302E
:101FF000C3F34003DBB218460C37BD465DF8047BE3
:10200000704700BF0008084080B485B000AF0023CF
:10201000FB60EFF310837B607B68FB600123BB6098
:10202000BB6883F3108800BF0D4B1B68002B05D1E4
:102030000C4B0022DA700B4B4022DA70084B1B6805
:102040000133074A1360FB683B603B6883F31088E9
:1020500000BF00BF1437BD465DF8047B704700BF6A
:10206000CC110020000D084080B485B000AF0023E3
:10207000FB60EFF310837B607B68FB600123BB6038
:10208000BB6883F3108800BF0F4B1B68002B04D084
:102090000D4B1B68013B0C4A13600B4B1B68002B5C
:1020A00005D10A4B0022DA70084B8022DA70FB68F7
:1020B0003B603B6883F3108800BF00BF1437BD4608
:1020C0005DF8047B704700BFCC110020000D084074
:1020D00080B584B000AF786039607B68FB60FB68D6
:1020E000044A1A60386800F0D8F9002318461037FF
:1020F000BD4680BD54524F5080B485B000AF78606B
:102100007B68FB60FB6800221A60002318461437C6
:10211000BD465DF8047B704780B582B000AF786043
:102120003960386800F0B9F9002318460837BD4611
:1021300080BD80B588B000AFF8600B467A607B81C7
:102140007B89BB827B683B6101233B8307F11003E2
:10215000FB6107F11803184600F04AFAFFF754FF35
:102160007B897968184600F007FAFFF77DFF0023A6
:1021700018462037BD4680BD80B584B000AFF860FA
:102180000B467A607B817B891846FFF721FF034667
:10219000DAB27B681A70002318461037BD4680BD3E
:1021A00080B487B000AFF8600B467A607B817B8992
:1021B0001B0A9BB2DBB25B0103F1804303F50023F2
:1021C0007B617B695B689AB27B681A800023184642
:1021D0001C37BD465DF8047B704780B487B000AF04
:1021E000F860084611461A4603467B810B463B8140
:1021F0001346FB803A89FB881340FB82B7F908300D
:10220000DB431AB2B7F9063013401BB2BB827B899D
:102210001B0A9BB2DBB25B0103F1804303F5002391
:102220003B61BB8A1A04FB8A1A433B699A6000230C
:1022300018461C37BD465DF8047B704780B487B0F4
:1022400000AF78600B467B8013467B700023FB82D7
:102250000023BB827B8823F0FF037B827B88DBB279
:102260003B823B8A012202FA03F3FB817B78002B3D
:1022700002D1FB89BB8201E0FB89FB827B8A1B0ABE
:102280009BB2DBB25B0103F1804303F50023BB602B
:10229000BB8A1A04FB8A1A43BB689A60002318465B
:1022A0001C37BD465DF8047B704780B48BB000AF2F
:1022B000F860084611461A4603467B810B463B816F
:1022C0001346FB807B891B0A9BB2DBB25B0103F1E7
:1022D000804303F500237B627B6A1B683B623A897B
:1022E000FB8813409BB2FB613B89DA43FB881340B8
:1022F000BB613B6A7B617A69FB6913437B61BB69A4
:10230000DB437A6913407B617B6A7A691A60002338
:1023100018462C37BD465DF8047B704780B487B003
:1023200000AFF8600B467A607B817B891B0A9BB209
:10233000DBB25B0103F1804303F500237B617B6922
:102340005B68C3F30F439AB27B681A800023184678
:102350001C37BD465DF8047B704780B487B000AF82
:10236000F8600B467A607B817B891B0A9BB2DBB2EB
:102370005B0103F1804303F500237B617B695B68AC
:10238000C3F30F437B827B89DBB2012202FA03F3A2
:102390003B827A8A3B8A13409BB23A8A9A4203D1A3
:1023A0007B6801221A7002E07B6800221A70002309
:1023B00018461C37BD465DF8047B704780B487B073
:1023C00000AFF860084611461A4603467B810B466B
:1023D0003B811346FB803A89FB881340FB82B7F9A7
:1023E0000830DB431AB2B7F9063013401BB2BB8288
:1023F0007B891B0A9BB2DBB25B0103F1804303F5CF
:1024000000233B61BB8A1A04FB8A1A433B69DA60EA
:10241000002318461C37BD465DF8047B704780B525
:1024200084B000AF78600B467B8013467B707B885E
:102430007B817B8923F0FF037B817B893B810023A8
:10244000FB810023BB817B78012B06D17B88DBB22B
:10245000012202FA03F3FB8105E07B88DBB2012253
:1024600002FA03F3BB817B78BA89F989388900F0D5
:102470003FF8002318461037BD4680BD80B483B0B6
:1024800000AF78600B46FB701346BB7006231846FE
:102490000C37BD465DF8047B704780B584B000AF53
:1024A0007860786800F0A4F87B68BB60FFF7ACFD4B
:1024B0000023FB8111E0BB685A68FB89DB001344F1
:1024C0009888BB685A68FB89DB0013441B6819466F
:1024D00000F052F8FB890133FB81BB681B88FA8945
:1024E0009A42E8D3FFF7C0FD00BF1037BD4680BD5C
:1024F00090B484B000AF0446084611461A462346FD
:10250000FB800346BB800B467B8013467B70002319
:10251000FB60FB881B0A9BB2DBB25B0103F18043CB
:1025200003F50023BB60BB68DB68FB607B78012B95
:102530000DD1BB88FA681343FB607B881B046FEAEC
:1025400013436FEA0343FA681340FB600CE07B8897
:102550001B04FA681343FB60BB886FEA03436FEA0E
:102560001343FA681340FB60BB68FA68DA6000BF87
:102570001037BD4690BC704780B483B000AF0346AF
:102580003960FB803B6803F48033002B1CD0174973
:10259000FB881B0A9BB21A46FB88DBB212011A4465
:1025A00051F822306FF3104341F822300F48FB8876
:1025B0001B0A9BB21946FB88DBB23A6822F48032D0
:1025C00009010B4440F823200849FB881B0A9BB2F1
:1025D0001A46FB88DBB2120113443A6841F8232003
:1025E00000BF0C37BD465DF8047B7047000808400B
:1025F00080B586B000AF78600023FB730023BB7307
:1026000000237B6139E000233B6130E07B685A683E
:102610007B69DB0013449A8829493B6931F8133000
:102620009A4221D17B685A687B69DB0013441B689E
:1026300003F0F853BB60BB68B3F1807F03D0BB6885
:10264000B3F1106F08D101223B6902FA03F3DAB249
:10265000FB7B1343FB7307E001223B6902FA03F3A0
:10266000DAB2BB7B1343BB733B6901333B613B690C
:10267000022BCBD97B6901337B617B681B881A46AF
:102680007B699342BFD3012000F0CEFA0D4B93F843
:10269000BB347B737A7BFB7B13437B73BB7BDB435A
:1026A000DAB27B7B13407B73064A7B7B82F8BB34B8
:1026B000012000F069FA00BF1837BD4680BD00BF99
:1026C000D87E000000E0014080B400AF0C4B012236
:1026D000A3F8042100BF0A4BB3F804319BB2002BCE
:1026E000F9D1074B0122A3F80021064B01229A6081
:1026F000044B01221A6000BFBD465DF8047B7047A1
:1027000000C001400070004080B483B000AF0B4BAC
:1027100093F82630DBB27B60094A7B6852F823309D
:10272000064A126AC2F30262D2B2D340054A13606B
:1027300000BF0C37BD465DF8047B704700E00140E8
:10274000400400205813002080B500AF0B4B01223D
:1027500083F81C210A4B052283F82620084B094ADE
:102760001A62FFF7D1FF084BF1221A73064B0022C1
:102770001A72054BF0221A7300BF80BD00C00140E1
:1027800000E00140100101100020004080B500AFC2
:102790000B4B0C4A1A600A4B0B4A5A60084B4FF419
:1027A00000429A60064B094ADA60054B4FF400423A
:1027B0001A61034B064A5A61FFF7A6FF00BF80BDAE
:1027C00040040020002D310100127A00001BB700E8
:1027D00000E1F50580B582B000AF2F4B4AF20352FD
:1027E000A3F8FE23FFF770FFFFF7D0FF2A4B20224C
:1027F00083F81324284B092283F8A220264B93F850
:102800008034DBB2002B08D1234B012283F88024D3
:10281000012140F2C44000F055F81F4B002283F81C
:1028200081241D4B002283F880241B4B002283F857
:10283000322000BF184B93F83C30C3F3C003DBB227
:10284000012BF7D1144B43F202121A85124B0022CE
:1028500083F82A2000BF104B93F83C30C3F3401399
:10286000DBB2012BF7D1FFF76FFF0123FB710A4A9F
:10287000FB7982F83E30FB7963F07F03FB71064AF7
:10288000FB7982F83E30044B4FF42542A3F8FE2337
:1028900000BF0837BD4680BD00E0014080B483B072
:1028A00000AF786000BF0C37BD465DF8047B704711
:1028B00080B485B000AFF860B9607A603B6000BE5C
:1028C000FEE7FFFFB0B58AB000AF78603960002343
:1028D0007B627B683A6802FB03F33B62454B1B68F3
:1028E000FB61454AFB69B2FBF3F3BB613B6A1846E7
:1028F0004FF0000102460B464FF000044FF0000578
:102900005D0145EAD265540122462B46121A63EB5B
:1029100001034FF000044FF000059D0045EA927559
:10292000940022462B46121841EB03034FF000009F
:102930004FF00001D90041EA5271D00002460B4627
:10294000C7E90423D7E90423012B08BF002A08D2D2
:102950003A69BB69B2FBF3F3FB60FB689B087B62DF
:102960003DE0BB699B003A6AB2FBF3F33B623B6A12
:1029700018464FF0000102460B464FF000044FF09E
:1029800000055D0145EAD265540122462B46121A24
:1029900063EB01034FF000044FF000059D0045EA92
:1029A0009275940022462B46121841EB03034FF018
:1029B00000004FF00001D90041EA5271D0000246F8
:1029C0000B46C7E90423D7E90423012B08BF002ADB
:1029D00002D23B697B6202E04FF0FF337B627B6A8D
:1029E000002B02D0786A00F009F800BF2837BD46F6
:1029F000B0BD00BF5813002000CA9A3BA0F10100EF
:102A00000028FBD1704700BF80B582B000AF0346FD
:102A1000FB71FB79074A52F82330002B06D0FB7973
:102A2000044A52F82330FA791046984700BF083715
:102A3000BD4680BD8C11002080B582B000AF104B28
:102A4000B3F84031BB800023FB710EE0BA88FB79FC
:102A500022FA03F303F00103002B03D0FB7918469D
:102A6000FFF7D2FFFB790133FB71FB790F2BEDD917
:102A7000034ABB88A2F8303100BF0837BD4680BD8D
:102A80000060004080B58AB000AF032000F0CCF8B1
:102A9000384B6FF0FF029A643B1D0C22FF21184651
:102AA00003F00DF900237B6223E0334A7B6A32F89E
:102AB0001330002B1AD07B6A5B097B617B6A03F0C1
:102AC0001F033B617B699B0007F12802134453F805
:102AD000242C01213B6901FA03F3DB431A407B6993
:102AE0009B0007F128010B4443F8242C7B6A013337
:102AF0007B627B6A5F2BD8D9204BBB6100233B6292
:102B00001AE03B6A9B00BA691A443B6A9B0007F1D2
:102B100028010B4453F8243C136019493B6A9B007D
:102B200007F12802134453F8242C3B6AA03341F8E0
:102B300023203B6A01333B623B6A022BE1D903202D
:102B400000F022F80023FB610CE00B4AFB6932F82D
:102B500013300C4A1946FB69C03342F82310FB6955
:102B60000133FB61FB695F2BEFD900BF00BF283742
:102B7000BD4680BD008000409C7C0000708000400D
:102B800000E100E00060004080B487B000AF034681
:102B9000FB7100237B61EFF31083FB60FB687B61BB
:102BA00001233B613B6983F3108800BFFB791A4A1C
:102BB00032F813309BB2002B09D0FB79164A32F859
:102BC000132092B2013A91B2134A22F81310FB7902
:102BD000114A32F813309BB2002B11D10F4BB3F8CE
:102BE000FE339AB20E4B13439AB2FB790D4931F87A
:102BF0001330DB439BB2094913409BB2A1F8FE336B
:102C00007B69BB60BB6883F3108800BF00BF1C37C3
:102C1000BD465DF8047B70475013002000E0014082
:102C200000A5FFFFE07E000080B487B000AF034640
:102C3000FB7100237B61EFF31083FB60FB687B611A
:102C400001233B613B6983F3108800BFFB79164A7F
:102C500032F813309BB2002B0FD1144BB3F8FE3374
:102C60009AB2FB79124931F8133013439AB20F49E3
:102C7000104B13439BB2A1F8FE33FB790A4A32F89A
:102C8000132092B2013291B2074A22F813107B69E5
:102C9000BB60BB6883F3108800BF00BF1C37BD4614
:102CA0005DF8047B704700BF5013002000E0014036
:102CB000E07E000000A5FFFF80B584B000AF786023
:102CC0007B68FB60144B1B68002B02D1124B134A2C
:102CD0001A60114B1B68BB60FB68033323F00303CE
:102CE000FB600D4B1A68FB6813440D4A934207D9E9
:102CF00002F0CAFF03460C221A604FF0FF3306E0D1
:102D0000054B1A68FB681344034A1360BB681846F6
:102D10001037BD4680BD00BFC80B0020C013002087
:102D2000C023002080B500AF00F00CF8FDF7F2FEE4
:102D3000FEE780B400AF00BE00BFBD465DF8047B77
:102D40007047FFFF80B584B000AF2F4B4FF4700287
:102D5000C3F888202C4B2D4A9A600020FDF7FAFD1D
:102D6000FFF738FD0120FDF7F5FD294B3B603B687F
:102D700083F30A8800BF274A274BD31A1A4600213B
:102D8000254802F09CFF254A254BD31A1A462549AF
:102D9000234802F087FF244A244BD31A9B107B6000
:102DA0000023FB6007E0214AFB6852F82330984774
:102DB000FB680133FB60FA687B689A42F3DBFFF73C
:102DC000A3FC0320FFF730FF0023BB6009E0184A93
:102DD000BB6808334FF6FF7122F81310BB6801334C
:102DE000BB60BB68082BF2D90320FFF7CDFE0220A1
:102DF000FDF7B0FDFFF746FE0020FFF74FFD00BFD7
:102E00001037BD4680BD00BF00ED00E000000000AF
:102E1000C0230020BC1300206004002040040020D8
:102E200000000020388C00003C0400203804002002
:102E3000000D084080B483B000AF78607B6803F178
:102E400008027B685A607B684FF0FF329A607B68AB
:102E500003F108027B68DA607B6803F108027B6893
:102E60001A617B6800221A6000BF0C37BD465DF80E
:102E7000047B704780B483B000AF78607B68002229
:102E80001A6100BF0C37BD465DF8047B704780B403
:102E900085B000AF786039607B685B68FB603B6839
:102EA000FA685A60FB689A683B689A60FB689B689E
:102EB0003A685A60FB683A689A603B687A681A61B7
:102EC0007B681B685A1C7B681A6000BF1437BD46BC
:102ED0005DF8047B704780B485B000AF78603960DE
:102EE0003B681B68BB60BB68B3F1FF3F03D17B68E5
:102EF0001B69FB600CE07B680833FB6002E0FB6849
:102F00005B68FB60FB685B681B68BA689A42F6D234
:102F1000FB685A683B685A603B685B683A689A602D
:102F20003B68FA689A60FB683A685A603B687A685E
:102F30001A617B681B685A1C7B681A6000BF1437D3
:102F4000BD465DF8047B704780B485B000AF786003
:102F50007B681B69FB607B685B687A6892689A6033
:102F60007B689B687A6852685A60FB685B687A681D
:102F70009A4203D17B689A68FB685A607B6800229A
:102F80001A61FB681B685A1EFB681A60FB681B68A5
:102F900018461437BD465DF8047B704780B584B091
:102FA00000AF786039607B68FB60FB68002B06D15E
:102FB0002C4B2D4A40F20D112C48FFF779FCFEF7FF
:102FC00055F8FB681A68FB68DB6BF968096C01FB54
:102FD00003F31A44FB689A60FB6800229A63FB685B
:102FE0001A68FB685A60FB681A68FB68DB6B013B78
:102FF000F968096C01FB03F31A44FB68DA60FB68AB
:10300000FF2283F84420FB68FF2283F845203B68B9
:10301000002B15D1FB681B69002B1BD0FB681033FC
:10302000184601F093F90346002B13D0104B4FF0D4
:1030300080525A60BFF34F8F00BFBFF36F8F09E01C
:10304000FB6810331846FFF7F5FEFB68243318467B
:10305000FFF7F0FEFEF742F8012318461037BD4691
:1030600080BD00BFE87E0000D0820000F07E00003E
:1030700000ED00E080B588B002AFF860B9607A601A
:103080003B60FB68002B06D1254B264A4FF4A47108
:103090002548FFF70DFC3B68002B06D1234B214A46
:1030A0004FF4A6712048FFF703FC7B68002B09D082
:1030B000BB68002B06D11E4B1A4A4FF4A8711A4860
:1030C000FFF7F6FB7B68002B09D1BB68002B06D00D
:1030D000184B144A40F251111348FFF7E9FB4823FB
:1030E0003B613B69482B06D0134B0E4A40F2591105
:1030F0000D48FFF7DDFB3B693B687B617B69002B7B
:1031000009D097F820207B69009313467A68B96844
:10311000F86800F013F87B6918461837BD4680BD83
:10312000247F0000E4820000F07E0000487F000061
:10313000687F0000A87F0000E87F000080B584B0B1
:1031400000AFF860B9607A60FB70BB68002B03D1F8
:10315000BB69BA691A6002E0BB697A681A60BB6928
:10316000FA68DA63BB69BA681A640121B869FFF7C3
:1031700015FF00BF1037BD4680BDFFFF80B588B08A
:1031800002AFF860B9607A60FB68002B06D1134B80
:10319000134A4FF434711348FFF78AFBBA68FB688F
:1031A0009A4206D9104B0E4A40F2D1210D48FFF742
:1031B0007FFB022300937B6800220021F868FFF761
:1031C00059FF78617B69002B02D07B69BA689A63EA
:1031D0007B6918461837BD4680BD00BF04800000DB
:1031E00000830000F07E00001480000080B58AB0EB
:1031F00000AFF860B9607A603B6000237B62FB68D7
:103200003B623B6A002B06D16A4B6B4A4FF4437119
:103210006A48FFF74DFBBB68002B0AD13B6A1B6C69
:10322000002B06D0664B644A40F20D316348FFF72D
:103230003FFB3B68022B0AD13B6ADB6B012B06D0BC
:10324000604B5D4A40F20E315C48FFF731FB01F004
:103250001BFA0346002B09D17B68002B06D05A4B82
:10326000554A40F211315548FFF722FBFDF7FEFEAB
:103270003B6A9A6B3B6ADB6B9A4202D33B68022B38
:103280002CD13A68B968386A00F0E4FAF8613B6A10
:103290005B6A002B11D03B6A2433184601F056F8C4
:1032A0000346002B16D0494B4FF080525A60BFF3B3
:1032B0004F8F00BFBFF36F8F0CE0FB69002B09D06D
:1032C000424B4FF080525A60BFF34F8F00BFBFF3A5
:1032D0006F8F00BFFDF702FF012366E07B68002BC4
:1032E00003D1FDF7FBFE00235FE07B6A002B06D1D4
:1032F00007F11403184601F08FF801237B62FDF7F4
:10330000EDFE00F005FEFDF7B1FE3B6A93F8443098
:103310005BB2B3F1FF3F03D13B6A002283F8442044
:103320003B6A93F845305BB2B3F1FF3F03D13B6A90
:10333000002283F84520FDF7D1FE3A1D07F1140362
:103340001146184601F07EF80346002B25D1386A55
:1033500000F06AFB0346002B19D03B6A10337A68F1
:103360001146184600F09EFF386A00F0F5FA00F0AA
:10337000DDFD0346002B7FF479AF144B4FF08052F4
:103380005A60BFF34F8F00BFBFF36F8F0CE0386AF6
:1033900000F0E2FA00F0CAFD68E7386A00F0DCFAF3
:1033A00000F0C4FD002300E060E718462837BD4662
:1033B00080BD00BFE87E000024830000F07E000096
:1033C000348000008C800000DC80000000ED00E014
:1033D00080B58CB000AFF860B9607A603B60FB6884
:1033E000BB62BB6A002B06D1404B414A4FF4787157
:1033F0004048FFF75DFABB68002B0AD1BB6A1B6C23
:10340000002B06D03C4B3A4A40F2E1313948FFF7F5
:103410004FFA3B68022B0AD1BB6ADB6B012B06D04B
:10342000364B334A40F2E2313248FFF741FAFDF7BA
:10343000FDFEEFF311837B617B697B621023BB612F
:10344000BB6983F3118800BFBB6A9A6BBB6ADB6BF5
:103450009A4202D33B68022B3AD1BB6A93F84530BB
:1034600087F82330BB6A9B6BFB613A68B968B86A1E
:1034700000F0F0F997F92330B3F1FF3F12D1BB6AA6
:103480005B6A002B21D0BB6A2433184600F05EFF34
:103490000346002B19D07B68002B16D07B680122D5
:1034A0001A6012E097F923307F2B06D1144B104A93
:1034B00040F26B410F48FFF7FBF997F823300133D7
:1034C000DBB25AB2BB6A83F845200123FB6201E0FC
:1034D0000023FB627B6A3B613B6983F3118800BF79
:1034E000FB6A18463037BD4680BD00BFE87E00004D
:1034F00038830000F07E0000348000008C800000E3
:103500003081000080B58AB000AFF860B9607A60A1
:1035100000237B62FB683B623B6A002B06D15F4B5A
:103520005F4A40F22F515F48FFF7C2F9BB68002B9A
:103530000AD13B6A1B6C002B06D05B4B584A40F209
:1035400033515848FFF7B4F901F09EF80346002BB9
:1035500009D17B68002B06D0544B514A4FF4A76128
:103560005048FFF7A5F9FDF781FD3B6A9B6BFB61B6
:10357000FB69002B21D0B968386A00F0C7F9FB69F4
:103580005A1E3B6A9A633B6A1B69002B11D03B6A47
:103590001033184600F0DAFE0346002B09D0444BE6
:1035A0004FF080525A60BFF34F8F00BFBFF36F8F51
:1035B00000BFFDF793FD01236CE07B68002B03D176
:1035C000FDF78CFD002365E07B6A002B06D107F137
:1035D0001403184600F020FF01237B62FDF77EFDF7
:1035E00000F096FCFDF742FD3B6A93F844305BB275
:1035F000B3F1FF3F03D13B6A002283F844203B6ACA
:1036000093F845305BB2B3F1FF3F03D13B6A002230
:1036100083F84520FDF762FD3A1D07F114031146BA
:10362000184600F00FFF0346002B24D1386A00F043
:10363000E5F90346002B18D03B6A24337A6811461B
:10364000184600F02FFE386A00F086F900F06EFC94
:103650000346002B87D1164B4FF080525A60BFF3C0
:103660004F8F00BFBFF36F8F13E0386A00F074F91B
:1036700000F05CFC77E7386A00F06EF900F056FC69
:10368000386A00F0BBF90346002B3FF46CAF00230F
:1036900000E068E718462837BD4680BDD0810000AD
:1036A00054830000F07E0000DC810000DC8000001C
:1036B00000ED00E080B588B000AF7860396000238D
:1036C000FB617B68BB61BB69002B06D15B4B5C4A2D
:1036D00040F2C1515B48FFF7EBF8BB691B6C002B54
:1036E00006D0594B564A40F2C5515648FFF7E0F80C
:1036F00000F0CAFF0346002B09D13B68002B06D01F
:10370000524B4F4A40F2CA514E48FFF7D1F8FDF7ED
:10371000ADFCBB699B6B7B617B69002B1DD07B691A
:103720005A1EBB699A63BB691B69002B11D0BB6928
:103730001033184600F00AFE0346002B09D0444B14
:103740004FF080525A60BFF34F8F00BFBFF36F8FAF
:1037500000BFFDF7C3FC01236CE03B68002B03D1E5
:10376000FDF7BCFC002365E0FB69002B06D107F1E7
:103770000C03184600F050FE0123FB61FDF7AEFC80
:1037800000F0C6FBFDF772FCBB6993F844305BB2F6
:10379000B3F1FF3F03D1BB69002283F84420BB692A
:1037A00093F845305BB2B3F1FF3F03D1BB69002210
:1037B00083F84520FDF792FC3A4607F10C031146C9
:1037C000184600F03FFE0346002B24D1B86900F0F4
:1037D00015F90346002B18D0BB6924333A6811460B
:1037E000184600F05FFDB86900F0B6F800F09EFBE7
:1037F0000346002B8BD1164B4FF080525A60BFF31B
:103800004F8F00BFBFF36F8F13E0B86900F0A4F8CB
:1038100000F08CFB7BE7B86900F09EF800F086FBB7
:10382000B86900F0EBF80346002B3FF470AF0023BB
:1038300000E06CE718462037BD4680BDD08100000F
:1038400064830000F07E000050810000DC800000F6
:1038500000ED00E080B586B000AFF860B9607A6036
:1038600000233B61FB689B6B7B61FB681B6C002B3F
:1038700043D07B68002B19D1FB685868FB681B6C30
:103880001A46B96802F00EFAFB685A68FB681B6CAE
:103890001A44FB685A60FB685A68FB689B689A4246
:1038A0002BD3FB681A68FB685A6026E0FB68D8686F
:1038B000FB681B6C1A46B96802F0F4F9FB68DA6819
:1038C000FB681B6C5B421A44FB68DA60FB68DA68D1
:1038D000FB681B689A4207D2FB689A68FB681B6CFE
:1038E0005B421A44FB68DA607B68022B05D17B6976
:1038F000002B02D07B69013B7B617B695A1CFB6812
:103900009A633B6918461837BD4680BD80B582B0C2
:1039100000AF786039607B681B6C002B18D07B6827
:10392000DA687B681B6C1A447B68DA607B68DA684B
:103930007B689B689A4203D37B681A687B68DA606D
:103940007B68D9687B681B6C1A46386802F0AAF954
:1039500000BF0837BD4680BD80B584B000AF786039
:10396000FDF784FB7B6893F84530FB7311E07B68BF
:103970005B6A002B12D07B682433184600F0E6FC0B
:103980000346002B01D000F0C3FDFB7B013BDBB203
:10399000FB7397F90F30002BE9DC00E000BF7B6878
:1039A000FF2283F84520FDF799FBFDF75FFB7B685D
:1039B00093F84430BB7311E07B681B69002B12D075
:1039C0007B681033184600F0C1FC0346002B01D081
:1039D00000F09EFDBB7B013BDBB2BB7397F90E3061
:1039E000002BE9DC00E000BF7B68FF2283F8442065
:1039F000FDF774FB00BF1037BD4680BD80B584B0B5
:103A000000AF7860FDF732FB7B689B6B002B02D127
:103A10000123FB6001E00023FB60FDF75FFBFB6817
:103A200018461037BD4680BD80B584B000AF7860C1
:103A3000FDF71CFB7B689A6B7B68DB6B9A4202D1BB
:103A40000123FB6001E00023FB60FDF747FBFB68FF
:103A500018461037BD4680BD80B485B000AF786091
:103A600039600023FB6014E00F4AFB6852F83330E2
:103A7000002B0BD10C49FB683A6841F833200A4A05
:103A8000FB68DB0013447A685A6006E0FB68013388
:103A9000FB60FB68092BE7D900BF00BF1437BD46A8
:103AA0005DF8047B704700BF5C13002080B586B0D2
:103AB00000AFF860B9607A60FB687B61FDF7D6FA09
:103AC0007B6993F844305BB2B3F1FF3F03D17B696C
:103AD000002283F844207B6993F845305BB2B3F150
:103AE000FF3F03D17B69002283F84520FDF7F6FAFA
:103AF0007B699B6B002B06D17B6924337A68B9689C
:103B0000184600F0F5FB7869FFF726FF00BF18376D
:103B1000BD4680BD80B58CB004AFF860B9607A60F6
:103B20003B60FB6A002B06D1214B224A4FF41271F5
:103B30002148FEF7BDFE3B6B002B06D11F4B1D4AF3
:103B400040F249211C48FEF7B3FE60237B617B698C
:103B5000602B06D01A4B174A40F251211648FEF747
:103B6000A7FE7B693B6B002B1AD0FB6A002B17D09A
:103B70003B6BFB61FB69FA6A1A6300230393FB69E1
:103B8000029307F118030193BB6A00933B687A68BC
:103B9000B968F86800F016F8F86900F0A9F801E0D3
:103BA0000023BB61BB6918462037BD4680BD00BFFE
:103BB00078830000CC86000098830000CC8300004E
:103BC000E883000080B586B000AFF860B9607A6025
:103BD0003B60BB6A1A6B7B6803F18043013B9B002F
:103BE00013443B613B6923F007033B613B6903F0EE
:103BF0000703002B06D03B4B3B4A40F25E313B486B
:103C0000FEF756FEBB68002B21D000237B6114E039
:103C1000BA687B69134493F90010BA6A7B6913444C
:103C200034330A461A70BA687B69134493F900303A
:103C3000002B06D07B6901337B617B690F2BE7D9B1
:103C400000E000BFBB6A002283F8432003E0BB6AA8
:103C5000002283F834203B6A042B01D904233B6201
:103C6000BB6A3A6ADA62BB6A04331846FFF702F9A4
:103C7000BB6A18331846FFF7FDF8BB6ABA6A1A61C7
:103C80003B6AC3F10502BB6A9A61BB6ABA6A5A62AF
:103C9000BB6A443314220021184602F010F8BB6AB4
:103CA000583304220021184602F009F8BB6A5C333D
:103CB00001220021184602F002F8BB6A196B3B682A
:103CC000FA683869FDF778F90246BB6A1A607B6AC0
:103CD000002B02D07B6ABA6A1A6000BF1837BD4653
:103CE00080BD00BF04840000E086000098830000CF
:103CF00080B582B000AF7860FDF7B8F92C4B1B6837
:103D000001332B4A13602B4B1B68002B09D1294A26
:103D10007B681360264B1B68012B10D100F020FC40
:103D20000DE0254B1B68002B09D1224B1B68DA6A7A
:103D30007B68DB6A9A4202D81E4A7B6813601F4B7D
:103D40001B6801331D4A13607B68DA6A1C4B1B68D1
:103D50009A4203D97B68DB6A194A13607B68DA6A86
:103D600013469B0013449B00164A1A447B68043395
:103D700019461046FFF78BF8FDF7B0F90E4B1B689C
:103D8000002B10D00B4B1B68DA6A7B68DB6A9A4207
:103D900009D20D4B4FF080525A60BFF34F8F00BFD6
:103DA000BFF36F8F00BF00BF0837BD4680BD00BFA7
:103DB000A40C0020CC0B0020B00C0020C00C002074
:103DC000AC0C0020D00B002000ED00E080B584B0EA
:103DD00000AF78600023FB607B68002B13D0124B90
:103DE0001B68002B06D0114B114A40F24651114876
:103DF000FEF75EFD00F08CF80021786800F062FCB0
:103E000000F094F8F860FB68002B09D10A4B4FF0E2
:103E100080525A60BFF34F8F00BFBFF36F8F00BF58
:103E200000BF1037BD4680BDCC0C00204884000088
:103E3000F88600009883000000ED00E080B58AB0AD
:103E400004AF0023FB600023BB603A1D07F10801AB
:103E500007F10C031846FCF78BFE7968BB68FA681B
:103E6000029201930023009300230A461E491F4833
:103E7000FFF750FE03461E4A13601D4B1B68002BC4
:103E800002D001237B6101E000237B617B69012B70
:103E900002D100F06BFC78617B69012B12D1012308
:103EA0003B613B6983F3108800BF124B4FF0FF3238
:103EB0001A60114B01221A60104B00221A60FDF7A4
:103EC000BDF80AE07B69B3F1FF3F06D10C4B0D4A08
:103ED00040F63D010C48FEF7EBFC0C4B1B6800BFA5
:103EE0001837BD4680BD00BFC084000029450000D2
:103EF000C80C0020C40C0020B00C0020A80C00202E
:103F0000C884000004870000988300003800002067
:103F100080B400AF044B1B680133034A136000BF39
:103F2000BD465DF8047B7047CC0C002080B584B0A2
:103F300000AF0023FB600023BB60414B1B68002BDC
:103F400006D1404B404A4FF40B614048FEF7B0FCAD
:103F5000FDF78CF83A4B1B68013B394A1360384B2C
:103F60001B68002B64D13A4B1B68002B60D02FE0FC
:103F7000384BDB68DB68FB60FB6818331846FEF7DC
:103F8000E3FFFB6804331846FEF7DEFFFB68DA6ADE
:103F9000314B1B689A4203D9FB68DB6A2E4A1360D7
:103FA000FB68DA6A13469B0013449B002B4A1A44B1
:103FB000FB68043319461046FEF769FFFB68DA6AAE
:103FC000274B1B68DB6A9A4202D3264B01221A60F8
:103FD000204B1B68002BCBD1FB68002B01D000F0DD
:103FE00037FB214B1B687B607B68002B10D000F0F7
:103FF0004FF80346002B02D01A4B01221A607B684F
:10400000013B7B607B68002BF1D1174B00221A60CB
:10401000144B1B68002B0BD00123BB60134B4FF0DC
:1040200080525A60BFF34F8F00BFBFF36F8F00BF46
:10403000FDF754F8BB6818461037BD4680BD00BF79
:10404000CC0C0020DC84000018870000988300005E
:10405000A40C0020640C0020AC0C0020D00B00202D
:10406000CC0B0020B80C0020B40C002000ED00E0C8
:1040700080B483B000AF054B1B687B607B6818463B
:104080000C37BD465DF8047B704700BFA80C0020CC
:1040900080B586B000AF00237B61454B1B68002BC9
:1040A0007CD1444B1B6801333B61424A3B6913603E
:1040B0003B69002B1CD1404B1B681B68002B06D0B2
:1040C0003E4B3F4A40F6C3213E48FEF7F1FB3A4BD8
:1040D0001B68FB603C4B1B68374A13603A4AFB681D
:1040E00013603A4B1B680133384A136000F0B0FA92
:1040F000374B1B683A699A4249D32F4B1B681B68A0
:10410000002B04D1324B4FF0FF321A603FE02A4BB4
:104110001B68DB68DB68BB60BB685B687B603A6917
:104120007B689A4203D22A4A7B6813602FE0BB68FF
:1041300004331846FEF708FFBB689B6A002B04D0C7
:10414000BB6818331846FEF7FFFEBB68DA6A214BDE
:104150001B689A4203D9BB68DB6A1E4A1360BB68BE
:10416000DA6A13469B0013449B001B4A1A44BB683F
:10417000043319461046FEF78AFEBB68DA6A174B0D
:104180001B68DB6A9A42B8D301237B61B5E7144B05
:104190001B68002B07D001237B6104E0114B1B68D7
:1041A0000133104A13607B6918461837BD4680BD3D
:1041B000CC0C0020A80C00205C0C0020FC8400002B
:1041C0002887000098830000600C0020BC0C0020B1
:1041D000C40C0020AC0C0020D00B0020CC0B002025
:1041E000B80C0020B40C002080B582B000AF254B85
:1041F0001B68002B03D0244B01221A603DE0224BA8
:1042000000221A60214B1B687B600CE07B68002B4E
:1042100006D11F4B1F4A40F6FE311F48FEF748FBF0
:104220007B68013B7B601D497A6813469B00134401
:104230009B000B441B68002BE8D07A6813469B0058
:1042400013449B00154A13443B603B685B685A6803
:104250003B685A603B685A683B6808339A4204D10D
:104260003B685B685A683B685A603B685B68DB6820
:104270000B4A1360054A7B68136000BF0837BD46D0
:1042800080BD00BFCC0C0020B80C0020AC0C00207E
:10429000748500003C87000098830000D00B00204C
:1042A000CC0B002080B582B000AF786039607B68AD
:1042B000002B06D10A4B0B4A40F618410A48FEF77C
:1042C000F7FA0A4B1B68183319467868FEF703FEA5
:1042D0000121386800F0F6F900BF0837BD4680BDFF
:1042E000848500005087000098830000CC0B0020DC
:1042F00080B584B000AFF860B9607A60FB68002BCD
:1043000006D10E4B0E4A40F647410E48FEF7D0FA52
:104310000D4B1B6818331946F868FEF7B8FD7B682B
:10432000002B02D04FF0FF33BB607968B86800F013
:10433000C9F900BF1037BD4680BD00BF84850000AD
:104340006887000098830000CC0B002080B584B003
:1043500000AF78607B68DB68DB68BB60BB68002B04
:1043600006D1244B244A40F677412448FEF7A0FAB0
:10437000BB6818331846FEF7E7FD214B1B68002B7E
:104380001DD1BB6804331846FEF7DEFDBB68DA6A50
:104390001C4B1B689A4203D9BB68DB6A194A13603D
:1043A000BB68DA6A13469B0013449B00164A1A4402
:1043B000BB68043319461046FEF769FD05E0BB688B
:1043C000183319461148FEF762FDBB68DA6A104BD4
:1043D0001B68DB6A9A4205D90123FB600D4B012261
:1043E0001A6001E00023FB60FB6818461037BD46E9
:1043F00080BD00BFAC850000888700009883000066
:10440000CC0C0020AC0C0020D00B0020640C002051
:10441000CC0B0020B80C002080B483B000AF7860D3
:10442000064B1A687B681A60054B1A687B685A60ED
:1044300000BF0C37BD465DF8047B7047BC0C002004
:10444000A80C002080B586B000AF786039607B682A
:10445000002B06D1284B294A40F6F2412848FEF7A6
:1044600027FA3B68002B06D1264B244A40F6F3413D
:104470002348FEF71DFAFCF7F9FD234B1B683B614F
:104480007B685B683A69D31AFB603B681B68B3F1D1
:10449000FF3F02D100237B6126E07B681A681B4B3B
:1044A0001B689A420AD07B685B683A699A4205D3D6
:1044B00001237B613B6800221A6015E03B681B68A2
:1044C000FA689A420BD23B681A68FB68D21A3B68BA
:1044D0001A607868FFF7A0FF00237B6104E03B6867
:1044E00000221A6001237B61FCF7F8FD7B69184606
:1044F0001837BD4680BD00BFEC850000A4870000D2
:1045000098830000F8850000A80C0020BC0C002057
:1045100080B400AF034B01221A6000BFBD465DF8B6
:10452000047B7047B80C002080B582B000AF786083
:1045300000F056F8084B1B68012B09D9074B4FF0C8
:1045400080525A60BFF34F8F00BFBFF36F8F00BF21
:10455000FCF74AFEECE700BFD00B002000ED00E0C6
:1045600080B582B000AF00237B600CE07A68134610
:104570009B0013449B00124A13441846FEF75AFC52
:104580007B6801337B607B68042BEFD90D48FEF715
:1045900051FC0D48FEF74EFC0C48FEF74BFC0C4856
:1045A000FEF748FC0B48FEF745FC0B4B054A1A602A
:1045B0000A4B054A1A6000BF0837BD4680BD00BFE0
:1045C000D00B0020340C0020480C0020640C00208C
:1045D000780C0020900C00205C0C0020600C002067
:1045E00080B582B000AF19E0FCF740FD104BDB68EE
:1045F000DB687B607B6804331846FEF7A5FC0D4B37
:104600001B68013B0B4A13600B4B1B68013B0A4ABA
:104610001360FCF763FD786800F010F8064B1B6828
:10462000002BE1D100BF00BF0837BD4680BD00BFF1
:10463000780C0020A40C00208C0C002080B483B0E7
:1046400000AF786000BF0C37BD465DF8047B704753
:1046500080B400AF0A4B1B681B68002B04D1094BC8
:104660004FF0FF321A6005E0054B1B68DB681B68E2
:10467000044A136000BFBD465DF8047B704700BF6D
:104680005C0C0020C40C002080B483B000AF0B4B46
:104690001B68002B02D101237B6008E0084B1B68DC
:1046A000002B02D102237B6001E000237B607B684A
:1046B00018460C37BD465DF8047B7047B00C0020EF
:1046C000CC0C002080B584B000AF78603960214BFD
:1046D0001B68FB60204B1B6804331846FEF734FC54
:1046E0007B68B3F1FF3F0AD13B68002B07D01A4B20
:1046F0001B68043319461948FEF7C9FB26E0FA681F
:104700007B681344BB60144B1B68BA685A60BA6874
:10471000FB689A4209D2124B1A680F4B1B6804338C
:1047200019461046FEF7D7FB10E00E4B1A680A4BED
:104730001B68043319461046FEF7CDFB0A4B1B6875
:10474000BA689A4202D2084ABB68136000BF1037A9
:10475000BD4680BDA80C0020CC0B0020900C002092
:10476000600C00205C0C0020C40C002080B588B0D8
:1047700004AF0023FB6000F0EBFA1A4B1B68002B20
:1047800020D00023BB6000237B603A46391D07F12F
:1047900008031846FCF706FA39687B68BA68029283
:1047A00001930323009300230A460F490F48FFF7A4
:1047B000B1F903460E4A13600D4B1B68002B01D064
:1047C0000123FB60FB68002B06D10A4B0A4A40F22A
:1047D0000D110A48FEF76CF8FB6818461037BD4605
:1047E00080BD00BF000D0020BC8700003D490000D7
:1047F000040D0020C4870000AC880000CC870000B6
:1048000080B588B000AFF860B9607A603B60002383
:10481000FB61FB68002B06D11D4B1E4A4FF4C17192
:104820001D48FEF745F81D4B1B68002B2AD0BB68BE
:104830003B617B687B61FB68BB61BB68052B18DC57
:10484000FFF722FF0346022B09D1144B186807F12A
:1048500010010023BA6AFEF7C9FCF86112E00F4BA1
:10486000186807F1100100230022FEF7BFFCF86171
:1048700008E00A4B186807F1100100233A68FEF7B8
:10488000A7FDF861FB6918462037BD4680BD00BF13
:1048900048880000C4880000CC870000000D00207C
:1048A00080B586B002AF78603960204B1B68DB684A
:1048B000DB68FB60FB6804331846FEF745FBFB68CA
:1048C00093F8243003F00403002B1ED0FB689A6990
:1048D0007B68D1187B683A68F86800F0D5F8034621
:1048E000002B1BD00023009300237A680021F86876
:1048F000FFF786FFB860BB68002B0FD10C4B0D4A49
:104900004FF405710C48FDF7D3FFFB6893F8243092
:1049100023F00103DAB2FB6883F82420FB681B6AEA
:10492000F868984700BF1037BD4680BDF80C0020DE
:1049300074880000DC880000CC87000080B584B05B
:1049400000AF786007F10803184600F059F8F860E6
:10495000BB681946F86800F003F800F0D7F8F1E7F3
:1049600080B584B000AF78603960FFF7D1FA07F105
:104970000803184600F068F8F860BB68002B31D1D6
:104980003B68002B0AD17A68FB689A4206D8FFF789
:10499000CDFAF9687868FFF783FF26E03B68002BC3
:1049A00008D0144B1B681B68002B01D1012300E0C9
:1049B00000233B60104B18687A68FB68D31A3A688A
:1049C0001946FFF773F8FFF7B1FA0346002B0CD135
:1049D0000A4B4FF080525A60BFF34F8F00BFBFF3B6
:1049E0006F8F02E0FFF7A2FAFFE700BF1037BD4666
:1049F00080BD00BFFC0C0020000D002000ED00E099
:104A000080B485B000AF78600E4B1B681B68002B2C
:104A100001D1012200E000227B681A607B681B68DC
:104A2000002B05D1074B1B68DB681B68FB6001E0AE
:104A30000023FB60FB6818461437BD465DF8047B15
:104A4000704700BFF80C002080B584B000AF7860DC
:104A5000FFF70EFBF8600B4B1B68FA689A4205D211
:104A600000F010F97B6801221A6002E07B680022E6
:104A70001A60044AFB681360FB6818461037BD468D
:104A800080BD00BF080D002080B586B000AFF86083
:104A9000B9607A603B6000237B61FB68BA685A604A
:104AA000FB68FA681A61BA687B689A4212D87A6819
:104AB0003B68D21AFB689B699A4202D301237B614F
:104AC0001BE0104B1A68FB68043319461046FEF7CA
:104AD00002FA12E07A683B689A4206D2BA683B68EA
:104AE0009A4202D301237B6107E0074B1A68FB68F7
:104AF000043319461046FEF7EEF97B69184618375D
:104B0000BD4680BDFC0C0020F80C002080B58AB0AA
:104B100002AF9BE0BB68002BC0F297803B69FB6152
:104B2000FB695B69002B04D0FB6904331846FEF770
:104B30000BFA3B1D1846FFF787FFB861BB68092BCE
:104B400000F2848001A252F823F000BF754B0000F0
:104B5000754B0000754B0000E14B0000F54B000069
:104B6000374C0000754B0000754B0000E14B000016
:104B7000F54B0000FB6993F8243043F00103DAB2EF
:104B8000FB6983F82420FA68FB699B69D118FB68EC
:104B9000BA69F869FFF778FF0346002B56D0FB6926
:104BA0001B6AF8699847FB6993F8243003F0040303
:104BB000002B4BD0FA68FB699B691A4400230093D1
:104BC00000230021F869FFF71BFE78617B69002B49
:104BD0003CD1274B274A40F236312748FDF768FE83
:104BE000FB6993F8243023F00103DAB2FB6983F800
:104BF00024202BE0FB6993F8243043F00103DAB260
:104C0000FB6983F82420FA68FB699A61FB699B6958
:104C1000002B06D1194B174A40F24F311648FDF7C9
:104C200047FEFB699A69BB69D118BB69BA69F86923
:104C3000FFF72AFF0AE0FB6993F8243023F0010311
:104C4000DAB2FB6983F8242000E000BF0C4B1B683C
:104C500007F1080100221846FEF754FC0346002B1A
:104C60007FF458AF00BF00BF2037BD4680BD00BFF6
:104C700074880000F4880000CC8700007C88000065
:104C8000000D002080B588B002AF44E02B4B1B68BC
:104C9000DB681B683B61294B1B68DB68DB68FB60DA
:104CA000FB6804331846FEF74FF9FB681B6AF86887
:104CB0009847FB6893F8243003F00403002B2AD0B4
:104CC000FB689B693A691344BB60BA683B699A42C6
:104CD0000ED9FB68BA685A60FB68FA681A61174B0C
:104CE0001A68FB68043319461046FEF7F4F812E020
:104CF0000023009300233A690021F868FFF780FD44
:104D000078607B68002B06D10D4B0E4A40F2A9312A
:104D10000D48FDF7CDFD094B1B681B68002BB5D175
:104D2000064B1B687B61094B1B68044A1360074AEA
:104D30007B69136000BF1837BD4680BDF80C0020AA
:104D40007488000010890000CC870000FC0C002053
:104D500080B582B002AFFCF789F9154B1B68002BB8
:104D600020D11448FEF766F81348FEF763F8134B9A
:104D7000104A1A60124B104A1A6000230093114B1C
:104D8000114A0C210A20FEF775F90346084A136000
:104D9000074B1B68002B05D0054B1B680B491846B9
:104DA000FEF75AFEFCF79AF900BFBD4680BD00BF72
:104DB000000D0020D00C0020E40C0020F80C002096
:104DC000FC0C0020840D00200C0D0020A4880000A5
:104DD00080B588B002AFF860B9607A60FB68002BDC
:104DE00005D10F4B0F4A92210F48FDF761FDBB68BB
:104DF0007A6802FB03F3184600F04CFF03467B6120
:104E0000FB68002200927A697968B868FEF732F987
:104E10000246FB689A6400BF1837BD4680BD00BFDC
:104E200024890000548900003489000080B584B0D2
:104E300000AF786039607B68986C07F10C02002342
:104E40003968FEF7C5FA012318461037BD4680BD04
:104E500080B582B000AF78600021786800F052F928
:104E60000121786800F061F90121786800F070F99B
:104E70000121786800F07FF90121786800F02FF9AE
:104E80000A20FBF751FA0121786800F03BF9002273
:104E90002121786800F020F80022B721786800F01E
:104EA0001BF800221421786800F016F80022062171
:104EB000786800F011F800222021786800F00CF8E2
:104EC000786800F0C8F800220C21786800F004F837
:104ED00000BF0837BD4680BD80B584B000AF7860A4
:104EE0000B46FB701346BB700021786800F0F7F8A2
:104EF000BB78002B04D10021786800F016F903E09C
:104F00000121786800F011F90023FB7315E0FB78AC
:104F100023F07F03DBB21946786800F019F9FB78BB
:104F20005B00FB700021786800F025F901217868AA
:104F300000F021F9FB7B0133FB73FB7B072BE6D9E8
:104F40000121786800F0CBF800BF1037BD4680BD66
:104F500080B584B000AF78600B46FB700023BB7354
:104F6000FB78203BFB700023FB7313E0FA78F97B9E
:104F70000C4813465B0013445B0003440B441B784E
:104F8000BB73BB7B012219467868FFF7A5FFFB7B4B
:104F90000133FB73FB7B052BE8D900BF00BF103743
:104FA000BD4680BD3C00002080B584B000AF786075
:104FB0000B46FB700023BB73FB78203BFB70002388
:104FC000FB7314E0FA78F97B0D4813465B00134439
:104FD0005B0003440B441B78DB43BB73BB7B0122A8
:104FE00019467868FFF778FFFB7B0133FB73FB7B87
:104FF000052BE7D900BF00BF1037BD4680BD00BFFD
:105000003C00002080B586B000AFF860B9607A60DF
:1050100017E0BB6893F90030FB757B68002B05D166
:10502000FB7D1946F868FFF793FF07E07B68002BCC
:1050300004D0FB7D1946F868FFF7B6FFBB68013363
:10504000BB60BB6893F90030002BE2D100BF00BF0A
:105050001837BD4680BD80B584B000AF78600023AE
:10506000FB7310E00023BB7307E001220021786886
:10507000FFF732FFBB7B0133BB73BB7B532BF4D9F0
:10508000FB7B0133FB73FB7B052BEBD900BF00BF20
:105090001037BD4680BD80B584B000AF78600B4648
:1050A000FB701346BB70BB781A46520013445B007A
:1050B000FB73FB7843F04003DBB2002219467868AB
:1050C000FFF70AFFFB7B63F07F03DBB20022194688
:1050D0007868FFF701FF00BF1037BD4680BD80B57F
:1050E00082B000AF78600B46FB707B689B681B68E2
:1050F0009B687A689268F9781046984700BF08372D
:10510000BD4680BD80B582B000AF78600B46FB70B5
:105110007B681B681B689B687A681268F978104680
:10512000984700BF0837BD4680BD80B582B000AF4C
:1051300078600B46FB707B685B681B689B687A68CD
:105140005268F9781046984700BF0837BD4680BDC1
:1051500080B582B000AF78600B46FB707B681B693E
:105160001B689B687A681269F9781046984700BFF7
:105170000837BD4680BD80B582B000AF78600B4671
:10518000FB707B68DB681B689B687A68D268F9787B
:105190001046984700BF0837BD4680BD80B485B033
:1051A00000AF78607B68FB60FB6893F8843018463A
:1051B0001437BD465DF8047B704780B586B000AFFC
:1051C000F860B9601346FB800C2000F063FD0346D5
:1051D0007B617B69FA681A607B69BA685A607B698F
:1051E000FA881A817B6918461837BD4680BDFFFFD3
:1051F00080B584B000AF78603960682000F04AFD67
:105200000346FB60FB68002B01D1002317E0FB681D
:105210003A685A60FB687A681A60FB6808330122B2
:1052200080211846FFF7D4FDFB68074A1A66FB6821
:10523000064A5A66FB68002283F85C20FB68184621
:105240001037BD4680BD00BF515200009152000092
:1052500080B586B000AFF860B9607A60FB683B61EA
:105260000023FB820BE03B6903F10800FB8ABA686C
:1052700013441946FFF7DAFDFB8A0133FB82FB8AF0
:105280007A689A42EFD800BF00BF1837BD4680BD8C
:1052900080B485B000AF78607B68FB60FB6801225A
:1052A00083F85C2000BF1437BD465DF8047B70476F
:1052B00080B586B000AFF860B9601346FB80FB682C
:1052C0007B617B691B6EFA88B968F868984700BFF4
:1052D0001837BD4680BD80B584B000AF78607B686C
:1052E000FB60FB685B6E7868984700BF1037BD466F
:1052F00080BDFFFF81F0004102E000BF83F000436A
:1053000030B54FEA41044FEA430594EA050F08BF60
:1053100090EA020F1FBF54EA000C55EA020C7FEA24
:10532000645C7FEA655C00F0E2804FEA5454D4EBA1
:105330005555B8BF6D420CDD2C4480EA020281EA6B
:10534000030382EA000083EA010180EA020281EAA3
:105350000303362D88BF30BD11F0004F4FEA0131F5
:105360004FF4801C4CEA113102D0404261EB410104
:1053700013F0004F4FEA03334CEA133302D052428A
:1053800063EB430394EA050F00F0A780A4F1010446
:10539000D5F1200E0DDB02FA0EFC22FA05F2801880
:1053A00041F1000103FA0EF2801843FA05F3594166
:1053B0000EE0A5F120050EF1200E012A03FA0EFCE5
:1053C00028BF4CF0020C43FA05F3C01851EBE3710F
:1053D00001F0004507D54FF0000EDCF1000C7EEB2C
:1053E00000006EEB0101B1F5801F1BD3B1F5001F6A
:1053F0000CD349085FEA30004FEA3C0C04F1010489
:105400004FEA445212F5800F80F09A80BCF1004FB1
:1054100008BF5FEA500C50F1000041EB045141EA33
:10542000050130BD5FEA4C0C404141EB0101013CFC
:1054300028BFB1F5801FE9D291F0000F04BF0146EB
:105440000020B1FA81F308BF2033A3F10B03B3F1BD
:1054500020020CDA0C3208DD02F1140CC2F10C024D
:1054600001FA0CF021FA02F10CE002F11402D8BFAB
:10547000C2F1200C01FA02F120FA0CFCDCBF41EA77
:105480000C019040E41AA2BF01EB0451294330BD46
:105490006FEA04041F3C1CDA0C340EDC04F1140423
:1054A000C4F1200220FA04F001FA02F340EA0300FA
:1054B00021FA04F345EA030130BDC4F10C04C4F140
:1054C000200220FA02F001FA04F340EA0300294620
:1054D00030BD21FA04F0294630BD94F0000F83F46A
:1054E000801306BF81F480110134013D4EE77FEA4D
:1054F000645C18BF7FEA655C29D094EA050F08BF99
:1055000090EA020F05D054EA000C04BF1946104679
:1055100030BD91EA030F1EBF0021002030BD5FEABD
:10552000545C05D14000494128BF41F0004130BDE5
:1055300014F580043CBF01F5801130BD01F0004539
:1055400045F0FE4141F470014FF0000030BD7FEAAC
:10555000645C1ABF194610467FEA655C1CBF0B46A7
:10556000024650EA013406BF52EA033591EA030FBE
:1055700041F4002130BD00BF90F0000F04BF0021B6
:10558000704730B54FF4806404F132044FF00005E9
:105590004FF0000150E700BF90F0000F04BF002162
:1055A000704730B54FF4806404F1320410F00045C8
:1055B00048BF40424FF000013EE700BF42004FEAC3
:1055C000E2014FEA31014FEA02701FBF12F07F4340
:1055D00093F07F4F81F06051704732F07F4208BFF7
:1055E000704793F07F4F04BF41F40021704730B5FE
:1055F0004FF4607401F0004521F000411CE700BF4A
:1056000050EA010208BF704730B54FF000050AE0CC
:1056100050EA010208BF704730B511F0004502D5CD
:10562000404261EB41014FF4806404F132045FEACF
:10563000915C3FF4D8AE4FF003025FEADC0C18BF78
:1056400003325FEADC0C18BF033202EBDC02C2F16A
:10565000200300FA03FC20FA02F001FA03FE40EAFC
:105660000E0021FA02F11444BDE600BF70B54FF000
:10567000FF0C4CF4E06C1CEA11541DBF1CEA1355DE
:1056800094EA0C0F95EA0C0F00F0DEF82C4481EA46
:10569000030621EA4C5123EA4C5350EA013518BF66
:1056A00052EA033541F4801143F4801338D0A0FB53
:1056B00002CE4FF00005E1FB02E506F00042E0FB00
:1056C00003E54FF00006E1FB03569CF0000F18BF06
:1056D0004EF0010EA4F1FF04B6F5007F64F54074AE
:1056E00004D25FEA4E0E6D4146EB060642EAC62141
:1056F00041EA55514FEAC52040EA5E504FEACE2EAE
:10570000B4F1FD0C88BFBCF5E06F1ED8BEF1004FB0
:1057100008BF5FEA500E50F1000041EB045170BD2C
:1057200006F0004646EA010140EA020081EA030170
:10573000B4EB5C04C2BFD4EB0C0541EA045170BD6C
:1057400041F480114FF0000E013C00F3AB8014F1E6
:10575000360FDEBF002001F0004170BDC4F100042F
:10576000203C35DA0C341BDC04F11404C4F12005B0
:1057700000FA05F320FA04F001FA05F240EA02000B
:1057800001F0004221F0004110EBD37021FA04F641
:1057900042EB06015EEA430E08BF20EAD37070BDFB
:1057A000C4F10C04C4F1200500FA04F320FA05F05A
:1057B00001FA04F240EA020001F0004110EBD3705C
:1057C00041F100015EEA430E08BF20EAD37070BDCC
:1057D000C4F1200500FA05F24EEA020E20FA04F3A5
:1057E00001FA05F243EA020321FA04F001F0004154
:1057F00021FA04F220EA020000EBD3705EEA430EC5
:1058000008BF20EAD37070BD94F0000F0FD101F0F3
:105810000046400041EB010111F4801F08BF013C2C
:10582000F7D041EA060195F0000F18BF704703F06A
:105830000046520043EB030313F4801F08BF013DF1
:10584000F7D043EA0603704794EA0C0F0CEA1355AD
:1058500018BF95EA0C0F0CD050EA410618BF52EA67
:105860004306D1D181EA030101F000414FF000006D
:1058700070BD50EA410606BF1046194652EA43067B
:1058800019D094EA0C0F02D150EA013613D195EAEF
:105890000C0F05D152EA03361CBF104619460AD137
:1058A00081EA030101F0004141F0FE4141F4700141
:1058B0004FF0000070BD41F0FE4141F4780170BD31
:1058C00070B54FF0FF0C4CF4E06C1CEA11541DBF96
:1058D0001CEA135594EA0C0F95EA0C0F00F0A7F898
:1058E000A4EB050481EA030E52EA03354FEA0131C5
:1058F00000F088804FEA03334FF0805545EA1313D8
:1059000043EA12634FEA022245EA111545EA10659F
:105910004FEA00260EF000419D4208BF964244F136
:10592000FD0404F5407402D25B084FEA3202B61A55
:1059300065EB03055B084FEA32024FF480104FF429
:10594000002CB6EB020E75EB030E22BFB61A75469D
:1059500040EA0C005B084FEA3202B6EB020E75EB30
:10596000030E22BFB61A754640EA5C005B084FEA98
:105970003202B6EB020E75EB030E22BFB61A754665
:1059800040EA9C005B084FEA3202B6EB020E75EB70
:10599000030E22BFB61A754640EADC0055EA060E31
:1059A00018D04FEA051545EA16754FEA06164FEA74
:1059B000C30343EA52734FEAC2025FEA1C1CC0D120
:1059C00011F4801F0BD141EA00014FF000004FF0AD
:1059D000004CB6E711F4801F04BF01430020B4F16E
:1059E000FD0C88BFBCF5E06F3FF6AFAEB5EB030C26
:1059F00004BFB6EB020C5FEA500C50F1000041EB23
:105A0000045170BD0EF0004E4EEA113114EB5C04EF
:105A1000C2BFD4EB0C0541EA045170BD41F48011C2
:105A20004FF0000E013C90E645EA060E8DE60CEACA
:105A3000135594EA0C0F08BF95EA0C0F3FF43BAFE7
:105A400094EA0C0F0AD150EA01347FF434AF95EA9E
:105A50000C0F7FF425AF104619462CE795EA0C0F82
:105A600006D152EA03353FF4FDAE1046194622E74F
:105A700050EA410618BF52EA43067FF4C5AE50EA29
:105A800041047FF40DAF52EA43057FF4EBAE12E719
:105A90004FF0FF3C06E000BF4FF0010C02E000BFFA
:105AA0004FF0010C4DF804CD4FEA410C7FEA6C5CDD
:105AB0004FEA430C18BF7FEA6C5C1BD001B050EA80
:105AC000410C0CBF52EA430C91EA030F02BF90EA6B
:105AD000020F0020704710F1000F91EA030F58BF2A
