:100000009046002011440000254100001F440000DC
:100010001F4400001F4400001F4400001F44000054
:100020000000000000000000000000008916000031
:100030001F44000000000000C51600003517000036
:10004000AB25000035240000CB260000232700004C
:10005000AB25000035240000CB260000232700003C
:10006000352D0000A73D000000000000000000004A
:100070000000000000000000000000000000000080
:100080000000000000000000000000000000000070
:100090000000000000000000000000000000000060
:1000A0000000000000000000000000000000000050
:1000B0000000000000000000000000000000000040
:1000C0000000000000000000000000000000000030
:1000D0000000000000000000000000000000000020
:1000E0000000000000000000000000000000000010
:1000F0000000000000000000000000000000000000
:1001000000000000000000000000000000000000EF
:1001100000000000000000000000000000000000DF
:1001200000000000000000000000000000000000CF
:1001300000000000000000000000000000000000BF
:1001400000000000000000000000000000000000AF
:10015000000000000000000000000000000000009F
:10016000000000000000000000000000000000008F
:10017000000000000000000000000000000000007F
:10018000000000000000000000000000000000006F
:10019000000000000000000000000000000000005F
:1001A000000000000000000000000000000000004F
:1001B000000000000000000000000000000000003F
:1001C000FFFFFFFFFFFFFFFFFFFFFFFFFFFFFFFF3F
:1001D000FFFFFFFFFFFFFFFFFFFFFFFFFFFFFFFF2F
:1001E000FFFFFFFFFFFFFFFFFFFFFFFFFFFFFFFF1F
:1001F000FFFFFFFFFFFFFFFFFFFFFFFFFFFFFFFF0F
:1002000010B5054C237833B9044B13B1044800E012
:1002100000BF0123237010BD68040020000000000F
:1002200004E1000008B5034B1BB10349034800E09B
:1002300000BF08BD000000006C04002004E10000C5
:1002400080B588B000AFF860B9607A601449F8688A
:1002500009F02EF8F861FB690233FB611149F86976
:1002600009F026F8B8611049B86909F021F87861F9
:100270007B6900221A70BB693B61BB690333BB61B8
:100280003B6900221A70F969B86808F0DCFFB969A7
:10029000786808F0D8FF00BF2037BD4680BD00BF9A
:1002A000C8C90000CCC90000D0C9000080B586B024
:1002B00000AFF860B9607A60FB687B61BB683B6146
:1002C00000BF3B6907F110027968184609F090FEFB
:1002D00001467B691A1D7A610A461A601B68002B69
:1002E000EFD100BF00BF1837BD4680BD80B586B0D6
:1002F00000AF786039607B681B78002B01D1002348
:1003000040E0786808F0E8F953EC102B10461946E5
:1003100008F092F903467B61D7ED057A9FED1B7AD1
:10032000F4EEC77AF1EE10FA01D500232AE097ED3A
:10033000057ADFED166AC7EE267AFDEEE77A17EE4C
:10034000903A3B613B6907EE903AF8EEE77A9FED11
:100350000F7A67EE877A97ED057A37EE677ADFEDE9
:100360000C6AC7EE267AC7ED037A3B6907EE903A2E
:10037000B8EEE77AD7ED037A77EE277A3B68C3EDDC
:10038000007A012318461837BD4680BD0000C842D8
:100390000000704280B582B000AF78607B68044A8C
:1003A0001A6000F091F900BF0837BD4680BD00BF5C
:1003B00088040020FFFFFFFF80B582B000AF7860A7
:1003C000002000F09FF901214FF48C7003F0F0FD44
:1003D00000F08EF90121282003F0EAFD012000F051
:1003E00091F9012142F2D05003F0E2FD7B681B68D5
:1003F0005B68184607F0D0FD0DA3D3E9002307F092
:1004000023FE02460B46104619460BA3D3E90023F0
:1004100007F062FC02460B461046194608F00CF93C
:1004200002467B685A6000BF0837BD4680BD00BFEA
:10043000C3F5285C8FC2C53F9A9999999999B93F9C
:1004400080B582B000AF78607B684FF47A7202FBAF
:1004500003F3054AA2FB03239B09184605F02CF879
:1004600000BF0837BD4680BDD34D621080B582B055
:1004700000AF78600121786803F09AFD00BF08376B
:10048000BD4680BD80B483B000AF78600B46FB7082
:100490007B68FA789A72002318460C37BD465DF8DF
:1004A000047B704780B483B000AF786000231846A7
:1004B0000C37BD465DF8047B704780B584B000AF53
:1004C00078600B46FB707B68FB60FB6818687B6894
:1004D0001B89FA78194602F0BFFDB860BB68184660
:1004E0001037BD4680BD80B584B000AF78607B68B2
:1004F000FB600023FB72FB6818687B681B8907F1AF
:100500000B02194602F046FDFB7A002B01D10023B5
:1005100000E0012318461037BD4680BD80B584B089
:1005200000AF78600B46FB707B68FB60FB78002BAC
:1005300008D1FB6818687B681B890022194602F005
:1005400006FD0AE0FB78012B07D1FB6818687B6881
:100550001B890422194602F0FAFC002318461037C2
:10056000BD4680BD80B586B000AFF860B9607A60E6
:10057000FB685B687B617B691B687A68B9681846B1
:1005800001F0BDFC034618461837BD4680BD80B457
:1005900083B000AF78603960002318460C37BD4641
:1005A0005DF8047B704780B483B000AF78600B4681
:1005B000FB70002318460C37BD465DF8047B70477E
:1005C00080B483B000AF78600B46FB700023184600
:1005D0000C37BD465DF8047B704780B584B000AF32
:1005E00078607B685B68FB60FB681A68FB685B6827
:1005F0001946104601F032FB034618461037BD4637
:1006000080BD80B584B000AF78607B685B68FB60BC
:10061000FB681B68184601F007FC034618461037B4
:10062000BD4680BD80B584B000AF78607B685B68F4
:10063000FB60FB681B680221184601F011FD0346B0
:1006400018461037BD4680BD80B584B000AF7860D5
:100650007B685B68FB60FB681B680121184601F042
:10066000FFFC034618461037BD4680BD80B500AF7D
:100670000249034801F0F2FA00BF80BD20CB000020
:10068000F022002080B582B000AF78607B681B79D3
:10069000042B09D17B689B68DAB2094B1A71084BAD
:1006A0009B680748984706E07B681B79022B02D1BC
:1006B000044B01221A7000BF0837BD4680BD00BF41
:1006C000741600208404002080B500AF0549064858
:1006D00003F006F80549044803F060F800F008F854
:1006E00000BF80BDE0CA0000CC220020F8CA000094
:1006F00080B500AF024803F069F800BF80BD00BFBD
:10070000CC22002080B582B000AF0346FB71FB799C
:100710001A464FF48071034802F09EFC00BF083770
:10072000BD4680BDC422002080B400AF0A4B1B88A8
:1007300007EE903AB8EE677ADFED086AC7EE267AE0
:100740009FED077A67EE877A034BC3ED017A00BF0E
:10075000BD465DF8047B70478804002000F07F45AB
:1007600000404E4580B582B000AF78607B689B78D2
:10077000002B07D1054A0B21054803F039F8FFF794
:10078000D3FF00E000BF0837BD4680BD88040020CD
:10079000CC22002080B500AF2849294802F0A6FBF2
:1007A00002222849284807F097F90346274A136090
:1007B0002749284807F0AAF90346274A1360264B21
:1007C0001B681B681B69244A12681046984740F250
:1007D00003121C491C4807F07FF903461F4A1360A7
:1007E0004FF482721749184807F076F903461C4AFD
:1007F000136040F202421349134807F06DF90346B3
:10080000184A136040F20B120E490F4807F064F9C2
:100810000346154A136040F202320A490A4807F0BB
:100820005BF90346114A13600F220649064807F098
:1008300053F903460E4A136000BF80BDF8CB000099
:10084000C4220020C8CA0000000000209404002038
:1008500074CB0000140000209004002098040020B5
:100860009C040020A0040020A4040020A804002070
:10087000AC04002080B582B000AF7860796803488E
:1008800002F082F800BF0837BD4680BD502300202B
:1008900080B500AF0349044802F0E0F8014B184668
:1008A00080BD00BF801600205023002080B584B09A
:1008B00000AF78607B681B79042B0CD17B689B6848
:1008C0005BB2FB730A4B1B6807F10F01012218464C
:1008D00007F07CF908E07B681B79022B04D1044BFC
:1008E0001B68184607F085F900BF1037BD4680BD6C
:1008F0009004002080B500AF034A0449044808F082
:1009000047FC00BF80BD00BFD4C90000DCC90000A7
:100910000820002080B582B002AF2C4B1B682C4A07
:10092000126819462B4805F09CFF2B4B2A4A2B498D
:10093000284806F099F8274806F002F9254806F0FD
:1009400053F90346002B00D0F8E7254B254A1A60DF
:10095000234B254A5A60224B244A9A60204B244A52
:10096000DA601F4B234A1A611D4B234A5A611C4B04
:10097000224A9A611A4B224ADA61164BDB6D2149F1
:10098000184606F0ADFF204B0193204B009340F238
:100990005B731F4A0F49124806F066FF03460D4A73
:1009A000D3650C4BDB6D1B4A9A620A4BDB6D1A4A0E
:1009B000DA62084BDB6D154ADA61184A18491948A2
:1009C00008F0E6FB00BFBD4680BD00BF94040020D8
:1009D00090040020A81F002004CA000008CA0000DC
:1009E000A41E0020950A0000BD0A0000DD0A0000D8
:1009F000090B0000290B0000610B00008D0B0000AB
:100A0000B10B0000D90B00002CCA000048CA00003E
:100A100014CA0000281F0020A416002060CA00008D
:100A200068CA0000C41E002080B500AF144BDB6D07
:100A3000184606F073FF124BDB6D184606F0E0FE19
:100A40000346062B19D10F4B1B680F4A1268194633
:100A50000B4805F006FF0D4B0C4A0D49084806F0FF
:100A600003F8074806F06CF8054806F0BDF8044B9B
:100A7000DB6D0121184606F0B1FE00BF80BD00BF4E
:100A8000A81F0020940400209004002004CA000045
:100A900008CA000080B586B000AFF860B9607A601F
:100AA000FB681B687B617A68B968786906F0D6F8DC
:100AB00003465BB218461837BD4680BD80B584B08A
:100AC00000AF78607B681B68FB60F86806F084F90B
:100AD00003465BB218461037BD4680BD80B586B070
:100AE00000AFF860B9607A603B60FB681B687B61AF
:100AF0003B687A68B968786906F0F6F803465BB235
:100B000018461837BD4680BD80B584B000AF786008
:100B10007B681B68FB60F86806F044F903465BB22B
:100B200018461037BD4680BD80B588B002AFF8606A
:100B3000B9607A603B60FB681B687B6197F8203086
:100B400097F82420019200933B687A68B968786925
:100B500006F05CF903465BB218461837BD4680BD07
:100B600080B586B000AFF860B9601346FB71FB68D2
:100B70001B687B61FB791A46B968786906F0A6F9AB
:100B800003465BB218461837BD4680BD80B584B0B9
:100B900000AF786039607B681B68FB603968F86873
:100BA00006F0DAF903465BB218461037BD4680BD41
:100BB00080B586B000AFF860B9607A60FB681B68EA
:100BC0007B617A68B968786906F0ACFA03465BB273
:100BD00018461837BD4680BD80B483B000AF78603A
:100BE0000B46FB70FB78062B10D801A252F823F0BD
:100BF0000D0C00000D0C00000D0C00000D0C000091
:100C00000D0C00000D0C00000D0C000000BF00BF1B
:100C10000C37BD465DF8047B704700BF80B582B0DD
:100C200000AF084B7B60084B3B60084B1B681946C4
:100C3000786805F0AAFC3868FFF7ACFB00BF0837FE
:100C4000BD4680BD5422002060220020AC0400205C
:100C500080B582B000AF074B7B60074B3B60786884
:100C600005F040FD3868FFF7A7FB00BF0837BD4619
:100C700080BD00BF542200206022002080B582B0D9
:100C800000AF174B7B607B68164A1A617B684FF494
:100C90008072DA827B68144AC3F8A8207B68134A02
:100CA000C3F8CC217B68D3F8CC31114A9A607B68B9
:100CB000104AC3F8B4207B68D3F8B430184608F063
:100CC000CAFA0346DAB27B6883F8B8207B68002250
:100CD00083F8D021FFF7CAFC00BF0837BD4680BDAE
:100CE00080200020B0040020B005002074160020F1
:100CF000F90C00006CCA000080B584B000AF7860C9
:100D00002C4BFB602C4BD3F8E830FA681288134464
:100D10007A68043212781A70FB681B8801339AB221
:100D2000FB681A80FB681A88234B93F890319BB2BA
:100D30009A422AD37B681B790D2B03D07B681B79E1
:100D40000A2B34D11C4BD3F8E820FB681B88013BED
:100D5000134400221A70184B93F8A83283F0010351
:100D6000DBB2002B0DD0144BD3F8E810FB681B88C6
:100D7000013B1A46114807F0C1FC0F4B012283F8D2
:100D8000A822FB6800221A8011E07B681B791946B3
:100D9000094BD3F88C21FB681B88013B134493F962
:100DA0000030994203D0FB6800221A8000BF103740
:100DB000BD4680BD94200020A81F00203A210020BD
:100DC00080B582B000AF104B7B60104B1A687B6817
:100DD0009A600F4B1A687B681A600E4B1A687B6822
:100DE0005A600D4B1A687B68DA600C4B1A687B6896
:100DF0001A61786806F058FA786806F058FB00BF68
:100E00000837BD4680BD00BF6C200020A004002034
:100E1000980400209C040020A4040020A8040020C2
:100E200080B500AF00F00EF800F036F800F05AF888
:100E300000F07EF800F094F800F0AAF800F0CCF88A
:100E400000BF80BD80B582B000AF0F4B7B600C222D
:100E50000021786806F04BFB0C4BDB6D184606F062
:100E6000CFFC0346032B05D100220949786806F020
:100E7000F5FA04E000220749786806F0EFFA00BFAF
:100E80000837BD4680BD00BF6C200020A81F002091
:100E900074CA000078CA000080B586B000AF0E4B5F
:100EA0007B610E4BD3F8B032184607F075F8024656
:100EB0000B46381D0A4908F06BF9002201217869B8
:100EC00006F015FB3B1D00221946786906F0C6FAAC
:100ED00000BF1837BD4680BD6C200020A81F002031
:100EE0007CCA000080B586B000AF0E4B7B610E4B14
:100EF000D3F8B432184607F04FF802460B46381DB7
:100F00000A4908F045F907220121786906F0EFFA4D
:100F10003B1D00221946786906F0A0FA00BF183779
:100F2000BD4680BD6C200020A81F002084CA0000A0
:100F300080B582B000AF084B7B6000220221786848
:100F400006F0D5FA00220549786806F087FA00BF56
:100F50000837BD4680BD00BF6C2000208CCA000051
:100F600080B582B000AF084B7B6000220321786817
:100F700006F0BDFA00220549786806F06FFA00BF56
:100F80000837BD4680BD00BF6C20002094CA000019
:100F900080B582B000AF0D4B7B60002204217868E1
:100FA00006F0A5FA00220A49786806F057FA0022EE
:100FB0000521786806F09BFA00220649786806F059
:100FC0004DFA00BF0837BD4680BD00BF6C20002031
:100FD0009CCA0000ACCA000080B586B000AF0D4BC3
:100FE0007B6104220021786906F081FA0A4BD3F86C
:100FF000C822094BD3F8C4323846084908F0C8F86B
:101000003B4600221946786906F028FA00BF1837D7
:10101000BD4680BD6C200020A81F0020BCCA000077
:1010200080B582B000AF0346FB71FB79022B05D17E
:10103000044B5B681946044801F058FF00BF0837AD
:10104000BD4680BDC8CA0000C422002080B584B05F
:1010500000AF7860FFF7B4FE4FF47A73FB60FB6873
:10106000B3F57A7F0EDDFFF713FCB860BB689B68B1
:10107000094AC2F8C832BB685B68074AC2F8C43282
:101080000023FB60FB680A33FB60FFF7C9FE012009
:1010900004F012FAE3E700BFA81F002080B584B077
:1010A00000AF7860204BFB60FB68204AC3F8BC218E
:1010B000FB681F4AC3F8C021FFF7E0FDFB6893F807
:1010C000D031002B2BD0FB68BA331A4A19461A4884
:1010D000FFF7ECF8184B9A68FB6803F5DE731946C6
:1010E0001046FFF703F90346002B10D0124B1A6984
:1010F000FB6803F5E07319461046FFF7F7F803465F
:10110000002B04D0FB68012283F8B92003E0FB68C0
:10111000002283F8B920FB68002283F8D021012047
:1011200004F0CAF9CAE700BF802000202A4CA84179
:10113000A393D342C4CA00008C22002080B582B0A1
:1011400000AF114B7B60114B1A68114BA3FB0213CC
:101150009B0B4EF6602101FB03F3D31A002B09D140
:1011600079680C4806F040F80346002B02D17868F5
:10117000FFF780FB054B1B680133044A136000BF77
:101180000837BD4680BD00BF682200203400002023
:1011900073B2E745A81F002080B582B000AF786029
:1011A000FFF7B8FBFFF7A6FBFFF73EFCFFF7C6FF14
:1011B000012004F081F9F7E780B582B000AF7860D4
:1011C000FFF7E8FAFFF72AFDFFF742FD012004F0E0
:1011D00073F9F9E780B400AF00BFBD465DF8047B4A
:1011E000704780B500AFFFF7F5FF00BF80BD80B44A
:1011F00083B000AF7860396000BE00BF0C37BD46D9
:101200005DF8047B7047FFFF80B582B000AF204BD4
:101210001B684FF0FF31184603F0C2FD78607B6811
:10122000012B05D01A4B1B6800211846FFF7DFFF82
:10123000184B1B7883F00103DBB2002B24D0154B35
:1012400001221A70FFF7CDFF134B1B68013B124AB6
:10125000136015E00E4B186800230022002103F0F4
:101260003BFB78607B68012B05D0094B1B68002194
:101270001846FFF7BCFF084B1B68013B064A13608A
:10128000054B1B68002BE5D100BF0837BD4680BD6C
:10129000B4230020B8230020B023002080B500AF85
:1012A000124B00221A60124B00221A70114A0121BF
:1012B0004FF4807003F0D8FA03460F4A13600E4BC8
:1012C0001B68002B05D10C4B1B6800211846FFF74B
:1012D0008EFF00F0CBF800F087F800F043F800F044
:1012E00007F904F021F90023184680BDB02300203F
:1012F000B823002068230020B423002080B485B0E8
:1013000000AFF860B9607A60FB68074A1A60BB6892
:10131000064A1A607B6880221A6000BF1437BD46F7
:101320005DF8047B704700BFF005002050060020E8
:1013300080B485B000AFF860B9607A60FB68074A96
:101340001A60BB68064A1A607B6880221A6000BF78
:101350001437BD465DF8047B704700BF500800207D
:10136000B008002080B584B004AF114B1B68013376
:101370000F4A13600F4B02930F4B01930823009306
:101380000E4B4FF480720E490E4803F039FF0346AE
:101390000D4A13600C4B1B68002B05D10A4B1B68D0
:1013A00000211846FFF723FF00BFBD4680BD00BFE8
:1013B000B0230020B00A00209046002000CC00009E
:1013C00004CC0000CD130000BC23002080B582B007
:1013D00000AF7860FFF718FF7868FFF737FE00BFAF
:1013E0000837BD4680BDFFFF80B584B004AF114B08
:1013F0001B6801330F4A13600F4B02930F4B01938D
:10140000082300930E4B4FF480720E490E4803F0F0
:10141000F7FE03460D4A13600C4B1B68002B05D1E9
:101420000A4B1B6800211846FFF7E1FE00BFBD46CE
:1014300080BD00BFB0230020100B0020904A002088
:1014400008CC00000CCC000051140000C023002088
:1014500080B582B000AF7860FFF7D6FE7868FFF7FE
:101460001DFE00BF0837BD4680BDFFFF80B584B0BC
:1014700004AF114B1B6801330F4A13600F4B0293EB
:101480000F4B0193082300930E4B4FF480620E49DB
:101490000E4803F0B5FE03460D4A13600C4B1B6863
:1014A000002B05D10A4B1B6800211846FFF79FFE51
:1014B00000BFBD4680BD00BFB0230020700B0020E0
:1014C000904E002010CC000014CC0000D514000079
:1014D000C423002080B582B000AF7860FFF794FE8F
:1014E0007868FFF759FE00BF0837BD4680BDFFFF93
:1014F00080B584B004AF114B1B6801330F4A1360F1
:101500000F4B02930F4B0193082300930E4B4FF4A4
:1015100080720E490E4803F073FE03460D4A1360B5
:101520000C4B1B68002B05D10A4B1B680021184689
:10153000FFF75DFE00BFBD4680BD00BFB0230020A9
:10154000D00B0020905E002018CC00001CCC0000C6
:1015500059150000C823002080B582B000AF786024
:10156000FFF752FE7868FFF727FE00BF0837BD4639
:1015700080BDFFFF80B483B000AF03463960FB71CC
:1015800097F90730002B0ADB3B68DAB20C4997F970
:1015900007301201D2B20B4483F800230AE03B6803
:1015A000DAB20849FB7903F00F03043B1201D2B20F
:1015B0000B441A7600BF0C37BD465DF8047B7047BC
:1015C00000E100E000ED00E080B483B000AF03462E
:1015D000FB7197F90730002B09DB0D4A97F90730AB
:1015E000134493F80033DBB21B09DBB209E0094A6C
:1015F000FB7903F00F03043B13441B7EDBB21B0992
:10160000DBB218460C37BD465DF8047B704700BF5F
:1016100000E100E000ED00E080B582B000AF78604E
:101620007B68013BB3F1807F01D301230FE00A4ABD
:101630007B68013B53600F214FF0FF30FFF79AFFAB
:10164000054B00229A60044B07221A6000231846BB
:101650000837BD4680BD00BF10E000E080B483B015
:1016600000AFEFF303837B607B683B603B88C3F391
:1016700008039BB2DBB2103BDBB25BB218460C37FF
:10168000BD465DF8047B70471EF0040F0CBFEFF3FE
:101690000880EFF309800149084700BF7D1700006B
:1016A00080B400AF62B600BFBFF36F8F00BFEFF32F
:1016B000148C2CF0040C8CF31488BFF36F8F02DFB2
:1016C00000BEFDE7104B1968EFF309821EF0100F02
:1016D00008BF22ED108A22E9F04FEFF30B8342F8A6
:1016E000043D0A604FF0100080F31188BFF34F8F64
:1016F000BFF36F8F04F0EEF84FF0000080F3118815
:1017000000F004B800BF0000400C00200848016849
:101710000A6802CA81F30B88B2E8F04F1EF0100F7E
:1017200008BFB2EC108A82F30988704700BF00003E
:10173000400C002080B584B000AFEFF311837B60D4
:101740007B68FB601023BB60BB6883F3118800BF1C
:1017500004F014F80346002B03D0074B4FF08052DF
:101760005A60FB683B603B6883F3118800BF00BF91
:101770001037BD4680BD00BF00ED00E080B584B0ED
:1017800000AF78607B689B69FB60FB68023B1B785D
:10179000FB72FB7A022B03D1FFF7B8FF00BF09E011
:1017A000FB7A032B06D9054B054A40F20541054853
:1017B00002F0F4FB00BF1037BD4680BDE0CC000056
:1017C000A4CD0000F4CC000080B485B000AFF86078
:1017D000B9607A603B60FB68043BFB60FB684FF0DC
:1017E00080721A60FB68043BFB607B6823F0010297
:1017F000FB681A60FB68043BFB60114AFB681A60D7
:10180000FB68143BFB603A68FB681A60FB68043BAA
:10181000FB60FB686FF002021A60FB68203BFB6014
:10182000FB68043BFB60BB6803F12802FB681A609D
:10183000FB6818461437BD465DF8047B704700BF4F
:101840004518000080B400AF00BEFEE780B500AFD1
:10185000FF216FF00100FFF78DFE00F0DDF8064B71
:101860005B68054A43F040435360FFF719FF04F0FB
:1018700031F80023184680BD30EF00E080B584B019
:1018800000AFEFF311837B607B68FB601023BB60CC
:10189000BB6883F3118800BF0E4B1B6801330D4AF0
:1018A00013600C4B1B68012B0FD10B4AFB681360B4
:1018B0000A4B5B68C3F30803002B06D0084B094AA8
:1018C00040F2F641084802F069FB00BF1037BD4600
:1018D00080BD00BF300C0020340C002000ED00E083
:1018E0001CCD0000B8CD0000F4CC000080B582B063
:1018F00000AF0F4B1B68002B06D10E4B0E4A40F277
:10190000FF410E4802F04AFB094B1B68013B084AA5
:101910001360074B1B68002B06D1094B1B687B60CB
:101920007B6883F3118800BF00BF0837BD4680BDC8
:10193000300C002064CD0000CCCD0000F4CC0000C1
:10194000340C002080B487B000AF786000237B6146
:101950007B68002B2BD0264B9B899BB27B617B69DC
:1019600003F40043002B14D0214BB3F8FE339BB299
:101970003B611F4B4AF20252A3F8FE231C4B00228C
:101980009A813B699AB21A491A4B13439BB2A1F848
:10199000FE33BFF34F8F00BF30BFBFF36F8F00BF69
:1019A00062B600BFBFF36F8F00BF72B600BF7B6926
:1019B00003F40043002B15D00D4BB3F8FE339BB25C
:1019C000FB600B4B4AF20252A3F8FE23084B7A69E4
:1019D00092B29A81FB689AB20549064B13439BB2B7
:1019E000A1F8FE3300BF1C37BD465DF8047B70478D
:1019F00000E0014000A5FFFF80B500AF72B600BF58
:101A000003F0FCFD0120FFF79DFF62B600BF03F06D
:101A100003FE00BF80BDFFFF80B500AF054B1B6814
:101A2000054AA2FB03239B091846FFF7F5FD00BFFB
:101A300080BD00BF98250020D34D621080B582B0D4
:101A400000AFFFF70BFE0346FB7197F90730002B41
:101A500012DB97F907301846FFF7B6FD3860084BE0
:101A60001B781A463B68934206D2064B064A4FF44F
:101A7000C161064802F092FA00BF0837BD4680BD3A
:101A8000380C002078CD0000E0CD0000F4CC000040
:101A900080B483B000AFEFF303837B607B683B606F
:101AA0003B88C3F308039BB2DBB2103BDBB25BB2F3
:101AB00018460C37BD465DF8047B704780B483B090
:101AC00000AF03463960FB7197F9073004493A6863
:101AD00041F8232000BF0C37BD465DF8047B7047FA
:101AE0001024002080B483B000AF0346FB71084986
:101AF00097F9073003F1C00251F822306FF3104319
:101B000041F8223000BF0C37BD465DF8047B7047BA
:101B10000060004080B584B000AF0346FB7197F9C8
:101B200007301846FFF7DEFF97F90730FB60FB68C8
:101B300003F01F02064997F907305B09012000FAFC
:101B400002F2603341F8232000BF1037BD4680BD4C
:101B500000E100E080B584B000AF0346B9607A6070
:101B6000FB73BB68DAB2094997F90F301201D2B2A0
:101B70000B4483F8002397F90F3079681846FFF774
:101B80009DFF00BF1037BD4680BD00BF00E100E0F3
:101B900080B485B000AF0346FB7197F90730FB6056
:101BA000FB6803F01F02074997F907305B09012022
:101BB00000FA02F241F8232000BF1437BD465DF859
:101BC000047B704700E100E080B582B000AF0346BF
:101BD000FB7197F907301846FFF79CFF97F907301C
:101BE0001846FFF7D5FF00BF0837BD4680BDFFFF91
:101BF00080B485B000AF0346FB7197F90730FB60F6
:101C0000FB6803F01F020B4997F907305B090120BD
:101C100000FA02F2203341F82320BFF34F8F00BFB8
:101C2000BFF36F8F00BF00BF1437BD465DF8047B64
:101C3000704700BF00E100E080B483B000AF03460E
:101C4000FB7197F90730044A52F8233018460C37D5
:101C5000BD465DF8047B70471024002080B58AB033
:101C600000AF786039607B687B623B681B7803F566
:101C7000800303F58C531B021A467B6A1A627B6A47
:101C800000221A703B681B781A4640F21923D34091
:101C900003F00103002B02D07B6A10221A707B6ACA
:101CA0003A68DA613B685A697B6A5A623B689A69AA
:101CB0007B6ADA627B6A00229A627A6A93780121EF
:101CC00061F3010393703B685B78002B05D17A6A5E
:101CD0009378022161F3010393703968786A00F008
:101CE00015FB786A00F02EFA00233B62EFF31083B5
:101CF000FB60FB683B6201233B613B6983F3108817
:101D000000BF474B5A683B681B7819464FF00043A9
:101D1000CB40DB43424913404B60414B5B683B6A1D
:101D20007B617B6983F3108800BF7B6A1B6A00229A
:101D30009A707B6A1B6A00221A717B6A1B6A0022F6
:101D40005A727B6A1B6A00229A727B6A1B6A0022A3
:101D5000DA727B6A1B6A00225A833B681B781A4638
:101D600040F21923D34003F00103002B03D07B6A18
:101D70001B6A4022DA747B6A1B6A06221A7739686A
:101D8000786A00F0E9F97B6A0022DA607B6A002257
:101D90001A617B6A00225A617B6A00229A613B6861
:101DA000DB69FB61FB691B7803F00303BB61BB6963
:101DB00043F01003BB617B6ADB6993F90530184679
:101DC000FFF702FF7B6ADB6993F90B301846FFF7D8
:101DD000FBFEBB6943F04003BB617B6ADB6993F99F
:101DE00007301846FFF7F0FE7B6ADB6993F909308C
:101DF0001846FFF7E9FEBB6943F02003BB617B6A2D
:101E00001B6ABA69D2B29A70FB695A897B6A1A81D5
:101E10007B6A044A5A60002318462837BD4680BDB5
:101E2000004008405549435380B588B000AF786002
:101E30007B68FB61FB6900225A60FB691B6A002218
:101E40009A70FB69DB6993F905301846FFF7D0FEFD
:101E5000FB69DB6993F90B301846FFF7C9FEFB6994
:101E6000DB6993F907301846FFF7C2FEFB69DB69AF
:101E700093F909301846FFF7BBFE0023BB61EFF36F
:101E80001083FB60FB68BB6101233B613B6983F30B
:101E9000108800BF0D4B5A68FB69DB691B78194637
:101EA0004FF00043CB40094913434B60074B5B683D
:101EB000BB697B617B6983F3108800BFF86900F020
:101EC00041F9002318462037BD4680BD0040084038
:101ED00080B487B000AFF860B9607A60FB687B615E
:101EE00000233B617B69BA685A617B697A689A61B1
:101EF0003B6918461C37BD465DF8047B704780B4CB
:101F000087B000AFF860B9607A60FB687B617B697D
:101F10001B6A9B78DAB27B691B6A02F07B02D2B241
:101F20009A707B691B78002B06D07B697A681A61EE
:101F30007B69BA68DA6013E07B699B78C3F30103BD
:101F4000DBB21A467B689A1A7B691A617B699B78B7
:101F5000C3F30103DBB21A46BB681A447B69DA603B
:101F60007B691B6A9B78DAB27B691B6A62F07F022D
:101F7000D2B29A707B691B78002B16D17B699B7853
:101F800003F00303DBB2022B0AD1BB681B887A691A
:101F9000126A6FEAC3536FEAD3539BB2D38104E052
:101FA0007B691B6ABA681278DA70002318461C37FE
:101FB000BD465DF8047B704780B487B000AFF86021
:101FC000B9607A603B60FB687B617B69BA685A6282
:101FD0007B697A68DA627B693A689A6200231846FC
:101FE0001C37BD465DF8047B704780B584B000AFF8
:101FF000786039607B68FB60FB681B6A9B78DBB2AA
:1020000003F07B03FB72FB681B6AFA7A22F0700212
:10201000D2B29A70FB680022DA60FB681B6A3968EA
:10202000184600F0A0F9FB681B6AFA7A9A70002340
:1020300018461037BD4680BD80B483B000AF7860CD
:1020400039603B684FF0FF325A603B684FF0FF3217
:102050001A60002318460C37BD465DF8047B7047B4
:1020600080B584B000AF78600B46FB707B68BB60C6
:102070000623FB60FB7803F00203DBB2002B29D0C0
:102080000023FB60BB681B6A9B78DAB2BB681B6AE3
:1020900002F07B02D2B29A70BB681B78002B0ED084
:1020A000BB681A6A938A43F00403938200BFBB683B
:1020B0001B6A9B8AC3F38003DBB2002BF7D1BB689A
:1020C00000221A61B86800F03DF8FB68002B01D0CF
:1020D000FB681EE0FB7803F00103DBB2002B17D096
:1020E0000023FB60BB6800229A61BB681B78002B51
:1020F0000ED0BB681A6A938A43F00203938200BF32
:10210000BB681B6A9B8AC3F34003DBB2002BF7D189
:10211000FB6818461037BD4680BD80B485B000AF5F
:10212000786039607B68FB60FB689A693B681A607D
:10213000FB6800229A61002318461437BD465DF8FB
:10214000047B704780B483B000AF786000BF0C3769
:10215000BD465DF8047B704780B586B000AF7860FF
:102160003960786800F07CF83B689B781A013B681E
:10217000DB78DB0013437B61F2233B613B685B78D8
:10218000032B04D17B6943F040037B6107E03B688C
:102190005B78002B03D13B6923F010033B617B6824
:1021A0001B6A7A69D2B21A707B681B6A3A69D2B22A
:1021B0009A713B68DB69BB60BB681B7B082B04D151
:1021C0007B681B6A0A225A7309E0BB681B7B5B00B1
:1021D000DAB27B681B6A02F00202D2B25A730023A1
:1021E000FB60BB685B78DB01DBB2FA681343FB6022
:1021F000BB689B785B0103F02003FA681343FB6024
:102200007B681B6A00221A72BB681B78022B03D002
:10221000BB681B78032B11D17B681B6AFF225A70A5
:10222000BB681B78022B03D1FB6843F01003FB60F3
:102230007B681B6AFA68D2B2DA710DE07B681B6AB0
:10224000FA68D2B2DA717B681A6ABB685B681946B1
:10225000104600F088F800BF00BF1837BD4680BDAB
:1022600080B485B000AF78607B681B78002B2AD0E3
:102270000123FB607B68DB69DB69BB607B681B78E3
:10228000013BBA68127A13401B0203F47063FA68C8
:102290001343FB607B681B78013B1B039BB2FA680E
:1022A0001343FB60FB689AB27B681B6A42F006022C
:1022B00092B29A8200BF7B681B6A9B8A9BB21A46C5
:1022C000FB689342F7D100BF1437BD465DF8047B2D
:1022D000704780B582B000AF78600B46FB70134644
:1022E000BB7097F902301846FFF782FC97F902306D
:1022F0001846FFF7F7FBF97897F902307A68184625
:10230000FFF728FC00BF0837BD4680BD80B582B00E
:1023100000AF786039603B68997A3B6893F90B307D
:102320001A467868FFF7D5FF3B6819793B6893F93F
:1023300005301A467868FFF7CCFF3B6899793B680F
:1023400093F907301A467868FFF7C3FF3B68197A9C
:102350003B6893F909301A467868FFF7BAFF00BF67
:102360000837BD4680BD80B483B000AF7860396067
:102370003B689A787B685A703B685B78C3F30103CB
:10238000D9B27A68137861F3010313703B68DA7885
:102390007B689A747B68DB79DBB223F05C03DAB28A
:1023A0003B681B7803F05C03DBB21343DAB27B6853
:1023B000DA7100BF0C37BD465DF8047B704790B5FD
:1023C0008BB000AFF860B9601346FB71FB689B6A85
:1023D0007B627B6A002B03D107F114037B6205E06B
:1023E0007B6A07F114040FCB84E80F00FB68DB69FC
:1023F0001B781A467B6A1A607B6ABA689A607B6AA5
:10240000FA791A71FB68DA6A7B6ADA60FB685B6AE0
:10241000786A9847FB689B6A002B07D0FB689B6A29
:102420001C4607F114030FCB84E80F0000BF2C37C4
:10243000BD4690BD80B586B000AFFFF729FB0346CF
:10244000FB7497F913301846FFF74CFB97F91330DC
:102450001846FFF7F1FBF860FB68DB691B69002B8E
:102460007FD1FB681B69002B7BD0FB681B78002B9E
:102470004AD0FB681B6ADB8AC3F30423DBB2BB6070
:10248000BB687B612FE0FB689B7803F00303DBB242
:10249000022B0BD1FB68DB681B88FA68126A6FEAB3
:1024A000C3536FEAD3539BB2D38105E0FB68DA686C
:1024B000FB681B6A1278DA73FB681B69FA6892780A
:1024C000C2F30102D2B29A1AFB681A61FB68DB6898
:1024D000FA689278C2F30102D2B21A44FB68DA6059
:1024E0007B6901337B61FB681B781A467B699342E9
:1024F00003D2FB681B69002BC5D1FB681A6A1379EC
:102500006FF3C71313712CE0FB689B7803F0030390
:10251000DBB2022B0BD1FB68DB681B88FA68126AFE
:102520006FEAC3536FEAD3539BB2D38105E0FB68D4
:10253000DA68FB681B6A1278DA70FB681B69FA6854
:102540009278C2F30102D2B29A1AFB681A61FB6850
:10255000DB68FA689278C2F30102D2B21A44FB68CF
:10256000DA60FB681B69002B1BD1FB681B6A9B7838
:10257000FB71FB7943F00403FB71FB7903F07F03EC
:10258000FB71FB681B6AFA799A70FB680022DA60BB
:10259000FB685B6A002B04D080220021F868FFF7FB
:1025A0000EFF00BF1837BD4680BD80B584B000AFB8
:1025B000FFF76EFA0346FB7397F90F301846FFF7E3
:1025C00091FA97F90F301846FFF736FBB860BB68F1
:1025D0001B78002B0FD0BB681B6ADB8AC3F3040394
:1025E000DBB2002B64D0BB681B6A1B8A9BB2C3F3AF
:1025F00008037B6013E0BB689B7803F00303DBB246
:10260000022B07D1BB681B6A1B8A9BB2C3F308036A
:102610007B6004E0BB681B6A5B79DBB27B60BB68F4
:102620009B69002B0AD1BB685B6A002B33D07B68A7
:1026300004221946B868FFF7C2FE2CE0BB6858694F
:10264000BB689B78C3F30103DBB21A463B1D1946F6
:1026500006F054F8BB685B69BA689278C2F301026D
:10266000D2B21A44BB685A61BB689B69BA68927857
:10267000C2F30102D2B29A1ABB689A61BB689B6925
:10268000002B08D1BB685B6A002B04D0012200211B
:10269000B868FFF794FEBB681B78002B09D0BB68B5
:1026A0001B6ADB8AC3F30403DBB2002B8FD100E08B
:1026B00000BFBB681B78002B03D0BB681B6ABE221F
:1026C0001A7100BF1037BD4680BD80B582B000AF23
:1026D000FFF7DEF90346FB7197F907301846FFF75D
:1026E000ABFA38603B681B6A9B78DAB23B681B6ABE
:1026F00002F07B02D2B29A703868FFF723FD3B6884
:102700005B6A002B04D0022200213868FFF757FED5
:1027100097F907301846FFF7E5F900BF0837BD46BF
:1027200080BD80B584B000AFFFF7B2F90346BB723D
:1027300097F90A301846FFF77FFA78600023FB60AC
:102740007B681B78002B06D17B689B7803F0030322
:10275000DBB2022B07D17B681B6A1B8A9BB2C3F3D7
:102760000803FB6004E07B681B6A5B79DBB2FB60FB
:102770007B681B6A1B79DBB203F03803FB72FB7AC0
:1027800003F01003002B0BD07B681B6A1B7FC3F385
:102790000003DBB2002B03D1FB7A43F04003FB7252
:1027A0007B681B6A1B79DAB27B681B6A22F03802ED
:1027B000D2B21A717868FFF7C5FC7B685B6A002BA0
:1027C00005D0FB7A1A46F9687868FFF7F8FD97F9A3
:1027D0000A301846FFF786F900BF1037BD4680BDA6
:1027E00080B483B000AF0346FB7197F90730002B2C
:1027F0000DDB0A4A97F907305B0952F82320FB7971
:1028000003F01F0322FA03F303F0010300E00023A7
:1028100018460C37BD465DF8047B704700E100E0C8
:1028200080B483B000AFEFF303837B607B683B60D1
:102830003B88C3F308039BB2DBB2103BDBB25BB255
:1028400018460C37BD465DF8047B704780B483B0F2
:1028500000AF0346FB71084997F9073003F1C00246
:1028600051F822306FF3104341F8223000BF0C378B
:10287000BD465DF8047B70470060004080B584B0C1
:1028800000AF0346FB7197F907301846FFF7DEFFEC
:1028900097F90730FB60FB6803F01F02064997F9C0
:1028A00007305B09012000FA02F2603341F823206F
:1028B00000BF1037BD4680BD00E100E080B485B0A8
:1028C00000AF0346FB7197F90730FB60FB6803F02C
:1028D0001F02074997F907305B09012000FA02F24D
:1028E00041F8232000BF1437BD465DF8047B7047D4
:1028F00000E100E080B582B000AF0346FB7197F9BC
:1029000007301846FFF7BAFF97F907301846FFF768
:10291000D5FF00BF0837BD4680BDFFFF80B485B03E
:1029200000AF0346FB7197F90730FB60FB6803F0CB
:102930001F020B4997F907305B09012000FA02F2E8
:10294000203341F82320BFF34F8F00BFBFF36F8FB9
:1029500000BF00BF1437BD465DF8047B704700BF61
:1029600000E100E080B483B000AF0346FB7197F94B
:102970000730044A52F8233018460C37BD465DF83C
:10298000047B70471024002090B585B000AF7860BC
:1029900039600023FB607B68BB60002000F0E6F834
:1029A0003B681B68DBB22C4C184600F0DDF903468F
:1029B000A3703B685B68DBB2274C184600F0D4F983
:1029C000034623713B689B68DBB2184600F0CCF9E4
:1029D00003461A46204B02F03F02D2B29A713B687E
:1029E0009B69DBB21C4C184600F0BEF9034623720B
:1029F0003B68DB68DBB2184C184600F0B5F90346BB
:102A0000A3723B681B69DBB20133DBB2124C184680
:102A100000F0AAF9034623733B685B69DBB2643BB1
:102A2000DBB2184600F0A0F903461A460A4B92B2F0
:102A3000DA81BB685B681B78002B05D1BB685B68DB
:102A40009B68184600F0F6F8012000F08FF8FB684C
:102A500018461437BD4690BD0030084080B586B09A
:102A600000AF786039607B687B6100233B617B69E4
:102A70005B6893F911301846FFF7B2FEF860FB6807
:102A8000002B0AD10221012000F094F87B695B68D9
:102A900093F911301846FFF72DFF7B6900221A7257
:102AA000314B9B78DBB2184600F086F903461A4694
:102AB0003B681A602C4B1B79DBB2184600F07CF99E
:102AC00003461A463B685A60274B9B79DBB203F0FA
:102AD0003F03DBB2184600F06FF903461A463B6825
:102AE0009A60214B1B7ADBB2184600F065F9034669
:102AF0001A463B689A611C4B9B7ADBB2184600F081
:102B00005BF903461A463B68DA60174B1B7BDBB266
:102B1000184600F051F903465A1E3B681A61124BE1
:102B2000DB899BB2DBB2184600F046F9034603F19D
:102B300064023B685A617B691B7ADBB2002BACD123
:102B4000FB68002B0AD10221002000F033F87B69DA
:102B50005B6893F911301846FFF7E0FE3B691846B1
:102B60001837BD4680BD00BF0030084080B483B038
:102B700000AF0346FB710E4AFB7903F00103D9B2A3
:102B800092F8243061F3000382F8243000BF084B30
:102B900093F82430C3F30003DBB21A46FB799A4260
:102BA000F5D100BF00BF0C37BD465DF8047B704710
:102BB0000030084080B483B000AF03460A46FB7182
:102BC0001346BB71FB79002B15D0194B93F82230BB
:102BD000DAB21749BB791343DBB281F8223000BF68
:102BE000134B93F82230DAB2BB791340DBB2BA79D7
:102BF0009A42F5D115E00E4B93F82230DAB2BB7948
:102C0000DB43DBB20A491340DBB281F8223000BF5C
:102C1000074B93F82230DAB2BB791340DBB2002BBA
:102C2000F6D100BF0C37BD465DF8047B704700BF8E
:102C30000030084080B485B000AF78600023FB739B
:102C40007B681B78BB737B685B787B737B689B7846
:102C50003B737B685B68BB60354B93F82430C3F3F0
:102C60000013DBB21A46BB7B934220D0304B0022CC
:102C700083F82E2000BF2E4B93F82E30DBB2002BB2
:102C8000F9D12B4ABB7B03F00103D9B292F824306F
:102C900061F3041382F8243000BF254B93F82430ED
:102CA000C3F30013DBB21A46BB7B9A42F5D1BB7B60
:102CB000012B1FD11E4B93F82430C3F34013DBB21A
:102CC0001A467B7B934215D0194A7B7B03F00103A4
:102CD000D9B292F8243061F3451382F8243000BF52
:102CE000134B93F82430C3F34013DBB21A467B7BBB
:102CF0009A42F5D13B7B9B01DAB2BB68DBB203F0B1
:102D00003F03DBB21343FB73094AFB7B82F82E308F
:102D100000BF074B93F82E30DBB2FA7B9A42F8D112
:102D200000BF00BF1437BD465DF8047B704700BF8D
:102D30000030084080B582B000AFFFF771FD034658
:102D4000FB7197F907301846FFF70CFE38603B68B7
:102D500001221A7297F907301846FFF777FD00BF76
:102D60000837BD4680BDFFFF80B483B000AF034687
:102D7000FB71FB790F4AA2FB0323DB08DBB21B01CB
:102D80005BB223F00F0358B2FA790A4BA3FB02138C
:102D9000D9080B469B000B445B00D31ADBB25BB235
:102DA00003435BB2DBB218460C37BD465DF8047BCB
:102DB000704700BFCDCCCCCC80B483B000AF03460D
:102DC000FB71FB791B09DBB21A46920013445B00CE
:102DD000DAB2FB7903F00F03DBB21344DBB218461F
:102DE0000C37BD465DF8047B7047FFFF80B483B0AD
:102DF00000AF0346FB800A49FB881B0A9BB21A46B8
:102E0000FB88DBB21201134451F82330C3F34003B3
:102E1000DBB218460C37BD465DF8047B704700BF37
:102E20000008084080B485B000AF0023FB60EFF3DA
:102E300010837B607B68FB600123BB60BB6883F30E
:102E4000108800BF0D4B1B68002B05D10C4B0022D6
:102E5000DA700B4B4022DA70084B1B680133074ACB
:102E60001360FB683B603B6883F3108800BF00BFC2
:102E70001437BD465DF8047B704700BF0C2400206A
:102E8000000D084080B485B000AF0023FB60EFF375
:102E900010837B607B68FB600123BB60BB6883F3AE
:102EA000108800BF0F4B1B68002B04D00D4B1B6814
:102EB000013B0C4A13600B4B1B68002B05D10A4BDE
:102EC0000022DA70084B8022DA70FB683B603B68B6
:102ED00083F3108800BF00BF1437BD465DF8047B44
:102EE000704700BF0C240020000D084080B584B05E
:102EF00000AF786039607B68FB60FB68044A1A6049
:102F0000386800F0D8F9002318461037BD4680BD58
:102F100054524F5080B485B000AF78607B68FB603E
:102F2000FB6800221A60002318461437BD465DF87E
:102F3000047B704780B582B000AF78603960386834
:102F400000F0B9F9002318460837BD4680BD80B5AA
:102F500088B000AFF8600B467A607B817B89BB82CA
:102F60007B683B6101233B8307F11003FB6107F1A1
:102F70001803184600F04AFAFFF754FF7B89796876
:102F8000184600F007FAFFF77DFF002318462037A8
:102F9000BD4680BD80B584B000AFF8600B467A6056
:102FA0007B817B891846FFF721FF0346DAB27B68F5
:102FB0001A70002318461037BD4680BD80B487B014
:102FC00000AFF8600B467A607B817B891B0A9BB25D
:102FD000DBB25B0103F1804303F500237B617B6976
:102FE0005B689AB27B681A80002318461C37BD467E
:102FF0005DF8047B704780B487B000AFF860084686
:1030000011461A4603467B810B463B811346FB80E3
:103010003A89FB881340FB82B7F90830DB431AB2C8
:10302000B7F9063013401BB2BB827B891B0A9BB2E7
:10303000DBB25B0103F1804303F500233B61BB8AF4
:103040001A04FB8A1A433B699A60002318461C370E
:10305000BD465DF8047B704780B487B000AF7860F0
:103060000B467B8013467B700023FB820023BB82D0
:103070007B8823F0FF037B827B88DBB23B823B8A29
:10308000012202FA03F3FB817B78002B02D1FB893A
:10309000BB8201E0FB89FB827B8A1B0A9BB2DBB20D
:1030A0005B0103F1804303F50023BB60BB8A1A0474
:1030B000FB8A1A43BB689A60002318461C37BD463A
:1030C0005DF8047B704780B48BB000AFF8600846B1
:1030D00011461A4603467B810B463B811346FB8013
:1030E0007B891B0A9BB2DBB25B0103F1804303F5D2
:1030F00000237B627B6A1B683B623A89FB88134032
:103100009BB2FB613B89DA43FB881340BB613B6A9E
:103110007B617A69FB6913437B61BB69DB437A6935
:1031200013407B617B6A7A691A60002318462C374A
:10313000BD465DF8047B704780B487B000AFF8608F
:103140000B467A607B817B891B0A9BB2DBB25B01F9
:1031500003F1804303F500237B617B695B68C3F364
:103160000F439AB27B681A80002318461C37BD466D
:103170005DF8047B704780B487B000AFF8600B4601
:103180007A607B817B891B0A9BB2DBB25B0103F116
:10319000804303F500237B617B695B68C3F30F43C6
:1031A0007B827B89DBB2012202FA03F33B827A8ABB
:1031B0003B8A13409BB23A8A9A4203D17B68012230
:1031C0001A7002E07B6800221A70002318461C3730
:1031D000BD465DF8047B704780B487B000AFF860EF
:1031E000084611461A4603467B810B463B8113462F
:1031F000FB803A89FB881340FB82B7F90830DB4338
:103200001AB2B7F9063013401BB2BB827B891B0A86
:103210009BB2DBB25B0103F1804303F500233B610A
:10322000BB8A1A04FB8A1A433B69DA6000231846FA
:103230001C37BD465DF8047B704780B584B000AF95
:1032400078600B467B8013467B707B887B817B8913
:1032500023F0FF037B817B893B810023FB810023DB
:10326000BB817B78012B06D17B88DBB2012202FA7D
:1032700003F3FB8105E07B88DBB2012202FA03F352
:10328000BB817B78BA89F989388900F03FF800233F
:1032900018461037BD4680BD80B483B000AF78605B
:1032A0000B46FB701346BB70062318460C37BD4611
:1032B0005DF8047B704780B584B000AF78607868B3
:1032C00000F0A4F87B68BB60FFF7ACFD0023FB8136
:1032D00011E0BB685A68FB89DB0013449888BB681F
:1032E0005A68FB89DB0013441B68194600F052F84A
:1032F000FB890133FB81BB681B88FA899A42E8D3BA
:10330000FFF7C0FD00BF1037BD4680BD90B484B04C
:1033100000AF0446084611461A462346FB80034682
:10332000BB800B467B8013467B700023FB60FB88D1
:103330001B0A9BB2DBB25B0103F1804303F5002360
:10334000BB60BB68DB68FB607B78012B0DD1BB8861
:10335000FA681343FB607B881B046FEA13436FEA30
:103360000343FA681340FB600CE07B881B04FA6897
:103370001343FB60BB886FEA03436FEA1343FA68A9
:103380001340FB60BB68FA68DA6000BF1037BD46C7
:1033900090BC704780B483B000AF03463960FB80B7
:1033A0003B6803F48033002B1CD01749FB881B0AB1
:1033B0009BB21A46FB88DBB212011A4451F8223044
:1033C0006FF3104341F822300F48FB881B0A9BB271
:1033D0001946FB88DBB23A6822F4803209010B44BB
:1033E00040F823200849FB881B0A9BB21A46FB8839
:1033F000DBB2120113443A6841F8232000BF0C37B6
:10340000BD465DF8047B70470008084080B586B073
:1034100000AF78600023FB730023BB7300237B6144
:1034200039E000233B6130E07B685A687B69DB0050
:1034300013449A8829493B6931F813309A4221D1C3
:103440007B685A687B69DB0013441B6803F0F85300
:10345000BB60BB68B3F1807F03D0BB68B3F1106F72
:1034600008D101223B6902FA03F3DAB2FB7B134372
:10347000FB7307E001223B6902FA03F3DAB2BB7B7C
:103480001343BB733B6901333B613B69022BCBD9CF
:103490007B6901337B617B681B881A467B69934299
:1034A000BFD3012000F036FF0D4B93F8BB347B7384
:1034B0007A7BFB7B13437B73BB7BDB43DAB27B7B87
:1034C00013407B73064A7B7B82F8BB34012000F0FB
:1034D000D1FE00BF1837BD4680BD00BF5CCE0000E6
:1034E00000E0014080B483B000AFEFF303837B6062
:1034F0007B683B603B88C3F308039BB2DBB2103BA5
:10350000DBB25BB218460C37BD465DF8047B7047F2
:1035100080B487B000AF0346FB710E4B1B6A7B6122
:103520007B691B0E03F007033B61FB797A6922FA82
:1035300003F303F00703FB60074B1A683B699A40EB
:10354000FB6822FA03F318461C37BD465DF8047B7E
:10355000704700BF00E001409825002080B483B090
:1035600000AF03463960FB7197F9073004493A68A8
:1035700041F8232000BF0C37BD465DF8047B70473F
:103580001024002080B483B000AF0346FB710849CB
:1035900097F9073003F1C00251F822306FF310435E
:1035A00041F8223000BF0C37BD465DF8047B704700
:1035B0000060004080B584B000AF0346FB7197F90E
:1035C00007301846FFF7DEFF97F90730FB60FB680E
:1035D00003F01F02064997F907305B09012000FA42
:1035E00002F2603341F8232000BF1037BD4680BD92
:1035F00000E100E080B584B000AF0346B9607A60B6
:10360000FB73BB68DAB2094997F90F301201D2B2E5
:103610000B4483F8002397F90F3079681846FFF7B9
:103620009DFF00BF1037BD4680BD00BF00E100E038
:1036300080B485B000AF0346FB7197F90730FB609B
:10364000FB6803F01F02074997F907305B09012067
:1036500000FA02F241F8232000BF1437BD465DF89E
:10366000047B704700E100E080B582B000AF034604
:10367000FB7197F907301846FFF79CFF97F9073061
:103680001846FFF7D5FF00BF0837BD4680BD80B59F
:1036900084B000AF0346B9607A60FB7397F90F30CE
:1036A0007A68B9681846FFF7A5FF97F90F301846F2
:1036B000FFF7DAFF00BF1037BD4680BD80B483B08E
:1036C00000AF0346FB7197F90730044A52F82330E4
:1036D00018460C37BD465DF8047B70471024002067
:1036E00080B586B000AF786039607B687B613B68ED
:1036F0005B693B617B693A685A603B68DA687B6961
:103700009A613B681A697B691A627B690022DA61F7
:103710004FF40073FB603B681B881A46FB6803FB91
:1037200002F303F1804303F5B8131A467B691A606C
:103730003968786900F076F83B6893F906003B68D1
:103740001B7A7A69194600F0B3FA3B6893F90700CF
:103750003B685B7A7A69194600F0AAFA3B6993F9EB
:1037600006003B691B7A7A69194600F0A1FA3B69A9
:1037700093F907003B695B7A7A69194600F098FA79
:103780007B6900221A617B69034A9A60002318460C
:103790001837BD4680BD00BF4344415280B586B056
:1037A00000AF786039603B687B617B683B610023D8
:1037B000FB607969386900F089F97B691A683B69AF
:1037C0001A61FB6818461837BD4680BD80B485B0C5
:1037D00000AF78607B68FB60FB681B68FA68928AC0
:1037E0001A80002318461437BD465DF8047B7047E5
:1037F00080B487B000AFF8600B467A60FB72FB685C
:103800007B617B691B6897F90B20103233F812300B
:103810009AB27B681A80002318461C37BD465DF8B3
:10382000047B704780B48DB000AF786039603B682E
:103830005B693B623B689B785B03FB62FB6A43F01E
:103840004003FB623B685B791B02FA6A1343FB622D
:103850003B6ADB78002B04D0FB6A43F42073FB62E5
:1038600007E03B685B79002B03D1FB6A43F400431C
:10387000FB62FB6A9AB27B689A820023BB623B6858
:103880005B79022B06D13B6ADB781A46354B53F83D
:103890002230BB620023FB613B68DB785B00FA6986
:1038A0001343FB613B681B79DB03FA691343FB613C
:1038B0003B6A5B785B01FA691343FB613B6A1B78E7
:1038C000BB6100237B61EFF31083BB60BB687B614E
:1038D0000123FB60FB6883F3108800BF224BDA688A
:1038E0003B681B88C3F11003012101FA03F3DB439A
:1038F0001D491340CB601C4BDB687B693B613B6916
:1039000083F3108800BFFB6A99B27B681A6847F698
:10391000FF530B409BB213807B681B68BA6A92B25C
:103920001A827B681B68FA6992B2DA817B681B682D
:10393000BA69D2B21A73002387F827303B6A5B79E1
:10394000012B02D1012387F827307B681B6897F889
:10395000272083F8D02000BF3437BD465DF8047BB4
:10396000704700BF64CE00000040084080B58AB0B8
:1039700000AF786039600023FB6007F10C03184644
:1039800000F07CF83B681A683B685B6813433B6255
:1039900000237B623B6A03F08053002B3CD0002362
:1039A000FB61EFF310833B613B69FB6101237B61AA
:1039B0007B6983F3108800BF2E4BDB682D4A23F40C
:1039C0008003D3602B4BDB68FB69BB61BB6983F36E
:1039D000108800BF284B90221A70FA687B681B6819
:1039E000D2B283F8DE203B681B6803F08053002BC3
:1039F00004D07B6A43F480737B6203E07B6A43F408
:103A000080637B623B689B6803F08053002B03D08C
:103A10007B6A43F001037B623B6A03F00053002B97
:103A20001ED0FA687B681B68D2B283F8DF203B683F
:103A30001B6803F00053002B04D07B6A43F400732F
:103A40007B6203E07B6A43F400637B623B689B68B4
:103A500003F00053002B03D07B6A43F002037B6228
:103A60007B681B687A6A92B25A8200BF2837BD46CB
:103A700080BD00BF0040084000300F4080B584B0DA
:103A800000AF78600420FFF743FDB860BB680D4AC3
:103A9000A2FB03239B0941F2360202FB03F30A4A0D
:103AA000A2FB03239B0C0133FB60FB68062B01D8B0
:103AB0000723FB607B68FA681A6000BF1037BD46B9
:103AC00080BD00BFD34D621083DE1B4380B58CB038
:103AD00000AF786039603B681B6823F04053BB62DD
:103AE0007B685B685B697B623B685B6823F0405383
:103AF0003B623B689B6823F04053FB617B681B681B
:103B0000BA6A92B29A807B681B683A6A92B29A82C9
:103B10007B681B68FA6992B21A81BB6A1A0C7B68CF
:103B20001B6892B2DA803B6A1A0C7B681B6892B2FF
:103B3000DA82FB691A0C7B681B6892B25A813B6877
:103B40001A683B685B681343BB61BB6903F0405371
:103B5000002B03D039687868FFF708FF3B68DB6803
:103B60007B610023FB857B69002B66D07B691B8909
:103B7000FB857B691B8903F40063002B41D07B68C4
:103B80001B687A691289A3F890207B681B687A69A0
:103B90005289A3F89C207B681B687A699289A3F8F4
:103BA0009E207B691A687B681B6892B2A3F89420F8
:103BB0007B691B681B011A0D7B681B6892B2A3F816
:103BC00096207B691B681A0F7B681B68D2B283F84A
:103BD00092207B695A687B681B6892B2A3F8982090
:103BE0007B695B681B011A0D7B681B6892B2A3F8A6
:103BF0009A207B695B681A0F7B681B68D2B283F8D6
:103C000093207B691B8903F40073002B15D07B691B
:103C1000997C7B69DA7C7B681B680A43D2B283F8A3
:103C2000A6207B681B687A69D289A3F8A8207B68E4
:103C30001B687A69128AA3F8AA207B681B68FA8D30
:103C4000A3F890207B681B683A68128AA3F880204A
:103C50007B6ADB78002B22D07B681B681B889BB2B9
:103C60003B613B6923F01F03BA6AFA60FA68002AD5
:103C700001D1202203E0FA68B2FA82F2D2B29B1A92
:103C80001F333B617B681B683A6992B21A807B687C
:103C90009A8A3B699BB213439AB27B689A827B688B
:103CA000024ADA6000BF3037BD4680BD434441520E
:103CB00080B582B000AF03463A60FB710B46BB7122
:103CC00097F90730002B06DBB97997F907303A6886
:103CD0001846FFF7DCFC00BF0837BD4680BDB0B515
:103CE0008CB000AF786039607B68DB69FB62FB6A8F
:103CF000002B02D13B68FB6213E0FB6A07F108046A
:103D00001D460FCD0FC495E80F0084E80F00FA6A36
:103D10003B6814461D460FCD0FC495E80F0084E89C
:103D20000F007B689B69F86A98477B68DB69002B0A
:103D30000AD07B68DB691D4607F108040FCC0FC56C
:103D400094E80F0085E80F0000BF3037BD46B0BDD6
:103D500080B58CB000AF0346FB71FFF7C3FB034691
:103D60001846FFF7ABFCF862FFF7BCFB03461846AA
:103D7000FFF708FCFB79BB72FB6A5B681B883B8121
:103D800000233B74FB6A1B6AFB60FB6A9B69002B88
:103D900005D007F108031946F86AFFF7A0FF00BF36
:103DA0003037BD4680BD80B500AF0020FFF7D0FFA3
:103DB00000BF80BD80B400AF0C4B0122A3F80421EA
:103DC00000BF0A4BB3F804319BB2002BF9D1074B6B
:103DD0000122A3F80021064B01229A60044B012224
:103DE0001A6000BFBD465DF8047B704700C001400B
:103DF0000070004080B483B000AF0B4B93F82630C6
:103E0000DBB27B60094A7B6852F82330064A126AAB
:103E1000C2F30262D2B2D340054A136000BF0C372E
:103E2000BD465DF8047B704700E001404804002077
:103E30009825002080B500AF0B4B012283F81C2190
:103E40000A4B052283F82620084B094A1A62FFF71D
:103E5000D1FF084BF1221A73064B00221A72054B50
:103E6000F0221A7300BF80BD00C0014000E0014095
:103E7000100101100020004080B500AF0B4B0C4A30
:103E80001A600A4B0B4A5A60084B4FF400429A6082
:103E9000064B094ADA60054B4FF400421A61034BA6
:103EA000064A5A61FFF7A6FF00BF80BD4804002004
:103EB000002D310100127A00001BB70000E1F5056A
:103EC00080B582B000AF2F4B4AF20352A3F8FE2315
:103ED000FFF770FFFFF7D0FF2A4B202283F813244F
:103EE000284B092283F8A220264B93F88034DBB2BA
:103EF000002B08D1234B012283F88024012140F2BA
:103F0000C44000F055F81F4B002283F881241D4B5C
:103F1000002283F880241B4B002283F8322000BF4C
:103F2000184B93F83C30C3F3C003DBB2012BF7D13D
:103F3000144B43F202121A85124B002283F82A20F6
:103F400000BF104B93F83C30C3F34013DBB2012B9E
:103F5000F7D1FFF76FFF0123FB710A4AFB7982F863
:103F60003E30FB7963F07F03FB71064AFB7982F8F0
:103F70003E30044B4FF42542A3F8FE2300BF083720
:103F8000BD4680BD00E0014080B483B000AF7860E2
:103F900000BF0C37BD465DF8047B704780B485B028
:103FA00000AFF860B9607A603B6000BEFEE7FFFFDB
:103FB000B0B58AB000AF7860396000237B627B685F
:103FC0003A6802FB03F33B62454B1B68FB61454AC1
:103FD000FB69B2FBF3F3BB613B6A18464FF000018B
:103FE00002460B464FF000044FF000055D0145EA24
:103FF000D265540122462B46121A63EB01034FF09F
:1040000000044FF000059D0045EA92759400224699
:104010002B46121841EB03034FF000004FF0000154
:10402000D90041EA5271D00002460B46C7E9042389
:10403000D7E90423012B08BF002A08D23A69BB69DB
:10404000B2FBF3F3FB60FB689B087B623DE0BB695E
:104050009B003A6AB2FBF3F33B623B6A18464FF0AF
:10406000000102460B464FF000044FF000055D01D1
:1040700045EAD265540122462B46121A63EB01032E
:104080004FF000044FF000059D0045EA9275940042
:1040900022462B46121841EB03034FF000004FF06D
:1040A0000001D90041EA5271D00002460B46C7E92F
:1040B0000423D7E90423012B08BF002A02D23B695D
:1040C0007B6202E04FF0FF337B627B6A002B02D001
:1040D000786A00F009F800BF2837BD46B0BD00BFC0
:1040E0009825002000CA9A3BA0F101000028FBD1CE
:1040F000704700BF80B582B000AF0346FB71FB790B
:10410000074A52F82330002B06D0FB79044A52F8B4
:104110002330FA791046984700BF0837BD4680BD66
:10412000CC23002080B582B000AF104BB3F84031F3
:10413000BB800023FB710EE0BA88FB7922FA03F3FF
:1041400003F00103002B03D0FB791846FFF7D2FFE1
:10415000FB790133FB71FB790F2BEDD9034ABB8847
:10416000A2F8303100BF0837BD4680BD0060004076
:1041700080B58AB000AF032000F0CCF8384B6FF068
:10418000FF029A643B1D0C22FF21184604F0C3FA7B
:1041900000237B6223E0334A7B6A32F81330002B22
:1041A0001AD07B6A5B097B617B6A03F01F033B616A
:1041B0007B699B0007F12802134453F8242C01214A
:1041C0003B6901FA03F3DB431A407B699B0007F16B
:1041D00028010B4443F8242C7B6A01337B627B6A01
:1041E0005F2BD8D9204BBB6100233B621AE03B6AAE
:1041F0009B00BA691A443B6A9B0007F128010B44F3
:1042000053F8243C136019493B6A9B0007F12802CC
:10421000134453F8242C3B6AA03341F823203B6A13
:1042200001333B623B6A022BE1D9032000F022F804
:104230000023FB610CE00B4AFB6932F813300C4A97
:104240001946FB69C03342F82310FB690133FB6157
:10425000FB695F2BEFD900BF00BF2837BD4680BD8B
:104260000080004020CC00007080004000E100E0B1
:104270000060004080B487B000AF0346FB710023AC
:104280007B61EFF31083FB60FB687B6101233B6183
:104290003B6983F3108800BFFB791A4A32F8133068
:1042A0009BB2002B09D0FB79164A32F8132092B248
:1042B000013A91B2134A22F81310FB79114A32F8ED
:1042C00013309BB2002B11D10F4BB3F8FE339AB2CF
:1042D0000E4B13439AB2FB790D4931F81330DB438F
:1042E0009BB2094913409BB2A1F8FE337B69BB60C6
:1042F000BB6883F3108800BF00BF1C37BD465DF864
:10430000047B70479025002000E0014000A5FFFFDE
:1043100070CE000080B487B000AF0346FB7100236D
:104320007B61EFF31083FB60FB687B6101233B61E2
:104330003B6983F3108800BFFB79164A32F81330CB
:104340009BB2002B0FD1144BB3F8FE339AB2FB791A
:10435000124931F8133013439AB20F49104B1343EB
:104360009BB2A1F8FE33FB790A4A32F8132092B2CD
:10437000013291B2074A22F813107B69BB60BB6817
:1043800083F3108800BF00BF1C37BD465DF8047B77
:10439000704700BF9025002000E0014070CE000073
:1043A00000A5FFFF80B584B000AF78607B68FB603C
:1043B000144B1B68002B02D1124B134A1A60114B8D
:1043C0001B68BB60FB68033323F00303FB600D4BEA
:1043D0001A68FB6813440D4A934207D904F080F928
:1043E00003460C221A604FF0FF3306E0054B1A68B3
:1043F000FB681344034A1360BB6818461037BD4678
:1044000080BD00BF3C0C002090260020903600208C
:1044100080B500AF00F00CF8FCF740FFFEE780B479
:1044200000AF00BE00BFBD465DF8047B7047FFFFD4
:1044300080B584B000AF2F4B4FF47002C3F88820D2
:104440002C4B2D4A9A600020FCF7EAFDFFF738FD5F
:104450000120FCF7E5FD294B3B603B6883F30A88AC
:1044600000BF274A274BD31A1A460021254804F0DB
:1044700052F9254A254BD31A1A462549234804F0F8
:104480003DF9244A244BD31A9B107B600023FB6028
:1044900007E0214AFB6852F823309847FB68013354
:1044A000FB60FA687B689A42F3DBFFF7A3FC03200A
:1044B000FFF730FF0023BB6009E0184ABB680833F0
:1044C0004FF6FF7122F81310BB680133BB60BB6865
:1044D000082BF2D90320FFF7CDFE0220FCF7A0FD48
:1044E000FFF746FE0020FFF74FFD00BF1037BD4627
:1044F00080BD00BF00ED00E000000000903600200D
:104500008C260020680400204804002000000020C1
:1045100008E100004404002040040020000D084091
:1045200080B483B000AF78607B6803F108027B68D9
:104530005A607B684FF0FF329A607B6803F1080293
:104540007B68DA607B6803F108027B681A617B682C
:1045500000221A6000BF0C37BD465DF8047B70472F
:1045600080B483B000AF78607B6800221A6100BF1E
:104570000C37BD465DF8047B704780B485B000AF52
:10458000786039607B685B68FB603B68FA685A60FA
:10459000FB689A683B689A60FB689B683A685A6057
:1045A000FB683A689A603B687A681A617B681B68A6
:1045B0005A1C7B681A6000BF1437BD465DF8047B47
:1045C000704780B485B000AF786039603B681B6885
:1045D000BB60BB68B3F1FF3F03D17B681B69FB6025
:1045E0000CE07B680833FB6002E0FB685B68FB6003
:1045F000FB685B681B68BA689A42F6D2FB685A6827
:104600003B685A603B685B683A689A603B68FA6846
:104610009A60FB683A685A603B687A681A617B68FE
:104620001B685A1C7B681A6000BF1437BD465DF8D2
:10463000047B704780B485B000AF78607B681B69ED
:10464000FB607B685B687A6892689A607B689B68AD
:104650007A6852685A60FB685B687A689A4203D14C
:104660007B689A68FB685A607B6800221A61FB6865
:104670001B685A1EFB681A60FB681B6818461437D3
:10468000BD465DF8047B704780B584B000AF7860AC
:1046900039607B68FB60FB68002B06D12C4B2D4AF0
:1046A00040F20D112C48FFF779FCFDF7E7F8FB68A5
:1046B0001A68FB68DB6BF968096C01FB03F31A44A9
:1046C000FB689A60FB6800229A63FB681A68FB68C3
:1046D0005A60FB681A68FB68DB6B013BF968096C80
:1046E00001FB03F31A44FB68DA60FB68FF2283F8DE
:1046F0004420FB68FF2283F845203B68002B15D13E
:10470000FB681B69002B1BD0FB681033184601F0B7
:1047100093F90346002B13D0104B4FF080525A6090
:10472000BFF34F8F00BFBFF36F8F09E0FB681033FB
:104730001846FFF7F5FEFB6824331846FFF7F0FE36
:10474000FDF7D4F8012318461037BD4680BD00BFE1
:1047500078CE000060D2000080CE000000ED00E0C6
:1047600080B588B002AFF860B9607A603B60FB68E2
:10477000002B06D1254B264A4FF4A4712548FFF79C
:104780000DFC3B68002B06D1234B214A4FF4A67148
:104790002048FFF703FC7B68002B09D0BB68002B87
:1047A00006D11E4B1A4A4FF4A8711A48FFF7F6FBC0
:1047B0007B68002B09D1BB68002B06D0184B144A2C
:1047C00040F251111348FFF7E9FB48233B613B6975
:1047D000482B06D0134B0E4A40F259110D48FFF7F3
:1047E000DDFB3B693B687B617B69002B09D097F857
:1047F00020207B69009313467A68B968F86800F056
:1048000013F87B6918461837BD4680BDB4CE00004A
:1048100074D2000080CE0000D8CE0000F8CE000098
:1048200038CF000078CF000080B584B000AFF860CA
:10483000B9607A60FB70BB68002B03D1BB69BA69B1
:104840001A6002E0BB697A681A60BB69FA68DA63C9
:10485000BB69BA681A640121B869FFF715FF00BF88
:104860001037BD4680BDFFFF80B588B002AFF8604D
:10487000B9607A60FB68002B06D1134B134A4FF4E2
:1048800034711348FFF78AFBBA68FB689A4206D96D
:10489000104B0E4A40F2D1210D48FFF77FFB022357
:1048A00000937B6800220021F868FFF759FF7861C8
:1048B0007B69002B02D07B69BA689A637B691846D2
:1048C0001837BD4680BD00BF94CF000090D20000D5
:1048D00080CE0000A4CF000080B58AB000AFF860A1
:1048E000B9607A603B6000237B62FB683B623B6A95
:1048F000002B06D16A4B6B4A4FF443716A48FFF7AD
:104900004DFBBB68002B0AD13B6A1B6C002B06D009
:10491000664B644A40F20D316348FFF73FFB3B684A
:10492000022B0AD13B6ADB6B012B06D0604B5D4A40
:1049300040F20E315C48FFF731FB01F01BFA0346F1
:10494000002B09D17B68002B06D05A4B554A40F208
:1049500011315548FFF722FBFCF790FF3B6A9A6B39
:104960003B6ADB6B9A4202D33B68022B2CD13A683C
:10497000B968386A00F0E4FAF8613B6A5B6A002BB8
:1049800011D03B6A2433184601F056F80346002B39
:1049900016D0494B4FF080525A60BFF34F8F00BF83
:1049A000BFF36F8F0CE0FB69002B09D0424B4FF037
:1049B00080525A60BFF34F8F00BFBFF36F8F00BFAD
:1049C000FCF794FF012366E07B68002B03D1FCF722
:1049D0008DFF00235FE07B6A002B06D107F11403F3
:1049E000184601F08FF801237B62FCF77FFF00F08F
:1049F00005FEFCF743FF3B6A93F844305BB2B3F12A
:104A0000FF3F03D13B6A002283F844203B6A93F8BE
:104A100045305BB2B3F1FF3F03D13B6A002283F81C
:104A20004520FCF763FF3A1D07F1140311461846B1
:104A300001F07EF80346002B25D1386A00F06AFBAE
:104A40000346002B19D03B6A10337A68114618468A
:104A500000F09EFF386A00F0F5FA00F0DDFD034635
:104A6000002B7FF479AF144B4FF080525A60BFF3A4
:104A70004F8F00BFBFF36F8F0CE0386A00F0E2FA8F
:104A800000F0CAFD68E7386A00F0DCFA00F0C4FD07
:104A9000002300E060E718462837BD4680BD00BF10
:104AA00078CE0000B4D2000080CE0000C4CF000059
:104AB0001CD000006CD0000000ED00E080B58CB090
:104AC00000AFF860B9607A603B60FB68BB62BB6AAC
:104AD000002B06D1404B414A4FF478714048FFF714
:104AE0005DFABB68002B0AD1BB6A1B6C002B06D099
:104AF0003C4B3A4A40F2E1313948FFF74FFA3B6804
:104B0000022B0AD1BB6ADB6B012B06D0364B334A32
:104B100040F2E2313248FFF741FAFCF78FFFEFF342
:104B200011837B617B697B621023BB61BB6983F36B
:104B3000118800BFBB6A9A6BBB6ADB6B9A4202D3D7
:104B40003B68022B3AD1BB6A93F8453087F8233093
:104B5000BB6A9B6BFB613A68B968B86A00F0F0F910
:104B600097F92330B3F1FF3F12D1BB6A5B6A002B88
:104B700021D0BB6A2433184600F05EFF0346002BA9
:104B800019D07B68002B16D07B6801221A6012E0D6
:104B900097F923307F2B06D1144B104A40F26B411A
:104BA0000F48FFF7FBF997F823300133DBB25AB215
:104BB000BB6A83F845200123FB6201E00023FB620E
:104BC0007B6A3B613B6983F3118800BFFB6A18462F
:104BD0003037BD4680BD00BF78CE0000C8D200008F
:104BE00080CE0000C4CF00001CD00000C0D0000068
:104BF00080B58AB000AFF860B9607A6000237B624C
:104C0000FB683B623B6A002B06D15F4B5F4A40F278
:104C10002F515F48FFF7C2F9BB68002B0AD13B6AEE
:104C20001B6C002B06D05B4B584A40F2335158485E
:104C3000FFF7B4F901F09EF80346002B09D17B6819
:104C4000002B06D0544B514A4FF4A7615048FFF750
:104C5000A5F9FCF713FE3B6A9B6BFB61FB69002B1C
:104C600021D0B968386A00F0C7F9FB695A1E3B6A5F
:104C70009A633B6A1B69002B11D03B6A10331846BC
:104C800000F0DAFE0346002B09D0444B4FF080526F
:104C90005A60BFF34F8F00BFBFF36F8F00BFFCF7A9
:104CA00025FE01236CE07B68002B03D1FCF71EFE80
:104CB000002365E07B6A002B06D107F11403184638
:104CC00000F020FF01237B62FCF710FE00F096FC51
:104CD000FCF7D4FD3B6A93F844305BB2B3F1FF3F7D
:104CE00003D13B6A002283F844203B6A93F84530A5
:104CF0005BB2B3F1FF3F03D13B6A002283F845204A
:104D0000FCF7F4FD3A1D07F114031146184600F0B4
:104D10000FFF0346002B24D1386A00F0E5F9034663
:104D2000002B18D03B6A24337A681146184600F0ED
:104D30002FFE386A00F086F900F06EFC0346002B67
:104D400087D1164B4FF080525A60BFF34F8F00BF90
:104D5000BFF36F8F13E0386A00F074F900F05CFC69
:104D600077E7386A00F06EF900F056FC386A00F018
:104D7000BBF90346002B3FF46CAF002300E068E76B
:104D800018462837BD4680BD60D10000E4D200003F
:104D900080CE00006CD100006CD0000000ED00E07F
:104DA00080B588B000AF786039600023FB617B6814
:104DB000BB61BB69002B06D15B4B5C4A40F2C15121
:104DC0005B48FFF7EBF8BB691B6C002B06D0594B17
:104DD000564A40F2C5515648FFF7E0F800F0CAFFC6
:104DE0000346002B09D13B68002B06D0524B4F4A9B
:104DF00040F2CA514E48FFF7D1F8FCF73FFDBB69BE
:104E00009B6B7B617B69002B1DD07B695A1EBB6944
:104E10009A63BB691B69002B11D0BB69103318461C
:104E200000F00AFE0346002B09D0444B4FF080529D
:104E30005A60BFF34F8F00BFBFF36F8F00BFFCF707
:104E400055FD01236CE03B68002B03D1FCF74EFDC0
:104E5000002365E0FB69002B06D107F10C0318461F
:104E600000F050FE0123FB61FCF740FD00F0C6FBA3
:104E7000FCF704FDBB6993F844305BB2B3F1FF3F2C
:104E800003D1BB69002283F84420BB6993F8453005
:104E90005BB2B3F1FF3F03D1BB69002283F8452029
:104EA000FCF724FD3A4607F10C031146184600F0C2
:104EB0003FFE0346002B24D1B86900F015F90346E4
:104EC000002B18D0BB6924333A681146184600F00D
:104ED0005FFDB86900F0B6F800F09EFB0346002BBA
:104EE0008BD1164B4FF080525A60BFF34F8F00BFEB
:104EF000BFF36F8F13E0B86900F0A4F800F08CFBEB
:104F00007BE7B86900F09EF800F086FBB86900F016
:104F1000EBF80346002B3FF470AF002300E06CE792
:104F200018462037BD4680BD60D10000F4D2000095
:104F300080CE0000E0D000006CD0000000ED00E06A
:104F400080B586B000AFF860B9607A6000233B613D
:104F5000FB689B6B7B61FB681B6C002B43D07B6801
:104F6000002B19D1FB685868FB681B6C1A46B9689E
:104F700003F0C4FBFB685A68FB681B6C1A44FB68AF
:104F80005A60FB685A68FB689B689A422BD3FB689F
:104F90001A68FB685A6026E0FB68D868FB681B6CDF
:104FA0001A46B96803F0AAFBFB68DA68FB681B6C59
:104FB0005B421A44FB68DA60FB68DA68FB681B68CE
:104FC0009A4207D2FB689A68FB681B6C5B421A44E2
:104FD000FB68DA607B68022B05D17B69002B02D06D
:104FE0007B69013B7B617B695A1CFB689A633B6967
:104FF00018461837BD4680BD80B582B000AF7860D6
:1050000039607B681B6C002B18D07B68DA687B6882
:105010001B6C1A447B68DA607B68DA687B689B6883
:105020009A4203D37B681A687B68DA607B68D96828
:105030007B681B6C1A46386803F060FB00BF0837BA
:10504000BD4680BD80B584B000AF7860FCF716FC2B
:105050007B6893F84530FB7311E07B685B6A002B3B
:1050600012D07B682433184600F0E6FC0346002B80
:1050700001D000F0C3FDFB7B013BDBB2FB7397F972
:105080000F30002BE9DC00E000BF7B68FF2283F8D3
:105090004520FCF72BFCFCF7F1FB7B6893F84430D0
:1050A000BB7311E07B681B69002B12D07B68103347
:1050B000184600F0C1FC0346002B01D000F09EFD15
:1050C000BB7B013BDBB2BB7397F90E30002BE9DCF5
:1050D00000E000BF7B68FF2283F84420FCF706FC59
:1050E00000BF1037BD4680BD80B584B000AF78608A
:1050F000FCF7C4FB7B689B6B002B02D10123FB6098
:1051000001E00023FB60FCF7F1FBFB681846103759
:10511000BD4680BD80B584B000AF7860FCF7AEFBC3
:105120007B689A6B7B68DB6B9A4202D10123FB6040
:1051300001E00023FB60FCF7D9FBFB681846103741
:10514000BD4680BD80B485B000AF78603960002373
:10515000FB6014E00F4AFB6852F83330002B0BD190
:105160000C49FB683A6841F833200A4AFB68DB00C7
:1051700013447A685A6006E0FB680133FB60FB6801
:10518000092BE7D900BF00BF1437BD465DF8047B8B
:10519000704700BF9C25002080B586B000AFF86046
:1051A000B9607A60FB687B61FCF768FB7B6993F808
:1051B00044305BB2B3F1FF3F03D17B69002283F837
:1051C00044207B6993F845305BB2B3F1FF3F03D1D4
:1051D0007B69002283F84520FCF788FB7B699B6B89
:1051E000002B06D17B6924337A68B968184600F031
:1051F000F5FB7869FFF726FF00BF1837BD4680BD75
:1052000080B58CB004AFF860B9607A603B60FB6A2F
:10521000002B06D1214B224A4FF412712148FEF790
:10522000BDFE3B6B002B06D11F4B1D4A40F24921AE
:105230001C48FEF7B3FE60237B617B69602B06D0C0
:105240001A4B174A40F251211648FEF7A7FE7B6918
:105250003B6B002B1AD0FB6A002B17D03B6BFB611A
:10526000FB69FA6A1A6300230393FB69029307F14F
:1052700018030193BB6A00933B687A68B968F868C1
:1052800000F016F8F86900F0A9F801E00023BB610E
:10529000BB6918462037BD4680BD00BF08D300005B
:1052A0005CD6000028D300005CD3000078D3000057
:1052B00080B586B000AFF860B9607A603B60BB6AC9
:1052C0001A6B7B6803F18043013B9B0013443B61F5
:1052D0003B6923F007033B613B6903F00703002BA5
:1052E00006D03B4B3B4A40F25E313B48FEF756FE50
:1052F000BB68002B21D000237B6114E0BA687B6976
:10530000134493F90010BA6A7B69134434330A4694
:105310001A70BA687B69134493F90030002B06D0E9
:105320007B6901337B617B690F2BE7D900E000BF0C
:10533000BB6A002283F8432003E0BB6A002283F8A3
:1053400034203B6A042B01D904233B62BB6A3A6ACE
:10535000DA62BB6A04331846FFF702F9BB6A1833F6
:105360001846FFF7FDF8BB6ABA6A1A613B6AC3F1D7
:105370000502BB6A9A61BB6ABA6A5A62BB6A443365
:1053800014220021184603F0C6F9BB6A58330422E0
:105390000021184603F0BFF9BB6A5C3301220021EB
:1053A000184603F0B8F9BB6A196B3B68FA683869AC
:1053B000FCF70AFA0246BB6A1A607B6A002B02D02D
:1053C0007B6ABA6A1A6000BF1837BD4680BD00BF4D
:1053D00094D3000070D6000028D3000080B582B0BE
:1053E00000AF7860FCF74AFA2C4B1B6801332B4A5C
:1053F00013602B4B1B68002B09D1294A7B68136073
:10540000264B1B68012B10D100F020FC0DE0254B32
:105410001B68002B09D1224B1B68DA6A7B68DB6AA8
:105420009A4202D81E4A7B6813601F4B1B680133E7
:105430001D4A13607B68DA6A1C4B1B689A4203D9C9
:105440007B68DB6A194A13607B68DA6A13469B0043
:1054500013449B00164A1A447B68043319461046CD
:10546000FFF78BF8FCF742FA0E4B1B68002B10D0AD
:105470000B4B1B68DA6A7B68DB6A9A4209D20D4BD8
:105480004FF080525A60BFF34F8F00BFBFF36F8F52
:1054900000BF00BF0837BD4680BD00BF180D00200B
:1054A000400C0020240D0020340D0020200D002091
:1054B000440C002000ED00E080B584B000AF7860BF
:1054C0000023FB607B68002B13D0124B1B68002B62
:1054D00006D0114B114A40F246511148FEF75EFDCD
:1054E00000F08CF80021786800F062FC00F094F87D
:1054F000F860FB68002B09D10A4B4FF080525A60CC
:10550000BFF34F8F00BFBFF36F8F00BF00BF1037D7
:10551000BD4680BD400D0020D8D3000088D60000D5
:1055200028D3000000ED00E080B58AB004AF00236E
:10553000FB600023BB603A1D07F1080107F10C0373
:105540001846FBF7DBFE7968BB68FA6802920193A4
:105550000023009300230A461E491F48FFF750FE10
:1055600003461E4A13601D4B1B68002B02D001230B
:105570007B6101E000237B617B69012B02D100F09C
:105580006BFC78617B69012B12D101233B613B6984
:1055900083F3108800BF124B4FF0FF321A60114B9B
:1055A00001221A60104B00221A60FCF74FF90AE042
:1055B0007B69B3F1FF3F06D10C4B0D4A40F63D012C
:1055C0000C48FEF7EBFC0C4B1B6800BF1837BD46C0
:1055D00080BD00BF50D40000155C00003C0D0020D1
:1055E000380D0020240D00201C0D002058D4000090
:1055F00094D6000028D300004000002080B400AF03
:10560000044B1B680133034A136000BFBD465DF8BD
:10561000047B7047400D002080B584B000AF0023AC
:10562000FB600023BB60414B1B68002B06D1404B45
:10563000404A4FF40B614048FEF7B0FCFCF71EF9FE
:105640003A4B1B68013B394A1360384B1B68002BEF
:1056500064D13A4B1B68002B60D02FE0384BDB68DD
:10566000DB68FB60FB6818331846FEF7E3FFFB6856
:1056700004331846FEF7DEFFFB68DA6A314B1B681D
:105680009A4203D9FB68DB6A2E4A1360FB68DA6A28
:1056900013469B0013449B002B4A1A44FB680433B7
:1056A00019461046FEF769FFFB68DA6A274B1B684C
:1056B000DB6A9A4202D3264B01221A60204B1B68F8
:1056C000002BCBD1FB68002B01D000F037FB214B26
:1056D0001B687B607B68002B10D000F04FF80346FE
:1056E000002B02D01A4B01221A607B68013B7B60C1
:1056F0007B68002BF1D1174B00221A60144B1B68FA
:10570000002B0BD00123BB60134B4FF080525A602B
:10571000BFF34F8F00BFBFF36F8F00BFFCF7E6F8FA
:10572000BB6818461037BD4680BD00BF400D002045
:105730006CD40000A8D6000028D30000180D00206B
:10574000D80C0020200D0020440C0020400C00202C
:105750002C0D0020280D002000ED00E080B483B067
:1057600000AF054B1B687B607B6818460C37BD4655
:105770005DF8047B704700BF1C0D002080B586B02B
:1057800000AF00237B61454B1B68002B7CD1444B51
:105790001B6801333B61424A3B6913603B69002B44
:1057A0001CD1404B1B681B68002B06D03E4B3F4A68
:1057B00040F6C3213E48FEF7F1FB3A4B1B68FB6005
:1057C0003C4B1B68374A13603A4AFB6813603A4BFC
:1057D0001B680133384A136000F0B0FA374B1B687E
:1057E0003A699A4249D32F4B1B681B68002B04D19E
:1057F000324B4FF0FF321A603FE02A4B1B68DB68E8
:10580000DB68BB60BB685B687B603A697B689A4217
:1058100003D22A4A7B6813602FE0BB680433184622
:10582000FEF708FFBB689B6A002B04D0BB681833E7
:105830001846FEF7FFFEBB68DA6A214B1B689A42E6
:1058400003D9BB68DB6A1E4A1360BB68DA6A134679
:105850009B0013449B001B4A1A44BB68043319463F
:105860001046FEF78AFEBB68DA6A174B1B68DB6AD4
:105870009A42B8D301237B61B5E7144B1B68002B18
:1058800007D001237B6104E0114B1B680133104AF0
:1058900013607B6918461837BD4680BD400D002057
:1058A0001C0D0020D00C00208CD40000B8D60000C5
:1058B00028D30000D40C0020300D0020380D00202B
:1058C000200D0020440C0020400C00202C0D002056
:1058D000280D002080B582B000AF254B1B68002B3F
:1058E00003D0244B01221A603DE0224B00221A60B3
:1058F000214B1B687B600CE07B68002B06D11F4BA3
:105900001F4A40F6FE311F48FEF748FB7B68013B0B
:105910007B601D497A6813469B0013449B000B442F
:105920001B68002BE8D07A6813469B0013449B0049
:10593000154A13443B603B685B685A683B685A6091
:105940003B685A683B6808339A4204D13B685B68FD
:105950005A683B685A603B685B68DB680B4A1360B7
:10596000054A7B68136000BF0837BD4680BD00BF95
:10597000400D00202C0D0020200D002004D500003B
:10598000CCD6000028D30000440C0020400C00209E
:1059900080B582B000AF786039607B68002B06D19B
:1059A0000A4B0B4A40F618410A48FEF7F7FA0A4B31
:1059B0001B68183319467868FEF703FE0121386822
:1059C00000F0F6F900BF0837BD4680BD14D50000D1
:1059D000E0D6000028D30000400C002080B584B041
:1059E00000AFF860B9607A60FB68002B06D10E4BFF
:1059F0000E4A40F647410E48FEF7D0FA0D4B1B68A1
:105A000018331946F868FEF7B8FD7B68002B02D002
:105A10004FF0FF33BB607968B86800F0C9F900BF88
:105A20001037BD4680BD00BF14D50000F8D6000079
:105A300028D30000400C002080B584B000AF78600F
:105A40007B68DB68DB68BB60BB68002B06D1244B3E
:105A5000244A40F677412448FEF7A0FABB68183381
:105A60001846FEF7E7FD214B1B68002B1DD1BB68D4
:105A700004331846FEF7DEFDBB68DA6A1C4B1B6870
:105A80009A4203D9BB68DB6A194A1360BB68DA6AB9
:105A900013469B0013449B00164A1A44BB68043308
:105AA00019461046FEF769FD05E0BB681833194634
:105AB0001148FEF762FDBB68DA6A104B1B68DB6AAF
:105AC0009A4205D90123FB600D4B01221A6001E0C7
:105AD0000023FB60FB6818461037BD4680BD00BF41
