:10000000504700200D470000294400001B47000016
:100010001B4700001B4700001B4700001B47000058
:100020000000000000000000000000006119000056
:100030001B470000000000009D1900000D1A000081
:10004000832800000D270000A3290000FB290000E1
:10005000832800000D270000A3290000FB290000D1
:100060000D3000007F400000000000000000000094
:100070000000000000000000000000000000000080
:100080000000000000000000000000000000000070
:100090000000000000000000000000000000000060
:1000A0000000000000000000000000000000000050
:1000B0000000000000000000000000000000000040
:1000C0000000000000000000000000000000000030
:1000D0000000000000000000000000000000000020
:1000E0000000000000000000000000000000000010
:1000F0000000000000000000000000000000000000
:1001000000000000000000000000000000000000EF
:1001100000000000000000000000000000000000DF
:1001200000000000000000000000000000000000CF
:1001300000000000000000000000000000000000BF
:1001400000000000000000000000000000000000AF
:10015000000000000000000000000000000000009F
:10016000000000000000000000000000000000008F
:10017000000000000000000000000000000000007F
:10018000000000000000000000000000000000006F
:10019000000000000000000000000000000000005F
:1001A000000000000000000000000000000000004F
:1001B000000000000000000000000000000000003F
:1001C000FFFFFFFFFFFFFFFFFFFFFFFFFFFFFFFF3F
:1001D000FFFFFFFFFFFFFFFFFFFFFFFFFFFFFFFF2F
:1001E000FFFFFFFFFFFFFFFFFFFFFFFFFFFFFFFF1F
:1001F000FFFFFFFFFFFFFFFFFFFFFFFFFFFFFFFF0F
:1002000010B5054C237833B9044B13B1044800E012
:1002100000BF0123237010BD68040020000000000F
:100220009CE9000008B5034B1BB10349034800E0FB
:1002300000BF08BD000000006C0400209CE9000025
:1002400080B588B000AFF860B9607A601449F8688A
:1002500009F08AFAF861FB690233FB611149F86918
:1002600009F082FAB8611049B86909F07DFA78613D
:100270007B6900221A70BB693B61BB690333BB61B8
:100280003B6900221A70F969B86809F036FAB96951
:10029000786809F032FA00BF2037BD4680BD00BF44
:1002A000E8CF0000ECCF0000F0CF000080B586B0B2
:1002B00000AFF860B9607A60FB687B61BB683B6146
:1002C00000BF3B6907F11002796818460AF0EAF8A6
:1002D00001467B691A1D7A610A461A601B68002B69
:1002E000EFD100BF00BF1837BD4680BD80B586B0D6
:1002F00000AF786039607B681B78002B01D1002348
:1003000040E0786808F004FC53EC102B10461946C6
:1003100008F0AEFB03467B61D7ED057A9FED1B7AB3
:10032000F4EEC77AF1EE10FA01D500232AE097ED3A
:10033000057ADFED166AC7EE267AFDEEE77A17EE4C
:10034000903A3B613B6907EE903AF8EEE77A9FED11
:100350000F7A67EE877A97ED057A37EE677ADFEDE9
:100360000C6AC7EE267AC7ED037A3B6907EE903A2E
:10037000B8EEE77AD7ED037A77EE277A3B68C3EDDC
:10038000007A012318461837BD4680BD0000C842D8
:100390000000704280B582B000AF786000F0D4F900
:1003A0007B68034A1A6000BF0837BD4680BD00BFA6
:1003B0009404002080B582B000AF786000F00AF8A5
:1003C000642005F0F7F9786800F022F800BF0837DC
:1003D000BD4680BD80B500AF00214FF4807000F0B5
:1003E000E5F94FF48C7000F081F800F0C1F9282095
:1003F00000F07CF801214FF4807000F0D7F942F250
:10040000D05000F073F800BF80BDFFFFFFFFFFFF7B
:1004100080B584B000AF78604FF00003FB604FF010
:100420000003BB607B681B681B881A4640F6E443E8
:1004300002FB03F307EE903AB8EEE77ADFED1E6AAF
:10044000C7EE267AC7ED037A7B681B685B881A467D
:1004500040F6E44302FB03F307EE903AB8EEE77A86
:10046000DFED156AC7EE267AC7ED027AD7ED037A7B
:10047000DFED126A87EEA67AF6EE006AC7EE267AFC
:100480007B68C3ED017AB86807F0A2FF08A3D3E93F
:10049000002307F0F5FF02460B461046194608F008
:1004A000E7FA02467B689A6000BF1037BD4680BD00
:1004B000333333333333D33F00F07F4500007A4486
:1004C00080B582B000AF78607B684FF47A7202FB2F
:1004D00003F3054AA2FB03239B09184605F06AF9BA
:1004E00000BF0837BD4680BDD34D621080B582B0D5
:1004F00000AF78600121786803F0C6FE00BF0837BE
:10050000BD4680BD80B483B000AF78600B46FB7001
:100510007B68FA789A72002318460C37BD465DF85E
:10052000047B704780B483B000AF78600023184626
:100530000C37BD465DF8047B704780B584B000AFD2
:1005400078600B46FB707B68FB60FB6818687B6813
:100550001B89FA78194602F0EBFEB860BB681846B2
:100560001037BD4680BD80B584B000AF78607B6831
:10057000FB600023FB72FB6818687B681B8907F12E
:100580000B02194602F072FEFB7A002B01D1002308
:1005900000E0012318461037BD4680BD80B584B009
:1005A00000AF78600B46FB707B68FB60FB78002B2C
:1005B00008D1FB6818687B681B890022194602F085
:1005C00032FE0AE0FB78012B07D1FB6818687B68D4
:1005D0001B890422194602F026FE00231846103714
:1005E000BD4680BD80B586B000AFF860B9607A6066
:1005F000FB685B687B617B691B687A68B968184631
:1006000001F0E9FD034618461837BD4680BD80B4A9
:1006100083B000AF78603960002318460C37BD46C0
:100620005DF8047B704780B483B000AF78600B4600
:10063000FB70002318460C37BD465DF8047B7047FD
:1006400080B483B000AF78600B46FB70002318467F
:100650000C37BD465DF8047B704780B584B000AFB1
:1006600078607B685B68FB60FB681A68FB685B68A6
:100670001946104601F05EFC034618461037BD4689
:1006800080BD80B584B000AF78607B685B68FB603C
:10069000FB681B68184601F033FD03461846103707
:1006A000BD4680BD80B584B000AF78607B685B6874
:1006B000FB60FB681B680221184601F03DFE034603
:1006C00018461037BD4680BD80B584B000AF786055
:1006D0007B685B68FB60FB681B680121184601F0C2
:1006E0002BFE034618461037BD4680BD80B500AFCF
:1006F0000249034801F01EFC00BF80BD84D1000008
:10070000E812002080B582B000AF78607B681B796A
:10071000042B09D17B689B68DAB2094B1A71084B2C
:100720009B680748984706E07B681B79022B02D13B
:10073000044B01221A7000BF0837BD4680BD00BFC0
:10074000840400209004002080B500AF05490648CD
:1007500003F032F90549044803F08CF900F008F879
:1007600000BF80BD44D10000AC1200205CD100006D
:1007700080B500AF024803F095F900BF80BD00BF0F
:10078000AC12002080B582B000AF03463960FB7127
:1007900097F907303A681946034803F095F900BF06
:1007A0000837BD4680BD00BFAC12002080B582B0C6
:1007B00000AF03460A46FB8013467B717A79FB88BB
:1007C0001946034802F0B4FD00BF0837BD4680BD9E
:1007D000A412002080B582B000AF78607B689B785F
:1007E000002B08D106490B20FFF7CCFF05490C2050
:1007F000FFF7C8FF00E000BF0837BD4680BD00BF5F
:10080000940400209604002080B500AF28492948B0
:1008100002F0D8FC02222849284807F079FB034659
:10082000274A13602749284807F08CFB0346274ACC
:100830001360264B1B681B681B69244A126810460C
:10084000984740F203121C491C4807F061FB03461D
:100850001F4A13604FF482721749184807F058FB7B
:1008600003461C4A136040F202421349134807F042
:100870004FFB0346184A136040F20B120E490F4813
:1008800007F046FB0346154A136040F202320A495C
:100890000A4807F03DFB0346114A13600F22064940
:1008A000064807F035FB03460E4A136000BF80BDC3
:1008B00064D20000A41200202CD10000000000200F
:1008C0009C040020D8D100001400002098040020CF
:1008D000A0040020A4040020A8040020AC040020F0
:1008E000B0040020B404002080B582B000AF78606E
:1008F0007968034802F0B4F900BF0837BD4680BDEF
:10090000D012002080B500AF0349044802F012FA6B
:10091000014B184680BD00BFB8040020D012002053
:1009200080B584B000AF78607B681B79042B0CD154
:100930007B689B685BB2FB730A4B1B6807F10F0176
:100940000122184607F05EFB08E07B681B79022B4A
:1009500004D1044B1B68184607F067FB00BF103733
:10096000BD4680BD9804002090B587B002AFF86006
:10097000B9607A603B60FB689B681C6997F824301B
:10098000019397F8203000933B687A68B968F8685B
:10099000A047034618461437BD4690BD80B500AF4A
:1009A000034A0449044808F04DFE00BF80BD00BF63
:1009B000F4CF0000FCCF0000E80F00202DE9B04F7D
:1009C00090B00AAF384B7B61384B1B8801339AB229
:1009D000364B1A807B69DB6D184607F02DF903460C
:1009E000032B5CD1314B1B88B3F57A7F57D92F4B42
:1009F00000221A807B69D3F8B032184607F0E8FC71
:100A0000C7E902017B69D3F8B432184607F0E0FC6D
:100A100004460D467B69D3F8C032184607F0D8FC6F
:100A2000804689467B69D3F8BC32184607F0D0FC73
:100A300082468B467B69D3F89432184607F0C8FC8F
:100A4000C7E900017B69D3F89832184607F0C0FC6B
:100A500002460B46CDE9082397ED007B8DED067B22
:100A6000CDE904ABCDE90289CDE90045D7E9022300
:100A70000F49104808F0E6FD0E490B4800F01CF83D
:100A80000346FB7497F91330B3F1FF3F07D10023FE
:100A9000FB74054BDB6D0421184607F0BBF800BF63
:100AA0001837BD46BDE8B08F880F002040050020F4
:100AB00010D00000DC040020B0B584B002AF786034
:100AC00039607B68DC6D7B6803F16005386808F08D
:100AD0001CFE034600220192012200923A68294638
:100AE0002046FFF741FF034618460837BD46B0BD14
:100AF00080B582B002AF2C4B1B682C4A1268194695
:100B00002B4806F02CF82B4B2A4A2B49284806F094
:100B100029F9274806F0A8F9254806F0F9F903460F
:100B2000002B00D0F8E7254B254A1A60234B254AB5
:100B30005A60224B244A9A60204B244ADA601F4BA9
:100B4000234A1A611D4B234A5A611C4B224A9A615F
:100B50001A4B224ADA61164BDB6D2149184607F021
:100B6000DBF8204B0193204B009340F25B731F4A4C
:100B70000F49124807F094F803460D4AD3650C4B11
:100B8000DB6D1B4A9A620A4BDB6D1A4ADA62084B2C
:100B9000DB6D154ADA61184A1849194808F052FD08
:100BA00000BFBD4680BD00BF9C040020980400200B
:100BB000880F002058D000005CD00000280E0020D4
:100BC000710C0000990C0000B90C0000E50C00004D
:100BD000050D00003D0D0000690D00008D0D0000A9
:100BE000B50D000080D000009CD0000068D000004F
:100BF000A805002028060020B4D00000BCD00000CA
:100C00004405002080B500AF144BDB6D184607F09B
:100C1000A1F8124BDB6D184607F00EF80346062BC1
:100C200019D10F4B1B680F4A126819460B4805F083
:100C300096FF0D4B0C4A0D49084806F093F80748FB
:100C400006F012F9054806F063F9044BDB6D01214B
:100C5000184606F0DFFF00BF80BD00BF880F0020F0
:100C60009C0400209804002058D000005CD00000B4
:100C700080B586B000AFF860B9607A60FB681B6829
:100C80007B617A68B968786906F084F903465BB2DB
:100C900018461837BD4680BD80B584B000AF786077
:100CA0007B681B68FB60F86806F060FA03465BB27D
:100CB00018461037BD4680BD80B586B000AFF860DD
:100CC000B9607A603B60FB681B687B613B687A684F
:100CD000B968786906F0B4F903465BB2184618376C
:100CE000BD4680BD80B584B000AF78607B681B686E
:100CF000FB60F86806F020FA03465BB2184610372E
:100D0000BD4680BD80B588B002AFF860B9607A603A
:100D10003B60FB681B687B6197F8203097F82420C4
:100D2000019200933B687A68B968786906F038FAEE
:100D300003465BB218461837BD4680BD80B586B005
:100D400000AFF860B9601346FB71FB681B687B61FC
:100D5000FB791A46B968786906F098FA03465BB2DF
:100D600018461837BD4680BD80B584B000AF7860A6
:100D700039607B681B68FB603968F86806F0DCFA4C
:100D800003465BB218461037BD4680BD80B586B0BD
:100D900000AFF860B9607A60FB681B687B617A68B5
:100DA000B968786906F0C8FB03465BB21846183785
:100DB000BD4680BD80B483B000AF78600B46FB7049
:100DC000FB78062B10D801A252F823F0E90D0000A1
:100DD000E90D0000E90D0000E90D0000E90D00003B
:100DE000E90D0000E90D000000BF00BF0C37BD4653
:100DF0005DF8047B704700BF80B582B000AF174B31
:100E00007B607B68164A1A617B684FF48072DA82D5
:100E10007B68144AC3F8A8207B68134AC3F8CC2126
:100E20007B68D3F8CC31114A9A607B68104AC3F8CA
:100E3000B4207B68D3F8B430184608F066FC03464B
:100E4000DAB27B6883F8B8207B68002283F8D0216F
:100E5000FFF74CFC00BF0837BD4680BD6010002086
:100E6000480E0020480F002084040020750E00006A
:100E7000C0D0000080B584B000AF78602C4BFB6020
:100E80002C4BD3F8E830FA68128813447A6804329D
:100E900012781A70FB681B8801339AB2FB681A80BB
:100EA000FB681A88234B93F890319BB29A422AD35D
:100EB0007B681B790D2B03D07B681B790A2B34D1FF
:100EC0001C4BD3F8E820FB681B88013B134400222D
:100ED0001A70184B93F8A83283F00103DBB2002B91
:100EE0000DD0144BD3F8E810FB681B88013B1A4661
:100EF000114807F01FFE0F4B012283F8A822FB6860
:100F000000221A8011E07B681B791946094BD3F83F
:100F10008C21FB681B88013B134493F900309942F4
:100F200003D0FB6800221A8000BF1037BD4680BD89
:100F300074100020880F00201A11002080B582B0A4
:100F400000AF104B7B60104B1A687B689A600F4BA8
:100F50001A687B681A600E4B1A687B685A600D4BE2
:100F60001A687B68DA600C4B1A687B681A617868CB
:100F700006F0B6FB786806F0B6FC00BF0837BD4641
:100F800080BD00BF4C100020A8040020A004002059
:100F9000A4040020AC040020B004002080B500AF01
:100FA00000F00EF800F036F800F05AF800F07EF885
:100FB00000F0A2F800F0C6F800F0E8F800BF80BD2D
:100FC00080B582B000AF0F4B7B600C2200217868A7
:100FD00006F0A9FC0C4BDB6D184606F02DFE03460F
:100FE000032B05D100220949786806F053FC04E080
:100FF00000220749786806F04DFC00BF0837BD465F
:1010000080BD00BF4C100020880F0020C8D0000019
:10101000CCD0000080B586B000AF0E4B7B610E4B8C
:10102000D3F8B032184607F0D3F902460B46381D04
:101030000A4908F007FB00220121786906F073FCD9
:101040003B1D00221946786906F024FC00BF1837C2
:10105000BD4680BD4C100020880F0020D0D000007D
:1010600080B586B000AF0E4B7B610E4BD3F8B43227
:10107000184607F0ADF902460B46381D0A4908F03C
:10108000E1FA07220121786906F04DFC3B1D0022A0
:101090001946786906F0FEFB00BF1837BD4680BDD3
:1010A0004C100020880F0020D8D0000080B586B0FA
:1010B00000AF0E4B7B610E4BD3F8C032184607F0E1
:1010C00087F902460B46381D0A4908F0BBFA002290
:1010D0000221786906F027FC3B1D00221946786939
:1010E00006F0D8FB00BF1837BD4680BD4C1000206D
:1010F000880F0020E0D0000080B586B000AF0E4B16
:101100007B610E4BD3F8BC32184607F061F90246FA
:101110000B46381D0A4908F095FA00220321786928
:1011200006F001FC3B1D00221946786906F0B2FB6F
:1011300000BF1837BD4680BD4C100020880F00202E
:10114000F0D0000080B582B000AF0D4B7B60002274
:101150000421786806F0E7FB00220A49786806F067
:1011600099FB00220521786806F0DDFB0022064984
:10117000786806F08FFB00BF0837BD4680BD00BF12
:101180004C10002000D1000010D1000080B586B0C6
:1011900000AF0D4B7B6104220021786906F0C3FB90
:1011A0000A4BD3F8CC22094BD3F8C8323846084949
:1011B00008F048FA3B4600221946786906F06AFBB7
:1011C00000BF1837BD4680BD4C100020880F00209E
:1011D00020D1000080B582B000AF064B7B60064B8B
:1011E0001B681946786805F04EFB00BF0837BD46FE
:1011F00080BD00BF34120020B404002080B582B04E
:1012000000AF044B7B60786805F0EAFB00BF08374D
:10121000BD4680BD3412002080B582B000AF044BC3
:101220007B607868FFF7B6F800BF0837BD4680BD21
:101230004012002080B582B000AF044B7B6078681C
:10124000FFF7B8F800BF0837BD4680BD4012002048
:1012500080B582B000AF0346FB71FB79022B05D14C
:10126000044B5B681946044801F0ACFF00BF083727
:10127000BD4680BD2CD10000A412002080B582B0F4
:1012800000AF7860FFF7C0FAFFF7C6FFFFF7D2FFA5
:101290004FF4FA6004F08EFAF8E780B582B000AF40
:1012A0007860FFF797FFFFF7A9FF012004F082FAAB
:1012B000F9E7FFFF80B584B000AF7860FFF73EFE2E
:1012C0004FF47A73FB60FB68B3F57A7F0EDDFFF7AE
:1012D00019FBB860BB689B68094AC2F8CC32BB688E
:1012E0005B68074AC2F8C8320023FB60FB680A3318
:1012F000FB60FFF753FE012004F05CFAE3E700BF58
:10130000880F002080B584B000AF7860204BFB6070
:10131000FB68204AC3F8BC21FB681F4AC3F8C02100
:10132000FFF76AFDFB6893F8D031002B2BD0FB68E8
:10133000BA331A4A19461A48FEF7B8FF184B9A688A
:10134000FB6803F5DE7319461046FEF7CFFF034630
:10135000002B10D0124B1A69FB6803F5E073194695
:101360001046FEF7C3FF0346002B04D0FB680122A2
:1013700083F8B92003E0FB68002283F8B920FB68FA
:10138000002283F8D021012004F014FACAE700BF3C
:10139000601000202A4CA841A393D34228D100001A
:1013A0007012002080B582B000AF114B7B60114BF2
:1013B0001A68114BA3FB02139B0B4EF6602101FB35
:1013C00003F3D31A002B09D179680C4806F028F9E9
:1013D0000346002B02D17868FFF786FA054B1B689D
:1013E0000133044A136000BF0837BD4680BD00BF0B
:1013F0004C1200203400002073B2E745880F002013
:1014000080B582B000AF7860FFF772FBFFF7C6FAD5
:10141000FFF7F8FBFFF7D2FAFFF7C4FF012004F053
:10142000C9F9F5E780B400AF00BFBD465DF8047BA5
:10143000704780B500AFFFF7F5FF00BF80BD80B4F7
:1014400083B000AF7860396000BE00BF0C37BD4686
:101450005DF8047B7047FFFF80B582B000AF204B82
:101460001B684FF0FF31184603F018FE78607B6868
:10147000012B05D01A4B1B6800211846FFF7DFFF30
:10148000184B1B7883F00103DBB2002B24D0154BE3
:1014900001221A70FFF7CDFF134B1B68013B124A64
:1014A000136015E00E4B186800230022002103F0A2
:1014B00091FB78607B68012B05D0094B1B680021EC
:1014C0001846FFF7BCFF084B1B68013B064A136038
:1014D000054B1B68002BE5D100BF0837BD4680BD1A
:1014E000501300204C1300204813002080B500AF9B
:1014F000134B00221A60134B00221A70124A01216A
:101500004FF4807003F02EFB0346104A13600F4B1C
:101510001B68002B05D10D4B1B6800211846FFF7F7
:101520008EFF00F051F900F00DF900F0C9F800F05D
:1015300085F800F041F804F075F90023184680BDE5
:10154000481300204C130020541300205013002097
:1015500080B485B000AFF860B9607A60FB68074A74
:101560001A60BB68064A1A607B6880221A6000BF56
:101570001437BD465DF8047B704700BF9C13002004
:10158000FC13002080B485B000AFF860B9607A60C9
:10159000FB68074A1A60BB68064A1A607B688022AB
:1015A0001A6000BF1437BD465DF8047B704700BF6A
:1015B000FC1500205C16002080B584B004AF114BF0
:1015C0001B6801330F4A13600F4B02930F4B0193BB
:1015D000082300930E4B4FF480720E490E4803F01F
:1015E0008DFF03460D4A13600C4B1B68002B05D181
:1015F0000A4B1B6800211846FFF721FF00BFBD46BC
:1016000080BD00BF481300205C1800205047002018
:101610006CD2000070D2000021160000BC1800201F
:1016200080B582B000AF7860FFF716FF7868FFF7EB
:1016300025FE00BF0837BD4680BDFFFF80B584B0E2
:1016400004AF114B1B6801330F4A13600F4B029319
:101650000F4B0193082300930E4B4FF480720E49F9
:101660000E4803F04BFF03460D4A13600C4B1B68FA
:10167000002B05D10A4B1B6800211846FFF7DFFE3F
:1016800000BFBD4680BD00BF48130020C018002029
:10169000504B002074D2000078D20000A516000044
:1016A0002019002080B582B000AF7860FFF7D4FE2B
:1016B0007868FFF7F2FD00BF0837BD4680BDFFFF29
:1016C00080B584B004AF114B1B6801330F4A13601F
:1016D0000F4B02930F4B0193082300930E4B4FF4D3
:1016E00080720E490E4803F009FF03460D4A13604D
:1016F0000C4B1B68002B05D10A4B1B6800211846B8
:10170000FFF79DFE00BFBD4680BD00BF481300200F
:1017100024190020504F00207CD2000080D200000D
:10172000291700008419002080B582B000AF7860CE
:10173000FFF792FE7868FFF7BDFD00BF0837BD4692
:1017400080BDFFFF80B584B004AF114B1B6801332F
:101750000F4A13600F4B02930F4B01930823009322
:101760000E4B4FF480720E490E4803F0C7FE03463D
:101770000D4A13600C4B1B68002B05D10A4B1B68EC
:1017800000211846FFF75BFE00BFBD4680BD00BFCD
:1017900048130020881900205053002084D20000F4
:1017A00088D20000AD170000E819002080B582B093
:1017B00000AF7860FFF750FE7868FFF7A3FD00BF29
:1017C0000837BD4680BDFFFF80B584B004AF114B24
:1017D0001B6801330F4A13600F4B02930F4B0193A9
:1017E000072300930E4B4FF480620E490E4803F01E
:1017F00085FE03460D4A13600C4B1B68002B05D178
:101800000A4B1B6800211846FFF719FE00BFBD46B2
:1018100080BD00BF48130020EC1900205057002065
:101820008CD2000090D20000311800004C1A002029
:1018300080B582B000AF7860FFF70EFE7868FFF7E2
:10184000DFFD00BF0837BD4680BDFFFF80B483B019
:1018500000AF03463960FB7197F90730002B0ADBB4
:101860003B68DAB20C4997F907301201D2B20B4447
:1018700083F800230AE03B68DAB20849FB7903F0F9
:101880000F03043B1201D2B20B441A7600BF0C378F
:10189000BD465DF8047B704700E100E000ED00E02C
:1018A00080B483B000AF0346FB7197F90730002B7B
:1018B00009DB0D4A97F90730134493F80033DBB284
:1018C0001B09DBB209E0094AFB7903F00F03043B73
:1018D00013441B7EDBB21B09DBB218460C37BD4636
:1018E0005DF8047B704700BF00E100E000ED00E020
:1018F00080B582B000AF78607B68013BB3F1807F38
:1019000001D301230FE00A4A7B68013B53600F219A
:101910004FF0FF30FFF79AFF054B00229A60044B0F
:1019200007221A60002318460837BD4680BD00BF55
:1019300010E000E080B483B000AFEFF303837B607E
:101940007B683B603B88C3F308039BB2DBB2103B70
:10195000DBB25BB218460C37BD465DF8047B7047BE
:101960001EF0040F0CBFEFF30880EFF3098001496C
:10197000084700BF551A000080B400AF62B600BF30
:10198000BFF36F8F00BFEFF3148C2CF0040C8CF3BB
:101990001488BFF36F8F02DF00BEFDE7104B19689C
:1019A000EFF309821EF0100F08BF22ED108A22E922
:1019B000F04FEFF30B8342F8043D0A604FF0100044
:1019C00080F31188BFF34F8FBFF36F8F04F000F9DE
:1019D0004FF0000080F3118800F004B800BF000051
:1019E000801C0020084801680A6802CA81F30B883D
:1019F000B2E8F04F1EF0100F08BFB2EC108A82F36D
:101A00000988704700BF0000801C002080B584B0AA
:101A100000AFEFF311837B607B68FB601023BB603A
:101A2000BB6883F3118800BF04F026F80346002B3F
:101A300003D0074B4FF080525A60FB683B603B6815
:101A400083F3118800BF00BF1037BD4680BD00BFC3
:101A500000ED00E080B584B000AF78607B689B69E2
:101A6000FB60FB68023B1B78FB72FB7A022B03D105
:101A7000FFF7B8FF00BF09E0FB7A032B06D9054B3F
:101A8000054A40F20541054802F0F4FB00BF10375B
:101A9000BD4680BD54D3000018D4000068D30000B8
:101AA00080B485B000AFF860B9607A603B60FB68D5
:101AB000043BFB60FB684FF080721A60FB68043BDC
:101AC000FB607B6823F00102FB681A60FB68043B43
:101AD000FB60114AFB681A60FB68143BFB603A68C4
:101AE000FB681A60FB68043BFB60FB686FF0020256
:101AF0001A60FB68203BFB60FB68043BFB60BB6833
:101B000003F12802FB681A60FB6818461437BD46CB
:101B10005DF8047B704700BF1D1B000080B400AF60
:101B200000BEFEE780B500AFFF216FF00100FFF7B8
:101B30008DFE00F0DDF8064B5B68054A43F040433C
:101B40005360FFF719FF04F043F80023184680BDE7
:101B500030EF00E080B584B000AFEFF311837B601D
:101B60007B68FB601023BB60BB6883F3118800BFF8
:101B70000E4B1B6801330D4A13600C4B1B68012B85
:101B80000FD10B4AFB6813600A4B5B68C3F3080371
:101B9000002B06D0084B094A40F2F641084802F0F3
:101BA00069FB00BF1037BD4680BD00BF501A002042
:101BB000541A002000ED00E090D300002CD4000067
:101BC00068D3000080B582B000AF0F4B1B68002BBC
:101BD00006D10E4B0E4A40F2FF410E4802F04AFB7E
:101BE000094B1B68013B084A1360074B1B68002B1D
:101BF00006D1094B1B687B607B6883F3118800BFAB
:101C000000BF0837BD4680BD501A0020D8D3000061
:101C100040D4000068D30000541A002080B487B07C
:101C200000AF786000237B617B68002B2BD0264BB4
:101C30009B899BB27B617B6903F40043002B14D02A
:101C4000214BB3F8FE339BB23B611F4B4AF2025269
:101C5000A3F8FE231C4B00229A813B699AB21A49D1
:101C60001A4B13439BB2A1F8FE33BFF34F8F00BF53
:101C700030BFBFF36F8F00BF62B600BFBFF36F8F7F
:101C800000BF72B600BF7B6903F40043002B15D080
:101C90000D4BB3F8FE339BB2FB600B4B4AF2025282
:101CA000A3F8FE23084B7A6992B29A81FB689AB234
:101CB0000549064B13439BB2A1F8FE3300BF1C3706
:101CC000BD465DF8047B704700E0014000A5FFFFC2
:101CD00080B500AF72B600BF03F00EFE0120FFF723
:101CE0009DFF62B600BF03F015FE00BF80BDFFFF81
:101CF00080B500AF054B1B68054AA2FB03239B0977
:101D00001846FFF7F5FD00BF80BD00BF2C1C00206A
:101D1000D34D621080B582B000AFFFF70BFE0346D3
:101D2000FB7197F90730002B12DB97F90730184643
:101D3000FFF7B6FD3860084B1B781A463B689342A4
:101D400006D2064B064A4FF4C161064802F092FAE9
:101D500000BF0837BD4680BD581A0020ECD30000F4
:101D600054D4000068D3000080B483B000AFEFF318
:101D700003837B607B683B603B88C3F308039BB2B3
:101D8000DBB2103BDBB25BB218460C37BD465DF8E8
:101D9000047B704780B483B000AF03463960FB71A9
:101DA00097F9073004493A6841F8232000BF0C37FF
:101DB000BD465DF8047B7047A01A002080B483B054
:101DC00000AF0346FB71084997F9073003F1C002E1
:101DD00051F822306FF3104341F8223000BF0C3726
:101DE000BD465DF8047B70470060004080B584B05C
:101DF00000AF0346FB7197F907301846FFF7DEFF87
:101E000097F90730FB60FB6803F01F02064997F95A
:101E100007305B09012000FA02F2603341F8232009
:101E200000BF1037BD4680BD00E100E080B584B042
:101E300000AF0346B9607A60FB73BB68DAB2094948
:101E400097F90F301201D2B20B4483F8002397F9AF
:101E50000F3079681846FFF79DFF00BF1037BD4669
:101E600080BD00BF00E100E080B485B000AF034654
:101E7000FB7197F90730FB60FB6803F01F0207490D
:101E800097F907305B09012000FA02F241F823209C
:101E900000BF1437BD465DF8047B704700E100E0E9
:101EA00080B582B000AF0346FB7197F90730184642
:101EB000FFF79CFF97F907301846FFF7D5FF00BFE3
:101EC0000837BD4680BDFFFF80B485B000AF034634
:101ED000FB7197F90730FB60FB6803F01F020B49A9
:101EE00097F907305B09012000FA02F2203341F82C
:101EF0002320BFF34F8F00BFBFF36F8F00BF00BF22
:101F00001437BD465DF8047B704700BF00E100E078
:101F100080B483B000AF0346FB7197F90730044AE1
:101F200052F8233018460C37BD465DF8047B7047E5
:101F3000A01A002080B58AB000AF786039607B6855
:101F40007B623B681B7803F5800303F58C531B020F
:101F50001A467B6A1A627B6A00221A703B681B78F9
:101F60001A4640F21923D34003F00103002B02D09C
:101F70007B6A10221A707B6A3A68DA613B685A6998
:101F80007B6A5A623B689A697B6ADA627B6A0022E2
:101F90009A627A6A9378012161F3010393703B6836
:101FA0005B78002B05D17A6A9378022161F30103F3
:101FB00093703968786A00F015FB786A00F02EFAA1
:101FC00000233B62EFF31083FB60FB683B6201235D
:101FD0003B613B6983F3108800BF474B5A683B68FD
:101FE0001B7819464FF00043CB40DB434249134076
:101FF0004B60414B5B683B6A7B617B6983F3108874
:1020000000BF7B6A1B6A00229A707B6A1B6A0022EF
:102010001A717B6A1B6A00225A727B6A1B6A002251
:102020009A727B6A1B6A0022DA727B6A1B6A002240
:102030005A833B681B781A4640F21923D34003F0B9
:102040000103002B03D07B6A1B6A4022DA747B6A8F
:102050001B6A06221A773968786A00F0E9F97B6A08
:102060000022DA607B6A00221A617B6A00225A61D0
:102070007B6A00229A613B68DB69FB61FB691B7824
:1020800003F00303BB61BB6943F01003BB617B6AD0
:10209000DB6993F905301846FFF702FF7B6ADB69BD
:1020A00093F90B301846FFF7FBFEBB6943F0400382
:1020B000BB617B6ADB6993F907301846FFF7F0FED6
:1020C0007B6ADB6993F909301846FFF7E9FEBB69C3
:1020D00043F02003BB617B6A1B6ABA69D2B29A7073
:1020E000FB695A897B6A1A817B6A044A5A60002319
:1020F00018462837BD4680BD004008405549435327
:1021000080B588B000AF78607B68FB61FB69002216
:102110005A60FB691B6A00229A70FB69DB6993F9BC
:1021200005301846FFF7D0FEFB69DB6993F90B30E9
:102130001846FFF7C9FEFB69DB6993F907301846BB
:10214000FFF7C2FEFB69DB6993F909301846FFF718
:10215000BBFE0023BB61EFF31083FB60FB68BB6138
:1021600001233B613B6983F3108800BF0D4B5A6824
:10217000FB69DB691B7819464FF00043CB400949E6
:1021800013434B60074B5B68BB697B617B6983F3DF
:10219000108800BFF86900F041F900231846203785
:1021A000BD4680BD0040084080B487B000AFF860F5
:1021B000B9607A60FB687B6100233B617B69BA6828
:1021C0005A617B697A689A613B6918461C37BD463B
:1021D0005DF8047B704780B487B000AFF860B960E9
:1021E0007A60FB687B617B691B6A9B78DAB27B69EA
:1021F0001B6A02F07B02D2B29A707B691B78002BBB
:1022000006D07B697A681A617B69BA68DA6013E084
:102210007B699B78C3F30103DBB21A467B689A1A89
:102220007B691A617B699B78C3F30103DBB21A46B1
:10223000BB681A447B69DA607B691B6A9B78DAB2F7
:102240007B691B6A62F07F02D2B29A707B691B784D
:10225000002B16D17B699B7803F00303DBB2022BC2
:102260000AD1BB681B887A69126A6FEAC3536FEAA6
:10227000D3539BB2D38104E07B691B6ABA6812789E
:10228000DA70002318461C37BD465DF8047B7047A2
:1022900080B487B000AFF860B9607A603B60FB68DB
:1022A0007B617B69BA685A627B697A68DA627B69AA
:1022B0003A689A62002318461C37BD465DF8047BD5
:1022C000704780B584B000AF786039607B68FB6090
:1022D000FB681B6A9B78DBB203F07B03FB72FB6835
:1022E0001B6AFA7A22F07002D2B29A70FB6800225E
:1022F000DA60FB681B6A3968184600F0A0F9FB68D1
:102300001B6AFA7A9A70002318461037BD4680BDC2
:1023100080B483B000AF786039603B684FF0FF3223
:102320005A603B684FF0FF321A60002318460C37A2
:10233000BD465DF8047B704780B584B000AF78601F
:102340000B46FB707B68BB600623FB60FB7803F0E9
:102350000203DBB2002B29D00023FB60BB681B6AA1
:102360009B78DAB2BB681B6A02F07B02D2B29A7029
:10237000BB681B78002B0ED0BB681A6A938A43F0A7
:102380000403938200BFBB681B6A9B8AC3F380036C
:10239000DBB2002BF7D1BB6800221A61B86800F0ED
:1023A0003DF8FB68002B01D0FB681EE0FB7803F0D2
:1023B0000103DBB2002B17D00023FB60BB680022B7
:1023C0009A61BB681B78002B0ED0BB681A6A938A8F
:1023D00043F00203938200BFBB681B6A9B8AC3F36E
:1023E0004003DBB2002BF7D1FB6818461037BD461F
:1023F00080BD80B485B000AF786039607B68FB60D9
:10240000FB689A693B681A60FB6800229A610023A6
:1024100018461437BD465DF8047B704780B483B01E
:1024200000AF786000BF0C37BD465DF8047B704795
:1024300080B586B000AF78603960786800F07CF8CD
:102440003B689B781A013B68DB78DB0013437B61B8
:10245000F2233B613B685B78032B04D17B6943F03B
:1024600040037B6107E03B685B78002B03D13B694D
:1024700023F010033B617B681B6A7A69D2B21A7041
:102480007B681B6A3A69D2B29A713B68DB69BB60B0
:10249000BB681B7B082B04D17B681B6A0A225A731A
:1024A00009E0BB681B7B5B00DAB27B681B6A02F049
:1024B0000202D2B25A730023FB60BB685B78DB0177
:1024C000DBB2FA681343FB60BB689B785B0103F0E7
:1024D0002003FA681343FB607B681B6A00221A72B0
:1024E000BB681B78022B03D0BB681B78032B11D170
:1024F0007B681B6AFF225A70BB681B78022B03D1D2
:10250000FB6843F01003FB607B681B6AFA68D2B279
:10251000DA710DE07B681B6AFA68D2B2DA717B6807
:102520001A6ABB685B681946104600F088F800BF5D
:1025300000BF1837BD4680BD80B485B000AF78605D
:102540007B681B78002B2AD00123FB607B68DB694A
:10255000DB69BB607B681B78013BBA68127A134069
:102560001B0203F47063FA681343FB607B681B78FB
:10257000013B1B039BB2FA681343FB60FB689AB2F2
:102580007B681B6A42F0060292B29A8200BF7B68A7
:102590001B6A9B8A9BB21A46FB689342F7D100BF25
:1025A0001437BD465DF8047B704780B582B000AF3C
:1025B00078600B46FB701346BB7097F902301846E3
:1025C000FFF782FC97F902301846FFF7F7FBF9781E
:1025D00097F902307A681846FFF728FC00BF0837E1
:1025E000BD4680BD80B582B000AF786039603B6881
:1025F000997A3B6893F90B301A467868FFF7D5FF54
:102600003B6819793B6893F905301A467868FFF7FB
:10261000CCFF3B6899793B6893F907301A46786894
:10262000FFF7C3FF3B68197A3B6893F909301A46F4
:102630007868FFF7BAFF00BF0837BD4680BD80B499
:1026400083B000AF786039603B689A787B685A70D5
:102650003B685B78C3F30103D9B27A68137861F3FE
:10266000010313703B68DA787B689A747B68DB79C6
:10267000DBB223F05C03DAB23B681B7803F05C0347
:10268000DBB21343DAB27B68DA7100BF0C37BD46A8
:102690005DF8047B704790B58BB000AFF860B9600F
:1026A0001346FB71FB689B6A7B627B6A002B03D13C
:1026B00007F114037B6205E07B6A07F114040FCB7A
:1026C00084E80F00FB68DB691B781A467B6A1A6096
:1026D0007B6ABA689A607B6AFA791A71FB68DA6A6F
:1026E0007B6ADA60FB685B6A786A9847FB689B6A7A
:1026F000002B07D0FB689B6A1C4607F114030FCB25
:1027000084E80F0000BF2C37BD4690BD80B586B071
:1027100000AFFFF729FB0346FB7497F91330184607
:10272000FFF74CFB97F913301846FFF7F1FBF86001
:10273000FB68DB691B69002B7FD1FB681B69002BE1
:102740007BD0FB681B78002B4AD0FB681B6ADB8AB6
:10275000C3F30423DBB2BB60BB687B612FE0FB6883
:102760009B7803F00303DBB2022B0BD1FB68DB6821
:102770001B88FA68126A6FEAC3536FEAD3539BB29D
:10278000D38105E0FB68DA68FB681B6A1278DA73AC
:10279000FB681B69FA689278C2F30102D2B29A1AF6
:1027A000FB681A61FB68DB68FA689278C2F3010281
:1027B000D2B21A44FB68DA607B6901337B61FB6843
:1027C0001B781A467B69934203D2FB681B69002B76
:1027D000C5D1FB681A6A13796FF3C71313712CE024
:1027E000FB689B7803F00303DBB2022B0BD1FB6881
:1027F000DB681B88FA68126A6FEAC3536FEAD35327
:102800009BB2D38105E0FB68DA68FB681B6A12782B
:10281000DA70FB681B69FA689278C2F30102D2B2DF
:102820009A1AFB681A61FB68DB68FA689278C2F34F
:102830000102D2B21A44FB68DA60FB681B69002B04
:102840001BD1FB681B6A9B78FB71FB7943F0040387
:10285000FB71FB7903F07F03FB71FB681B6AFA795C
:102860009A70FB680022DA60FB685B6A002B04D078
:1028700080220021F868FFF70EFF00BF1837BD4621
:1028800080BD80B584B000AFFFF76EFA0346FB73DE
:1028900097F90F301846FFF791FA97F90F3018465D
:1028A000FFF736FBB860BB681B78002B0FD0BB6806
:1028B0001B6ADB8AC3F30403DBB2002B64D0BB6862
:1028C0001B6A1B8A9BB2C3F308037B6013E0BB68DF
:1028D0009B7803F00303DBB2022B07D1BB681B6AB2
:1028E0001B8A9BB2C3F308037B6004E0BB681B6ACE
:1028F0005B79DBB27B60BB689B69002B0AD1BB684C
:102900005B6A002B33D07B6804221946B868FFF756
:10291000C2FE2CE0BB685869BB689B78C3F3010317
:10292000DBB21A463B1D194606F004F9BB685B6929
:10293000BA689278C2F30102D2B21A44BB685A61F3
:10294000BB689B69BA689278C2F30102D2B29A1A44
:10295000BB689A61BB689B69002B08D1BB685B6A46
:10296000002B04D001220021B868FFF794FEBB6859
:102970001B78002B09D0BB681B6ADB8AC3F30403F6
:10298000DBB2002B8FD100E000BFBB681B78002BAF
:1029900003D0BB681B6ABE221A7100BF1037BD4648
:1029A00080BD80B582B000AFFFF7DEF90346FB7152
:1029B00097F907301846FFF7ABFA38603B681B6A97
:1029C0009B78DAB23B681B6A02F07B02D2B29A7043
:1029D0003868FFF723FD3B685B6A002B04D00222B6
:1029E00000213868FFF757FE97F907301846FFF7C0
:1029F000E5F900BF0837BD4680BD80B584B000AFA3
:102A0000FFF7B2F90346BB7297F90A301846FFF791
:102A10007FFA78600023FB607B681B78002B06D16F
:102A20007B689B7803F00303DBB2022B07D17B6842
:102A30001B6A1B8A9BB2C3F30803FB6004E07B683C
:102A40001B6A5B79DBB2FB607B681B6A1B79DBB2BC
:102A500003F03803FB72FB7A03F01003002B0BD05A
:102A60007B681B6A1B7FC3F30003DBB2002B03D11F
:102A7000FB7A43F04003FB727B681B6A1B79DAB276
:102A80007B681B6A22F03802D2B21A717868FFF7AD
:102A9000C5FC7B685B6A002B05D0FB7A1A46F96897
:102AA0007868FFF7F8FD97F90A301846FFF786F9BE
:102AB00000BF1037BD4680BD80B483B000AF034671
:102AC000FB7197F90730002B0DDB0A4A97F90730A5
:102AD0005B0952F82320FB7903F01F0322FA03F36A
:102AE00003F0010300E0002318460C37BD465DF8F3
:102AF000047B704700E100E080B483B000AFEFF3E7
:102B000003837B607B683B603B88C3F308039BB215
:102B1000DBB2103BDBB25BB218460C37BD465DF84A
:102B2000047B704780B483B000AF0346FB71084953
:102B300097F9073003F1C00251F822306FF31043C8
:102B400041F8223000BF0C37BD465DF8047B70476A
:102B50000060004080B584B000AF0346FB7197F978
:102B600007301846FFF7DEFF97F90730FB60FB6878
:102B700003F01F02064997F907305B09012000FAAC
:102B800002F2603341F8232000BF1037BD4680BDFC
:102B900000E100E080B485B000AF0346FB7197F917
:102BA0000730FB60FB6803F01F02074997F9073005
:102BB0005B09012000FA02F241F8232000BF14371C
:102BC000BD465DF8047B704700E100E080B582B04F
:102BD00000AF0346FB7197F907301846FFF7BAFFBD
:102BE00097F907301846FFF7D5FF00BF0837BD46F5
:102BF00080BDFFFF80B485B000AF0346FB7197F93D
:102C00000730FB60FB6803F01F020B4997F90730A0
:102C10005B09012000FA02F2203341F82320BFF3C0
:102C20004F8F00BFBFF36F8F00BF00BF1437BD468B
:102C30005DF8047B704700BF00E100E080B483B022
:102C400000AF0346FB7197F90730044A52F823306E
:102C500018460C37BD465DF8047B7047A01A00206B
:102C600090B585B000AF786039600023FB607B6869
:102C7000BB60002000F0E6F83B681B68DBB22C4C20
:102C8000184600F0DDF90346A3703B685B68DBB2D1
:102C9000274C184600F0D4F9034623713B689B6823
:102CA000DBB2184600F0CCF903461A46204B02F07E
:102CB0003F02D2B29A713B689B69DBB21C4C18464A
:102CC00000F0BEF9034623723B68DB68DBB2184CA8
:102CD000184600F0B5F90346A3723B681B69DBB2E6
:102CE0000133DBB2124C184600F0AAF903462373F5
:102CF0003B685B69DBB2643BDBB2184600F0A0F9CD
:102D000003461A460A4B92B2DA81BB685B681B78AD
:102D1000002B05D1BB685B689B68184600F0F6F88D
:102D2000012000F08FF8FB6818461437BD4690BDAF
:102D30000030084080B586B000AF786039607B68AD
:102D40007B6100233B617B695B6893F91130184616
:102D5000FFF7B2FEF860FB68002B0AD102210120C8
:102D600000F094F87B695B6893F911301846FFF71F
:102D70002DFF7B6900221A72314B9B78DBB218461B
:102D800000F086F903461A463B681A602C4B1B7903
:102D9000DBB2184600F07CF903461A463B685A60DD
:102DA000274B9B79DBB203F03F03DBB2184600F000
:102DB0006FF903461A463B689A60214B1B7ADBB2D7
:102DC000184600F065F903461A463B689A611C4BA9
:102DD0009B7ADBB2184600F05BF903461A463B6863
:102DE000DA60174B1B7BDBB2184600F051F9034643
:102DF0005A1E3B681A61124BDB899BB2DBB2184644
:102E000000F046F9034603F164023B685A617B69AE
:102E10001B7ADBB2002BACD1FB68002B0AD102215C
:102E2000002000F033F87B695B6893F91130184695
:102E3000FFF7E0FE3B6918461837BD4680BD00BF6E
:102E40000030084080B483B000AF0346FB710E4AE7
:102E5000FB7903F00103D9B292F8243061F3000347
:102E600082F8243000BF084B93F82430C3F30003EA
:102E7000DBB21A46FB799A42F5D100BF00BF0C378E
:102E8000BD465DF8047B70470030084080B483B0D5
:102E900000AF03460A46FB711346BB71FB79002B5A
:102EA00015D0194B93F82230DAB21749BB79134386
:102EB000DBB281F8223000BF134B93F82230DAB234
:102EC000BB791340DBB2BA799A42F5D115E00E4BCB
:102ED00093F82230DAB2BB79DB43DBB20A49134004
:102EE000DBB281F8223000BF074B93F82230DAB210
:102EF000BB791340DBB2002BF6D100BF0C37BD46C7
:102F00005DF8047B704700BF0030084080B485B096
:102F100000AF78600023FB737B681B78BB737B6812
:102F20005B787B737B689B783B737B685B68BB607B
:102F3000354B93F82430C3F30013DBB21A46BB7B46
:102F4000934220D0304B002283F82E2000BF2E4B1E
:102F500093F82E30DBB2002BF9D12B4ABB7B03F068
:102F60000103D9B292F8243061F3041382F82430BB
:102F700000BF254B93F82430C3F30013DBB21A468D
:102F8000BB7B9A42F5D1BB7B012B1FD11E4B93F823
:102F90002430C3F34013DBB21A467B7B934215D037
:102FA000194A7B7B03F00103D9B292F8243061F314
:102FB000451382F8243000BF134B93F82430C3F339
:102FC0004013DBB21A467B7B9A42F5D13B7B9B01D7
:102FD000DAB2BB68DBB203F03F03DBB21343FB732F
:102FE000094AFB7B82F82E3000BF074B93F82E3046
:102FF000DBB2FA7B9A42F8D100BF00BF1437BD465E
:103000005DF8047B704700BF0030084080B582B097
:1030100000AFFFF771FD0346FB7197F907301846C3
:10302000FFF70CFE38603B6801221A7297F90730EF
:103030001846FFF777FD00BF0837BD4680BDFFFF8C
:1030400080B483B000AF0346FB71FB790F4AA2FB4B
:103050000323DB08DBB21B015BB223F00F0358B282
:10306000FA790A4BA3FB0213D9080B469B000B44C9
:103070005B00D31ADBB25BB203435BB2DBB2184630
:103080000C37BD465DF8047B704700BFCDCCCCCC7F
:1030900080B483B000AF0346FB71FB791B09DBB240
:1030A0001A46920013445B00DAB2FB7903F00F0377
:1030B000DBB21344DBB218460C37BD465DF8047B27
:1030C0007047FFFF80B483B000AF0346FB800A491E
:1030D000FB881B0A9BB21A46FB88DBB21201134421
:1030E00051F82330C3F34003DBB218460C37BD461A
:1030F0005DF8047B704700BF0008084080B485B0CD
:1031000000AF0023FB60EFF310837B607B68FB6004
:103110000123BB60BB6883F3108800BF0D4B1B68A5
:10312000002B05D10C4B0022DA700B4B4022DA70D9
:10313000084B1B680133074A1360FB683B603B6820
:1031400083F3108800BF00BF1437BD465DF8047BD1
:10315000704700BF9C1A0020000D084080B485B065
:1031600000AF0023FB60EFF310837B607B68FB60A4
:103170000123BB60BB6883F3108800BF0F4B1B6843
:10318000002B04D00D4B1B68013B0C4A13600B4B0A
:103190001B68002B05D10A4B0022DA70084B8022F5
:1031A000DA70FB683B603B6883F3108800BF00BFA8
:1031B0001437BD465DF8047B704700BF9C1A0020A1
:1031C000000D084080B584B000AF786039607B683E
:1031D000FB60FB68044A1A60386800F0D8F90023E5
:1031E00018461037BD4680BD54524F5080B485B04C
:1031F00000AF78607B68FB60FB6800221A600023E8
:1032000018461437BD465DF8047B704780B582B020
:1032100000AF78603960386800F0B9F900231846CB
:103220000837BD4680BD80B588B000AFF8600B465A
:103230007A607B817B89BB827B683B6101233B8316
:1032400007F11003FB6107F11803184600F04AFA72
:10325000FFF754FF7B897968184600F007FAFFF7FB
:103260007DFF002318462037BD4680BD80B584B061
:1032700000AFF8600B467A607B817B891846FFF7C8
:1032800021FF0346DAB27B681A7000231846103714
:10329000BD4680BD80B487B000AFF8600B467A6051
:1032A0007B817B891B0A9BB2DBB25B0103F180430C
:1032B00003F500237B617B695B689AB27B681A80A7
:1032C000002318461C37BD465DF8047B704780B468
:1032D00087B000AFF860084611461A4603467B8166
:1032E0000B463B811346FB803A89FB881340FB82E7
:1032F000B7F90830DB431AB2B7F9063013401BB2F6
:10330000BB827B891B0A9BB2DBB25B0103F180436A
:1033100003F500233B61BB8A1A04FB8A1A433B690D
:103320009A60002318461C37BD465DF8047B704741
:1033300080B487B000AF78600B467B8013467B700B
:103340000023FB820023BB827B8823F0FF037B8268
:103350007B88DBB23B823B8A012202FA03F3FB81CA
:103360007B78002B02D1FB89BB8201E0FB89FB82C9
:103370007B8A1B0A9BB2DBB25B0103F1804303F53E
:103380000023BB60BB8A1A04FB8A1A43BB689A609D
:10339000002318461C37BD465DF8047B704780B497
:1033A0008BB000AFF860084611461A4603467B8191
:1033B0000B463B811346FB807B891B0A9BB2DBB229
:1033C0005B0103F1804303F500237B627B6A1B688A
:1033D0003B623A89FB8813409BB2FB613B89DA432D
:1033E000FB881340BB613B6A7B617A69FB691343CD
:1033F0007B61BB69DB437A6913407B617B6A7A69D5
:103400001A60002318462C37BD465DF8047B7047D0
:1034100080B487B000AFF8600B467A607B817B890F
:103420001B0A9BB2DBB25B0103F1804303F500236F
:103430007B617B695B68C3F30F439AB27B681A8038
:10344000002318461C37BD465DF8047B704780B4E6
:1034500087B000AFF8600B467A607B817B891B0ADE
:103460009BB2DBB25B0103F1804303F500237B6178
:103470007B695B68C3F30F437B827B89DBB20122EC
:1034800002FA03F33B827A8A3B8A13409BB23A8A60
:103490009A4203D17B6801221A7002E07B68002205
:1034A0001A70002318461C37BD465DF8047B704730
:1034B00080B487B000AFF860084611461A4603464C
:1034C0007B810B463B811346FB803A89FB88134086
:1034D000FB82B7F90830DB431AB2B7F90630134064
:1034E0001BB2BB827B891B0A9BB2DBB25B0103F17F
:1034F000804303F500233B61BB8A1A04FB8A1A430D
:103500003B69DA60002318461C37BD465DF8047B32
:10351000704780B584B000AF78600B467B8013465F
:103520007B707B887B817B8923F0FF037B817B8998
:103530003B810023FB810023BB817B78012B06D1DB
:103540007B88DBB2012202FA03F3FB8105E07B8872
:10355000DBB2012202FA03F3BB817B78BA89F989D5
:10356000388900F03FF8002318461037BD4680BD6B
:1035700080B483B000AF78600B46FB701346BB701D
:10358000062318460C37BD465DF8047B704780B5AE
:1035900084B000AF7860786800F0A4F87B68BB6006
:1035A000FFF7ACFD0023FB8111E0BB685A68FB8983
:1035B000DB0013449888BB685A68FB89DB0013441E
:1035C0001B68194600F052F8FB890133FB81BB6888
:1035D0001B88FA899A42E8D3FFF7C0FD00BF103775
:1035E000BD4680BD90B484B000AF04460846114685
:1035F0001A462346FB800346BB800B467B8013465E
:103600007B700023FB60FB881B0A9BB2DBB25B0173
:1036100003F1804303F50023BB60BB68DB68FB60FC
:103620007B78012B0DD1BB88FA681343FB607B8844
:103630001B046FEA13436FEA0343FA681340FB600D
:103640000CE07B881B04FA681343FB60BB886FEABD
:1036500003436FEA1343FA681340FB60BB68FA68E0
:10366000DA6000BF1037BD4690BC704780B483B0AD
:1036700000AF03463960FB803B6803F48033002BC6
:103680001CD01749FB881B0A9BB21A46FB88DBB289
:1036900012011A4451F822306FF3104341F82230DE
:1036A0000F48FB881B0A9BB21946FB88DBB23A68BD
:1036B00022F4803209010B4440F823200849FB889A
:1036C0001B0A9BB21A46FB88DBB2120113443A680C
:1036D00041F8232000BF0C37BD465DF8047B7047DE
:1036E0000008084080B586B000AF78600023FB7307
:1036F0000023BB7300237B6139E000233B6130E092
:103700007B685A687B69DB0013449A8829493B69C6
:1037100031F813309A4221D17B685A687B69DB000B
:1037200013441B6803F0F853BB60BB68B3F1807FA0
:1037300003D0BB68B3F1106F08D101223B6902FAD4
:1037400003F3DAB2FB7B1343FB7307E001223B690F
:1037500002FA03F3DAB2BB7B1343BB733B69013359
:103760003B613B69022BCBD97B6901337B617B6871
:103770001B881A467B699342BFD3012000F048FFA3
:103780000D4B93F8BB347B737A7BFB7B13437B73CA
:10379000BB7BDB43DAB27B7B13407B73064A7B7BCC
:1037A00082F8BB34012000F0E3FE00BF1837BD46AD
:1037B00080BD00BFD0D4000000E0014080B483B0E1
:1037C00000AFEFF303837B607B683B603B88C3F310
:1037D00008039BB2DBB2103BDBB25BB218460C377E
:1037E000BD465DF8047B704780B487B000AF0346E8
:1037F000FB710E4B1B6A7B617B691B0E03F0070399
:103800003B61FB797A6922FA03F303F00703FB605B
:10381000074B1A683B699A40FB6822FA03F3184683
:103820001C37BD465DF8047B704700BF00E00140D7
:103830002C1C002080B483B000AF03463960FB71BC
:1038400097F9073004493A6841F8232000BF0C3744
:10385000BD465DF8047B7047A01A002080B483B099
:1038600000AF0346FB71084997F9073003F1C00226
:1038700051F822306FF3104341F8223000BF0C376B
:10388000BD465DF8047B70470060004080B584B0A1
:1038900000AF0346FB7197F907301846FFF7DEFFCC
:1038A00097F90730FB60FB6803F01F02064997F9A0
:1038B00007305B09012000FA02F2603341F823204F
:1038C00000BF1037BD4680BD00E100E080B584B088
:1038D00000AF0346B9607A60FB73BB68DAB209498E
:1038E00097F90F301201D2B20B4483F8002397F9F5
:1038F0000F3079681846FFF79DFF00BF1037BD46AF
:1039000080BD00BF00E100E080B485B000AF034699
:10391000FB7197F90730FB60FB6803F01F02074952
:1039200097F907305B09012000FA02F241F82320E1
:1039300000BF1437BD465DF8047B704700E100E02E
:1039400080B582B000AF0346FB7197F90730184687
:10395000FFF79CFF97F907301846FFF7D5FF00BF28
:103960000837BD4680BD80B584B000AF0346B9605E
:103970007A60FB7397F90F307A68B9681846FFF7D9
:10398000A5FF97F90F301846FFF7DAFF00BF103791
:10399000BD4680BD80B483B000AF0346FB7197F98C
:1039A0000730044A52F8233018460C37BD465DF8FC
:1039B000047B7047A01A002080B586B000AF786005
:1039C00039607B687B613B685B693B617B693A6816
:1039D0005A603B68DA687B699A613B681A697B695F
:1039E0001A627B690022DA614FF40073FB603B6866
:1039F0001B881A46FB6802FB03F303F1804303F5BF
:103A0000B8131A467B691A603968786900F076F84D
:103A10003B6893F906003B681B7A7A69194600F007
:103A2000B3FA3B6893F907003B685B7A7A691946F9
:103A300000F0AAFA3B6993F906003B691B7A7A69A0
:103A4000194600F0A1FA3B6993F907003B695B7ADC
:103A50007A69194600F098FA7B6900221A617B693D
:103A6000034A9A60002318461837BD4680BD00BF40
:103A70004344415280B586B000AF786039603B68FE
:103A80007B617B683B610023FB607969386900F0EA
:103A900089F97B691A683B691A61FB68184618370F
:103AA000BD4680BD80B485B000AF78607B68FB60A8
:103AB000FB681B68FA68928A1A800023184614373C
:103AC000BD465DF8047B704780B487B000AFF860F6
:103AD0000B467A60FB72FB687B617B691B6897F918
:103AE0000B20103233F812309AB27B681A80002310
:103AF00018461C37BD465DF8047B704780B48DB016
:103B000000AF786039603B685B693B623B689B78DB
:103B10005B03FB62FB6A43F04003FB623B685B793B
:103B20001B02FA6A1343FB623B6ADB78002B04D06A
:103B3000FB6A43F42073FB6207E03B685B79002B70
:103B400003D1FB6A43F40043FB62FB6A9AB27B68D1
:103B50009A820023BB623B685B79022B06D13B6AE9
:103B6000DB781A46354B53F82230BB620023FB61E9
:103B70003B68DB785B00FA691343FB613B681B79A8
:103B8000DB03FA691343FB613B6A5B785B01FA690B
:103B90001343FB613B6A1B78BB6100237B61EFF33E
:103BA0001083BB60BB687B610123FB60FB6883F310
:103BB000108800BF224BDA683B681B88C3F11003F2
:103BC000012101FA03F3DB431D491340CB601C4B79
:103BD000DB687B693B613B6983F3108800BFFB6A4C
:103BE00099B27B681A6847F6FF530B409BB213806B
:103BF0007B681B68BA6A92B21A827B681B68FA6992
:103C000092B2DA817B681B68BA69D2B21A73002358
:103C100087F827303B6A5B79012B02D1012387F8B3
:103C200027307B681B6897F8272083F8D02000BFD7
:103C30003437BD465DF8047B704700BFD8D4000020
:103C40000040084080B58AB000AF7860396000233A
:103C5000FB6007F10C03184600F07CF83B681A681B
:103C60003B685B6813433B6200237B623B6A03F063
:103C70008053002B3CD00023FB61EFF310833B61AA
:103C80003B69FB6101237B617B6983F3108800BF83
:103C90002E4BDB682D4A23F48003D3602B4BDB686B
:103CA000FB69BB61BB6983F3108800BF284B90227E
:103CB0001A70FA687B681B68D2B283F8DE203B6812
:103CC0001B6803F08053002B04D07B6A43F480739D
:103CD0007B6203E07B6A43F480637B623B689B68A2
:103CE00003F08053002B03D07B6A43F001037B6217
:103CF0003B6A03F00053002B1ED0FA687B681B68F8
:103D0000D2B283F8DF203B681B6803F00053002B1E
:103D100004D07B6A43F400737B6203E07B6A43F464
:103D200000637B623B689B6803F00053002B03D069
:103D30007B6A43F002037B627B681B687A6A92B2FB
:103D40005A8200BF2837BD4680BD00BF00400840F2
:103D500000300F4080B584B000AF78600420FFF7DA
:103D600043FDB860BB680D4AA2FB03239B0941F2E7
:103D7000360202FB03F30A4AA2FB03239B0C013326
:103D8000FB60FB68062B01D80723FB607B68FA68A1
:103D90001A6000BF1037BD4680BD00BFD34D621012
:103DA00083DE1B4380B58CB000AF786039603B6820
:103DB0001B6823F04053BB627B685B685B697B6276
:103DC0003B685B6823F040533B623B689B6823F091
:103DD0004053FB617B681B68BA6A92B29A807B6829
:103DE0001B683A6A92B29A827B681B68FA6992B23F
:103DF0001A81BB6A1A0C7B681B6892B2DA803B6A34
:103E00001A0C7B681B6892B2DA82FB691A0C7B6819
:103E10001B6892B25A813B681A683B685B6813431F
:103E2000BB61BB6903F04053002B03D0396878684D
:103E3000FFF708FF3B68DB687B610023FB857B693C
:103E4000002B66D07B691B89FB857B691B8903F48A
:103E50000063002B41D07B681B687A691289A3F844
:103E600090207B681B687A695289A3F89C207B6844
:103E70001B687A699289A3F89E207B691A687B681F
:103E80001B6892B2A3F894207B691B681B011A0D72
:103E90007B681B6892B2A3F896207B691B681A0F97
:103EA0007B681B68D2B283F892207B695A687B6872
:103EB0001B6892B2A3F898207B695B681B011A0DFE
:103EC0007B681B6892B2A3F89A207B695B681A0F23
:103ED0007B681B68D2B283F893207B691B8903F44B
:103EE0000073002B15D07B69997C7B69DA7C7B6839
:103EF0001B680A43D2B283F8A6207B681B687A69E4
:103F0000D289A3F8A8207B681B687A69128AA3F873
:103F1000AA207B681B68FA8DA3F890207B681B6839
:103F20003A68128AA3F880207B6ADB78002B22D0C3
:103F30007B681B681B889BB23B613B6923F01F03B6
:103F4000BA6AFA60FA68002A01D1202203E0FA680E
:103F5000B2FA82F2D2B29B1A1F333B617B681B68B4
:103F60003A6992B21A807B689A8A3B699BB2134382
:103F70009AB27B689A827B68024ADA6000BF303767
:103F8000BD4680BD4344415280B582B000AF034678
:103F90003A60FB710B46BB7197F90730002B06DBCB
:103FA000B97997F907303A681846FFF7DCFC00BF8B
:103FB0000837BD4680BDB0B58CB000AF78603960C1
:103FC0007B68DB69FB62FB6A002B02D13B68FB620A
:103FD00013E0FB6A07F108041D460FCD0FC495E8F6
:103FE0000F0084E80F00FA6A3B6814461D460FCDA7
:103FF0000FC495E80F0084E80F007B689B69F86A9E
:1040000098477B68DB69002B0AD07B68DB691D461B
:1040100007F108040FCC0FC594E80F0085E80F00E6
:1040200000BF3037BD46B0BD80B58CB000AF034691
:10403000FB71FFF7C3FB03461846FFF7ABFCF862C2
:10404000FFF7BCFB03461846FFF708FCFB79BB7281
:10405000FB6A5B681B883B8100233B74FB6A1B6A1D
:10406000FB60FB6A9B69002B05D007F1080319462A
:10407000F86AFFF7A0FF00BF3037BD4680BD80B5AE
:1040800000AF0020FFF7D0FF00BF80BD80B400AFBD
:104090000C4B0122A3F8042100BF0A4BB3F80431F2
:1040A0009BB2002BF9D1074B0122A3F80021064B4C
:1040B00001229A60044B01221A6000BFBD465DF8E0
:1040C000047B704700C001400070004080B483B0A2
:1040D00000AF0B4B93F82630DBB27B60094A7B685C
:1040E00052F82330064A126AC2F30262D2B2D340B7
:1040F000054A136000BF0C37BD465DF8047B70476E
:1041000000E00140480400202C1C002080B500AFD6
:104110000B4B012283F81C210A4B052283F8262031
:10412000084B094A1A62FFF7D1FF084BF1221A73B4
:10413000064B00221A72054BF0221A7300BF80BD95
:1041400000C0014000E001401001011000200040CB
:1041500080B500AF0B4B0C4A1A600A4B0B4A5A60F1
:10416000084B4FF400429A60064B094ADA60054B4F
:104170004FF400421A61034B064A5A61FFF7A6FF4B
:1041800000BF80BD48040020002D310100127A00DC
:10419000001BB70000E1F50580B582B000AF2F4BE2
:1041A0004AF20352A3F8FE23FFF770FFFFF7D0FF98
:1041B0002A4B202283F81324284B092283F8A220BB
:1041C000264B93F88034DBB2002B08D1234B01221D
:1041D00083F88024012140F2C44000F055F81F4BC1
:1041E000002283F881241D4B002283F880241B4B7E
:1041F000002283F8322000BF184B93F83C30C3F301
:10420000C003DBB2012BF7D1144B43F202121A8523
:10421000124B002283F82A2000BF104B93F83C3049
:10422000C3F34013DBB2012BF7D1FFF76FFF01237C
:10423000FB710A4AFB7982F83E30FB7963F07F0319
:10424000FB71064AFB7982F83E30044B4FF425425D
:10425000A3F8FE2300BF0837BD4680BD00E0014043
:1042600080B483B000AF786000BF0C37BD465DF806
:10427000047B704780B485B000AFF860B9607A60A5
:104280003B6000BEFEE7FFFF2DE9B04F90B000AFEE
:10429000F861B9610023FB63FB69BA6902FB03F3B0
:1042A000BB63504B1B687B634F4A7B6BB2FBF3F3E2
:1042B0003B63BB6B00223B617A61D7E904234FF07B
:1042C00000004FF00001590141EAD261500102465D
:1042D0000B463969B2EB0108796963EB01094FF0CC
:1042E00000024FF000034FEA890343EA98734FEA54
:1042F000880290469946D7E904120B4618EB03034F
:104300003B60134649EB03037B604FF000024FF024
:104310000003D7E900894946CB00414643EA51737F
:104320004146CA00C7E90A23D7E90A23012B08D26C
:10433000BA6A3B6BB2FBF3F37B627B6A9B08FB635D
:1043400044E03B6B9B00BA6BB2FBF3F3BB63BB6B0C
:104350000022BB60FA60D7E9028942464B464FF023
:1043600000004FF00001590141EAD26150010246BC
:104370000B464146541A494663EB01054FF00002D3
:104380004FF00003AB0043EA9473A20014461D46AD
:10439000434614EB030A4B4645EB030B4FF0000278
:1043A0004FF000034FEACB0343EA5A734FEACA02C5
:1043B00092469B46C7E90AABD7E90A23012B02D2F2
:1043C000BB6AFB6302E04FF0FF33FB63FB6B002B28
:1043D00002D0F86B00F00AF800BF4037BD46BDE8D8
:1043E000B08F00BF2C1C002000CA9A3BA0F1010036
:1043F0000028FBD1704700BF80B582B000AF0346F4
:10440000FB71FB79074A52F82330002B06D0FB7969
:10441000044A52F82330FA791046984700BF08370B
:10442000BD4680BD5C1A002080B582B000AF104B45
:10443000B3F84031BB800023FB710EE0BA88FB79F2
:1044400022FA03F303F00103002B03D0FB79184693
:10445000FFF7D2FFFB790133FB71FB790F2BEDD90D
:10446000034ABB88A2F8303100BF0837BD4680BD83
:104470000060004080B58AB000AF032000F0C8F8AB
:10448000364B6FF0FF029A643B1D0C22FF21184649
:1044900004F05DFB00237B6221E0314A7B6A32F845
:1044A0001330002B18D07B6A5B097B617B6A03F0B9
:1044B0001F033B617B699B0028333B4453F8242C4A
:1044C00001213B6901FA03F3DB431A407B699B003E
:1044D00028333B4443F8242C7B6A01337B627B6A9C
:1044E0005F2BDAD91F4BBB6100233B6218E03B6AAC
:1044F0009B00BA691A443B6A9B0028333B4453F83B
:10450000243C136018493B6A9B0028333B4453F812
:10451000242C3B6AA03341F823203B6A01333B62E1
:104520003B6A022BE3D9032000F022F80023FB6151
:104530000CE00B4AFB6932F813300C4A1946FB6950
:10454000C03342F82310FB690133FB61FB695F2B29
:10455000EFD900BF00BF2837BD4680BD00800040B6
:1045600094D200007080004000E100E00060004054
:1045700080B487B000AF0346FB7100237B61EFF38B
:104580001083FB60FB687B6101233B613B6983F324
:10459000108800BFFB791A4A32F813309BB2002B07
:1045A00009D0FB79164A32F8132092B2013A91B23F
:1045B000134A22F81310FB79114A32F813309BB2D8
:1045C000002B11D10F4BB3F8FE339AB20E4B1343AD
:1045D0009AB2FB790D4931F81330DB439BB209499C
:1045E00013409BB2A1F8FE337B69BB60BB6883F3C9
:1045F000108800BF00BF1C37BD465DF8047B7047C4
:10460000201C002000E0014000A5FFFFE4D40000D2
:1046100080B487B000AF0346FB7100237B61EFF3EA
:104620001083FB60FB687B6101233B613B6983F383
:10463000108800BFFB79164A32F813309BB2002B6A
:104640000FD1144BB3F8FE339AB2FB79124931F80B
:10465000133013439AB20F49104B13439BB2A1F886
:10466000FE33FB790A4A32F8132092B2013291B23A
:10467000074A22F813107B69BB60BB6883F310887C
:1046800000BF00BF1C37BD465DF8047B704700BF0C
:10469000201C002000E00140E4D4000000A5FFFF42
:1046A00080B584B000AF78607B68FB60144B1B68FA
:1046B000002B02D1124B134A1A60114B1B68BB60CE
:1046C000FB68033323F00303FB600D4B1A68FB68A0
:1046D00013440D4A934207D904F01EFA03460C22F4
:1046E0001A604FF0FF3306E0054B1A68FB6813446D
:1046F000034A1360BB6818461037BD4680BD00BF33
:10470000281C0020502700205037002080B500AF23
:1047100000F00CF8FCF7EAFEFEE780B400AF00BE44
:1047200000BFBD465DF8047B7047FFFF80B584B0D5
:1047300000AF2F4B4FF47002C3F888202C4B2D4A4A
:104740009A600020FCF784FDFFF726FD0120FCF7AE
:104750007FFD294B3B603B6883F30A8800BF274AF3
:10476000274BD31A1A460021254804F0F0F9254AB0
:10477000254BD31A1A462549234804F0DBF9244A6D
:10478000244BD31A9B107B600023FB6007E0214A77
:10479000FB6852F823309847FB680133FB60FA68E6
:1047A0007B689A42F3DBFFF791FC0320FFF730FFB1
:1047B0000023BB6009E0184ABB6808334FF6FF715D
:1047C00022F81310BB680133BB60BB68082BF2D919
:1047D0000320FFF7CDFE0220FCF73AFDFFF74AFE6B
:1047E0000020FFF73DFD00BF1037BD4680BD00BF74
:1047F00000ED00E000000000503700204C270020B2
:10480000680400204804002000000020A0E9000007
:104810004404002040040020000D084080B483B010
:1048200000AF78607B6803F108027B685A607B68A0
:104830004FF0FF329A607B6803F108027B68DA6010
:104840007B6803F108027B681A617B6800221A60AA
:1048500000BF0C37BD465DF8047B704780B483B061
:1048600000AF78607B6800221A6100BF0C37BD463C
:104870005DF8047B704780B485B000AF7860396024
:104880007B685B68FB603B68FA685A60FB689A6803
:104890003B689A60FB689B683A685A60FB683A68B4
:1048A0009A603B687A681A617B681B685A1C7B684F
:1048B0001A6000BF1437BD465DF8047B704780B4B2
:1048C00085B000AF786039603B681B68BB60BB682F
:1048D000B3F1FF3F03D17B681B69FB600CE07B6891
:1048E0000833FB6002E0FB685B68FB60FB685B68A9
:1048F0001B68BA689A42F6D2FB685A683B685A60ED
:104900003B685B683A689A603B68FA689A60FB6843
:104910003A685A603B687A681A617B681B685A1C5F
:104920007B681A6000BF1437BD465DF8047B704792
:1049300080B485B000AF78607B681B69FB607B68E2
:104940005B687A6892689A607B689B687A6852684C
:104950005A60FB685B687A689A4203D17B689A6800
:10496000FB685A607B6800221A61FB681B685A1E4C
:10497000FB681A60FB681B6818461437BD465DF873
:10498000047B704780B584B000AF786039607B6885
:10499000FB60FB68002B06D12C4B2D4A40F20D1119
:1049A0002C48FFF767FCFDF7D5F8FB681A68FB6831
:1049B000DB6BF968096C01FB03F31A44FB689A602E
:1049C000FB6800229A63FB681A68FB685A60FB6800
:1049D0001A68FB68DB6B013BF968096C01FB03F3A8
:1049E0001A44FB68DA60FB68FF2283F84420FB6806
:1049F000FF2283F845203B68002B15D1FB681B691B
:104A0000002B1BD0FB681033184601F093F90346C6
:104A1000002B13D0104B4FF080525A60BFF34F8FD2
:104A200000BFBFF36F8F09E0FB6810331846FFF734
:104A3000F5FEFB6824331846FFF7F0FEFDF7C2F8D9
:104A4000012318461037BD4680BD00BFECD40000DE
:104A5000D4D80000F4D4000000ED00E080B588B0A8
:104A600002AFF860B9607A603B60FB68002B06D14A
:104A7000254B264A4FF4A4712548FFF7FBFB3B6802
:104A8000002B06D1234B214A4FF4A6712048FFF793
:104A9000F1FB7B68002B09D0BB68002B06D11E4BB5
:104AA0001A4A4FF4A8711A48FFF7E4FB7B68002B01
:104AB00009D1BB68002B06D0184B144A40F25111A3
:104AC0001348FFF7D7FB48233B613B69482B06D0CF
:104AD000134B0E4A40F259110D48FFF7CBFB3B69CF
:104AE0003B687B617B69002B09D097F820207B69AC
:104AF000009313467A68B968F86800F013F87B6988
:104B000018461837BD4680BD28D50000E8D80000FB
:104B1000F4D400004CD500006CD50000ACD50000EA
:104B2000ECD5000080B584B000AFF860B9607A6061
:104B3000FB70BB68002B03D1BB69BA691A6002E045
:104B4000BB697A681A60BB69FA68DA63BB69BA68DC
:104B50001A640121B869FFF715FF00BF1037BD4681
:104B600080BDFFFF80B588B002AFF860B9607A60A1
:104B7000FB68002B06D1134B134A4FF434711348D2
:104B8000FFF778FBBA68FB689A4206D9104B0E4AC9
:104B900040F2D1210D48FFF76DFB022300937B68A3
:104BA00000220021F868FFF759FF78617B69002B2C
:104BB00002D07B69BA689A637B6918461837BD468C
:104BC00080BD00BF08D6000004D90000F4D4000066
:104BD00018D6000080B58AB000AFF860B9607A607E
:104BE0003B6000237B62FB683B623B6A002B06D183
:104BF0006A4B6B4A4FF443716A48FFF73BFBBB6853
:104C0000002B0AD13B6A1B6C002B06D0664B644A12
:104C100040F20D316348FFF72DFB3B68022B0AD1B0
:104C20003B6ADB6B012B06D0604B5D4A40F20E31D4
:104C30005C48FFF71FFB01F01BFA0346002B09D16C
:104C40007B68002B06D05A4B554A40F2113155482B
:104C5000FFF710FBFCF77EFF3B6A9A6B3B6ADB6B4E
:104C60009A4202D33B68022B2CD13A68B968386A61
:104C700000F0E4FAF8613B6A5B6A002B11D03B6AF2
:104C80002433184601F056F80346002B16D0494B42
:104C90004FF080525A60BFF34F8F00BFBFF36F8F4A
:104CA0000CE0FB69002B09D0424B4FF080525A6058
:104CB000BFF34F8F00BFBFF36F8F00BFFCF782FFC2
:104CC000012366E07B68002B03D1FCF77BFF002308
:104CD0005FE07B6A002B06D107F11403184601F050
:104CE0008FF801237B62FCF76DFF00F005FEFCF7F7
:104CF00031FF3B6A93F844305BB2B3F1FF3F03D11D
:104D00003B6A002283F844203B6A93F845305BB24B
:104D1000B3F1FF3F03D13B6A002283F84520FCF743
:104D200051FF3A1D07F114031146184601F07EF8B1
:104D30000346002B25D1386A00F06AFB0346002B9E
:104D400019D03B6A10337A681146184600F09EFF6E
:104D5000386A00F0F5FA00F0DDFD0346002B7FF421
:104D600079AF144B4FF080525A60BFF34F8F00BFA2
:104D7000BFF36F8F0CE0386A00F0E2FA00F0CAFD72
:104D800068E7386A00F0DCFA00F0C4FD002300E0B8
:104D900060E718462837BD4680BD00BFECD4000050
:104DA00028D90000F4D4000038D6000090D60000C6
:104DB000E0D6000000ED00E080B58CB000AFF860F8
:104DC000B9607A603B60FB68BB62BB6A002B06D1AE
:104DD000404B414A4FF478714048FFF74BFABB68AB
:104DE000002B0AD1BB6A1B6C002B06D03C4B3A4A05
:104DF00040F2E1313948FFF73DFA3B68022B0AD116
:104E0000BB6ADB6B012B06D0364B334A40F2E231F2
:104E10003248FFF72FFAFCF77DFFEFF311837B6138
:104E20007B697B621023BB61BB6983F3118800BF80
:104E3000BB6A9A6BBB6ADB6B9A4202D33B68022B5C
:104E40003AD1BB6A93F8453087F82330BB6A9B6B35
:104E5000FB613A68B968B86A00F0F0F997F9233055
:104E6000B3F1FF3F12D1BB6A5B6A002B21D0BB6A52
:104E70002433184600F05EFF0346002B19D07B68F0
:104E8000002B16D07B6801221A6012E097F92330BC
:104E90007F2B06D1144B104A40F26B410F48FFF7AD
:104EA000E9F997F823300133DBB25AB2BB6A83F8D1
:104EB00045200123FB6201E00023FB627B6A3B612A
:104EC0003B6983F3118800BFFB6A18463037BD4643
:104ED00080BD00BFECD400003CD90000F4D4000039
:104EE00038D6000090D6000034D7000080B58AB0D4
:104EF00000AFF860B9607A6000237B62FB683B62B8
:104F00003B6A002B06D15F4B5F4A40F22F515F484E
:104F1000FFF7B0F9BB68002B0AD13B6A1B6C002B72
:104F200006D05B4B584A40F233515848FFF7A2F97C
:104F300001F09EF80346002B09D17B68002B06D0B8
:104F4000544B514A4FF4A7615048FFF793F9FCF7CF
:104F500001FE3B6A9B6BFB61FB69002B21D0B968AA
:104F6000386A00F0C7F9FB695A1E3B6A9A633B6ACC
:104F70001B69002B11D03B6A1033184600F0DAFE93
:104F80000346002B09D0444B4FF080525A60BFF3C8
:104F90004F8F00BFBFF36F8F00BFFCF713FE0123DD
:104FA0006CE07B68002B03D1FCF70CFE002365E06E
:104FB0007B6A002B06D107F11403184600F020FF8E
:104FC00001237B62FCF7FEFD00F096FCFCF7C2FDBE
:104FD0003B6A93F844305BB2B3F1FF3F03D13B6AC5
:104FE000002283F844203B6A93F845305BB2B3F16A
:104FF000FF3F03D13B6A002283F84520FCF7E2FD26
:105000003A1D07F114031146184600F00FFF03463E
:10501000002B24D1386A00F0E5F90346002B18D0A4
:105020003B6A24337A681146184600F02FFE386A2E
:1050300000F086F900F06EFC0346002B87D1164B7A
:105040004FF080525A60BFF34F8F00BFBFF36F8F96
:1050500013E0386A00F074F900F05CFC77E7386A16
:1050600000F06EF900F056FC386A00F0BBF9034618
:10507000002B3FF46CAF002300E068E718462837A8
:10508000BD4680BDD4D7000058D90000F4D400003C
:10509000E0D70000E0D6000000ED00E080B588B069
:1050A00000AF786039600023FB617B68BB61BB693E
:1050B000002B06D15B4B5C4A40F2C1515B48FFF7C5
:1050C000D9F8BB691B6C002B06D0594B564A40F2ED
:1050D000C5515648FFF7CEF800F0CAFF0346002B33
:1050E00009D13B68002B06D0524B4F4A40F2CA51BF
:1050F0004E48FFF7BFF8FCF72DFDBB699B6B7B614A
:105100007B69002B1DD07B695A1EBB699A63BB6902
:105110001B69002B11D0BB691033184600F00AFE42
:105120000346002B09D0444B4FF080525A60BFF326
:105130004F8F00BFBFF36F8F00BFFCF743FD01230C
:105140006CE03B68002B03D1FCF73CFD002365E0DD
:10515000FB69002B06D107F10C03184600F050FE46
:105160000123FB61FCF72EFD00F0C6FBFCF7F2FC0F
:10517000BB6993F844305BB2B3F1FF3F03D1BB6925
:10518000002283F84420BB6993F845305BB2B3F149
:10519000FF3F03D1BB69002283F84520FCF712FDD5
:1051A0003A4607F10C031146184600F03FFE03464D
:1051B000002B24D1B86900F015F90346002B18D054
:1051C000BB6924333A681146184600F05FFDB869A0
:1051D00000F0B6F800F09EFB0346002B8BD1164B77
:1051E0004FF080525A60BFF34F8F00BFBFF36F8FF5
:1051F00013E0B86900F0A4F800F08CFB7BE7B86915
:1052000000F09EF800F086FBB86900F0EBF803466A
:10521000002B3FF470AF002300E06CE71846203706
:10522000BD4680BDD4D7000068D90000F4D400008A
:1052300054D70000E0D6000000ED00E080B586B055
:1052400000AFF860B9607A6000233B61FB689B6B3C
:105250007B61FB681B6C002B43D07B68002B19D152
:10526000FB685868FB681B6C1A46B96803F062FC5F
:10527000FB685A68FB681B6C1A44FB685A60FB6841
:105280005A68FB689B689A422BD3FB681A68FB68D4
:105290005A6026E0FB68D868FB681B6C1A46B96840
:1052A00003F048FCFB68DA68FB681B6C5B421A443D
:1052B000FB68DA60FB68DA68FB681B689A4207D211
:1052C000FB689A68FB681B6C5B421A44FB68DA60F7
:1052D0007B68022B05D17B69002B02D07B69013BE7
:1052E0007B617B695A1CFB689A633B6918461837D7
:1052F000BD4680BD80B582B000AF786039607B6804
:105300001B6C002B18D07B68DA687B681B6C1A4416
:105310007B68DA607B68DA687B689B689A4203D3B3
:105320007B681A687B68DA607B68D9687B681B6C6D
:105330001A46386803F0FEFB00BF0837BD4680BD43
:1053400080B584B000AF7860FCF704FC7B6893F80C
:105350004530FB7311E07B685B6A002B12D07B68E1
:105360002433184600F0E6FC0346002B01D000F081
:10537000C3FDFB7B013BDBB2FB7397F90F30002BC6
:10538000E9DC00E000BF7B68FF2283F84520FCF7E2
:1053900019FCFCF7DFFB7B6893F84430BB7311E02A
:1053A0007B681B69002B12D07B681033184600F015
:1053B000C1FC0346002B01D000F09EFDBB7B013BEE
:1053C000DBB2BB7397F90E30002BE9DC00E000BFC5
:1053D0007B68FF2283F84420FCF7F4FB00BF103702
:1053E000BD4680BD80B584B000AF7860FCF7B2FBED
:1053F0007B689B6B002B02D10123FB6001E0002343
:10540000FB60FCF7DFFBFB6818461037BD4680BD2C
:1054100080B584B000AF7860FCF79CFB7B689A6B2A
:105420007B68DB6B9A4202D10123FB6001E0002321
:10543000FB60FCF7C7FBFB6818461037BD4680BD14
:1054400080B485B000AF786039600023FB6014E061
:105450000F4AFB6852F83330002B0BD10C49FB6824
:105460003A6841F833200A4AFB68DB0013447A6843
:105470005A6006E0FB680133FB60FB68092BE7D943
:1054800000BF00BF1437BD465DF8047B704700BF06
:10549000301C002080B586B000AFF860B9607A603B
:1054A000FB687B61FCF756FB7B6993F844305BB289
:1054B000B3F1FF3F03D17B69002283F844207B696D
:1054C00093F845305BB2B3F1FF3F03D17B69002213
:1054D00083F84520FCF776FB7B699B6B002B06D19C
:1054E0007B6924337A68B968184600F0F5FB78695F
:1054F000FFF726FF00BF1837BD4680BD80B58CB0D2
:1055000004AFF860B9607A603B60FB6A002B06D19B
:10551000214B224A4FF412712148FEF7ABFE3B6B40
:10552000002B06D11F4B1D4A40F249211C48FEF7B3
:10553000A1FE60237B617B69602B06D01A4B174A62
:1055400040F251211648FEF795FE7B693B6B002B1C
:105550001AD0FB6A002B17D03B6BFB61FB69FA6A20
:105560001A6300230393FB69029307F11803019365
:10557000BB6A00933B687A68B968F86800F016F86F
:10558000F86900F0A9F801E00023BB61BB69184687
:105590002037BD4680BD00BF7CD90000D0DC0000B4
:1055A0009CD90000D0D90000ECD9000080B586B0AD
:1055B00000AFF860B9607A603B60BB6A1A6B7B68C9
:1055C00003F18043013B9B0013443B613B6923F0A3
:1055D00007033B613B6903F00703002B06D03B4BFD
:1055E0003B4A40F25E313B48FEF744FEBB68002B6D
:1055F00021D000237B6114E0BA687B69134493F9DE
:105600000010BA6A7B69134434330A461A70BA68C8
:105610007B69134493F90030002B06D07B6901337A
:105620007B617B690F2BE7D900E000BFBB6A0022DA
:1056300083F8432003E0BB6A002283F834203B6AEE
:10564000042B01D904233B62BB6A3A6ADA62BB6A63
:1056500004331846FFF702F9BB6A18331846FFF700
:10566000FDF8BB6ABA6A1A613B6AC3F10502BB6AFC
:105670009A61BB6ABA6A5A62BB6A44331422002137
:10568000184603F064FABB6A583304220021184616
:1056900003F05DFABB6A5C3301220021184603F077
:1056A00056FABB6A196B3B68FA683869FCF7F8F977
:1056B0000246BB6A1A607B6A002B02D07B6ABA6A18
:1056C0001A6000BF1837BD4680BD00BF08DA000071
:1056D000E4DC00009CD9000080B582B000AF7860A7
:1056E000FCF738FA2C4B1B6801332B4A13602B4B09
:1056F0001B68002B09D1294A7B681360264B1B6865
:10570000012B10D100F020FC0DE0254B1B68002B75
:1057100009D1224B1B68DA6A7B68DB6A9A4202D89D
:105720001E4A7B6813601F4B1B6801331D4A1360C0
:105730007B68DA6A1C4B1B689A4203D97B68DB6A78
:10574000194A13607B68DA6A13469B0013449B0076
:10575000164A1A447B68043319461046FFF78BF843
:10576000FCF730FA0E4B1B68002B10D00B4B1B685C
:10577000DA6A7B68DB6A9A4209D20D4B4FF080529D
:105780005A60BFF34F8F00BFBFF36F8F00BF00BFE2
:105790000837BD4680BD00BF581D0020801C00207A
:1057A000641D0020741D0020601D0020841C00204A
:1057B00000ED00E080B584B000AF78600023FB60AE
:1057C0007B68002B13D0124B1B68002B06D0114BAB
:1057D000114A40F246511148FEF74CFD00F08CF89A
:1057E0000021786800F062FC00F094F8F860FB6833
:1057F000002B09D10A4B4FF080525A60BFF34F8FF4
:1058000000BFBFF36F8F00BF00BF1037BD4680BD24
:10581000801D00204CDA0000FCDC00009CD9000058
:1058200000ED00E080B58AB004AF0023FB600023E8
:10583000BB603A1D07F1080107F10C031846FBF79E
:1058400087FE7968BB68FA6802920193002300938F
:1058500000230A461E491F48FFF750FE03461E4A12
:1058600013601D4B1B68002B02D001237B6101E0FC
:1058700000237B617B69012B02D100F06BFC786116
:105880007B69012B12D101233B613B6983F31088B3
:1058900000BF124B4FF0FF321A60114B01221A6009
:1058A000104B00221A60FCF73DF90AE07B69B3F166
:1058B000FF3F06D10C4B0D4A40F63D010C48FEF768
:1058C000D9FC0C4B1B6800BF1837BD4680BD00BF1C
:1058D000C4DA0000115F00007C1D0020781D00204C
:1058E000641D00205C1D0020CCDA000008DD0000F3
:1058F0009CD900004000002080B400AF044B1B681E
:105900000133034A136000BFBD465DF8047B704756
:10591000801D002080B584B000AF0023FB60002311
:10592000BB60414B1B68002B06D1404B404A4FF4F3
:105930000B614048FEF79EFCFCF70CF93A4B1B68E4
:10594000013B394A1360384B1B68002B64D13A4B3A
:105950001B68002B60D02FE0384BDB68DB68FB60F6
:10596000FB6818331846FEF7E3FFFB68043318465C
:10597000FEF7DEFFFB68DA6A314B1B689A4203D9F7
:10598000FB68DB6A2E4A1360FB68DA6A13469B00E9
:1059900013449B002B4A1A44FB68043319461046F3
:1059A000FEF769FFFB68DA6A274B1B68DB6A9A42DD
:1059B00002D3264B01221A60204B1B68002BCBD14F
:1059C000FB68002B01D000F037FB214B1B687B608C
:1059D0007B68002B10D000F04FF80346002B02D05C
:1059E0001A4B01221A607B68013B7B607B68002BAD
:1059F000F1D1174B00221A60144B1B68002B0BD0FF
:105A00000123BB60134B4FF080525A60BFF34F8F9E
:105A100000BFBFF36F8F00BFFCF7D4F8BB68184618
:105A20001037BD4680BD00BF801D0020E0DA0000B9
:105A30001CDD00009CD90000581D0020181D00200E
:105A4000601D0020841C0020801C00206C1D002094
:105A5000681D002000ED00E080B483B000AF054B6E
:105A60001B687B607B6818460C37BD465DF8047B7D
:105A7000704700BF5C1D002080B586B000AF0023DA
:105A80007B61454B1B68002B7CD1444B1B68013369
:105A90003B61424A3B6913603B69002B1CD1404B80
:105AA0001B681B68002B06D03E4B3F4A40F6C321C3
:105AB0003E48FEF7DFFB3A4B1B68FB603C4B1B6824
:105AC000374A13603A4AFB6813603A4B1B6801334C
:105AD000384A136000F0B0FA374B1B683A699A42B3
