:1000000030560020995C0000B5590000A75C000044
:10001000A75C0000A75C0000A75C0000A75C0000D4
:10002000000000000000000000000000ED2E0000B5
:10003000A75C000000000000292F0000992F00009D
:100040000F3E0000993C00002F3F0000873F00005A
:100050000F3E0000993C00002F3F0000873F00004A
:10006000994500000B560000000000000000000051
:100070000000000000000000000000000000000080
:100080000000000000000000000000000000000070
:100090000000000000000000000000000000000060
:1000A0000000000000000000000000000000000050
:1000B0000000000000000000000000000000000040
:1000C0000000000000000000000000000000000030
:1000D0000000000000000000000000000000000020
:1000E0000000000000000000000000000000000010
:1000F0000000000000000000000000000000000000
:1001000000000000000000000000000000000000EF
:1001100000000000000000000000000000000000DF
:1001200000000000000000000000000000000000CF
:1001300000000000000000000000000000000000BF
:1001400000000000000000000000000000000000AF
:10015000000000000000000000000000000000009F
:10016000000000000000000000000000000000008F
:10017000000000000000000000000000000000007F
:10018000000000000000000000000000000000006F
:10019000000000000000000000000000000000005F
:1001A000000000000000000000000000000000004F
:1001B000000000000000000000000000000000003F
:1001C000FFFFFFFFFFFFFFFFFFFFFFFFFFFFFFFF3F
:1001D000FFFFFFFFFFFFFFFFFFFFFFFFFFFFFFFF2F
:1001E000FFFFFFFFFFFFFFFFFFFFFFFFFFFFFFFF1F
:1001F000FFFFFFFFFFFFFFFFFFFFFFFFFFFFFFFF0F
:1002000010B5054C237833B9044B13B1044800E012
:1002100000BF0123237010BDC00E002000000000AD
:100220000400010008B5034B1BB10349034800E07B
:1002300000BF08BD00000000C40E00200400010043
:1002400080B588B000AFF860B9607A601449F8688A
:100250000AF066FDF861FB690233FB611149F86938
:100260000AF05EFDB8611049B8690AF059FD78617D
:100270007B6900221A70BB693B61BB690333BB61B8
:100280003B6900221A70F969B8680AF012FDB96971
:1002900078680AF00EFD00BF2037BD4680BD00BF64
:1002A000A0E50000A4E50000A8E5000080B582B04C
:1002B00000AF7860786801F0AFF80346002B03D1F7
:1002C0004FF00002064B02E07B68D3E9062343ECC3
:1002D000172BB0EE470AF0EE670A0837BD4680BD1F
:1002E0000000F87F80B485B000AF786039607B682B
:1002F000002B02D03B68002B01D101235EE07A681D
:100300003B689A420DD1002358E07B681B78002B94
:1003100001D1002352E07B6801337B603B680133ED
:100320003B607B681B78FB73FB7B0133264A1344DD
:1003300093F90030DBB203F00303012B03D1FB7B05
:1003400003F1200200E0FA7B3B681B78BB73BB7BA8
:1003500001331D490B4493F90030DBB203F0030372
:10036000012B02D1BB7B203300E0BB7B9A42CCD077
:100370007B681B787B737B7B0133134A134493F9AF
:100380000030DBB203F00303012B03D17B7B03F1CD
:10039000200200E07A7B3B681B783B733B7B013398
:1003A00009490B4493F90030DBB203F00303012B3E
:1003B00002D13B7B203300E03B7BD31A1846143735
:1003C000BD465DF8047B704796FA000080B584B0A6
:1003D00000AF78607B681B6828209847F860FB684E
:1003E000002B04D028220021F86809F07AFEFB686F
:1003F00018461037BD4680BD80B584B000AF786028
:100400000023FB6037E07B681B68FB607B68DB6870
:1004100003F48073002B08D17B689B68002B04D009
:100420007B689B681846FFF7E7FF7B68DB6803F48F
:100430008073002B09D17B681B69002B05D0124B00
:100440005B687A681269104698477B68DB6803F43A
:100450000073002B09D17B681B6A002B05D00A4B67
:100460005B687A68126A10469847074B5B68786841
:100470009847FB687B607B68002BC4D100BF00BF3E
:100480001037BD4680BD00BF0000002080B400AF23
:100490002E231846BD465DF8047B7047FFFFFFFF23
:1004A00080B598B000AF786039604FF000024FF02F
:1004B0000003C7E914230023BB64FFF7E7FF0346EB
:1004C00087F84F300023FB653B68002B03D03B6867
:1004D0001B68002B01D10023C6E00023FB6563E00D
:1004E0003B681A683B689968FB6D0B4413441B78A2
:1004F000452B3DDC2B2B66DB2B3B1A2B63D801A253
:1005000052F823F075050000C705000075050000CE
:1005100093050000C7050000750500007505000083
:1005200075050000750500007505000075050000E3
:1005300075050000750500007505000075050000D3
:10054000C7050000C7050000C7050000C70500007B
:10055000C7050000C7050000C7050000C70500006B
:10056000C7050000C7050000C705000075050000AD
:10057000652B28D13B681A683B689968FB6D0B4472
:100580001344197807F10802FB6D13440A461A70E8
:1005900007E007F10802FB6D134497F84F201A702B
:1005A00000BFFB6D0133FB65FB6D3E2B0DD83B6837
:1005B000002B0AD03B689A68FB6D1A443B685B6865
:1005C0009A428DD301E000BF00E000BF07F10802AE
:1005D000FB6D134400221A7007F1480207F108036B
:1005E000114618460BF0D2F987ED140BBA6C07F1DF
:1005F00008039A4201D1002336E07968D7E9142331
:10060000C1E906231BA3D3E90023D7E9140109F0AC
:100610007FFC0346002B04D07B686FF000425A61D8
:1006200015E04FF00002124BD7E9140109F066FC07
:100630000346002B04D07B684FF000425A6106E06D
:10064000D7E9140109F08EFC02467B685A617B6889
:100650000822DA603B689B68B96C07F108028A1AC5
:100660001A443B689A60012318466037BD4680BD36
:100670000000E0C10000C0FFFFFFDF4180B485B093
:1006800000AF78600023FB600023BB600023BB60E9
:100690004CE07A68BB6813441B782F2B0FD97A681B
:1006A000BB6813441B78392B09D87A68BB6813449C
:1006B0001B781A46FB681344303BFB602DE07A68D8
:1006C000BB6813441B78402B0FD97A68BB6813446E
:1006D0001B78462B09D87A68BB6813441B781A46E6
:1006E000FB681344373BFB6017E07A68BB68134430
:1006F0001B78602B0FD97A68BB6813441B78662B74
:1007000009D87A68BB6813441B781A46FB681344FF
:10071000573BFB6001E000230CE0BB68022B02D8D2
:10072000FB681B01FB60BB680133BB60BB68032B2C
:10073000AFD9FB6818461437BD465DF8047B704797
:1007400080B58AB000AFF860B9607A6000237B6240
:100750000023FB61FB68BB61002387F82330002383
:1007600087F82230002387F82130002387F82030D3
:10077000BA68BB69D31A052B40F3B780BB69023353
:100780001846FFF77BFFF861FB69B3F55C4F04D3B4
:10079000FB69B3F5604FC0F0AA80FB69B3F5584F11
:1007A00037D3FB69B3F55C4F33D2BB6906337B614A
:1007B00000233B610C2387F82130BA687B69D31A88
:1007C000052B40F396807B691B785C2B40F093806F
:1007D0007B6901331B78752B40F08D807B69023378
:1007E0001846FFF74BFF38613B69B3F55C4FC0F02B
:1007F00084803B69B3F5604F7FD2FB699A02434B1B
:1008000013403A69C2F30902134303F580337B6254
:1008100004E0062387F82130FB697B627B6A7F2B2B
:1008200003D8012387F823301FE07B6AB3F5006FFC
:1008300006D2022387F82330C02387F8203014E043
:100840007B6AB3F5803F06D2032387F82330E02389
:1008500087F8203009E07B6AB3F5881F4FD2042364
:1008600087F82330F02387F8203097F82330013BB6
:1008700087F8223015E07B6ADBB203F03F03DAB27F
:100880007B68196897F822300B4462F07F02D2B27D
:100890001A707B6A9B097B6297F82230013B87F8CC
:1008A000223097F82230002BE5D197F82330012B26
:1008B00009D97B6AD9B27B681B6897F820200A4364
:1008C000D2B21A7007E07B6ADAB27B681B6802F06A
:1008D0007F02D2B21A707B681A6897F823301A44E4
:1008E0007B681A6097F821300BE000BF08E000BF7A
:1008F00006E000BF04E000BF02E000BF00E000BF70
:10090000002318462837BD4680BD00BF00FC0F00FD
:1009100080B58AB000AF786039603B681A683B6880
:100920009B68013313447B623B681A683B689B6891
:10093000013313443B620023FB600023FB613B68EF
:100940001A683B689B6813441B78222B40F0028195
:1009500000233B610023BB6117E03B6A1B785C2BE3
:1009600010D13B6A5A1C3B681B68D31A1A463B6875
:100970005B689A4280F0F080BB690133BB613B6ADF
:1009800001333B623B6A01333B623B681B683A6A56
:10099000D31A1A463B685B689A4203D23B6A1B78BB
:1009A000222BDAD13B681B683A6AD31A1A463B6895
:1009B0005B689A4280F0D2803B6A1B78222B40F021
:1009C000CD803B681A683B689B6813443A6AD31A27
:1009D0001A46BB69D31A3B613B681B693A6901320D
:1009E00010469847F861FB69002B00F0B980FB695D
:1009F000FB6093E07B6A1B785C2B08D07A6A531CFF
:100A00007B62FB68591CF96012781A7086E0022339
:100A1000FB753A6A7B6AD31A002B40F3A3807B6A8A
:100A200001331B78752B00F39F805C2B04DA222B9B
:100A30005CD02F2B5AD097E05C3B192B00F29480AE
:100A400001A252F823F000BFED0A0000690B00007C
:100A5000690B0000690B0000690B0000690B0000C6
:100A6000B10A0000690B0000690B0000690B00006F
:100A7000BD0A0000690B0000690B0000690B000053
:100A8000690B0000690B0000690B0000690B000096
:100A9000C90A0000690B0000690B0000690B000027
:100AA000D50A0000690B0000E10A0000FB0A000003
:100AB000FB685A1CFA6008221A702BE0FB685A1C6B
:100AC000FA600C221A7025E0FB685A1CFA600A22B0
:100AD0001A701FE0FB685A1CFA600D221A7019E0A8
:100AE000FB685A1CFA6009221A7013E0FB685A1C52
:100AF000FA607A6A52781A700CE007F10C031A4611
:100B0000396A786AFFF71CFE0346FB75FB7D002BF4
:100B10002CD000BFFB7D7A6A13447B627A6A3B6A01
:100B20009A42FFF467AFFB6800221A707B681022BC
:100B3000DA607B68FA691A613B681B683A6AD31A03
:100B40001A463B689A603B689B685A1C3B689A60EF
:100B500001231EE000BF0AE000BF08E000BF06E07E
:100B600000BF04E000BF02E000BF00E000BFFB697F
:100B7000002B03D03B685B69F86998477B6A002BC0
:100B800006D03B681B687A6AD31A1A463B689A609B
:100B9000002318462837BD4680BD00BF80B483B00F
:100BA00000AF78607B68002B03D07B681B68002B4C
:100BB00001D100232CE07B68002B05D07B689A686C
:100BC0007B685B689A4206D37B6821E07B689B6800
:100BD0005A1C7B689A607B68002B0DD07B689A68F2
:100BE0007B685B689A4207D27B681A687B689B685F
:100BF00013441B78202BE9D97B689A687B685B6873
:100C00009A4204D17B689B685A1E7B689A607B6815
:100C100018460C37BD465DF8047B704780B582B03E
:100C200000AF78607B68002B07D07B681B68002BC7
:100C300003D07B689B68002B01D000231CE07B68FD
:100C4000002B18D07B689B681A1D7B685B689A42F2
:100C500011D27B681A687B689B6813440322084999
:100C600018460AF036F80346002B04D17B689B68CF
:100C7000DA1C7B689A607B6818460837BD4680BDE1
:100C8000E4E5000080B586B000AFF860B9607A6036
:100C9000FB68002B01D100230CE0F8680AF011F882
:100CA000034601337B617B68BA687969F86800F0B4
:100CB00005F8034618461837BD4680BD80B58EB08E
:100CC00000AFF860B9607A603B6007F1180300225A
:100CD0001A605A609A60DA601A615A619A61002358
:100CE0007B63414B00221A603F4B00225A60FB6835
:100CF000002B42D0BB68002B3FD0FB68BB61BB68B8
:100D0000FB6100233B62394A07F1280307CA83E8E5
:100D100007003648FFF75AFB78637B6B002B2ED019
:100D200007F118031846FFF779FF03461846FFF747
:100D300035FF03461946786B00F068F80346002B30
:100D40001FD03B68002B0ED007F118031846FFF7A1
:100D500025FF3A6AFB699A4215D2BA693B6A134485
:100D60001B78002B0FD17B68002B04D0BA693B6A3B
:100D70001A447B681A607B6B31E000BF04E000BF5F
:100D800002E000BF00E000BF7B6B002B02D0786B5D
:100D9000FFF732FBFB68002B20D0FB683B61002390
:100DA0007B613A6AFB699A4202D23B6A7B6105E049
:100DB000FB69002B02D0FB69013B7B617B68002B48
:100DC00004D03A697B691A447B681A60064B1A465C
:100DD00007F1100393E8030082E80300002318469C
:100DE0003837BD4680BD00BFDC0E0020000000206B
:100DF00080B582B000AF7860002200217868FFF7EC
:100E000041FF034618460837BD4680BD80B582B015
:100E100000AF786039603B68002B03D03B681B68EB
:100E2000002B01D10023D2E03B68002B1DD03B6892
:100E30009B681A1D3B685B689A4216D83B681A6823
:100E40003B689B68134404226349184609F041FF3C
:100E50000346002B09D17B680422DA603B689B685B
:100E60001A1D3B689A600123B1E03B68002B1DD03E
:100E70003B689B685A1D3B685B689A4216D83B6882
:100E80001A683B689B68134405225449184609F0C8
:100E900020FF0346002B09D17B680122DA603B6802
:100EA0009B685A1D3B689A60012390E03B68002BC9
:100EB00020D03B689B681A1D3B685B689A4219D832
:100EC0003B681A683B689B681344042244491846EF
:100ED00009F0FFFE0346002B0CD17B680222DA608A
:100EE0007B6801225A613B689B681A1D3B689A60C7
:100EF00001236CE03B68002B13D03B689A683B6889
:100F00005B689A420DD23B681A683B689B68134441
:100F10001B78222B05D139687868FFF7F9FC034666
:100F200055E03B68002B23D03B689A683B685B68C0
:100F30009A421DD23B681A683B689B6813441B7831
:100F40002D2B0FD03B681A683B689B6813441B78B5
:100F50002F2B0DD93B681A683B689B6813441B789C
:100F6000392B05D839687868FFF79AFA03462EE0DE
:100F70003B68002B13D03B689A683B685B689A42D9
:100F80000DD23B681A683B689B6813441B785B2B47
:100F900005D13968786800F025F8034617E03B680A
:100FA000002B13D03B689A683B685B689A420DD26D
:100FB0003B681A683B689B6813441B787B2B05D100
:100FC0003968786800F0D2F8034600E0002318463C
:100FD0000837BD4680BD00BFB8E50000E8E5000069
:100FE000F0E5000080B586B000AF7860396000237E
:100FF0007B6100233B613B68DB68B3F57A7F01D3FB
:101000000023AFE03B68DB685A1C3B68DA603B6852
:101010001A683B689B6813441B785B2B40F09480F4
:101020003B689B685A1C3B689A603868FFF7B6FDBE
:101030003B68002B0DD03B689A683B685B689A421E
:1010400007D23B681A683B689B6813441B785D2B8A
:1010500061D03B68002B05D03B689A683B685B68B1
:101060009A4205D33B689B685A1E3B689A6072E0BF
:101070003B689B685A1E3B689A603B681033184671
:10108000FFF7A4F9F860FB68002B5FD07B69002BA9
:1010900004D1FB687B617B693B6107E03B69FA68CF
:1010A0001A60FB683A695A60FB683B613B689B6861
:1010B0005A1C3B689A603868FFF770FD39683869D8
:1010C000FFF7A4FE0346002B42D03868FFF766FD09
:1010D0003B68002B0DD03B689A683B685B689A427E
:1010E00007D23B681A683B689B6813441B782C2B1B
:1010F000C3D03B68002B2DD03B689A683B685B6887
:101100009A4227D23B681A683B689B6813441B7855
:101110005D2B1FD100E000BF3B68DB685A1E3B68B7
:10112000DA607B69002B02D07B693A695A607B6880
:101130002022DA607B687A699A603B689B685A1C57
:101140003B689A6001230DE000BF04E000BF02E0AD
:1011500000BF00E000BF7B69002B02D07869FFF779
:101160004BF9002318461837BD4680BD80B586B0C0
:1011700000AF7860396000237B6100233B613B68EE
:10118000DB68B3F57A7F01D30023EAE03B68DB68D4
:101190005A1C3B68DA603B68002B00F0D0803B684B
:1011A0009A683B685B689A4280F0C9803B681A681D
:1011B0003B689B6813441B787B2B40F0C0803B68E6
:1011C0009B685A1C3B689A603868FFF7E7FC3B68ED
:1011D000002B0ED03B689A683B685B689A4208D245
:1011E0003B681A683B689B6813441B787D2B00F0B2
:1011F0008D803B68002B05D03B689A683B685B6834
:101200009A4205D33B689B685A1E3B689A60A1E0EE
:101210003B689B685A1E3B689A603B6810331846CF
:10122000FFF7D4F8F860FB68002B00F08A807B6938
:10123000002B04D1FB687B617B693B6107E03B6964
:10124000FA681A60FB683A695A60FB683B613B6860
:101250009B685A1C3B689A603868FFF79FFC3968A6
:101260003869FFF755FB0346002B6CD03868FFF751
:1012700095FC3B691A693B691A623B6900221A6155
:101280003B68002B61D03B689A683B685B689A4278
:101290005BD23B681A683B689B6813441B783A2B07
:1012A00053D13B689B685A1C3B689A603868FFF7CB
:1012B00075FC39683869FFF7A9FD0346002B46D055
:1012C0003868FFF76BFC3B68002B0DD03B689A68D1
:1012D0003B685B689A4207D23B681A683B689B6828
:1012E00013441B782C2B98D03B68002B31D03B68E3
:1012F0009A683B685B689A422BD23B681A683B68E5
:101300009B6813441B787D2B23D100E000BF3B6812
:10131000DB685A1E3B68DA607B69002B02D07B6970
:101320003A695A607B684022DA607B687A699A6021
:101330003B689B685A1C3B689A60012311E000BF20
:1013400008E000BF06E000BF04E000BF02E000BF0D
:1013500000E000BF7B69002B02D07869FFF74CF8F2
:10136000002318461837BD4680BD80B586B000AF53
:10137000F860B9607A6000237B61FB68002B02D0C3
:10138000BB68002B01D1002333E0FB689B687B61C5
:101390007B68002B17D002E07B691B687B617B694F
:1013A000002B1CD07B691B6A002B18D07B691B6A41
:1013B0001946B86809F073FC0346002BECD10EE027
:1013C0007B691B687B617B69002B08D07B691B6A8A
:1013D0001946B868FEF786FF0346002BF0D17B69FB
:1013E000002B03D07B691B6A002B01D1002300E096
:1013F0007B6918461837BD4680BD80B582B000AF06
:1014000078603960002239687868FFF7AEFF0346DC
:1014100018460837BD4680BD80B483B000AF786001
:101420007B68002B01D1002307E07B68DB68DBB21F
:10143000082B0CBF01230023DBB218460C37BD4636
:101440005DF8047B704780B586B000AFF860B96086
:101450007A60FB687B61BB683B6100BF3B6907F159
:101460001002796818460AF0F9FA01467B691A1DDC
:101470007A610A461A601B68002BEFD100BF00BFDB
:101480001837BD4680BDFFFF80B586B000AF7860DD
:1014900039607B681B78002B01D1002340E078681D
:1014A00008F0F8FD53EC102B1046194608F0A2FD89
:1014B00003467B61D7ED057A9FED1B7AF4EEC77A80
:1014C000F1EE10FA01D500232AE097ED057ADFED61
:1014D000166AC7EE267AFDEEE77A17EE903A3B6180
:1014E0003B6907EE903AF8EEE77A9FED0F7A67EEE8
:1014F000877A97ED057A37EE677ADFED0C6AC7EEEB
:10150000267AC7ED037A3B6907EE903AB8EEE77AA0
:10151000D7ED037A77EE277A3B68C3ED007A012393
:1015200018461837BD4680BD0000C8420000704212
:1015300080B582B000AF786000F01AFA7B68034A89
:101540001A6000BF0837BD4680BD00BFF40E002002
:1015500080B582B000AF786000F00AF8642005F032
:10156000EFFB786800F020F800BF0837BD4680BD6B
:1015700080B500AF00214FF4807000F02BFA4FF4DB
:101580008C7000F0C7F800F007FA282000F0C2F8CD
:1015900001214FF4807000F01DFA42F2D05000F0AB
:1015A000B9F800BF80BDFFFF80B586B000AF78609E
:1015B0004FF00003FB604FF000037B617B681B680A
:1015C0001B881A4641F2883302FB03F307EE903A78
:1015D000B8EEE77ADFED3E6AC7EE267AC7ED037A0A
:1015E000D7ED037A9FED3B7AF4EEC77AF1EE10FA6D
:1015F00026DD97ED037ADFED386AC7EE267AB1EE85
:10160000087A67EE877A9FED357AC7EE876A16EE1D
:10161000900A08F09FF92CA3D3E9002308F03AF8C8
:1016200002460B461046194608F0E4FC07EE100A85
:10163000DFED297A67EE277A7B68C3ED017A03E054
:101640007B684FF000025A607B681B685B88002B48
:1016500012D07B681B685B881A4640F6E44302FBA5
:1016600003F307EE903AB8EEE77ADFED196AC7EEBA
:10167000267AC7ED057A02E04FF000037B61002374
:101680003B6116E0D7ED057AFDEEE77A17EE901A8A
:10169000134A3B6952F82330994207DA114A3B69F1
:1016A0009B0013441A687B689A6007E03B6901332A
:1016B0003B613B69B3F5A57FE4DB00BF00BF183792
:1016C000BD4680BDAFF30080333333333333C33F84
:1016D00000F07F4500C05A4400007A4400000C42EC
:1016E0000C0000203405002080B582B000AF786087
:1016F0007B684FF47A7202FB03F3054AA2FB0323D3
:101700009B09184605F01CFB00BF0837BD4680BD8D
:10171000D34D621080B582B000AF78600121786847
:1017200004F078F800BF0837BD4680BD80B483B0B0
:1017300000AF78600B46FB707B68FA789A720023E2
:1017400018460C37BD465DF8047B704780B483B003
:1017500000AF7860002318460C37BD465DF8047B67
:10176000704780B584B000AF78600B46FB707B6833
:10177000FB60FB6818687B681B89FA78194603F0E0
:101780009DF8B860BB6818461037BD4680BD80B56F
:1017900084B000AF78607B68FB600023FB72FB685D
:1017A00018687B681B8907F10B02194603F024F8BF
:1017B000FB7A002B01D1002300E0012318461037EB
:1017C000BD4680BD80B584B000AF78600B46FB702D
:1017D0007B68FB60FB78002B08D1FB6818687B688E
:1017E0001B890022194602F0E4FF0AE0FB78012B76
:1017F00007D1FB6818687B681B890422194602F030
:10180000D8FF002318461037BD4680BD80B586B08E
:1018100000AFF860B9607A60FB685B687B617B69E8
:101820001B687A68B968184601F09BFF03461846A2
:101830001837BD4680BD80B483B000AF7860396092
:10184000002318460C37BD465DF8047B704780B412
:1018500083B000AF78600B46FB70002318460C374E
:10186000BD465DF8047B704780B483B000AF7860FC
:101870000B46FB70002318460C37BD465DF8047B11
:10188000704780B584B000AF78607B685B68FB60B0
:10189000FB681A68FB685B681946104601F010FE89
:1018A000034618461037BD4680BD80B584B000AFF2
:1018B00078607B685B68FB60FB681B68184601F01A
:1018C000E5FE034618461037BD4680BD80B584B09E
:1018D00000AF78607B685B68FB60FB681B68022177
:1018E000184601F0EFFF034618461037BD4680BD8D
:1018F00080B584B000AF78607B685B68FB60FB6894
:101900001B680121184601F0DDFF03461846103719
:10191000BD4680BD80B500AF0249034801F0D0FD4F
:1019200000BF80BDD0E70000CC21002080B582B090
:1019300000AF78607B681B79042B09D17B689B68BA
:10194000DAB2094B1A71084B9B680748984706E0C2
:101950007B681B79022B02D1044B01221A7000BF55
:101960000837BD4680BD00BFE40E0020F00E002009
:1019700080B500AF0549064803F0E4FA054904487C
:1019800003F03EFB00F008F800BF80BD90E70000C8
:1019900090210020A8E7000080B500AF024803F0C6
:1019A00047FB00BF80BD00BF9021002080B582B002
:1019B00000AF03463960FB7197F907303A68194662
:1019C000034803F047FB00BF0837BD4680BD00BF9A
:1019D0009021002080B582B000AF03460A46FB800C
:1019E00013467B717A79FB881946034802F066FF3B
:1019F00000BF0837BD4680BD8821002080B582B079
:101A000000AF78607B689B78002B08D106490B20DB
:101A1000FFF7CCFF05490C20FFF7C8FF00E000BF2F
:101A20000837BD4680BD00BFF40E0020F60E002032
:101A300080B500AF3649374802F08AFE02223649A7
:101A4000364807F027FD0346354A136035493648C6
:101A500007F03AFD0346354A1360344B1B681B6898
:101A60001B69324A12681046984740F203122A490D
:101A70002A4807F00FFD03462D4A13604FF4827287
:101A80002549264807F006FD03462A4A136040F21E
:101A900002422149214807F0FDFC0346264A136013
:101AA00040F20B121C491D4807F0F4FC0346234A80
:101AB000136040F202321849184807F0EBFC034665
:101AC0001F4A13600F221449144807F0E3FC034631
:101AD0001C4A136040F201120F49104807F0DAFC6B
:101AE0000346194A136040F201320B490B4807F0D4
:101AF000D1FC0346154A136040F2074206490748E5
:101B000007F0C8FC0346124A136000BF80BD00BF47
:101B1000C8E800008821002078E700005C0A002067
:101B2000FC0E002024E80000700A0020F80E0020BF
:101B3000000F0020040F0020080F00200C0F0020D1
:101B4000100F0020140F0020180F00201C0F002081
:101B5000200F002080B582B000AF7860796803481C
:101B600002F044FB00BF0837BD4680BDB421002011
:101B700080B500AF0349044802F0A2FB014B1846B0
:101B800080BD00BF240F0020B421002080B584B0A8
:101B900000AF78607B681B79042B0CD17B689B6855
:101BA0005BB2FB730A4B1B6807F10F010122184659
:101BB00007F0EAFC08E07B681B79022B04D1044B98
:101BC0001B68184607F0F3FC00BF1037BD4680BD08
:101BD000F80E002090B587B002AFF860B9607A6067
:101BE0003B60FB689B681C6997F82430019397F869
:101BF000203000933B687A68B968F868A0470346CC
:101C000018461437BD4690BD80B584B000AFF8606B
:101C1000B9601346FB71FB689B685B69FA79B96828
:101C2000F8689847034618461037BD4680BDFFFF49
:101C300080B500AF084A0949094808F0D5FF064AAF
:101C40000849094808F0D0FF084BDB6D08491846E1
:101C500007F024FB00BF80BDF8E5000000E60000AF
:101C6000541A002014E60000B81A0020F4190020CD
:101C7000311F00002DE9B04F90B00AAF464B7B6199
:101C8000464B1B680133454A13607B69DB6D184680
:101C900007F094FA0346032B79D17B69D3F83835E2
:101CA000642203FB02F23D4B1B689A426FDA3A480A
:101CB00000F096F80346FB74384B00221A607B69EB
:101CC00003F5E5631B68184607F044FEC7E9020107
:101CD0007B6903F22C731B68184607F03BFE044631
:101CE0000D467B6903F5E7631B68184607F032FE73
:101CF000804689467B6903F234731B68184607F0F7
:101D000029FE82468B467B6903F20C731B681846DA
:101D100007F020FEC7E900017B6903F5E2631B6859
:101D2000184607F017FE02460B46CDE9082397ED4B
:101D3000007B8DED067BCDE904ABCDE90289CDE9D1
:101D40000045D7E902231649164808F04DFF15490A
:101D5000114800F029F80346BB7497F91230B3F12B
:101D6000FF3F07D10023BB740B4BDB6D04211846EA
:101D700007F012FA97F91330B3F1FF3F07D10023B0
:101D8000FB74054BDB6D0421184607F005FA00BF14
:101D90001837BD46BDE8B08FF4190020AC0F002005
:101DA0002CE60000480F0020B0B584B002AF786088
:101DB00039607B68DC6D7B6803F16005386808F08A
:101DC00080FF034600220192012200923A682946D0
:101DD0002046FFF7FFFE034618460837BD46B0BD54
:101DE00080B582B000AF78607B68D86D7B68C43303
:101DF00000221946FFF708FF034618460837BD467C
:101E000080BDFFFF80B588B000AF78607B68C833C5
:101E10001846FEF7EDFFF861FB69002B70D03F49D3
:101E2000F869FFF7EAFAB861BB69002B6AD03C4950
:101E3000F869FFF7E2FA78617B69002B64D03949D1
:101E4000F869FFF7DAFA38613B69002B5ED0364952
:101E5000F869FFF7D2FAF860FB68002B58D03349D5
:101E6000F869FFF7CAFAB860BB68002B52D0B869AE
:101E7000FEF71CFA53EC102B1046194608F0BAF87E
:101E800002467B6803F2CC431A607869FEF70EFACB
:101E900053EC102B1046194608F0ACF802467B684C
:101EA00003F59A631A603869FEF700FA53EC102BB9
:101EB0001046194608F09EF802467B6803F59963C0
:101EC0001A60F868FEF7F2F953EC102B1046194629
:101ED00008F090F802467B6803F2D4431A60B868B1
:101EE000FEF7E4F953EC102B1046194608F03AF8C7
:101EF00002467B68C3F8D824F869FEF77DFA0AE049
:101F000000BF08E000BF06E000BF04E000BF02E041
:101F100000BF00E000BF2037BD4680BD74E6000072
:101F20007CE6000088E6000094E60000A0E60000E1
:101F300080B582B000AF78600B46FB70FB78062B53
:101F40001AD801A252F823F0791F0000791F00006F
:101F5000791F0000791F0000791F0000791F000021
:101F6000651F00007B68DB6A1946064808F0A1FE81
:101F70000548FFF747FF00E000BF00BF0837BD4638
:101F800080BD00BF1C1B0020541A002080B582B009
:101F900002AF294B1B68294A12681946284806F0E7
:101FA000A0F8284B274A2849254806F09DF92448DF
:101FB00006F01CFA224806F06DFA0346002B00D00A
:101FC000F8E7224B224A1A60204B224A5A601F4BE4
:101FD000214A9A601D4B214ADA601C4B204A1A6143
:101FE0001A4B204A5A61194B1F4A9A61174B1F4AD4
:101FF000DA611F4B01931F4B009340F25B731E4A43
:102000000F49124807F00EF903460D4AD3650C4BF1
:10201000DB6D1A4A9A620A4BDB6D194ADA62084B89
:10202000DB6D144ADA61174A1749184808F0DCFDDD
:1020300000BFBD4680BD00BFFC0E0020F80E002092
:10204000F4190020A8E60000ACE600009418002077
:10205000FD20000025210000452100007121000025
:1020600091210000C9210000F52100001922000083
:10207000D0E60000ECE60000B8E6000014100020F6
:102080009410002004E700000CE70000B00F0020CF
:1020900080B500AF144BDB6D184607F01DF9124BED
:1020A000DB6D184607F08AF80346062B19D10F4B53
:1020B0001B680F4A126819460B4806F012F80D4BC0
:1020C0000C4A0D49084806F00FF9074806F08EF94A
:1020D000054806F0DFF9044BDB6D0121184607F0D7
:1020E0005BF800BF80BD00BFF4190020FC0E00208B
:1020F000F80E0020A8E60000ACE6000080B586B02F
:1021000000AFF860B9607A60FB681B687B617A6831
:10211000B968786906F000FA03465BB218461837CA
:10212000BD4680BD80B584B000AF78607B681B6819
:10213000FB60F86806F0DCFA03465BB2184610371D
:10214000BD4680BD80B586B000AFF860B9607A60EA
:102150003B60FB681B687B613B687A68B96878699B
:1021600006F030FA03465BB218461837BD4680BD0C
:1021700080B584B000AF78607B681B68FB60F8684E
:1021800006F09CFA03465BB218461037BD4680BD88
:1021900080B588B002AFF860B9607A603B60FB68D8
:1021A0001B687B6197F8203097F8242001920093F8
:1021B0003B687A68B968786906F0B4FA03465BB29E
:1021C00018461837BD4680BD80B586B000AFF860B0
:1021D000B9601346FB71FB681B687B61FB791A468B
:1021E000B968786906F014FB03465BB218461837E5
:1021F000BD4680BD80B584B000AF786039607B6833
:102200001B68FB603968F86806F058FB03465BB250
:1022100018461037BD4680BD80B586B000AFF86067
:10222000B9607A60FB681B687B617A68B968786915
:1022300006F044FC03465BB218461837BD4680BD25
:1022400080B582B000AF174B7B607B68164A1A617D
:102250007B684FF48072DA827B68144AC3F8A82046
:102260007B68134AC3F8CC217B68D3F8CC31114A80
:102270009A607B68104AC3F8B4207B68D3F8B43006
:10228000184608F01EFD0346DAB27B6883F8B820D2
:102290007B68002283F8D021FFF73CFB00BF0837A2
:1022A000BD4680BD441F0020B4180020B419002092
:1022B000E40E0020BD22000010E7000080B584B0CD
:1022C00000AF78602C4BFB602C4BD3F86035FA687C
:1022D000128813447A68043212781A70FB681B88DB
:1022E00001339AB2FB681A80FB681A88234B93F873
:1022F00008369BB29A422AD37B681B790D2B03D0F8
:102300007B681B790A2B34D11C4BD3F86025FB6802
:102310001B88013B134400221A70184B93F8203796
:1023200083F00103DBB2002B0DD0144BD3F8601502
:10233000FB681B88013B1A46114807F0C5FE0F4B8E
:10234000012283F82027FB6800221A8011E07B68B5
:102350001B791946094BD3F80426FB681B88013BFF
:10236000134493F90030994203D0FB6800221A808D
:1023700000BF1037BD4680BD581F0020F419002053
:10238000FE1F002080B582B000AF104B7B60104B69
:102390001A687B689A600F4B1A687B681A600E4B4C
:1023A0001A687B685A600D4B1A687B68DA600C4BC0
:1023B0001A687B681A61786806F054FC786806F041
:1023C00054FD00BF0837BD4680BD00BF301F002050
:1023D000080F0020000F0020040F00200C0F002029
:1023E000100F002080B500AF00F010F800F038F8B2
:1023F00000F05EF800F084F800F0AAF800F0D0F8E1
:1024000000F012F900F034F900BF80BD80B582B051
:1024100000AF0F4B7B600C220021786806F045FD71
:102420000C4BDB6D184606F0C9FE0346032B05D1A5
:1024300000220949786806F0EFFC04E00022074911
:10244000786806F0E9FC00BF0837BD4680BD00BFD4
:10245000301F0020F419002018E700001CE70000DE
:1024600080B586B000AF0F4B7B610F4B03F5E56382
:102470001B68184607F06EFA02460B46381D0B49DA
:1024800008F0B2FB00220121786906F00EFD3B1D29
:1024900000221946786906F0BFFC00BF1837BD4618
:1024A00080BD00BF301F0020F419002020E700008D
:1024B00080B586B000AF0F4B7B610F4B03F22C73DE
:1024C0001B68184607F046FA02460B46381D0B49B2
:1024D00008F08AFB07220121786906F0E6FC3B1D23
:1024E00000221946786906F097FC00BF1837BD46F0
:1024F00080BD00BF301F0020F419002028E7000035
:1025000080B586B000AF0F4B7B610F4B03F5E763DF
:102510001B68184607F01EFA02460B46381D0B4989
:1025200008F062FB00220221786906F0BEFC3B1D28
:1025300000221946786906F06FFC00BF1837BD46C7
:1025400080BD00BF301F0020F419002030E70000DC
:1025500080B586B000AF0F4B7B610F4B03F2347335
:102560001B68184607F0F6F902460B46381D0B4962
:1025700008F03AFB00220321786906F096FC3B1D27
:1025800000221946786906F047FC00BF1837BD469F
:1025900080BD00BF301F0020F419002040E700007C
:1025A00080B58AB000AF1C4B7B6200220421786AA0
:1025B00006F07BFC194B03F20C731B68184607F0FE
:1025C000C9F902460B4607F11400154908F00CFB47
:1025D000124B03F5E2631B68184607F0BBF902468D
:1025E0000B46381D0F4908F0FFFA07F114030022CB
:1025F0001946786A06F010FC00220521786A06F078
:1026000054FC3B1D00221946786A06F005FC00BF09
:102610002837BD4680BD00BF301F0020F4190020C0
:1026200050E700005CE7000080B586B000AF0D4BBE
:102630007B6104220021786906F037FC0A4BD3F84D
:102640004427094BD3F840373846084908F0CCFAFC
:102650003B4600221946786906F0DEFB00BF1837BA
:10266000BD4680BD301F0020F419002068E700003F
:1026700080B582B000AF364B7B607B6803F5E763C3
:1026800093ED007A7B6803F22C53D3ED007AB4EE1D
:10269000E77AF1EE10FA09DD2E4B1B681B689B6888
:1026A0002C4A126801211046984708E0294B1B6804
:1026B0001B689B68274A12680021104698477B6870
:1026C00003F2347393ED007A7B6803F5A663D3EDD0
:1026D000007AB4EEE77AF1EE10FA09DD1E4B1B68C2
:1026E0001B689B681C4A126801211046984708E045
:1026F000194B1B681B689B68174A1268002110461B
:1027000098477B6803F5E56393ED007A7B6803F5F2
:10271000A563D3ED007AB4EEE77AF1EE10FA09DDA5
:102720000E4B1B681B689B680C4A126801211046FF
:10273000984708E0094B1B681B689B68074A1268AA
:1027400000211046984700BF0837BD4680BD00BF36
:10275000F4190020180F00201C0F0020200F00206B
:1027600080B582B000AF064B7B60064B1B681946F4
:10277000786805F04EFB00BF0837BD4680BD00BF3E
:1027800018210020140F002080B582B000AF044B48
:102790007B60786805F0EAFB00BF0837BD4680BD66
:1027A0001821002080B582B000AF044B7B607868B0
:1027B000FEF7BEFE00BF0837BD4680BD24210020C5
:1027C00080B582B000AF044B7B607868FEF7C0FE36
:1027D00000BF0837BD4680BD2421002080B582B0EF
:1027E00000AF0346FB71FB79022B05D1044B5B68FC
:1027F0001946044801F0ACFF00BF0837BD4680BD54
:1028000078E700008821002080B582B000AF7860B2
:10281000FFF70EF9FFF7C6FFFFF7D2FF4FF4FA609C
:1028200004F08EFAF8E780B582B000AF7860FFF769
:1028300097FFFFF7A9FF012004F082FAF9E7FFFFF5
:1028400080B584B000AF7860FFF79CFD4FF47A73D9
:10285000FB60FB68B3F57A7F0EDDFFF789F9B8609E
:10286000BB689B68094AC2F84437BB685B68074A83
:10287000C2F840370023FB60FB680A33FB60FFF7B8
:10288000B1FD012004F05CFAE3E700BFF419002079
:1028900080B584B000AF7860204BFB60FB68204AB5
:1028A000C3F8BC21FB681F4AC3F8C021FFF7C8FC6E
:1028B000FB6893F8D031002B2BD0FB68BA331A4A4F
:1028C00019461A48FEF7BFFD184B9A68FB6803F5D6
:1028D000DE7319461046FEF7D7FD0346002B10D0D5
:1028E000124B1A69FB6803F5E07319461046FEF7B0
:1028F000CBFD0346002B04D0FB68012283F8B920EE
:1029000003E0FB68002283F8B920FB68002283F80B
:10291000D021012004F014FACAE700BF441F0020B0
:102920002914A8417FAED34274E70000542100204F
:1029300080B582B000AF114B7B60114B1A68114B10
:10294000A3FB02139B0B4EF6602101FB03F3D31A8A
:10295000002B09D179680C4806F024F90346002BB6
:1029600002D17868FFF7F6F8054B1B680133044A7B
:10297000136000BF0837BD4680BD00BF3021002076
:10298000900A002073B2E745F419002080B582B0A8
:1029900000AF7860FFF7FAFAFFF74AF9FFF778FB24
:1029A000FFF768F9FFF7C4FF012004F0C9F9F5E764
:1029B00080B400AF00BFBD465DF8047B704780B5B2
:1029C00000AFFFF7F5FF00BF80BD80B483B000AF5C
:1029D0007860396000BE00BF0C37BD465DF8047BEF
:1029E0007047FFFF80B582B000AF204B1B684FF0EF
:1029F000FF31184603F018FE78607B68012B05D084
:102A00001A4B1B6800211846FFF7DFFF184B1B7895
:102A100083F00103DBB2002B24D0154B01221A7086
:102A2000FFF7CDFF134B1B68013B124A136015E003
:102A30000E4B186800230022002103F091FB786000
:102A40007B68012B05D0094B1B6800211846FFF756
:102A5000BCFF084B1B68013B064A1360054B1B6813
:102A6000002BE5D100BF0837BD4680BD34220020D1
:102A7000302200202C22002080B500AF134B002212
:102A80001A60134B00221A70124A01214FF4807011
:102A900003F02EFB0346104A13600F4B1B68002BFC
:102AA00005D10D4B1B6800211846FFF78EFF00F083
:102AB00051F900F00DF900F0C9F800F085F800F0C8
:102AC00041F804F075F90023184680BD2C2200203F
:102AD00030220020382200203422002080B485B02B
:102AE00000AFF860B9607A60FB68074A1A60BB689B
:102AF000064A1A607B6880221A6000BF1437BD4600
:102B00005DF8047B704700BF80220020E022002097
:102B100080B485B000AFF860B9607A60FB68074A9E
:102B20001A60BB68064A1A607B6880221A6000BF80
:102B30001437BD465DF8047B704700BFE0240020D9
:102B40004025002080B584B004AF114B1B680133D1
:102B50000F4A13600F4B02930F4B0193082300930E
:102B60000E4B4FF480720E490E4803F08DFF034662
:102B70000D4A13600C4B1B68002B05D10A4B1B68D8
:102B800000211846FFF721FF00BFBD4680BD00BFF2
:102B90002C2200204027002030560020D0E80000E2
:102BA000D4E80000AD2B0000A027002080B582B043
:102BB00000AF7860FFF716FF7868FFF725FE00BFCB
:102BC0000837BD4680BDFFFF80B584B004AF114B10
:102BD0001B6801330F4A13600F4B02930F4B019395
:102BE000082300930E4B4FF480720E490E4803F0F9
:102BF0004BFF03460D4A13600C4B1B68002B05D19D
:102C00000A4B1B6800211846FFF7DFFE00BFBD46D8
:102C100080BD00BF2C220020A4270020305A0020B5
:102C2000D8E80000DCE80000312C00000428002077
:102C300080B582B000AF7860FFF7D4FE7868FFF708
:102C4000F2FD00BF0837BD4680BDFFFF80B584B0F0
:102C500004AF114B1B6801330F4A13600F4B0293F3
:102C60000F4B0193082300930E4B4FF480720E49D3
:102C70000E4803F009FF03460D4A13600C4B1B6816
:102C8000002B05D10A4B1B6800211846FFF79DFE5B
:102C900000BFBD4680BD00BF2C22002008280020B8
:102CA000305E0020E0E80000E4E80000B52C000001
:102CB0006828002080B582B000AF7860FFF792FEF0
:102CC0007868FFF7BDFD00BF0837BD4680BDFFFF38
:102CD00080B584B004AF114B1B6801330F4A1360F9
:102CE0000F4B02930F4B0193082300930E4B4FF4AD
:102CF00080720E490E4803F0C7FE03460D4A13606A
:102D00000C4B1B68002B05D10A4B1B680021184691
:102D1000FFF75BFE00BFBD4680BD00BF2C22002038
:102D20006C28002030620020E8E80000ECE8000099
:102D3000392D0000CC28002080B582B000AF78602B
:102D4000FFF750FE7868FFF7A3FD00BF0837BD46C8
:102D500080BDFFFF80B584B004AF114B1B68013309
:102D60000F4A13600F4B02930F4B019307230093FD
:102D70000E4B4FF480620E490E4803F085FE034669
:102D80000D4A13600C4B1B68002B05D10A4B1B68C6
:102D900000211846FFF719FE00BFBD4680BD00BFE9
:102DA0002C220020D028002030660020F0E800000F
:102DB000F4E80000BD2D00003029002080B582B06D
:102DC00000AF7860FFF70EFE7868FFF7DFFD00BF09
:102DD0000837BD4680BDFFFF80B483B000AF034617
:102DE0003960FB7197F90730002B0ADB3B68DAB2D8
:102DF0000C4997F907301201D2B20B4483F8002333
:102E00000AE03B68DAB20849FB7903F00F03043BA0
:102E10001201D2B20B441A7600BF0C37BD465DF8E2
:102E2000047B704700E100E000ED00E080B483B077
:102E300000AF0346FB7197F90730002B09DB0D4A01
:102E400097F90730134493F80033DBB21B09DBB268
:102E500009E0094AFB7903F00F03043B13441B7E8E
:102E6000DBB21B09DBB218460C37BD465DF8047BAC
:102E7000704700BF00E100E000ED00E080B582B0E7
:102E800000AF78607B68013BB3F1807F01D3012301
:102E90000FE00A4A7B68013B53600F214FF0FF307F
:102EA000FFF79AFF054B00229A60044B07221A6035
:102EB000002318460837BD4680BD00BF10E000E083
:102EC00080B483B000AFEFF303837B607B683B602B
:102ED0003B88C3F308039BB2DBB2103BDBB25BB2AF
:102EE00018460C37BD465DF8047B70471EF0040F92
:102EF0000CBFEFF30880EFF309800149084700BFDA
:102F0000E12F000080B400AF62B600BFBFF36F8F47
:102F100000BFEFF3148C2CF0040C8CF31488BFF377
:102F20006F8F02DF00BEFDE7104B1968EFF30982D7
:102F30001EF0100F08BF22ED108A22E9F04FEFF3C8
:102F40000B8342F8043D0A604FF0100080F31188B3
:102F5000BFF34F8FBFF36F8F04F000F94FF0000005
:102F600080F3118800F004B800BF0000642B00203B
:102F7000084801680A6802CA81F30B88B2E8F04F7A
:102F80001EF0100F08BFB2EC108A82F30988704758
:102F900000BF0000642B002080B584B000AFEFF3C9
:102FA00011837B607B68FB601023BB60BB6883F38D
:102FB000118800BF04F026F80346002B03D0074B0E
:102FC0004FF080525A60FB683B603B6883F3118886
:102FD00000BF00BF1037BD4680BD00BF00ED00E060
:102FE00080B584B000AF78607B689B69FB60FB684C
:102FF000023B1B78FB72FB7A022B03D1FFF7B8FF71
:1030000000BF09E0FB7A032B06D9054B054A40F2C5
:103010000541054802F0F4FB00BF1037BD4680BDF6
:10302000B8E900007CEA0000CCE9000080B485B07B
:1030300000AFF860B9607A603B60FB68043BFB60FE
:10304000FB684FF080721A60FB68043BFB607B6892
:1030500023F00102FB681A60FB68043BFB60114A25
:10306000FB681A60FB68143BFB603A68FB681A60F7
:10307000FB68043BFB60FB686FF002021A60FB68B0
:10308000203BFB60FB68043BFB60BB6803F128024C
:10309000FB681A60FB6818461437BD465DF8047B70
:1030A000704700BFA930000080B400AF00BEFEE74B
:1030B00080B500AFFF216FF00100FFF78DFE00F03B
:1030C000DDF8064B5B68054A43F040435360FFF769
:1030D00019FF04F043F80023184680BD30EF00E0EC
:1030E00080B584B000AFEFF311837B607B68FB6039
:1030F0001023BB60BB6883F3118800BF0E4B1B68B5
:1031000001330D4A13600C4B1B68012B0FD10B4A86
:10311000FB6813600A4B5B68C3F30803002B06D0FF
:10312000084B094A40F2F641084802F069FB00BF2B
:103130001037BD4680BD00BF34290020382900204B
:1031400000ED00E0F4E9000090EA0000CCE90000A6
:1031500080B582B000AF0F4B1B68002B06D10E4B21
:103160000E4A40F2FF410E4802F04AFB094B1B6831
:10317000013B084A1360074B1B68002B06D1094B23
:103180001B687B607B6883F3118800BF00BF083732
:10319000BD4680BD342900203CEA0000A4EA0000BE
:1031A000CCE900003829002080B487B000AF7860F7
:1031B00000237B617B68002B2BD0264B9B899BB225
:1031C0007B617B6903F40043002B14D0214BB3F8DF
:1031D000FE339BB23B611F4B4AF20252A3F8FE231F
:1031E0001C4B00229A813B699AB21A491A4B13432D
:1031F0009BB2A1F8FE33BFF34F8F00BF30BFBFF3C8
:103200006F8F00BF62B600BFBFF36F8F00BF72B693
:1032100000BF7B6903F40043002B15D00D4BB3F8BE
:10322000FE339BB2FB600B4B4AF20252A3F8FE2323
:10323000084B7A6992B29A81FB689AB20549064BAB
:1032400013439BB2A1F8FE3300BF1C37BD465DF8A7
:10325000047B704700E0014000A5FFFF80B500AF90
:1032600072B600BF03F00EFE0120FFF79DFF62B6AD
:1032700000BF03F015FE00BF80BDFFFF80B500AFAB
:10328000054B1B68054AA2FB03239B091846FFF761
:10329000F5FD00BF80BD00BF102B0020D34D621094
:1032A00080B582B000AFFFF70BFE0346FB7197F9C4
:1032B0000730002B12DB97F907301846FFF7B6FDF1
:1032C0003860084B1B781A463B68934206D2064B7F
:1032D000064A4FF4C161064802F092FA00BF08376F
:1032E000BD4680BD3C29002050EA0000B8EA00003D
:1032F000CCE9000080B483B000AFEFF303837B60C0
:103300007B683B603B88C3F308039BB2DBB2103B96
:10331000DBB25BB218460C37BD465DF8047B7047E4
:1033200080B483B000AF03463960FB7197F9073072
:1033300004493A6841F8232000BF0C37BD465DF8C8
:10334000047B70478429002080B483B000AF03461B
:10335000FB71084997F9073003F1C00251F8223098
:103360006FF3104341F8223000BF0C37BD465DF8C3
:10337000047B70470060004080B584B000AF034616
:10338000FB7197F907301846FFF7DEFF97F9073012
:10339000FB60FB6803F01F02064997F907305B09E1
:1033A000012000FA02F2603341F8232000BF1037F9
:1033B000BD4680BD00E100E080B584B000AF0346AB
:1033C000B9607A60FB73BB68DAB2094997F90F30CC
:1033D0001201D2B20B4483F8002397F90F307968B9
:1033E0001846FFF79DFF00BF1037BD4680BD00BFE8
:1033F00000E100E080B485B000AF0346FB7197F9AF
:103400000730FB60FB6803F01F02074997F907309C
:103410005B09012000FA02F241F8232000BF1437B3
:10342000BD465DF8047B704700E100E080B582B0E6
:1034300000AF0346FB7197F907301846FFF79CFF72
:1034400097F907301846FFF7D5FF00BF0837BD468C
:1034500080BDFFFF80B485B000AF0346FB7197F9D4
:103460000730FB60FB6803F01F020B4997F9073038
:103470005B09012000FA02F2203341F82320BFF358
:103480004F8F00BFBFF36F8F00BF00BF1437BD4623
:103490005DF8047B704700BF00E100E080B483B0BA
:1034A00000AF0346FB7197F90730044A52F8233006
:1034B00018460C37BD465DF8047B70478429002010
:1034C00080B58AB000AF786039607B687B623B680A
:1034D0001B7803F5800303F58C531B021A467B6AA5
:1034E0001A627B6A00221A703B681B781A4640F207
:1034F0001923D34003F00103002B02D07B6A102272
:103500001A707B6A3A68DA613B685A697B6A5A6268
:103510003B689A697B6ADA627B6A00229A627A6AFD
:103520009378012161F3010393703B685B78002B72
:1035300005D17A6A9378022161F3010393703968A7
:10354000786A00F015FB786A00F02EFA00233B62DF
:10355000EFF31083FB60FB683B6201233B613B6937
:1035600083F3108800BF474B5A683B681B781946A5
:103570004FF00043CB40DB43424913404B60414B8B
:103580005B683B6A7B617B6983F3108800BF7B6A61
:103590001B6A00229A707B6A1B6A00221A717B6A7E
:1035A0001B6A00225A727B6A1B6A00229A727B6A2B
:1035B0001B6A0022DA727B6A1B6A00225A833B680C
:1035C0001B781A4640F21923D34003F00103002B65
:1035D00003D07B6A1B6A4022DA747B6A1B6A06226C
:1035E0001A773968786A00F0E9F97B6A0022DA60B4
:1035F0007B6A00221A617B6A00225A617B6A002280
:103600009A613B68DB69FB61FB691B7803F003038C
:10361000BB61BB6943F01003BB617B6ADB6993F953
:1036200005301846FFF702FF7B6ADB6993F90B3020
:103630001846FFF7FBFEBB6943F04003BB617B6AA2
:10364000DB6993F907301846FFF7F0FE7B6ADB6908
:1036500093F909301846FFF7E9FEBB6943F02003F0
:10366000BB617B6A1B6ABA69D2B29A70FB695A89DC
:103670007B6A1A817B6A044A5A60002318462837FD
:10368000BD4680BD004008405549435380B588B0D1
:1036900000AF78607B68FB61FB6900225A60FB69C0
:1036A0001B6A00229A70FB69DB6993F905301846A2
:1036B000FFF7D0FEFB69DB6993F90B301846FFF783
:1036C000C9FEFB69DB6993F907301846FFF7C2FEB4
:1036D000FB69DB6993F909301846FFF7BBFE00234D
:1036E000BB61EFF31083FB60FB68BB6101233B61AF
:1036F0003B6983F3108800BF0D4B5A68FB69DB6997
:103700001B7819464FF00043CB40094913434B60E7
:10371000074B5B68BB697B617B6983F3108800BFE3
:10372000F86900F041F9002318462037BD4680BDF6
:103730000040084080B487B000AFF860B9607A609C
:10374000FB687B6100233B617B69BA685A617B69D6
:103750007A689A613B6918461C37BD465DF8047B60
:10376000704780B487B000AFF860B9607A60FB68DA
:103770007B617B691B6A9B78DAB27B691B6A02F00A
:103780007B02D2B29A707B691B78002B06D07B69D2
:103790007A681A617B69BA68DA6013E07B699B78A2
:1037A000C3F30103DBB21A467B689A1A7B691A617C
:1037B0007B699B78C3F30103DBB21A46BB681A44EA
:1037C0007B69DA607B691B6A9B78DAB27B691B6A6A
:1037D00062F07F02D2B29A707B691B78002B16D1FF
:1037E0007B699B7803F00303DBB2022B0AD1BB6831
:1037F0001B887A69126A6FEAC3536FEAD3539BB28C
:10380000D38104E07B691B6ABA681278DA700023FE
:1038100018461C37BD465DF8047B704780B487B0FE
:1038200000AFF860B9607A603B60FB687B617B69E0
:10383000BA685A627B697A68DA627B693A689A6226
:10384000002318461C37BD465DF8047B704780B5E1
:1038500084B000AF786039607B68FB60FB681B6AEE
:103860009B78DBB203F07B03FB72FB681B6AFA7A7E
:1038700022F07002D2B29A70FB680022DA60FB6814
:103880001B6A3968184600F0A0F9FB681B6AFA7ACF
:103890009A70002318461037BD4680BD80B483B0AF
:1038A00000AF786039603B684FF0FF325A603B6888
:1038B0004FF0FF321A60002318460C37BD465DF802
:1038C000047B704780B584B000AF78600B46FB7016
:1038D0007B68BB600623FB60FB7803F00203DBB26E
:1038E000002B29D00023FB60BB681B6A9B78DAB2EF
:1038F000BB681B6A02F07B02D2B29A70BB681B786D
:10390000002B0ED0BB681A6A938A43F0040393829B
:1039100000BFBB681B6A9B8AC3F38003DBB2002B2A
:10392000F7D1BB6800221A61B86800F03DF8FB6867
:10393000002B01D0FB681EE0FB7803F00103DBB233
:10394000002B17D00023FB60BB6800229A61BB6884
:103950001B78002B0ED0BB681A6A938A43F00203CF
:10396000938200BFBB681B6A9B8AC3F34003DBB230
:10397000002BF7D1FB6818461037BD4680BD80B4D8
:1039800085B000AF786039607B68FB60FB689A693E
:103990003B681A60FB6800229A61002318461437BE
:1039A000BD465DF8047B704780B483B000AF78609B
:1039B00000BF0C37BD465DF8047B704780B586B00C
:1039C00000AF78603960786800F07CF83B689B78DD
:1039D0001A013B68DB78DB0013437B61F2233B6118
:1039E0003B685B78032B04D17B6943F040037B6128
:1039F00007E03B685B78002B03D13B6923F01003A1
:103A00003B617B681B6A7A69D2B21A707B681B6A59
:103A10003A69D2B29A713B68DB69BB60BB681B7BB9
:103A2000082B04D17B681B6A0A225A7309E0BB6821
:103A30001B7B5B00DAB27B681B6A02F00202D2B227
:103A40005A730023FB60BB685B78DB01DBB2FA686A
:103A50001343FB60BB689B785B0103F02003FA68AB
:103A60001343FB607B681B6A00221A72BB681B78D9
:103A7000022B03D0BB681B78032B11D17B681B6A18
:103A8000FF225A70BB681B78022B03D1FB6843F0FE
:103A90001003FB607B681B6AFA68D2B2DA710DE032
:103AA0007B681B6AFA68D2B2DA717B681A6ABB68F3
:103AB0005B681946104600F088F800BF00BF183751
:103AC000BD4680BD80B485B000AF78607B681B7850
:103AD000002B2AD00123FB607B68DB69DB69BB60BC
:103AE0007B681B78013BBA68127A13401B0203F40F
:103AF0007063FA681343FB607B681B78013B1B0310
:103B00009BB2FA681343FB60FB689AB27B681B6A3E
:103B100042F0060292B29A8200BF7B681B6A9B8ABF
:103B20009BB21A46FB689342F7D100BF1437BD46DB
:103B30005DF8047B704780B582B000AF78600B46BB
:103B4000FB701346BB7097F902301846FFF782FCF2
:103B500097F902301846FFF7F7FBF97897F902302A
:103B60007A681846FFF728FC00BF0837BD4680BDBD
:103B700080B582B000AF786039603B68997A3B6865
:103B800093F90B301A467868FFF7D5FF3B6819792F
:103B90003B6893F905301A467868FFF7CCFF3B681D
:103BA00099793B6893F907301A467868FFF7C3FFA5
:103BB0003B68197A3B6893F909301A467868FFF731
:103BC000BAFF00BF0837BD4680BD80B483B000AFE8
:103BD000786039603B689A787B685A703B685B789C
:103BE000C3F30103D9B27A68137861F30103137048
:103BF0003B68DA787B689A747B68DB79DBB223F008
:103C00005C03DAB23B681B7803F05C03DBB213435E
:103C1000DAB27B68DA7100BF0C37BD465DF8047B11
:103C2000704790B58BB000AFF860B9601346FB7178
:103C3000FB689B6A7B627B6A002B03D107F114034C
:103C40007B6205E07B6A07F114040FCB84E80F0068
:103C5000FB68DB691B781A467B6A1A607B6ABA6864
:103C60009A607B6AFA791A71FB68DA6A7B6ADA60B1
:103C7000FB685B6A786A9847FB689B6A002B07D0F1
:103C8000FB689B6A1C4607F114030FCB84E80F0006
:103C900000BF2C37BD4690BD80B586B000AFFFF7A2
:103CA00029FB0346FB7497F913301846FFF74CFBCA
:103CB00097F913301846FFF7F1FBF860FB68DB69F2
:103CC0001B69002B7FD1FB681B69002B7BD0FB6835
:103CD0001B78002B4AD0FB681B6ADB8AC3F30423E2
:103CE000DBB2BB60BB687B612FE0FB689B7803F0B5
:103CF0000303DBB2022B0BD1FB68DB681B88FA687D
:103D0000126A6FEAC3536FEAD3539BB2D38105E0C3
:103D1000FB68DA68FB681B6A1278DA73FB681B6958
:103D2000FA689278C2F30102D2B29A1AFB681A6159
:103D3000FB68DB68FA689278C2F30102D2B21A44D7
:103D4000FB68DA607B6901337B61FB681B781A468C
:103D50007B69934203D2FB681B69002BC5D1FB68CA
:103D60001A6A13796FF3C71313712CE0FB689B7801
:103D700003F00303DBB2022B0BD1FB68DB681B886B
:103D8000FA68126A6FEAC3536FEAD3539BB2D381C6
:103D900005E0FB68DA68FB681B6A1278DA70FB687A
:103DA0001B69FA689278C2F30102D2B29A1AFB68D0
:103DB0001A61FB68DB68FA689278C2F30102D2B23A
:103DC0001A44FB68DA60FB681B69002B1BD1FB6897
:103DD0001B6A9B78FB71FB7943F00403FB71FB7951
:103DE00003F07F03FB71FB681B6AFA799A70FB682A
:103DF0000022DA60FB685B6A002B04D0802200217D
:103E0000F868FFF70EFF00BF1837BD4680BD80B5CC
:103E100084B000AFFFF76EFA0346FB7397F90F30DB
:103E20001846FFF791FA97F90F301846FFF736FB5F
:103E3000B860BB681B78002B0FD0BB681B6ADB8A9D
:103E4000C3F30403DBB2002B64D0BB681B6A1B8A7C
:103E50009BB2C3F308037B6013E0BB689B7803F05D
:103E60000303DBB2022B07D1BB681B6A1B8A9BB220
:103E7000C3F308037B6004E0BB681B6A5B79DBB2B9
:103E80007B60BB689B69002B0AD1BB685B6A002B17
:103E900033D07B6804221946B868FFF7C2FE2CE0D5
:103EA000BB685869BB689B78C3F30103DBB21A4651
:103EB0003B1D194606F008F9BB685B69BA68927841
:103EC000C2F30102D2B21A44BB685A61BB689B6953
:103ED000BA689278C2F30102D2B29A1ABB689A61A8
:103EE000BB689B69002B08D1BB685B6A002B04D0C0
:103EF00001220021B868FFF794FEBB681B78002BF5
:103F000009D0BB681B6ADB8AC3F30403DBB2002B56
:103F10008FD100E000BFBB681B78002B03D0BB68CB
:103F20001B6ABE221A7100BF1037BD4680BD80B526
:103F300082B000AFFFF7DEF90346FB7197F9073057
:103F40001846FFF7ABFA38603B681B6A9B78DAB219
:103F50003B681B6A02F07B02D2B29A703868FFF7A6
:103F600023FD3B685B6A002B04D0022200213868E5
:103F7000FFF757FE97F907301846FFF7E5F900BF3E
:103F80000837BD4680BD80B584B000AFFFF7B2F9F9
:103F90000346BB7297F90A301846FFF77FFA78603C
:103FA0000023FB607B681B78002B06D17B689B7825
:103FB00003F00303DBB2022B07D17B681B6A1B8A69
:103FC0009BB2C3F30803FB6004E07B681B6A5B7968
:103FD000DBB2FB607B681B6A1B79DBB203F0380342
:103FE000FB72FB7A03F01003002B0BD07B681B6A7B
:103FF0001B7FC3F30003DBB2002B03D1FB7A43F03A
:104000004003FB727B681B6A1B79DAB27B681B6A10
:1040100022F03802D2B21A717868FFF7C5FC7B68CB
:104020005B6A002B05D0FB7A1A46F9687868FFF7BF
:10403000F8FD97F90A301846FFF786F900BF1037E8
:10404000BD4680BD80B483B000AF0346FB7197F9D5
:104050000730002B0DDB0A4A97F907305B0952F84D
:104060002320FB7903F01F0322FA03F303F001037B
:1040700000E0002318460C37BD465DF8047B70470E
:1040800000E100E080B483B000AFEFF303837B6016
:104090007B683B603B88C3F308039BB2DBB2103BF9
:1040A000DBB25BB218460C37BD465DF8047B704747
:1040B00080B483B000AF0346FB71084997F907301D
:1040C00003F1C00251F822306FF3104341F822305F
:1040D00000BF0C37BD465DF8047B704700600040B0
:1040E00080B584B000AF0346FB7197F907301846DE
:1040F000FFF7DEFF97F90730FB60FB6803F01F0254
:10410000064997F907305B09012000FA02F2603393
:1041100041F8232000BF1037BD4680BD00E100E01C
:1041200080B485B000AF0346FB7197F90730FB60A0
:10413000FB6803F01F02074997F907305B0901206C
:1041400000FA02F241F8232000BF1437BD465DF8A3
:10415000047B704700E100E080B582B000AF034609
:10416000FB7197F907301846FFF7BAFF97F9073048
:104170001846FFF7D5FF00BF0837BD4680BDFFFFDB
:1041800080B485B000AF0346FB7197F90730FB6040
:10419000FB6803F01F020B4997F907305B09012008
:1041A00000FA02F2203341F82320BFF34F8F00BF03
:1041B000BFF36F8F00BF00BF1437BD465DF8047BAF
:1041C000704700BF00E100E080B483B000AF034659
:1041D000FB7197F90730044A52F8233018460C3720
:1041E000BD465DF8047B70478429002090B585B0FA
:1041F00000AF786039600023FB607B68BB60002003
:1042000000F0E6F83B681B68DBB22C4C184600F067
:10421000DDF90346A3703B685B68DBB2274C1846A8
:1042200000F0D4F9034623713B689B68DBB2184663
:1042300000F0CCF903461A46204B02F03F02D2B2FE
:104240009A713B689B69DBB21C4C184600F0BEF9C2
:10425000034623723B68DB68DBB2184C184600F05B
:10426000B5F90346A3723B681B69DBB20133DBB2CD
:10427000124C184600F0AAF9034623733B685B69A9
:10428000DBB2643BDBB2184600F0A0F903461A46E5
:104290000A4B92B2DA81BB685B681B78002B05D1B0
:1042A000BB685B689B68184600F0F6F8012000F0D8
:1042B0008FF8FB6818461437BD4690BD00300840A3
:1042C00080B586B000AF786039607B687B61002381
:1042D0003B617B695B6893F911301846FFF7B2FECA
:1042E000F860FB68002B0AD10221012000F094F84D
:1042F0007B695B6893F911301846FFF72DFF7B69E6
:1043000000221A72314B9B78DBB2184600F086F916
:1043100003461A463B681A602C4B1B79DBB21846E1
:1043200000F07CF903461A463B685A60274B9B799C
:10433000DBB203F03F03DBB2184600F06FF903462F
:104340001A463B689A60214B1B7ADBB2184600F094
:1043500065F903461A463B689A611C4B9B7ADBB2AF
:10436000184600F05BF903461A463B68DA60174BC3
:104370001B7BDBB2184600F051F903465A1E3B681E
:104380001A61124BDB899BB2DBB2184600F046F98A
:10439000034603F164023B685A617B691B7ADBB216
:1043A000002BACD1FB68002B0AD10221002000F0C9
:1043B00033F87B695B6893F911301846FFF7E0FE2C
:1043C0003B6918461837BD4680BD00BF0030084025
:1043D00080B483B000AF0346FB710E4AFB7903F053
:1043E0000103D9B292F8243061F3000382F824303B
:1043F00000BF084B93F82430C3F30003DBB21A4626
:10440000FB799A42F5D100BF00BF0C37BD465DF87D
:10441000047B70470030084080B483B000AF03468F
:104420000A46FB711346BB71FB79002B15D0194B63
:1044300093F82230DAB21749BB791343DBB281F823
:10444000223000BF134B93F82230DAB2BB7913400D
:10445000DBB2BA799A42F5D115E00E4B93F82230CF
:10446000DAB2BB79DB43DBB20A491340DBB281F835
:10447000223000BF074B93F82230DAB2BB791340E9
:10448000DBB2002BF6D100BF0C37BD465DF8047BD4
:10449000704700BF0030084080B485B000AF78603E
:1044A0000023FB737B681B78BB737B685B787B7333
:1044B0007B689B783B737B685B68BB60354B93F88C
:1044C0002430C3F30013DBB21A46BB7B934220D0E7
:1044D000304B002283F82E2000BF2E4B93F82E3055
:1044E000DBB2002BF9D12B4ABB7B03F00103D9B21D
:1044F00092F8243061F3041382F8243000BF254B76
:1045000093F82430C3F30013DBB21A46BB7B9A4204
:10451000F5D1BB7B012B1FD11E4B93F82430C3F385
:104520004013DBB21A467B7B934215D0194A7B7B42
:1045300003F00103D9B292F8243061F3451382F8F5
:10454000243000BF134B93F82430C3F34013DBB285
:104550001A467B7B9A42F5D13B7B9B01DAB2BB6862
:10456000DBB203F03F03DBB21343FB73094AFB7B6F
:1045700082F82E3000BF074B93F82E30DBB2FA7B67
:104580009A42F8D100BF00BF1437BD465DF8047BE6
:10459000704700BF0030084080B582B000AFFFF721
:1045A00071FD0346FB7197F907301846FFF70CFEC3
:1045B00038603B6801221A7297F907301846FFF7F6
:1045C00077FD00BF0837BD4680BDFFFF80B483B0D4
:1045D00000AF0346FB71FB790F4AA2FB0323DB0804
:1045E000DBB21B015BB223F00F0358B2FA790A4B1E
:1045F000A3FB0213D9080B469B000B445B00D31AA4
:10460000DBB25BB203435BB2DBB218460C37BD468C
:104610005DF8047B704700BFCDCCCCCC80B483B0B8
:1046200000AF0346FB71FB791B09DBB21A4692000F
:1046300013445B00DAB2FB7903F00F03DBB21344DF
:10464000DBB218460C37BD465DF8047B7047FFFFB0
:1046500080B483B000AF0346FB800A49FB881B0A85
:104660009BB21A46FB88DBB21201134451F8233087
:10467000C3F34003DBB218460C37BD465DF8047B3C
:10468000704700BF0008084080B485B000AF002329
:10469000FB60EFF310837B607B68FB600123BB60F2
:1046A000BB6883F3108800BF0D4B1B68002B05D13E
:1046B0000C4B0022DA700B4B4022DA70084B1B685F
:1046C0000133074A1360FB683B603B6883F3108843
:1046D00000BF00BF1437BD465DF8047B704700BFC4
:1046E00080290020000D084080B485B000AF002371
:1046F000FB60EFF310837B607B68FB600123BB6092
:10470000BB6883F3108800BF0F4B1B68002B04D0DD
:104710000D4B1B68013B0C4A13600B4B1B68002BB5
:1047200005D10A4B0022DA70084B8022DA70FB6850
:104730003B603B6883F3108800BF00BF1437BD4661
:104740005DF8047B704700BF80290020000D084001
:1047500080B584B000AF786039607B68FB60FB682F
:10476000044A1A60386800F0D8F900231846103758
:10477000BD4680BD54524F5080B485B000AF7860C4
:104780007B68FB60FB6800221A6000231846143720
:10479000BD465DF8047B704780B582B000AF78609D
:1047A0003960386800F0B9F9002318460837BD466B
:1047B00080BD80B588B000AFF8600B467A607B8121
:1047C0007B89BB827B683B6101233B8307F110033C
:1047D000FB6107F11803184600F04AFAFFF754FF8F
:1047E0007B897968184600F007FAFFF77DFF002300
:1047F00018462037BD4680BD80B584B000AFF86054
:104800000B467A607B817B891846FFF721FF0346C0
:10481000DAB27B681A70002318461037BD4680BD97
:1048200080B487B000AFF8600B467A607B817B89EB
:104830001B0A9BB2DBB25B0103F1804303F500234B
:104840007B617B695B689AB27B681A80002318469B
:104850001C37BD465DF8047B704780B487B000AF5D
:10486000F860084611461A4603467B810B463B8199
:104870001346FB803A89FB881340FB82B7F9083066
:10488000DB431AB2B7F9063013401BB2BB827B89F7
:104890001B0A9BB2DBB25B0103F1804303F50023EB
:1048A0003B61BB8A1A04FB8A1A433B699A60002366
:1048B00018461C37BD465DF8047B704780B487B04E
:1048C00000AF78600B467B8013467B700023FB8231
:1048D0000023BB827B8823F0FF037B827B88DBB2D3
:1048E0003B823B8A012202FA03F3FB817B78002B97
:1048F00002D1FB89BB8201E0FB89FB827B8A1B0A18
:104900009BB2DBB25B0103F1804303F50023BB6084
:10491000BB8A1A04FB8A1A43BB689A6000231846B4
:104920001C37BD465DF8047B704780B48BB000AF88
:10493000F860084611461A4603467B810B463B81C8
:104940001346FB807B891B0A9BB2DBB25B0103F140
:10495000804303F500237B627B6A1B683B623A89D4
:10496000FB8813409BB2FB613B89DA43FB88134011
:10497000BB613B6A7B617A69FB6913437B61BB69FD
:10498000DB437A6913407B617B6A7A691A60002392
:1049900018462C37BD465DF8047B704780B487B05D
:1049A00000AFF8600B467A607B817B891B0A9BB263
:1049B000DBB25B0103F1804303F500237B617B697C
:1049C0005B68C3F30F439AB27B681A8000231846D2
:1049D0001C37BD465DF8047B704780B487B000AFDC
:1049E000F8600B467A607B817B891B0A9BB2DBB245
:1049F0005B0103F1804303F500237B617B695B6806
:104A0000C3F30F437B827B89DBB2012202FA03F3FB
:104A10003B827A8A3B8A13409BB23A8A9A4203D1FC
:104A20007B6801221A7002E07B6800221A70002362
:104A300018461C37BD465DF8047B704780B487B0CC
:104A400000AFF860084611461A4603467B810B46C4
:104A50003B811346FB803A89FB881340FB82B7F900
:104A60000830DB431AB2B7F9063013401BB2BB82E1
:104A70007B891B0A9BB2DBB25B0103F1804303F528
:104A800000233B61BB8A1A04FB8A1A433B69DA6044
:104A9000002318461C37BD465DF8047B704780B57F
:104AA00084B000AF78600B467B8013467B707B88B8
:104AB0007B817B8923F0FF037B817B893B81002302
:104AC000FB810023BB817B78012B06D17B88DBB285
:104AD000012202FA03F3FB8105E07B88DBB20122AD
:104AE00002FA03F3BB817B78BA89F989388900F02F
:104AF0003FF8002318461037BD4680BD80B483B010
:104B000000AF78600B46FB701346BB700623184657
:104B10000C37BD465DF8047B704780B584B000AFAC
:104B20007860786800F0A4F87B68BB60FFF7ACFDA4
:104B30000023FB8111E0BB685A68FB89DB0013444A
:104B40009888BB685A68FB89DB0013441B681946C8
:104B500000F052F8FB890133FB81BB681B88FA899E
:104B60009A42E8D3FFF7C0FD00BF1037BD4680BDB5
:104B700090B484B000AF0446084611461A46234656
:104B8000FB800346BB800B467B8013467B70002373
:104B9000FB60FB881B0A9BB2DBB25B0103F1804325
:104BA00003F50023BB60BB68DB68FB607B78012BEF
:104BB0000DD1BB88FA681343FB607B881B046FEA46
:104BC00013436FEA0343FA681340FB600CE07B88F1
:104BD0001B04FA681343FB60BB886FEA03436FEA68
:104BE0001343FA681340FB60BB68FA68DA6000BFE1
:104BF0001037BD4690BC704780B483B000AF034609
:104C00003960FB803B6803F48033002B1CD01749CC
:104C1000FB881B0A9BB21A46FB88DBB212011A44BE
:104C200051F822306FF3104341F822300F48FB88CF
:104C30001B0A9BB21946FB88DBB23A6822F4803229
:104C400009010B4440F823200849FB881B0A9BB24A
:104C50001A46FB88DBB2120113443A6841F823205C
:104C600000BF0C37BD465DF8047B70470008084064
:104C700080B586B000AF78600023FB730023BB7360
:104C800000237B6139E000233B6130E07B685A6898
:104C90007B69DB0013449A8829493B6931F813305A
:104CA0009A4221D17B685A687B69DB0013441B68F8
:104CB00003F0F853BB60BB68B3F1807F03D0BB68DF
:104CC000B3F1106F08D101223B6902FA03F3DAB2A3
:104CD000FB7B1343FB7307E001223B6902FA03F3FA
:104CE000DAB2BB7B1343BB733B6901333B613B6966
:104CF000022BCBD97B6901337B617B681B881A4609
:104D00007B699342BFD3012000F048FF0D4B93F81D
:104D1000BB347B737A7BFB7B13437B73BB7BDB43B3
:104D2000DAB27B7B13407B73064A7B7B82F8BB3411
:104D3000012000F0E3FE00BF1837BD4680BD00BF74
:104D400034EB000000E0014080B483B000AFEFF32B
:104D500003837B607B683B603B88C3F308039BB2A3
:104D6000DBB2103BDBB25BB218460C37BD465DF8D8
:104D7000047B704780B487B000AF0346FB710E4BD5
:104D80001B6A7B617B691B0E03F007033B61FB79A8
:104D90007A6922FA03F303F00703FB60074B1A68F2
:104DA0003B699A40FB6822FA03F318461C37BD465C
:104DB0005DF8047B704700BF00E00140102B00202D
:104DC00080B483B000AF03463960FB7197F90730B8
:104DD00004493A6841F8232000BF0C37BD465DF80E
:104DE000047B70478429002080B483B000AF034661
:104DF000FB71084997F9073003F1C00251F82230DE
:104E00006FF3104341F8223000BF0C37BD465DF808
:104E1000047B70470060004080B584B000AF03465B
:104E2000FB7197F907301846FFF7DEFF97F9073057
:104E3000FB60FB6803F01F02064997F907305B0926
:104E4000012000FA02F2603341F8232000BF10373E
:104E5000BD4680BD00E100E080B584B000AF0346F0
:104E6000B9607A60FB73BB68DAB2094997F90F3011
:104E70001201D2B20B4483F8002397F90F307968FE
:104E80001846FFF79DFF00BF1037BD4680BD00BF2D
:104E900000E100E080B485B000AF0346FB7197F9F4
:104EA0000730FB60FB6803F01F02074997F90730E2
:104EB0005B09012000FA02F241F8232000BF1437F9
:104EC000BD465DF8047B704700E100E080B582B02C
:104ED00000AF0346FB7197F907301846FFF79CFFB8
:104EE00097F907301846FFF7D5FF00BF0837BD46D2
:104EF00080BD80B584B000AF0346B9607A60FB73B3
:104F000097F90F307A68B9681846FFF7A5FF97F947
:104F10000F301846FFF7DAFF00BF1037BD4680BDDF
:104F200080B483B000AF0346FB7197F90730044AA1
:104F300052F8233018460C37BD465DF8047B7047A5
:104F40008429002080B586B000AF786039607B6826
:104F50007B613B685B693B617B693A685A603B688F
:104F6000DA687B699A613B681A697B691A627B69B6
:104F70000022DA614FF40073FB603B681B881A461D
:104F8000FB6802FB03F303F1804303F5B8131A46F1
:104F90007B691A603968786900F076F83B6893F9A4
:104FA00006003B681B7A7A69194600F0B3FA3B6841
:104FB00093F907003B685B7A7A69194600F0AAFA10
:104FC0003B6993F906003B691B7A7A69194600F040
:104FD000A1FA3B6993F907003B695B7A7A69194644
:104FE00000F098FA7B6900221A617B69034A9A6093
:104FF000002318461837BD4680BD00BF43444152C8
:1050000080B586B000AF786039603B687B617B68B3
:105010003B610023FB607969386900F089F97B699D
:105020001A683B691A61FB6818461837BD4680BD8F
:1050300080B485B000AF78607B68FB60FB681B685C
:10504000FA68928A1A80002318461437BD465DF824
:10505000047B704780B487B000AFF8600B467A607D
:10506000FB72FB687B617B691B6897F90B20103230
:1050700033F812309AB27B681A80002318461C3726
:10508000BD465DF8047B704780B48DB000AF78609A
:1050900039603B685B693B623B689B785B03FB6202
:1050A000FB6A43F04003FB623B685B791B02FA6AD0
:1050B0001343FB623B6ADB78002B04D0FB6A43F4AA
:1050C0002073FB6207E03B685B79002B03D1FB6A2E
:1050D00043F40043FB62FB6A9AB27B689A82002326
:1050E000BB623B685B79022B06D13B6ADB781A46D0
:1050F000354B53F82230BB620023FB613B68DB7801
:105100005B00FA691343FB613B681B79DB03FA69B7
:105110001343FB613B6A5B785B01FA691343FB61F4
:105120003B6A1B78BB6100237B61EFF31083BB609C
:10513000BB687B610123FB60FB6883F3108800BFC1
:10514000224BDA683B681B88C3F11003012101FA86
:1051500003F3DB431D491340CB601C4BDB687B69C9
:105160003B613B6983F3108800BFFB6A99B27B689F
:105170001A6847F6FF530B409BB213807B681B688D
:10518000BA6A92B21A827B681B68FA6992B2DA81B3
:105190007B681B68BA69D2B21A73002387F827307C
:1051A0003B6A5B79012B02D1012387F827307B68AA
:1051B0001B6897F8272083F8D02000BF3437BD46FE
:1051C0005DF8047B704700BF3CEB000000400840E6
:1051D00080B58AB000AF786039600023FB6007F1CA
:1051E0000C03184600F07CF83B681A683B685B6863
:1051F00013433B6200237B623B6A03F08053002B26
:105200003CD00023FB61EFF310833B613B69FB6102
:1052100001237B617B6983F3108800BF2E4BDB6821
:105220002D4A23F48003D3602B4BDB68FB69BB6101
:10523000BB6983F3108800BF284B90221A70FA686C
:105240007B681B68D2B283F8DE203B681B6803F0E2
:105250008053002B04D07B6A43F480737B6203E0AD
:105260007B6A43F480637B623B689B6803F08053F6
:10527000002B03D07B6A43F001037B623B6A03F09F
:105280000053002B1ED0FA687B681B68D2B283F8EB
:10529000DF203B681B6803F00053002B04D07B6ABF
:1052A00043F400737B6203E07B6A43F400637B6238
:1052B0003B689B6803F00053002B03D07B6A43F0EC
:1052C00002037B627B681B687A6A92B25A8200BFD3
:1052D0002837BD4680BD00BF0040084000300F4069
:1052E00080B584B000AF78600420FFF743FDB8605C
:1052F000BB680D4AA2FB03239B0941F2360202FB65
:1053000003F30A4AA2FB03239B0C0133FB60FB68F7
:10531000062B01D80723FB607B68FA681A6000BF80
:105320001037BD4680BD00BFD34D621083DE1B43E6
:1053300080B58CB000AF786039603B681B6823F0A3
:105340004053BB627B685B685B697B623B685B6800
:1053500023F040533B623B689B6823F04053FB6162
:105360007B681B68BA6A92B29A807B681B683A6A4B
:1053700092B29A827B681B68FA6992B21A81BB6A00
:105380001A0C7B681B6892B2DA803B6A1A0C7B6845
:105390001B6892B2DA82FB691A0C7B681B6892B2B6
:1053A0005A813B681A683B685B681343BB61BB6901
:1053B00003F04053002B03D039687868FFF708FFEB
:1053C0003B68DB687B610023FB857B69002B66D033
:1053D0007B691B89FB857B691B8903F40063002BB8
:1053E00041D07B681B687A691289A3F890207B689A
:1053F0001B687A695289A3F89C207B681B687A69CC
:105400009289A3F89E207B691A687B681B6892B218
:10541000A3F894207B691B681B011A0D7B681B682D
:1054200092B2A3F896207B691B681A0F7B681B68F1
:10543000D2B283F892207B695A687B681B6892B26B
:10544000A3F898207B695B681B011A0D7B681B68B9
:1054500092B2A3F89A207B695B681A0F7B681B687D
:10546000D2B283F893207B691B8903F40073002B6D
:1054700015D07B69997C7B69DA7C7B681B680A4361
:10548000D2B283F8A6207B681B687A69D289A3F818
:10549000A8207B681B687A69128AA3F8AA207B6817
:1054A0001B68FA8DA3F890207B681B683A68128A03
:1054B000A3F880207B6ADB78002B22D07B681B68F6
:1054C0001B889BB23B613B6923F01F03BA6AFA60F9
:1054D000FA68002A01D1202203E0FA68B2FA82F2C7
:1054E000D2B29B1A1F333B617B681B683A6992B248
:1054F0001A807B689A8A3B699BB213439AB27B6895
:105500009A827B68024ADA6000BF3037BD4680BDB0
:105510004344415280B582B000AF03463A60FB710C
:105520000B46BB7197F90730002B06DBB97997F969
:1055300007303A681846FFF7DCFC00BF0837BD4665
:1055400080BDB0B58CB000AF786039607B68DB6936
:10555000FB62FB6A002B02D13B68FB6213E0FB6A33
:1055600007F108041D460FCD0FC495E80F0084E82D
:105570000F00FA6A3B6814461D460FCD0FC495E82C
:105580000F0084E80F007B689B69F86A98477B6886
:10559000DB69002B0AD07B68DB691D4607F1080434
:1055A0000FCC0FC594E80F0085E80F0000BF30371F
:1055B000BD46B0BD80B58CB000AF0346FB71FFF7B0
:1055C000C3FB03461846FFF7ABFCF862FFF7BCFBD2
:1055D00003461846FFF708FCFB79BB72FB6A5B6861
:1055E0001B883B8100233B74FB6A1B6AFB60FB6AE0
:1055F0009B69002B05D007F108031946F86AFFF7ED
:10560000A0FF00BF3037BD4680BD80B500AF002091
:10561000FFF7D0FF00BF80BD80B400AF0C4B01226C
:10562000A3F8042100BF0A4BB3F804319BB2002B4E
:10563000F9D1074B0122A3F80021064B01229A6001
:10564000044B01221A6000BFBD465DF8047B704721
:1056500000C001400070004080B483B000AF0B4B2D
:1056600093F82630DBB27B60094A7B6852F823301E
:10567000064A126AC2F30262D2B2D340054A1360EC
:1056800000BF0C37BD465DF8047B704700E0014069
:10569000A40E0020102B002080B500AF0B4B012280
:1056A00083F81C210A4B052283F82620084B094A5F
:1056B0001A62FFF7D1FF084BF1221A73064B002242
:1056C0001A72054BF0221A7300BF80BD00C0014062
:1056D00000E00140100101100020004080B500AF43
:1056E0000B4B0C4A1A600A4B0B4A5A60084B4FF49A
:1056F00000429A60064B094ADA60054B4FF40042BB
:105700001A61034B064A5A61FFF7A6FF00BF80BD2E
:10571000A40E0020002D310100127A00001BB700FA
:1057200000E1F50580B582B000AF2F4B4AF203527D
:10573000A3F8FE23FFF770FFFFF7D0FF2A4B2022CC
:1057400083F81324284B092283F8A220264B93F8D0
:105750008034DBB2002B08D1234B012283F8802454
:10576000012140F2C44000F055F81F4B002283F89D
:1057700081241D4B002283F880241B4B002283F8D8
:10578000322000BF184B93F83C30C3F3C003DBB2A8
:10579000012BF7D1144B43F202121A85124B00224F
:1057A00083F82A2000BF104B93F83C30C3F340131A
:1057B000DBB2012BF7D1FFF76FFF0123FB710A4A20
:1057C000FB7982F83E30FB7963F07F03FB71064A78
:1057D000FB7982F83E30044B4FF42542A3F8FE23B8
:1057E00000BF0837BD4680BD00E0014080B483B0F3
:1057F00000AF786000BF0C37BD465DF8047B704792
:1058000080B485B000AFF860B9607A603B6000BEDC
:10581000FEE7FFFF2DE9B04F90B000AFF861B9612E
:105820000023FB63FB69BA6902FB03F3BB63504BC4
:105830001B687B634F4A7B6BB2FBF3F33B63BB6B31
:1058400000223B617A61D7E904234FF000004FF05A
:105850000001590141EAD261500102460B46396903
:10586000B2EB0108796963EB01094FF000024FF0D8
:1058700000034FEA890343EA98734FEA880290468F
:105880009946D7E904120B4618EB03033B60134615
:1058900049EB03037B604FF000024FF00003D7E9B0
:1058A00000894946CB00414643EA51734146CA004C
:1058B000C7E90A23D7E90A23012B08D2BA6A3B6B4E
:1058C000B2FBF3F37B627B6A9B08FB6344E03B6BB8
:1058D0009B00BA6BB2FBF3F3BB63BB6B0022BB60F4
:1058E000FA60D7E9028942464B464FF000004FF07C
:1058F0000001590141EAD261500102460B4641467E
:10590000541A494663EB01054FF000024FF00003C3
:10591000AB0043EA9473A20014461D46434614EBC1
:10592000030A4B4645EB030B4FF000024FF0000318
:105930004FEACB0343EA5A734FEACA0292469B46A8
:10594000C7E90AABD7E90A23012B02D2BB6AFB6382
:1059500002E04FF0FF33FB63FB6B002B02D0F86BD0
:1059600000F00AF800BF4037BD46BDE8B08F00BF69
:10597000102B002000CA9A3BA0F101000028FBD1A7
:10598000704700BF80B582B000AF0346FB71FB7962
:10599000074A52F82330002B06D0FB79044A52F80C
:1059A0002330FA791046984700BF0837BD4680BDBE
:1059B0004029002080B582B000AF104BB3F84031D1
:1059C000BB800023FB710EE0BA88FB7922FA03F357
:1059D00003F00103002B03D0FB791846FFF7D2FF39
:1059E000FB790133FB71FB790F2BEDD9034ABB889F
:1059F000A2F8303100BF0837BD4680BD00600040CE
:105A000080B58AB000AF032000F0C8F8364B6FF0C5
:105A1000FF029A643B1D0C22FF21184604F061FB33
:105A200000237B6221E0314A7B6A32F81330002B7D
:105A300018D07B6A5B097B617B6A03F01F033B61C3
:105A40007B699B0028333B4453F8242C01213B699C
:105A500001FA03F3DB431A407B699B0028333B4484
:105A600043F8242C7B6A01337B627B6A5F2BDAD993
:105A70001F4BBB6100233B6218E03B6A9B00BA6985
:105A80001A443B6A9B0028333B4453F8243C136080
:105A900018493B6A9B0028333B4453F8242C3B6A4B
:105AA000A03341F823203B6A01333B623B6A022B5F
:105AB000E3D9032000F022F80023FB610CE00B4A3D
:105AC000FB6932F813300C4A1946FB69C03342F8BF
:105AD0002310FB690133FB61FB695F2BEFD900BF2A
