:10000000306D0020552A000069270000632A000097
:10001000632A0000632A0000632A0000632A0000AC
:10002000000000000000000000000000C90B0000FC
:10003000632A000000000000050C0000750C0000A1
:10004000EB1A0000751900000B1C0000631C000077
:10005000EB1A0000751900000B1C0000631C000067
:100060000000000000000000000000000000000090
:100070000000000000000000000000000000000080
:100080000000000000000000000000000000000070
:100090000000000000000000000000000000000060
:1000A0000000000000000000000000000000000050
:1000B0000000000000000000000000000000000040
:1000C0000000000000000000000000000000000030
:1000D0000000000000000000000000000000000020
:1000E0000000000000000000000000000000000010
:1000F0000000000000000000000000000000000000
:1001000000000000000000000000000000000000EF
:1001100000000000000000000000000000000000DF
:1001200000000000000000000000000000000000CF
:1001300000000000000000000000000000000000BF
:1001400000000000000000000000000000000000AF
:10015000000000000000000000000000000000009F
:10016000000000000000000000000000000000008F
:10017000000000000000000000000000000000007F
:10018000000000000000000000000000000000006F
:10019000000000000000000000000000000000005F
:1001A000000000000000000000000000000000004F
:1001B000000000000000000000000000000000003F
:1001C000FFFFFFFFFFFFFFFFFFFFFFFFFFFFFFFF3F
:1001D000FFFFFFFFFFFFFFFFFFFFFFFFFFFFFFFF2F
:1001E000FFFFFFFFFFFFFFFFFFFFFFFFFFFFFFFF1F
:1001F000FFFFFFFFFFFFFFFFFFFFFFFFFFFFFFFF0F
:1002000010B5054C237833B9044B13B1044800E012
:1002100000BF0123237010BDC000002000000000BB
:10022000E483000008B5034B1BB10349034800E019
:1002300000BF08BD00000000C4000020E4830000EF
:1002400080B588B000AFF860B9607A601449F8688A
:1002500005F031FEF861FB690233FB611149F86971
:1002600005F029FEB8611049B86905F024FE7861EF
:100270007B6900221A70BB693B61BB690333BB61B8
:100280003B6900221A70F969B86805F0F1FDB96997
:10029000786805F0EDFD00BF2037BD4680BD00BF8A
:1002A000AC6F0000B06F0000B46F000080B582B08A
:1002B00000AF7860786803F021FC00BF0837BD46C6
:1002C00080BD80B483B000AF78600B46FB707B6864
:1002D000FA789A72002318460C37BD465DF8047B05
:1002E000704780B483B000AF7860002318460C37A5
:1002F000BD465DF8047B704780B483B000AF786082
:100300000B46FB70002318460C37BD465DF8047B96
:10031000704780B483B000AF7860002318460C3774
:10032000BD465DF8047B704780B586B000AFF860CD
:10033000B9607A60FB685B687B617B691B687A687F
:10034000B968184601F07BF8034618461837BD46D1
:1003500080BD80B483B000AF786039600023184658
:100360000C37BD465DF8047B704780B483B000AFA6
:1003700078600B46FB70002318460C37BD465DF8CD
:10038000047B704780B483B000AF78600B46FB708D
:10039000002318460C37BD465DF8047B704780B5D6
:1003A00084B000AF78607B685B68FB60FB681A68AC
:1003B000FB685B681946104600F0F0FE03461846DD
:1003C0001037BD4680BD80B584B000AF78607B68D3
:1003D0005B68FB60FB681B68184600F0C5FF0346BE
:1003E00018461037BD4680BD80B584B000AF786038
:1003F0007B685B68FB60FB681B680221184601F0A4
:10040000CFF8034618461037BD4680BD80B584B08E
:1004100000AF78607B685B68FB60FB681B6801214C
:10042000184601F0BDF8034618461037BD4680BD9A
:1004300080B500AF02220F490F4805F0DFFA0346EE
:100440000E4A13600D4B1B680121184605F0F0FAA7
:100450000B490C4805F0FEFA03460B4A13600A4BA1
:100460001B681B681B69084A12681046984700BF42
:1004700080BD00BF0070000000000020E0000020F0
:100480004070000010000020DC00002080B584B027
:1004900000AF78607B681B79042B0CD17B689B686C
:1004A0005BB2FB730A4B1B6807F10F010122184670
:1004B00005F030FB08E07B681B79022B04D1044B6C
:1004C0001B68184605F039FB00BF1037BD4680BDDC
:1004D000DC00002080B582B002AF264B1B68264AA4
:1004E00012681946254804F072FB254B244A254919
:1004F000224804F06FFC214804F0D8FC1F4804F0A7
:1005000029FD0346002B00D0F8E71F4B1F4A1A6055
:100510001D4B1F4A5A601C4B1E4A9A601A4B1E4ABA
:10052000DA60194B1D4A1A61174B1D4A5A61164B66
:100530001C4A9A61144B1C4ADA6100230193002380
:10054000009340F25B73194A0C490F4805F03CF9DF
:1005500003460A4AD365094BDB6D154A9A62074B7D
:10056000DB6D144ADA62054BDB6D134ADA6100BFBA
:10057000BD4680BDE0000020DC00002048190020BE
:10058000B86F0000BC6F0000A818002089060000AA
:10059000B1060000D1060000FD0600001D070000A6
:1005A0005507000081070000A5070000C86F000084
:1005B000C8180020A8100020DC6F000090B589B09A
:1005C00002AF2A4A3B1D92E80300186004331980E9
:1005D00007F10A0300221A605A609A609A81244B3C
:1005E000DB6D184605F02CF9214BDB6D184605F044
:1005F000B7F80346062B19D11E4B1B681E4A12681A
:1006000019461B4804F0E3FA1C4B1C4A1C491848C5
:1006100004F0E0FB164804F049FC154804F09AFC8D
:10062000134BDB6D0121184605F088F8104BDB6D8C
:10063000184605F095F80346032B12D10C4BDC6DE0
:100640003B1D184605F01CFC03463A1D0021019194
:10065000002100910B49204600F060F8642003F06F
:100660004DFA00BF1C37BD4690BD00BFEC6F0000C7
:1006700048190020E0000020DC000020B86F0000D6
:10068000BC6F0000E46F000080B586B000AFF8607A
:10069000B9607A60FB681B687B617A68B9687869C1
:1006A00004F092FC03465BB218461837BD4680BD85
:1006B00080B584B000AF78607B681B68FB60F86829
:1006C00004F040FD03465BB218461037BD4680BDBE
:1006D00080B586B000AFF860B9607A603B60FB68B7
:1006E0001B687B613B687A68B968786904F0B2FC82
:1006F00003465BB218461837BD4680BD80B584B04E
:1007000000AF78607B681B68FB60F86804F000FD50
:1007100003465BB218461037BD4680BD80B588B031
:1007200002AFF860B9607A603B60FB681B687B6170
:1007300097F8203097F82420019200933B687A685C
:10074000B968786904F018FD03465BB2184618379B
:10075000BD4680BD80B586B000AFF860B960134675
:10076000FB71FB681B687B61FB791A46B968786985
:1007700004F062FD03465BB218461837BD4680BDE3
:1007800080B584B000AF786039607B681B68FB601F
:100790003968F86804F096FD03465BB218461037D6
:1007A000BD4680BD80B586B000AFF860B9607A60A4
:1007B000FB681B687B617A68B968786904F068FE39
:1007C00003465BB218461837BD4680BD80B582B07F
:1007D00000AF0346FB71FB79022B05D1044B5B682C
:1007E0001946044801F01CFB00BF0837BD4680BD18
:1007F00000700000A819002080B582B000AF7860BA
:10080000012003F07BF9FBE780B582B000AF786090
:10081000FFF70EFEFFF75EFEFFF7D0FE012003F0AC
:100820006DF9F9E780B400AF00BFBD465DF8047B09
:10083000704780B500AFFFF7F5FF00BF80BD80B403
:1008400083B000AF7860396000BE00BF0C37BD4692
:100850005DF8047B7047FFFF80B582B000AF204B8E
:100860001B684FF0FF31184602F0BCFD78607B68D2
:10087000012B05D01A4B1B6800211846FFF7DFFF3C
:10088000184B1B7883F00103DBB2002B24D0154BEF
:1008900001221A70FFF7CDFF134B1B68013B124A70
:1008A000136015E00E4B186800230022002102F0AF
:1008B00035FB78607B68012B05D0094B1B68002154
:1008C0001846FFF7BCFF084B1B68013B064A136044
:1008D000054B1B68002BE5D100BF0837BD4680BD26
:1008E0005C1A0020601A0020581A002080B500AF62
:1008F000104B00221A60104B00221A700F4A01217F
:100900004FF4807002F0D2FA03460D4A13600C4B8C
:100910001B68002B05D10A4B1B6800211846FFF706
:100920008EFF00F085F800F041F803F01FF9002376
:10093000184680BD581A0020601A0020101A0020A6
:100940005C1A002080B485B000AFF860B9607A60AE
:10095000FB68074A1A60BB68064A1A607B688022F7
:100960001A6000BF1437BD465DF8047B704700BFB6
:10097000E40000204401002080B485B000AFF8609E
:10098000B9607A60FB68074A1A60BB68064A1A6059
:100990007B6880221A6000BF1437BD465DF8047B77
:1009A000704700BF44030020A403002080B584B03A
:1009B00004AF114B1B6801330F4A13600F4B0293B6
:1009C0000F4B0193082300930E4B4FF480720E4996
:1009D0000E4802F037FF03460D4A13600C4B1B68AC
:1009E000002B05D10A4B1B6800211846FFF727FF93
:1009F00000BFBD4680BD00BF581A0020A4050020DE
:100A0000306D00208C70000090700000150A00000E
:100A1000641A002080B582B000AF7860FFF71CFF39
:100A20007868FFF7E9FE00BF0837BD4680BDFFFFCD
:100A300080B584B004AF114B1B6801330F4A1360BB
:100A40000F4B02930F4B0193082300930E4B4FF46F
:100A500080620E490E4802F0F5FE03460D4A13600F
:100A60000C4B1B68002B05D10A4B1B680021184654
:100A7000FFF7E5FE00BFBD4680BD00BF581A00204D
:100A8000040600203071002094700000987000006F
:100A9000990A0000681A002080B582B000AF786023
:100AA000FFF7DAFE7868FFF7AFFE00BF0837BD46F4
:100AB00080BDFFFF80B483B000AF03463960FB7197
:100AC00097F90730002B0ADB3B68DAB20C4997F93B
:100AD00007301201D2B20B4483F800230AE03B68CE
:100AE000DAB20849FB7903F00F03043B1201D2B2DA
:100AF0000B441A7600BF0C37BD465DF8047B704787
:100B000000E100E000ED00E080B483B000AF0346F8
:100B1000FB7197F90730002B09DB0D4A97F9073075
:100B2000134493F80033DBB21B09DBB209E0094A36
:100B3000FB7903F00F03043B13441B7EDBB21B095C
:100B4000DBB218460C37BD465DF8047B704700BF2A
:100B500000E100E000ED00E080B582B000AF786019
:100B60007B68013BB3F1807F01D301230FE00A4A88
:100B70007B68013B53600F214FF0FF30FFF79AFF76
:100B8000054B00229A60044B07221A600023184686
:100B90000837BD4680BD00BF10E000E080B483B0E0
:100BA00000AFEFF303837B607B683B603B88C3F35C
:100BB00008039BB2DBB2103BDBB25BB218460C37CA
:100BC000BD465DF8047B70471EF0040F0CBFEFF3C9
:100BD0000880EFF309800149084700BFBD0C000001
:100BE00080B400AF62B600BFBFF36F8F00BFEFF3FA
:100BF000148C2CF0040C8CF31488BFF36F8F02DF7D
:100C000000BEFDE7104B1968EFF309821EF0100FCC
:100C100008BF22ED108A22E9F04FEFF30B8342F870
:100C2000043D0A604FF0100080F31188BFF34F8F2E
:100C3000BFF36F8F03F070F94FF0000080F311885D
:100C400000F004B800BF00007406002008480168E6
:100C50000A6802CA81F30B88B2E8F04F1EF0100F49
:100C600008BFB2EC108A82F30988704700BF000009
:100C70007406002080B584B000AFEFF311837B6071
:100C80007B68FB601023BB60BB6883F3118800BFE7
:100C900003F096F80346002B03D0074B4FF0805229
:100CA0005A60FB683B603B6883F3118800BF00BF5C
:100CB0001037BD4680BD00BF00ED00E080B584B0B8
:100CC00000AF78607B689B69FB60FB68023B1B7828
:100CD000FB72FB7A022B03D1FFF7B8FF00BF09E0DC
:100CE000FB7A032B06D9054B054A40F2054105481E
:100CF00001F076FC00BF1037BD4680BD5C7100007E
:100D0000207200007071000080B485B000AFF86000
:100D1000B9607A603B60FB68043BFB60FB684FF0A6
:100D200080721A60FB68043BFB607B6823F0010261
:100D3000FB681A60FB68043BFB60114AFB681A60A1
:100D4000FB68143BFB603A68FB681A60FB68043B75
:100D5000FB60FB686FF002021A60FB68203BFB60DF
:100D6000FB68043BFB60BB6803F12802FB681A6068
:100D7000FB6818461437BD465DF8047B704700BF1A
:100D8000850D000080B400AF00BEFEE780B500AF67
:100D9000FF216FF00100FFF78DFE00F0DDF8064B3C
:100DA0005B68054A43F040435360FFF719FF03F0C7
:100DB000B3F80023184680BD30EF00E080B584B062
:100DC00000AFEFF311837B607B68FB601023BB6097
:100DD000BB6883F3118800BF0E4B1B6801330D4ABB
:100DE00013600C4B1B68012B0FD10B4AFB6813607F
:100DF0000A4B5B68C3F30803002B06D0084B094A73
:100E000040F2F641084801F0EBFB00BF1037BD4649
:100E100080BD00BF640600206806002000ED00E0F1
:100E200098710000347200007071000080B582B0CB
:100E300000AF0F4B1B68002B06D10E4B0E4A40F241
:100E4000FF410E4801F0CCFB094B1B68013B084AEF
:100E50001360074B1B68002B06D1094B1B687B6096
:100E60007B6883F3118800BF00BF0837BD4680BD93
:100E700064060020E07100004872000070710000FC
:100E80006806002080B487B000AF786000237B61E3
:100E90007B68002B2BD0264B9B899BB27B617B69A7
:100EA00003F40043002B14D0214BB3F8FE339BB264
:100EB0003B611F4B4AF20252A3F8FE231C4B002257
:100EC0009A813B699AB21A491A4B13439BB2A1F813
:100ED000FE33BFF34F8F00BF30BFBFF36F8F00BF34
:100EE00062B600BFBFF36F8F00BF72B600BF7B69F1
:100EF00003F40043002B15D00D4BB3F8FE339BB227
:100F0000FB600B4B4AF20252A3F8FE23084B7A69AE
:100F100092B29A81FB689AB20549064B13439BB281
:100F2000A1F8FE3300BF1C37BD465DF8047B704757
:100F300000E0014000A5FFFF80B500AF72B600BF22
:100F400002F07EFE0120FFF79DFF62B600BF02F0B7
:100F500085FE00BF80BDFFFF80B500AF054B1B685D
:100F6000054AA2FB03239B091846FFF7F5FD00BFC6
:100F700080BD00BF381C0020D34D621080B582B008
:100F800000AFFFF70BFE0346FB7197F90730002B0C
:100F900012DB97F907301846FFF7B6FD3860084BAB
:100FA0001B781A463B68934206D2064B064A4FF41A
:100FB000C161064801F014FB00BF0837BD4680BD83
:100FC0006C060020F47100005C720000707100007B
:100FD00080B483B000AFEFF303837B607B683B603A
:100FE0003B88C3F308039BB2DBB2103BDBB25BB2BE
:100FF00018460C37BD465DF8047B704780B483B05B
:1010000000AF03463960FB7197F9073004493A682D
:1010100041F8232000BF0C37BD465DF8047B7047C4
:10102000B01A002080B483B000AF0346FB710849BA
:1010300097F9073003F1C00251F822306FF31043E3
:1010400041F8223000BF0C37BD465DF8047B704785
:101050000060004080B584B000AF0346FB7197F993
:1010600007301846FFF7DEFF97F90730FB60FB6893
:1010700003F01F02064997F907305B09012000FAC7
:1010800002F2603341F8232000BF1037BD4680BD17
:1010900000E100E080B584B000AF0346B9607A603B
:1010A000FB73BB68DAB2094997F90F301201D2B26B
:1010B0000B4483F8002397F90F3079681846FFF73F
:1010C0009DFF00BF1037BD4680BD00BF00E100E0BE
:1010D00080B485B000AF0346FB7197F90730FB6021
:1010E000FB6803F01F02074997F907305B090120ED
:1010F00000FA02F241F8232000BF1437BD465DF824
:10110000047B704700E100E080B582B000AF034689
:10111000FB7197F907301846FFF79CFF97F90730E6
:101120001846FFF7D5FF00BF0837BD4680BDFFFF5B
:1011300080B485B000AF0346FB7197F90730FB60C0
:10114000FB6803F01F020B4997F907305B09012088
:1011500000FA02F2203341F82320BFF34F8F00BF83
:10116000BFF36F8F00BF00BF1437BD465DF8047B2F
:10117000704700BF00E100E080B483B000AF0346D9
:10118000FB7197F90730044A52F8233018460C37A0
:10119000BD465DF8047B7047B01A002080B58AB068
:1011A00000AF786039607B687B623B681B7803F531
:1011B000800303F58C531B021A467B6A1A627B6A12
:1011C00000221A703B681B781A4640F21923D3405C
:1011D00003F00103002B02D07B6A10221A707B6A95
:1011E0003A68DA613B685A697B6A5A623B689A6975
:1011F0007B6ADA627B6A00229A627A6A93780121BA
:1012000061F3010393703B685B78002B05D17A6A28
:101210009378022161F3010393703968786A00F0D2
:1012200015FB786A00F02EFA00233B62EFF310837F
:10123000FB60FB683B6201233B613B6983F31088E1
:1012400000BF474B5A683B681B7819464FF0004374
:10125000CB40DB43424913404B60414B5B683B6AE8
:101260007B617B6983F3108800BF7B6A1B6A002265
:101270009A707B6A1B6A00221A717B6A1B6A0022C1
:101280005A727B6A1B6A00229A727B6A1B6A00226E
:10129000DA727B6A1B6A00225A833B681B781A4603
:1012A00040F21923D34003F00103002B03D07B6AE3
:1012B0001B6A4022DA747B6A1B6A06221A77396835
:1012C000786A00F0E9F97B6A0022DA607B6A002222
:1012D0001A617B6A00225A617B6A00229A613B682C
:1012E000DB69FB61FB691B7803F00303BB61BB692E
:1012F00043F01003BB617B6ADB6993F90530184644
:10130000FFF702FF7B6ADB6993F90B301846FFF7A2
:10131000FBFEBB6943F04003BB617B6ADB6993F969
:1013200007301846FFF7F0FE7B6ADB6993F9093056
:101330001846FFF7E9FEBB6943F02003BB617B6AF7
:101340001B6ABA69D2B29A70FB695A897B6A1A81A0
:101350007B6A044A5A60002318462837BD4680BD80
:10136000004008405549435380B588B000AF7860CD
:101370007B68FB61FB6900225A60FB691B6A0022E3
:101380009A70FB69DB6993F905301846FFF7D0FEC8
:10139000FB69DB6993F90B301846FFF7C9FEFB695F
:1013A000DB6993F907301846FFF7C2FEFB69DB697A
:1013B00093F909301846FFF7BBFE0023BB61EFF33A
:1013C0001083FB60FB68BB6101233B613B6983F3D6
:1013D000108800BF0D4B5A68FB69DB691B78194602
:1013E0004FF00043CB40094913434B60074B5B6808
:1013F000BB697B617B6983F3108800BFF86900F0EB
:1014000041F9002318462037BD4680BD0040084002
:1014100080B487B000AFF860B9607A60FB687B6128
:1014200000233B617B69BA685A617B697A689A617B
:101430003B6918461C37BD465DF8047B704780B495
:1014400087B000AFF860B9607A60FB687B617B6948
:101450001B6A9B78DAB27B691B6A02F07B02D2B20C
:101460009A707B691B78002B06D07B697A681A61B9
:101470007B69BA68DA6013E07B699B78C3F3010388
:10148000DBB21A467B689A1A7B691A617B699B7882
:10149000C3F30103DBB21A46BB681A447B69DA6006
:1014A0007B691B6A9B78DAB27B691B6A62F07F02F8
:1014B000D2B29A707B691B78002B16D17B699B781E
:1014C00003F00303DBB2022B0AD1BB681B887A69E5
:1014D000126A6FEAC3536FEAD3539BB2D38104E01D
:1014E0007B691B6ABA681278DA70002318461C37C9
:1014F000BD465DF8047B704780B487B000AFF860EC
:10150000B9607A603B60FB687B617B69BA685A624C
:101510007B697A68DA627B693A689A6200231846C6
:101520001C37BD465DF8047B704780B584B000AFC2
:10153000786039607B68FB60FB681B6A9B78DBB274
:1015400003F07B03FB72FB681B6AFA7A22F07002DD
:10155000D2B29A70FB680022DA60FB681B6A3968B5
:10156000184600F0A0F9FB681B6AFA7A9A7000230B
:1015700018461037BD4680BD80B483B000AF786098
:1015800039603B684FF0FF325A603B684FF0FF32E2
:101590001A60002318460C37BD465DF8047B70477F
:1015A00080B584B000AF78600B46FB707B68BB6091
:1015B0000623FB60FB7803F00203DBB2002B29D08B
:1015C0000023FB60BB681B6A9B78DAB2BB681B6AAE
:1015D00002F07B02D2B29A70BB681B78002B0ED04F
:1015E000BB681A6A938A43F00403938200BFBB6806
:1015F0001B6A9B8AC3F38003DBB2002BF7D1BB6865
:1016000000221A61B86800F03DF8FB68002B01D099
:10161000FB681EE0FB7803F00103DBB2002B17D060
:101620000023FB60BB6800229A61BB681B78002B1B
:101630000ED0BB681A6A938A43F00203938200BFFC
:10164000BB681B6A9B8AC3F34003DBB2002BF7D154
:10165000FB6818461037BD4680BD80B485B000AF2A
:10166000786039607B68FB60FB689A693B681A6048
:10167000FB6800229A61002318461437BD465DF8C6
:10168000047B704780B483B000AF786000BF0C3734
:10169000BD465DF8047B704780B586B000AF7860CA
:1016A0003960786800F07CF83B689B781A013B68E9
:1016B000DB78DB0013437B61F2233B613B685B78A3
:1016C000032B04D17B6943F040037B6107E03B6857
:1016D0005B78002B03D13B6923F010033B617B68EF
:1016E0001B6A7A69D2B21A707B681B6A3A69D2B2F5
:1016F0009A713B68DB69BB60BB681B7B082B04D11C
:101700007B681B6A0A225A7309E0BB681B7B5B007B
:10171000DAB27B681B6A02F00202D2B25A7300236B
:10172000FB60BB685B78DB01DBB2FA681343FB60EC
:10173000BB689B785B0103F02003FA681343FB60EE
:101740007B681B6A00221A72BB681B78022B03D0CD
:10175000BB681B78032B11D17B681B6AFF225A7070
:10176000BB681B78022B03D1FB6843F01003FB60BE
:101770007B681B6AFA68D2B2DA710DE07B681B6A7B
:10178000FA68D2B2DA717B681A6ABB685B6819467C
:10179000104600F088F800BF00BF1837BD4680BD76
:1017A00080B485B000AF78607B681B78002B2AD0AE
:1017B0000123FB607B68DB69DB69BB607B681B78AE
:1017C000013BBA68127A13401B0203F47063FA6893
:1017D0001343FB607B681B78013B1B039BB2FA68D9
:1017E0001343FB60FB689AB27B681B6A42F00602F7
:1017F00092B29A8200BF7B681B6A9B8A9BB21A4690
:10180000FB689342F7D100BF1437BD465DF8047BF7
:10181000704780B582B000AF78600B46FB7013460E
:10182000BB7097F902301846FFF782FC97F9023037
:101830001846FFF7F7FBF97897F902307A681846EF
:10184000FFF728FC00BF0837BD4680BD80B582B0D9
:1018500000AF786039603B68997A3B6893F90B3048
:101860001A467868FFF7D5FF3B6819793B6893F90A
:1018700005301A467868FFF7CCFF3B6899793B68DA
:1018800093F907301A467868FFF7C3FF3B68197A67
:101890003B6893F909301A467868FFF7BAFF00BF32
:1018A0000837BD4680BD80B483B000AF7860396032
:1018B0003B689A787B685A703B685B78C3F3010396
:1018C000D9B27A68137861F3010313703B68DA7850
:1018D0007B689A747B68DB79DBB223F05C03DAB255
:1018E0003B681B7803F05C03DBB21343DAB27B681E
:1018F000DA7100BF0C37BD465DF8047B704790B5C8
:101900008BB000AFF860B9601346FB71FB689B6A4F
:101910007B627B6A002B03D107F114037B6205E035
:101920007B6A07F114040FCB84E80F00FB68DB69C6
:101930001B781A467B6A1A607B6ABA689A607B6A6F
:10194000FA791A71FB68DA6A7B6ADA60FB685B6AAB
:10195000786A9847FB689B6A002B07D0FB689B6AF4
:101960001C4607F114030FCB84E80F0000BF2C378F
:10197000BD4690BD80B586B000AFFFF729FB03469A
:10198000FB7497F913301846FFF74CFB97F91330A7
:101990001846FFF7F1FBF860FB68DB691B69002B59
:1019A0007FD1FB681B69002B7BD0FB681B78002B69
:1019B0004AD0FB681B6ADB8AC3F30423DBB2BB603B
:1019C000BB687B612FE0FB689B7803F00303DBB20D
:1019D000022B0BD1FB68DB681B88FA68126A6FEA7E
:1019E000C3536FEAD3539BB2D38105E0FB68DA6837
:1019F000FB681B6A1278DA73FB681B69FA689278D5
:101A0000C2F30102D2B29A1AFB681A61FB68DB6862
:101A1000FA689278C2F30102D2B21A44FB68DA6023
:101A20007B6901337B61FB681B781A467B699342B3
:101A300003D2FB681B69002BC5D1FB681A6A1379B6
:101A40006FF3C71313712CE0FB689B7803F003035B
:101A5000DBB2022B0BD1FB68DB681B88FA68126AC9
:101A60006FEAC3536FEAD3539BB2D38105E0FB689F
:101A7000DA68FB681B6A1278DA70FB681B69FA681F
:101A80009278C2F30102D2B29A1AFB681A61FB681B
:101A9000DB68FA689278C2F30102D2B21A44FB689A
:101AA000DA60FB681B69002B1BD1FB681B6A9B7803
:101AB000FB71FB7943F00403FB71FB7903F07F03B7
:101AC000FB71FB681B6AFA799A70FB680022DA6086
:101AD000FB685B6A002B04D080220021F868FFF7C6
:101AE0000EFF00BF1837BD4680BD80B584B000AF83
:101AF000FFF76EFA0346FB7397F90F301846FFF7AE
:101B000091FA97F90F301846FFF736FBB860BB68BB
:101B10001B78002B0FD0BB681B6ADB8AC3F304035E
:101B2000DBB2002B64D0BB681B6A1B8A9BB2C3F379
:101B300008037B6013E0BB689B7803F00303DBB210
:101B4000022B07D1BB681B6A1B8A9BB2C3F3080335
:101B50007B6004E0BB681B6A5B79DBB27B60BB68BF
:101B60009B69002B0AD1BB685B6A002B33D07B6872
:101B700004221946B868FFF7C2FE2CE0BB6858691A
:101B8000BB689B78C3F30103DBB21A463B1D1946C1
:101B900004F050F8BB685B69BA689278C2F301023E
:101BA000D2B21A44BB685A61BB689B69BA68927822
:101BB000C2F30102D2B29A1ABB689A61BB689B69F0
:101BC000002B08D1BB685B6A002B04D001220021E6
:101BD000B868FFF794FEBB681B78002B09D0BB6880
:101BE0001B6ADB8AC3F30403DBB2002B8FD100E056
:101BF00000BFBB681B78002B03D0BB681B6ABE22EA
:101C00001A7100BF1037BD4680BD80B582B000AFED
:101C1000FFF7DEF90346FB7197F907301846FFF727
:101C2000ABFA38603B681B6A9B78DAB23B681B6A88
:101C300002F07B02D2B29A703868FFF723FD3B684E
:101C40005B6A002B04D0022200213868FFF757FEA0
:101C500097F907301846FFF7E5F900BF0837BD468A
:101C600080BD80B584B000AFFFF7B2F90346BB7208
:101C700097F90A301846FFF77FFA78600023FB6077
:101C80007B681B78002B06D17B689B7803F00303ED
:101C9000DBB2022B07D17B681B6A1B8A9BB2C3F3A2
:101CA0000803FB6004E07B681B6A5B79DBB2FB60C6
:101CB0007B681B6A1B79DBB203F03803FB72FB7A8B
:101CC00003F01003002B0BD07B681B6A1B7FC3F350
:101CD0000003DBB2002B03D1FB7A43F04003FB721D
:101CE0007B681B6A1B79DAB27B681B6A22F03802B8
:101CF000D2B21A717868FFF7C5FC7B685B6A002B6B
:101D000005D0FB7A1A46F9687868FFF7F8FD97F96D
:101D10000A301846FFF786F900BF1037BD4680BD70
:101D200080B483B000AF0346FB800A49FB881B0ADE
:101D30009BB21A46FB88DBB21201134451F82330E0
:101D4000C3F34003DBB218460C37BD465DF8047B95
:101D5000704700BF0008084080B485B000AF002382
:101D6000FB60EFF310837B607B68FB600123BB604B
:101D7000BB6883F3108800BF0D4B1B68002B05D197
:101D80000C4B0022DA700B4B4022DA70084B1B68B8
:101D90000133074A1360FB683B603B6883F310889C
:101DA00000BF00BF1437BD465DF8047B704700BF1D
:101DB000AC1A0020000D084080B485B000AF0023AD
:101DC000FB60EFF310837B607B68FB600123BB60EB
:101DD000BB6883F3108800BF0F4B1B68002B04D037
:101DE0000D4B1B68013B0C4A13600B4B1B68002B0F
:101DF00005D10A4B0022DA70084B8022DA70FB68AA
:101E00003B603B6883F3108800BF00BF1437BD46BA
:101E10005DF8047B704700BFAC1A0020000D08403D
:101E200080B584B000AF786039607B68FB60FB6888
:101E3000044A1A60386800F0D8F9002318461037B1
:101E4000BD4680BD54524F5080B485B000AF78601D
:101E50007B68FB60FB6800221A6000231846143779
:101E6000BD465DF8047B704780B582B000AF7860F6
:101E70003960386800F0B9F9002318460837BD46C4
:101E800080BD80B588B000AFF8600B467A607B817A
:101E90007B89BB827B683B6101233B8307F1100395
:101EA000FB6107F11803184600F04AFAFFF754FFE8
:101EB0007B897968184600F007FAFFF77DFF002359
:101EC00018462037BD4680BD80B584B000AFF860AD
:101ED0000B467A607B817B891846FFF721FF03461A
:101EE000DAB27B681A70002318461037BD4680BDF1
:101EF00080B487B000AFF8600B467A607B817B8945
:101F00001B0A9BB2DBB25B0103F1804303F50023A4
:101F10007B617B695B689AB27B681A8000231846F4
:101F20001C37BD465DF8047B704780B487B000AFB6
:101F3000F860084611461A4603467B810B463B81F2
:101F40001346FB803A89FB881340FB82B7F90830BF
:101F5000DB431AB2B7F9063013401BB2BB827B8950
:101F60001B0A9BB2DBB25B0103F1804303F5002344
:101F70003B61BB8A1A04FB8A1A433B699A600023BF
:101F800018461C37BD465DF8047B704780B487B0A7
:101F900000AF78600B467B8013467B700023FB828A
:101FA0000023BB827B8823F0FF037B827B88DBB22C
:101FB0003B823B8A012202FA03F3FB817B78002BF0
:101FC00002D1FB89BB8201E0FB89FB827B8A1B0A71
:101FD0009BB2DBB25B0103F1804303F50023BB60DE
:101FE000BB8A1A04FB8A1A43BB689A60002318460E
:101FF0001C37BD465DF8047B704780B48BB000AFE2
:10200000F860084611461A4603467B810B463B8121
:102010001346FB807B891B0A9BB2DBB25B0103F199
:10202000804303F500237B627B6A1B683B623A892D
:10203000FB8813409BB2FB613B89DA43FB8813406A
:10204000BB613B6A7B617A69FB6913437B61BB6956
:10205000DB437A6913407B617B6A7A691A600023EB
:1020600018462C37BD465DF8047B704780B487B0B6
:1020700000AFF8600B467A607B817B891B0A9BB2BC
:10208000DBB25B0103F1804303F500237B617B69D5
:102090005B68C3F30F439AB27B681A80002318462B
:1020A0001C37BD465DF8047B704780B487B000AF35
:1020B000F8600B467A607B817B891B0A9BB2DBB29E
:1020C0005B0103F1804303F500237B617B695B685F
:1020D000C3F30F437B827B89DBB2012202FA03F355
:1020E0003B827A8A3B8A13409BB23A8A9A4203D156
:1020F0007B6801221A7002E07B6800221A700023BC
:1021000018461C37BD465DF8047B704780B487B025
:1021100000AFF860084611461A4603467B810B461D
:102120003B811346FB803A89FB881340FB82B7F959
:102130000830DB431AB2B7F9063013401BB2BB823A
:102140007B891B0A9BB2DBB25B0103F1804303F581
:1021500000233B61BB8A1A04FB8A1A433B69DA609D
:10216000002318461C37BD465DF8047B704780B5D8
:1021700084B000AF78600B467B8013467B707B8811
:102180007B817B8923F0FF037B817B893B8100235B
:10219000FB810023BB817B78012B06D17B88DBB2DE
:1021A000012202FA03F3FB8105E07B88DBB2012206
:1021B00002FA03F3BB817B78BA89F989388900F088
:1021C0003FF8002318461037BD4680BD80B483B069
:1021D00000AF78600B46FB701346BB7006231846B1
:1021E0000C37BD465DF8047B704780B584B000AF06
:1021F0007860786800F0A4F87B68BB60FFF7ACFDFE
:102200000023FB8111E0BB685A68FB89DB001344A3
:102210009888BB685A68FB89DB0013441B68194621
:1022200000F052F8FB890133FB81BB681B88FA89F7
:102230009A42E8D3FFF7C0FD00BF1037BD4680BD0E
:1022400090B484B000AF0446084611461A462346AF
:10225000FB800346BB800B467B8013467B700023CC
:10226000FB60FB881B0A9BB2DBB25B0103F180437E
:1022700003F50023BB60BB68DB68FB607B78012B48
:102280000DD1BB88FA681343FB607B881B046FEA9F
:1022900013436FEA0343FA681340FB600CE07B884A
:1022A0001B04FA681343FB60BB886FEA03436FEAC1
:1022B0001343FA681340FB60BB68FA68DA6000BF3A
:1022C0001037BD4690BC704780B483B000AF034662
:1022D0003960FB803B6803F48033002B1CD0174926
:1022E000FB881B0A9BB21A46FB88DBB212011A4418
:1022F00051F822306FF3104341F822300F48FB8829
:102300001B0A9BB21946FB88DBB23A6822F4803282
:1023100009010B4440F823200849FB881B0A9BB2A3
:102320001A46FB88DBB2120113443A6841F82320B5
:1023300000BF0C37BD465DF8047B704700080840BD
:1023400080B586B000AF78600023FB730023BB73B9
:1023500000237B6139E000233B6130E07B685A68F1
:102360007B69DB0013449A8829493B6931F81330B3
:102370009A4221D17B685A687B69DB0013441B6851
:1023800003F0F853BB60BB68B3F1807F03D0BB6838
:10239000B3F1106F08D101223B6902FA03F3DAB2FC
:1023A000FB7B1343FB7307E001223B6902FA03F353
:1023B000DAB2BB7B1343BB733B6901333B613B69BF
:1023C000022BCBD97B6901337B617B681B881A4662
:1023D0007B699342BFD3012000F0BEFA0D4B93F806
:1023E000BB347B737A7BFB7B13437B73BB7BDB430D
:1023F000DAB27B7B13407B73064A7B7B82F8BB346B
:10240000012000F059FA00BF1837BD4680BD00BF5B
:10241000D872000000E0014080B400AF0C4B0122F4
:10242000A3F8042100BF0A4BB3F804319BB2002B80
:10243000F9D1074B0122A3F80021064B01229A6033
:10244000044B01221A6000BFBD465DF8047B704753
:1024500000C001400070004080B483B000AF0B4B5F
:1024600093F82630DBB27B60094A7B6852F8233050
:10247000064A126AC2F30262D2B2D340054A13601E
:1024800000BF0C37BD465DF8047B704700E001409B
:10249000A4000020381C002080B500AF0B4B0122A7
:1024A00083F81C210A4B052283F82620084B094A91
:1024B0001A62FFF7D1FF084BF1221A73064B002274
:1024C0001A72054BF0221A7300BF80BD00C0014094
:1024D00000E00140100101100020004080B500AF75
:1024E0000B4B0C4A1A600A4B0B4A5A60084B4FF4CC
:1024F00000429A60064B094ADA60054B4FF40042ED
:102500001A61034B064A5A61FFF7A6FF00BF80BD60
:10251000A4000020002D310100127A00001BB7003A
:1025200000E1F50580B500AF274B4AF20352A3F84E
:10253000FE23FFF771FFFFF7D1FF234B202283F823
:102540001324214B092283F8A2201F4B93F88034D7
:10255000DBB2002B08D11C4B012283F8802401211F
:1025600040F2C44000F046F8174B002283F8812463
:10257000154B002283F88024134B002283F832206D
:1025800000BF114B93F83C30C3F3C003DBB2012B07
:10259000F7D10D4B43F202121A850B4B002283F840
:1025A0002A2000BF084B93F83C30C3F34013DBB242
:1025B000012BF7D1FFF770FF034B4FF42542A3F82F
:1025C000FE2300BF80BD00BF00E0014080B483B0A7
:1025D00000AF786000BF0C37BD465DF8047B7047E4
:1025E00080B485B000AFF860B9607A603B6000BE2F
:1025F000FEE7FFFFB0B58AB000AF78603960002316
:102600007B627B683A6802FB03F33B62454B1B68C5
:10261000FB61454AFB69B2FBF3F3BB613B6A1846B9
:102620004FF0000102460B464FF000044FF000054A
:102630005D0145EAD265540122462B46121A63EB2E
:1026400001034FF000044FF000059D0045EA92752C
:10265000940022462B46121841EB03034FF0000072
:102660004FF00001D90041EA5271D00002460B46FA
:10267000C7E90423D7E90423012B08BF002A08D2A5
:102680003A69BB69B2FBF3F3FB60FB689B087B62B2
:102690003DE0BB699B003A6AB2FBF3F33B623B6AE5
:1026A00018464FF0000102460B464FF000044FF071
:1026B00000055D0145EAD265540122462B46121AF7
:1026C00063EB01034FF000044FF000059D0045EA65
:1026D0009275940022462B46121841EB03034FF0EB
:1026E00000004FF00001D90041EA5271D0000246CB
:1026F0000B46C7E90423D7E90423012B08BF002AAE
:1027000002D23B697B6202E04FF0FF337B627B6A5F
:10271000002B02D0786A00F009F800BF2837BD46C8
:10272000B0BD00BF381C002000CA9A3BA0F10100D8
:102730000028FBD1704700BF80B582B000AF0346D0
:10274000FB71FB79074A52F82330002B06D0FB7946
:10275000044A52F82330FA791046984700BF0837E8
:10276000BD4680BD6C1A002080B582B000AF104B12
:10277000B3F84031BB800023FB710EE0BA88FB79CF
:1027800022FA03F303F00103002B03D0FB79184670
:10279000FFF7D2FFFB790133FB71FB790F2BEDD9EA
:1027A000034ABB88A2F8303100BF0837BD4680BD60
:1027B0000060004080B58AB000AF032000F0CCF884
:1027C000384B6FF0FF029A643B1D0C22FF21184624
:1027D00003F03DFA00237B6223E0334A7B6A32F840
:1027E0001330002B1AD07B6A5B097B617B6A03F094
:1027F0001F033B617B699B0007F12802134453F8D8
:10280000242C01213B6901FA03F3DB431A407B6965
:102810009B0007F128010B4443F8242C7B6A013309
:102820007B627B6A5F2BD8D9204BBB6100233B6264
:102830001AE03B6A9B00BA691A443B6A9B0007F1A5
:1028400028010B4453F8243C136019493B6A9B0050
:1028500007F12802134453F8242C3B6AA03341F8B3
:1028600023203B6A01333B623B6A022BE1D9032000
:1028700000F022F80023FB610CE00B4AFB6932F800
:1028800013300C4A1946FB69C03342F82310FB6928
:102890000133FB61FB695F2BEFD900BF00BF283715
:1028A000BD4680BD008000409C70000070800040EC
:1028B00000E100E00060004080B487B000AF034654
:1028C000FB7100237B61EFF31083FB60FB687B618E
:1028D00001233B613B6983F3108800BFFB791A4AEF
:1028E00032F813309BB2002B09D0FB79164A32F82C
:1028F000132092B2013A91B2134A22F81310FB79D5
:10290000114A32F813309BB2002B11D10F4BB3F8A0
:10291000FE339AB20E4B13439AB2FB790D4931F84C
:102920001330DB439BB2094913409BB2A1F8FE333D
:102930007B69BB60BB6883F3108800BF00BF1C3796
:10294000BD465DF8047B7047301C002000E001406C
:1029500000A5FFFFE072000080B487B000AF03461F
:10296000FB7100237B61EFF31083FB60FB687B61ED
:1029700001233B613B6983F3108800BFFB79164A52
:1029800032F813309BB2002B0FD1144BB3F8FE3347
:102990009AB2FB79124931F8133013439AB20F49B6
:1029A000104B13439BB2A1F8FE33FB790A4A32F86D
:1029B000132092B2013291B2074A22F813107B69B8
:1029C000BB60BB6883F3108800BF00BF1C37BD46E7
:1029D0005DF8047B704700BF301C002000E0014020
:1029E000E072000000A5FFFF80B584B000AF786002
:1029F0007B68FB60144B1B68002B02D1124B134AFF
:102A00001A60114B1B68BB60FB68033323F00303A0
:102A1000FB600D4B1A68FB6813440D4A934207D9BB
:102A200003F0FAF803460C221A604FF0FF3306E079
:102A3000054B1A68FB681344034A1360BB681846C9
:102A40001037BD4680BD00BF70060020301D00203D
:102A5000305D002080B500AF00F00CF8FDF746FFB8
:102A6000FEE780B400AF00BE00BFBD465DF8047B4A
:102A70007047FFFF80B584B000AF2F4B4FF470025A
:102A8000C3F888202C4B2D4A9A600020FDF79EFE4B
:102A9000FFF748FD0120FDF799FE294B3B603B689D
:102AA00083F30A8800BF274A274BD31A1A4600210E
:102AB000254803F0CCF8254A254BD31A1A46254958
:102AC000234803F0B7F8244A244BD31A9B107B60A9
:102AD0000023FB6007E0214AFB6852F82330984747
:102AE000FB680133FB60FA687B689A42F3DBFFF70F
:102AF000B3FC0320FFF730FF0023BB6009E0184A56
:102B0000BB6808334FF6FF7122F81310BB6801331E
:102B1000BB60BB68082BF2D90320FFF7CDFE022073
:102B2000FDF754FEFFF746FE0020FFF74FFD00BF04
:102B30001037BD4680BD00BF00ED00E00000000082
:102B4000305D00202C1D0020C0000020A4000020CB
:102B500000000020E8830000A00000209C0000206E
:102B6000000D084080B483B000AF78607B6803F14B
:102B700008027B685A607B684FF0FF329A607B687E
:102B800003F108027B68DA607B6803F108027B6866
:102B90001A617B6800221A6000BF0C37BD465DF8E1
:102BA000047B704780B483B000AF78607B680022FC
:102BB0001A6100BF0C37BD465DF8047B704780B4D6
:102BC00085B000AF786039607B685B68FB603B680C
:102BD000FA685A60FB689A683B689A60FB689B6871
:102BE0003A685A60FB683A689A603B687A681A618A
:102BF0007B681B685A1C7B681A6000BF1437BD468F
:102C00005DF8047B704780B485B000AF78603960B0
:102C10003B681B68BB60BB68B3F1FF3F03D17B68B7
:102C20001B69FB600CE07B680833FB6002E0FB681B
:102C30005B68FB60FB685B681B68BA689A42F6D207
:102C4000FB685A683B685A603B685B683A689A6000
:102C50003B68FA689A60FB683A685A603B687A6831
:102C60001A617B681B685A1C7B681A6000BF1437A6
:102C7000BD465DF8047B704780B485B000AF7860D6
:102C80007B681B69FB607B685B687A6892689A6006
:102C90007B689B687A6852685A60FB685B687A68F0
:102CA0009A4203D17B689A68FB685A607B6800226D
:102CB0001A61FB681B685A1EFB681A60FB681B6878
:102CC00018461437BD465DF8047B704780B584B064
:102CD00000AF786039607B68FB60FB68002B06D131
:102CE0002C4B2D4A40F20D112C48FFF779FCFEF7D2
:102CF00065F8FB681A68FB68DB6BF968096C01FB17
:102D000003F31A44FB689A60FB6800229A63FB682D
:102D10001A68FB685A60FB681A68FB68DB6B013B4A
:102D2000F968096C01FB03F31A44FB68DA60FB687D
:102D3000FF2283F84420FB68FF2283F845203B688C
:102D4000002B15D1FB681B69002B1BD0FB681033CF
:102D5000184601F093F90346002B13D0104B4FF0A7
:102D600080525A60BFF34F8F00BFBFF36F8F09E0EF
:102D7000FB6810331846FFF7F5FEFB68243318464E
:102D8000FFF7F0FEFEF752F8012318461037BD4654
:102D900080BD00BFE8720000D0760000F072000035
:102DA00000ED00E080B588B002AFF860B9607A60ED
:102DB0003B60FB68002B06D1254B264A4FF4A471DB
:102DC0002548FFF70DFC3B68002B06D1234B214A19
:102DD0004FF4A6712048FFF703FC7B68002B09D055
:102DE000BB68002B06D11E4B1A4A4FF4A8711A4833
:102DF000FFF7F6FB7B68002B09D1BB68002B06D0E0
:102E0000184B144A40F251111348FFF7E9FB4823CD
:102E10003B613B69482B06D0134B0E4A40F25911D7
:102E20000D48FFF7DDFB3B693B687B617B69002B4D
:102E300009D097F820207B69009313467A68B96817
:102E4000F86800F013F87B6918461837BD4680BD56
:102E500024730000E4760000F07200004873000064
:102E600068730000A8730000E873000080B584B0A8
:102E700000AFF860B9607A60FB70BB68002B03D1CB
:102E8000BB69BA691A6002E0BB697A681A60BB69FB
:102E9000FA68DA63BB69BA681A640121B869FFF796
:102EA00015FF00BF1037BD4680BDFFFF80B588B05D
:102EB00002AFF860B9607A60FB68002B06D1134B53
:102EC000134A4FF434711348FFF78AFBBA68FB6862
:102ED0009A4206D9104B0E4A40F2D1210D48FFF715
:102EE0007FFB022300937B6800220021F868FFF734
:102EF00059FF78617B69002B02D07B69BA689A63BD
:102F00007B6918461837BD4680BD00BF04740000B9
:102F100000770000F07200001474000080B58AB0E1
:102F200000AFF860B9607A603B6000237B62FB68A9
:102F30003B623B6A002B06D16A4B6B4A4FF44371EC
:102F40006A48FFF74DFBBB68002B0AD13B6A1B6C3C
:102F5000002B06D0664B644A40F20D316348FFF700
:102F60003FFB3B68022B0AD13B6ADB6B012B06D08F
:102F7000604B5D4A40F20E315C48FFF731FB01F0D7
:102F80001BFA0346002B09D17B68002B06D05A4B55
:102F9000554A40F211315548FFF722FBFDF70EFF6D
:102FA0003B6A9A6B3B6ADB6B9A4202D33B68022B0B
:102FB0002CD13A68B968386A00F0E4FAF8613B6AE3
:102FC0005B6A002B11D03B6A2433184601F056F897
:102FD0000346002B16D0494B4FF080525A60BFF386
:102FE0004F8F00BFBFF36F8F0CE0FB69002B09D040
:102FF000424B4FF080525A60BFF34F8F00BFBFF378
:103000006F8F00BFFDF712FF012366E07B68002B86
:1030100003D1FDF70BFF00235FE07B6A002B06D195
:1030200007F11403184601F08FF801237B62FDF7C6
:10303000FDFE00F005FEFDF7C1FE3B6A93F844304B
:103040005BB2B3F1FF3F03D13B6A002283F8442017
:103050003B6A93F845305BB2B3F1FF3F03D13B6A63
:10306000002283F84520FDF7E1FE3A1D07F1140325
:103070001146184601F07EF80346002B25D1386A28
:1030800000F06AFB0346002B19D03B6A10337A68C4
:103090001146184600F09EFF386A00F0F5FA00F07D
:1030A000DDFD0346002B7FF479AF144B4FF08052C7
:1030B0005A60BFF34F8F00BFBFF36F8F0CE0386AC9
:1030C00000F0E2FA00F0CAFD68E7386A00F0DCFAC6
:1030D00000F0C4FD002300E060E718462837BD4635
:1030E00080BD00BFE872000024770000F07200008D
:1030F000347400008C740000DC74000000ED00E00B
:1031000080B58CB000AFF860B9607A603B60FB6856
:10311000BB62BB6A002B06D1404B414A4FF4787129
:103120004048FFF75DFABB68002B0AD1BB6A1B6CF5
:10313000002B06D03C4B3A4A40F2E1313948FFF7C8
:103140004FFA3B68022B0AD1BB6ADB6B012B06D01E
:10315000364B334A40F2E2313248FFF741FAFDF78D
:103160000DFFEFF311837B617B697B621023BB61F1
:10317000BB6983F3118800BFBB6A9A6BBB6ADB6BC8
:103180009A4202D33B68022B3AD1BB6A93F845308E
:1031900087F82330BB6A9B6BFB613A68B968B86AF1
:1031A00000F0F0F997F92330B3F1FF3F12D1BB6A79
:1031B0005B6A002B21D0BB6A2433184600F05EFF07
:1031C0000346002B19D07B68002B16D07B680122A8
:1031D0001A6012E097F923307F2B06D1144B104A66
:1031E00040F26B410F48FFF7FBF997F823300133AA
:1031F000DBB25AB2BB6A83F845200123FB6201E0CF
:103200000023FB627B6A3B613B6983F3118800BF4B
:10321000FB6A18463037BD4680BD00BFE87200002B
:1032200038770000F0720000347400008C740000E5
:103230003075000080B58AB000AFF860B9607A6080
:1032400000237B62FB683B623B6A002B06D15F4B2D
:103250005F4A40F22F515F48FFF7C2F9BB68002B6D
:103260000AD13B6A1B6C002B06D05B4B584A40F2DC
:1032700033515848FFF7B4F901F09EF80346002B8C
:1032800009D17B68002B06D0544B514A4FF4A761FB
:103290005048FFF7A5F9FDF791FD3B6A9B6BFB6179
:1032A000FB69002B21D0B968386A00F0C7F9FB69C7
:1032B0005A1E3B6A9A633B6A1B69002B11D03B6A1A
:1032C0001033184600F0DAFE0346002B09D0444BB9
:1032D0004FF080525A60BFF34F8F00BFBFF36F8F24
:1032E00000BFFDF7A3FD01236CE07B68002B03D139
:1032F000FDF79CFD002365E07B6A002B06D107F1FA
:103300001403184600F020FF01237B62FDF78EFDB9
:1033100000F096FCFDF752FD3B6A93F844305BB237
:10332000B3F1FF3F03D13B6A002283F844203B6A9C
:1033300093F845305BB2B3F1FF3F03D13B6A002203
:1033400083F84520FDF772FD3A1D07F1140311467D
:10335000184600F00FFF0346002B24D1386A00F016
:10336000E5F90346002B18D03B6A24337A681146EE
:10337000184600F02FFE386A00F086F900F06EFC67
:103380000346002B87D1164B4FF080525A60BFF393
:103390004F8F00BFBFF36F8F13E0386A00F074F9EE
:1033A00000F05CFC77E7386A00F06EF900F056FC3C
:1033B000386A00F0BBF90346002B3FF46CAF0023E2
:1033C00000E068E718462837BD4680BDD07500008C
:1033D00054770000F0720000DC750000DC7400001F
:1033E00000ED00E080B588B000AF78603960002360
:1033F000FB617B68BB61BB69002B06D15B4B5C4A00
:1034000040F2C1515B48FFF7EBF8BB691B6C002B26
:1034100006D0594B564A40F2C5515648FFF7E0F8DE
:1034200000F0CAFF0346002B09D13B68002B06D0F1
:10343000524B4F4A40F2CA514E48FFF7D1F8FDF7C0
:10344000BDFCBB699B6B7B617B69002B1DD07B69DD
:103450005A1EBB699A63BB691B69002B11D0BB69FB
:103460001033184600F00AFE0346002B09D0444BE7
:103470004FF080525A60BFF34F8F00BFBFF36F8F82
:1034800000BFFDF7D3FC01236CE03B68002B03D1A8
:10349000FDF7CCFC002365E0FB69002B06D107F1AA
:1034A0000C03184600F050FE0123FB61FDF7BEFC43
:1034B00000F0C6FBFDF782FCBB6993F844305BB2B9
:1034C000B3F1FF3F03D1BB69002283F84420BB69FD
:1034D00093F845305BB2B3F1FF3F03D1BB690022E3
:1034E00083F84520FDF7A2FC3A4607F10C0311468C
:1034F000184600F03FFE0346002B24D1B86900F0C7
:1035000015F90346002B18D0BB6924333A681146DD
:10351000184600F05FFDB86900F0B6F800F09EFBB9
:103520000346002B8BD1164B4FF080525A60BFF3ED
:103530004F8F00BFBFF36F8F13E0B86900F0A4F89E
:1035400000F08CFB7BE7B86900F09EF800F086FB8A
:10355000B86900F0EBF80346002B3FF470AF00238E
:1035600000E06CE718462037BD4680BDD0750000EE
:1035700064770000F072000050750000DC740000F9
:1035800000ED00E080B586B000AFF860B9607A6009
:1035900000233B61FB689B6B7B61FB681B6C002B12
:1035A00043D07B68002B19D1FB685868FB681B6C03
:1035B0001A46B96802F03EFBFB685A68FB681B6C50
:1035C0001A44FB685A60FB685A68FB689B689A4219
:1035D0002BD3FB681A68FB685A6026E0FB68D86842
:1035E000FB681B6C1A46B96802F024FBFB68DA68BA
:1035F000FB681B6C5B421A44FB68DA60FB68DA68A4
:10360000FB681B689A4207D2FB689A68FB681B6CD0
:103610005B421A44FB68DA607B68022B05D17B6948
:10362000002B02D07B69013B7B617B695A1CFB68E4
:103630009A633B6918461837BD4680BD80B582B095
:1036400000AF786039607B681B6C002B18D07B68FA
:10365000DA687B681B6C1A447B68DA607B68DA681E
:103660007B689B689A4203D37B681A687B68DA6040
:103670007B68D9687B681B6C1A46386802F0DAFAF6
:1036800000BF0837BD4680BD80B584B000AF78600C
:10369000FDF794FB7B6893F84530FB7311E07B6882
:1036A0005B6A002B12D07B682433184600F0E6FCDE
:1036B0000346002B01D000F0C3FDFB7B013BDBB2D6
:1036C000FB7397F90F30002BE9DC00E000BF7B684B
:1036D000FF2283F84520FDF7A9FBFDF76FFB7B6810
:1036E00093F84430BB7311E07B681B69002B12D048
:1036F0007B681033184600F0C1FC0346002B01D054
:1037000000F09EFDBB7B013BDBB2BB7397F90E3033
:10371000002BE9DC00E000BF7B68FF2283F8442037
:10372000FDF784FB00BF1037BD4680BD80B584B077
:1037300000AF7860FDF742FB7B689B6B002B02D1EA
:103740000123FB6001E00023FB60FDF76FFBFB68DA
:1037500018461037BD4680BD80B584B000AF786094
:10376000FDF72CFB7B689A6B7B68DB6B9A4202D17E
:103770000123FB6001E00023FB60FDF757FBFB68C2
:1037800018461037BD4680BD80B485B000AF786064
:1037900039600023FB6014E00F4AFB6852F83330B5
:1037A000002B0BD10C49FB683A6841F833200A4AD8
:1037B000FB68DB0013447A685A6006E0FB6801335B
:1037C000FB60FB68092BE7D900BF00BF1437BD467B
:1037D0005DF8047B704700BF3C1C002080B586B0BC
:1037E00000AFF860B9607A60FB687B61FDF7E6FACC
:1037F0007B6993F844305BB2B3F1FF3F03D17B693F
:10380000002283F844207B6993F845305BB2B3F122
:10381000FF3F03D17B69002283F84520FDF706FBBB
:103820007B699B6B002B06D17B6924337A68B9686E
:10383000184600F0F5FB7869FFF726FF00BF183740
:10384000BD4680BD80B58CB004AFF860B9607A60C9
:103850003B60FB6A002B06D1214B224A4FF41271C8
:103860002148FEF7BDFE3B6B002B06D11F4B1D4AC6
:1038700040F249211C48FEF7B3FE60237B617B695F
:10388000602B06D01A4B174A40F251211648FEF71A
:10389000A7FE7B693B6B002B1AD0FB6A002B17D06D
:1038A0003B6BFB61FB69FA6A1A6300230393FB69B4
:1038B000029307F118030193BB6A00933B687A688F
:1038C000B968F86800F016F8F86900F0A9F801E0A6
:1038D0000023BB61BB6918462037BD4680BD00BFD1
:1038E00078770000CC7A000098770000CC77000051
:1038F000E877000080B586B000AFF860B9607A6004
:103900003B60BB6A1A6B7B6803F18043013B9B0001
:1039100013443B613B6923F007033B613B6903F0C0
:103920000703002B06D03B4B3B4A40F25E313B483D
:10393000FEF756FEBB68002B21D000237B6114E00C
:10394000BA687B69134493F90010BA6A7B6913441F
:1039500034330A461A70BA687B69134493F900300D
:10396000002B06D07B6901337B617B690F2BE7D984
:1039700000E000BFBB6A002283F8432003E0BB6A7B
:10398000002283F834203B6A042B01D904233B62D4
:10399000BB6A3A6ADA62BB6A04331846FFF702F977
:1039A000BB6A18331846FFF7FDF8BB6ABA6A1A619A
:1039B0003B6AC3F10502BB6A9A61BB6ABA6A5A6282
:1039C000BB6A443314220021184602F040F9BB6A56
:1039D000583304220021184602F039F9BB6A5C33DF
:1039E00001220021184602F032F9BB6A196B3B68CC
:1039F000FA683869FDF788F90246BB6A1A607B6A83
:103A0000002B02D07B6ABA6A1A6000BF1837BD4625
:103A100080BD00BF04780000E07A000098770000C5
:103A200080B582B000AF7860FDF7C8F92C4B1B68F9
:103A300001332B4A13602B4B1B68002B09D1294AF9
:103A40007B681360264B1B68012B10D100F020FC13
:103A50000DE0254B1B68002B09D1224B1B68DA6A4D
:103A60007B68DB6A9A4202D81E4A7B6813601F4B50
:103A70001B6801331D4A13607B68DA6A1C4B1B68A4
:103A80009A4203D97B68DB6A194A13607B68DA6A59
:103A900013469B0013449B00164A1A447B68043368
:103AA00019461046FFF78BF8FDF7C0F90E4B1B685F
:103AB000002B10D00B4B1B68DA6A7B68DB6A9A42DA
:103AC00009D20D4B4FF080525A60BFF34F8F00BFA9
:103AD000BFF36F8F00BF00BF0837BD4680BD00BF7A
:103AE0004C070020740600205807002068070020BB
:103AF000540700207806002000ED00E080B584B077
:103B000000AF78600023FB607B68002B13D0124B62
:103B10001B68002B06D0114B114A40F24651114848
:103B2000FEF75EFD00F08CF80021786800F062FC82
:103B300000F094F8F860FB68002B09D10A4B4FF0B5
:103B400080525A60BFF34F8F00BFBFF36F8F00BF2B
:103B500000BF1037BD4680BD7407002048780000C4
:103B6000F87A00009877000000ED00E080B58AB098
:103B700004AF0023FB600023BB603A1D07F108017E
:103B800007F10C031846FCF7DDFE7968BB68FA689C
:103B9000029201930023009300230A461E491F4806
:103BA000FFF750FE03461E4A13601D4B1B68002B97
:103BB00002D001237B6101E000237B617B69012B43
:103BC00002D100F06BFC78617B69012B12D10123DB
:103BD0003B613B6983F3108800BF124B4FF0FF320B
:103BE0001A60114B01221A60104B00221A60FDF777
:103BF000CDF80AE07B69B3F1FF3F06D10C4B0D4ACB
:103C000040F63D010C48FEF7EBFC0C4B1B6800BF77
:103C10001837BD4680BD00BFC07800005942000083
:103C2000700700206C070020580700205007002074
:103C3000C8780000047B0000987700003400002062
:103C400080B400AF044B1B680133034A136000BF0C
:103C5000BD465DF8047B70477407002080B584B0D2
:103C600000AF0023FB600023BB60414B1B68002BAF
:103C700006D1404B404A4FF40B614048FEF7B0FC80
:103C8000FDF79CF83A4B1B68013B394A1360384BEF
:103C90001B68002B64D13A4B1B68002B60D02FE0CF
:103CA000384BDB68DB68FB60FB6818331846FEF7AF
:103CB000E3FFFB6804331846FEF7DEFFFB68DA6AB1
:103CC000314B1B689A4203D9FB68DB6A2E4A1360AA
:103CD000FB68DA6A13469B0013449B002B4A1A4484
:103CE000FB68043319461046FEF769FFFB68DA6A81
:103CF000274B1B68DB6A9A4202D3264B01221A60CB
:103D0000204B1B68002BCBD1FB68002B01D000F0AF
:103D100037FB214B1B687B607B68002B10D000F0C9
:103D20004FF80346002B02D01A4B01221A607B6821
:103D3000013B7B607B68002BF1D1174B00221A609E
:103D4000144B1B68002B0BD00123BB60134B4FF0AF
:103D500080525A60BFF34F8F00BFBFF36F8F00BF19
:103D6000FDF764F8BB6818461037BD4680BD00BF3C
:103D700074070020DC780000187B000098770000B2
:103D80004C0700200C070020540700207806002074
:103D900074060020600700205C07002000ED00E0B2
:103DA00080B483B000AF054B1B687B607B6818460E
:103DB0000C37BD465DF8047B704700BF50070020FC
:103DC00080B586B000AF00237B61454B1B68002B9C
:103DD0007CD1444B1B6801333B61424A3B69136011
:103DE0003B69002B1CD1404B1B681B68002B06D085
:103DF0003E4B3F4A40F6C3213E48FEF7F1FB3A4BAB
:103E00001B68FB603C4B1B68374A13603A4AFB68EF
:103E100013603A4B1B680133384A136000F0B0FA64
:103E2000374B1B683A699A4249D32F4B1B681B6872
:103E3000002B04D1324B4FF0FF321A603FE02A4B87
:103E40001B68DB68DB68BB60BB685B687B603A69EA
:103E50007B689A4203D22A4A7B6813602FE0BB68D2
:103E600004331846FEF708FFBB689B6A002B04D09A
:103E7000BB6818331846FEF7FFFEBB68DA6A214BB1
:103E80001B689A4203D9BB68DB6A1E4A1360BB6891
:103E9000DA6A13469B0013449B001B4A1A44BB6812
:103EA000043319461046FEF78AFEBB68DA6A174BE0
:103EB0001B68DB6A9A42B8D301237B61B5E7144BD8
:103EC0001B68002B07D001237B6104E0114B1B68AA
:103ED0000133104A13607B6918461837BD4680BD10
:103EE000740700205007002004070020FC78000021
:103EF000287B000098770000080700206407002056
:103F00006C0700205407002078060020740600206B
:103F1000600700205C07002080B582B000AF254B11
:103F20001B68002B03D0244B01221A603DE0224B7A
:103F300000221A60214B1B687B600CE07B68002B21
:103F400006D11F4B1F4A40F6FE311F48FEF748FBC3
:103F50007B68013B7B601D497A6813469B001344D4
:103F60009B000B441B68002BE8D07A6813469B002B
:103F700013449B00154A13443B603B685B685A68D6
:103F80003B685A603B685A683B6808339A4204D1E0
:103F90003B685B685A683B685A603B685B68DB68F3
:103FA0000B4A1360054A7B68136000BF0837BD46A3
:103FB00080BD00BF74070020600700205407002068
:103FC000747900003C7B00009877000078060020A0
:103FD0007406002080B582B000AF786039607B68DD
:103FE000002B06D10A4B0B4A40F618410A48FEF74F
:103FF000F7FA0A4B1B68183319467868FEF703FE78
:104000000121386800F0F6F900BF0837BD4680BDD1
:1040100084790000507B000098770000740600202F
:1040200080B584B000AFF860B9607A60FB68002B9F
:1040300006D10E4B0E4A40F647410E48FEF7D0FA25
:104040000D4B1B6818331946F868FEF7B8FD7B68FE
:10405000002B02D04FF0FF33BB607968B86800F0E6
:10406000C9F900BF1037BD4680BD00BF847900008C
:10407000687B0000987700007406002080B584B04B
:1040800000AF78607B68DB68DB68BB60BB68002BD7
:1040900006D1244B244A40F677412448FEF7A0FA83
:1040A000BB6818331846FEF7E7FD214B1B68002B51
:1040B0001DD1BB6804331846FEF7DEFDBB68DA6A23
:1040C0001C4B1B689A4203D9BB68DB6A194A136010
:1040D000BB68DA6A13469B0013449B00164A1A44D5
:1040E000BB68043319461046FEF769FD05E0BB685E
:1040F000183319461148FEF762FDBB68DA6A104BA7
:104100001B68DB6A9A4205D90123FB600D4B012233
:104110001A6001E00023FB60FB6818461037BD46BB
:1041200080BD00BFAC790000887B0000987700005C
:104130007407002054070020780600200C07002098
:10414000740600206007002080B483B000AF786060
:10415000064B1A687B681A60054B1A687B685A60C0
:1041600000BF0C37BD465DF8047B70476407002034
:104170005007002080B586B000AF786039607B685A
:10418000002B06D1284B294A40F6F2412848FEF779
:1041900027FA3B68002B06D1264B244A40F6F34110
:1041A0002348FEF71DFAFCF709FE234B1B683B6111
:1041B0007B685B683A69D31AFB603B681B68B3F1A4
:1041C000FF3F02D100237B6126E07B681A681B4B0E
:1041D0001B689A420AD07B685B683A699A4205D3A9
:1041E00001237B613B6800221A6015E03B681B6875
:1041F000FA689A420BD23B681A68FB68D21A3B688D
:104200001A607868FFF7A0FF00237B6104E03B6839
:1042100000221A6001237B61FCF708FE7B691846C7
:104220001837BD4680BD00BFEC790000A47B0000BC
:1042300098770000F87900005007002064070020FC
:1042400080B400AF034B01221A6000BFBD465DF889
:10425000047B70476007002080B582B000AF7860B3
:1042600000F056F8084B1B68012B09D9074B4FF09B
:1042700080525A60BFF34F8F00BFBFF36F8F00BFF4
:10428000FCF75AFEECE700BF7806002000ED00E0E6
:1042900080B582B000AF00237B600CE07A681346E3
:1042A0009B0013449B00124A13441846FEF75AFC25
:1042B0007B6801337B607B68042BEFD90D48FEF7E8
:1042C00051FC0D48FEF74EFC0C48FEF74BFC0C4829
:1042D000FEF748FC0B48FEF745FC0B4B054A1A60FD
:1042E0000A4B054A1A6000BF0837BD4680BD00BFB3
:1042F00078060020DC060020F00600200C070020D5
:1043000020070020380700200407002008070020AD
:1043100080B582B000AF19E0FCF750FD104BDB68B0
:10432000DB687B607B6804331846FEF7A5FC0D4B09
:104330001B68013B0B4A13600B4B1B68013B0A4A8D
:104340001360FCF773FD786800F010F8064B1B68EB
:10435000002BE1D100BF00BF0837BD4680BD00BFC4
:10436000200700204C0700203407002080B483B0D1
:1043700000AF786000BF0C37BD465DF8047B704726
:1043800080B400AF0A4B1B681B68002B04D1094B9B
:104390004FF0FF321A6005E0054B1B68DB681B68B5
:1043A000044A136000BFBD465DF8047B704700BF40
:1043B000040700206C07002080B483B000AF0B4BD3
:1043C0001B68002B02D101237B6008E0084B1B68AF
:1043D000002B02D102237B6001E000237B607B681D
:1043E00018460C37BD465DF8047B7047580700201F
:1043F0007407002080B584B000AF78603960214B2D
:104400001B68FB60204B1B6804331846FEF734FC26
:104410007B68B3F1FF3F0AD13B68002B07D01A4BF2
:104420001B68043319461948FEF7C9FB26E0FA68F1
:104430007B681344BB60144B1B68BA685A60BA6847
:10444000FB689A4209D2124B1A680F4B1B6804335F
:1044500019461046FEF7D7FB10E00E4B1A680A4BC0
:104460001B68043319461046FEF7CDFB0A4B1B6848
:10447000BA689A4202D2084ABB68136000BF10377C
:10448000BD4680BD5007002074060020380700207C
:1044900008070020040700206C07002080B588B0C2
:1044A00004AF0023FB6000F0EBFA1A4B1B68002BF3
:1044B00020D00023BB6000237B603A46391D07F102
:1044C00008031846FCF758FA39687B68BA68029204
:1044D00001930323009300230A460F490F48FFF777
:1044E000B1F903460E4A13600D4B1B68002B01D037
:1044F0000123FB60FB68002B06D10A4B0A4A40F2FD
:104500000D110A48FEF76CF8FB6818461037BD46D7
:1045100080BD00BFA8070020BC7B00006D460000E6
:10452000AC070020C47B0000AC7C0000CC7B00000A
:1045300080B588B000AFF860B9607A603B60002356
:10454000FB61FB68002B06D11D4B1E4A4FF4C17165
:104550001D48FEF745F81D4B1B68002B2AD0BB6891
:104560003B617B687B61FB68BB61BB68052B18DC2A
:10457000FFF722FF0346022B09D1144B186807F1FD
:1045800010010023BA6AFEF7C9FCF86112E00F4B74
:10459000186807F1100100230022FEF7BFFCF86144
:1045A00008E00A4B186807F1100100233A68FEF78B
:1045B000A7FDF861FB6918462037BD4680BD00BFE6
:1045C000487C0000C47C0000CC7B0000A8070020D1
:1045D00080B586B002AF78603960204B1B68DB681D
:1045E000DB68FB60FB6804331846FEF745FBFB689D
:1045F00093F8243003F00403002B1ED0FB689A6963
:104600007B68D1187B683A68F86800F0D5F80346F3
:10461000002B1BD00023009300237A680021F86848
:10462000FFF786FFB860BB68002B0FD10C4B0D4A1B
:104630004FF405710C48FDF7D3FFFB6893F8243065
:1046400023F00103DAB2FB6883F82420FB681B6ABD
:10465000F868984700BF1037BD4680BDA00700200E
:10466000747C0000DC7C0000CC7B000080B584B052
:1046700000AF786007F10803184600F059F8F860B9
:10468000BB681946F86800F003F800F0D7F8F1E7C6
:1046900080B584B000AF78603960FFF7D1FA07F1D8
:1046A0000803184600F068F8F860BB68002B31D1A9
:1046B0003B68002B0AD17A68FB689A4206D8FFF75C
:1046C000CDFAF9687868FFF783FF26E03B68002B96
:1046D00008D0144B1B681B68002B01D1012300E09C
:1046E00000233B60104B18687A68FB68D31A3A685D
:1046F0001946FFF773F8FFF7B1FA0346002B0CD108
:104700000A4B4FF080525A60BFF34F8F00BFBFF388
:104710006F8F02E0FFF7A2FAFFE700BF1037BD4638
:1047200080BD00BFA4070020A807002000ED00E026
:1047300080B485B000AF78600E4B1B681B68002BFF
:1047400001D1012200E000227B681A607B681B68AF
:10475000002B05D1074B1B68DB681B68FB6001E081
:104760000023FB60FB6818461437BD465DF8047BE8
:10477000704700BFA007002080B584B000AF78600C
:10478000FFF70EFBF8600B4B1B68FA689A4205D2E4
:1047900000F010F97B6801221A6002E07B680022B9
:1047A0001A60044AFB681360FB6818461037BD4660
:1047B00080BD00BFB007002080B586B000AFF860B4
:1047C000B9607A603B6000237B61FB68BA685A601D
:1047D000FB68FA681A61BA687B689A4212D87A68EC
:1047E0003B68D21AFB689B699A4202D301237B6122
:1047F0001BE0104B1A68FB68043319461046FEF79D
:1048000002FA12E07A683B689A4206D2BA683B68BC
:104810009A4202D301237B6107E0074B1A68FB68C9
:10482000043319461046FEF7EEF97B69184618372F
:10483000BD4680BDA4070020A007002080B58AB037
:1048400002AF9BE0BB68002BC0F297803B69FB6125
:10485000FB695B69002B04D0FB6904331846FEF743
:104860000BFA3B1D1846FFF787FFB861BB68092BA1
:1048700000F2848001A252F823F000BFA548000096
:10488000A5480000A5480000114900002549000086
:1048900067490000A5480000A54800001149000034
:1048A00025490000FB6993F8243043F00103DAB294
:1048B000FB6983F82420FA68FB699B69D118FB68BF
:1048C000BA69F869FFF778FF0346002B56D0FB69F9
:1048D0001B6AF8699847FB6993F8243003F00403D6
:1048E000002B4BD0FA68FB699B691A4400230093A4
:1048F00000230021F869FFF71BFE78617B69002B1C
:104900003CD1274B274A40F236312748FDF768FE55
:10491000FB6993F8243023F00103DAB2FB6983F8D2
:1049200024202BE0FB6993F8243043F00103DAB232
:10493000FB6983F82420FA68FB699A61FB699B692B
:10494000002B06D1194B174A40F24F311648FDF79C
:1049500047FEFB699A69BB69D118BB69BA69F869F6
:10496000FFF72AFF0AE0FB6993F8243023F00103E4
:10497000DAB2FB6983F8242000E000BF0C4B1B680F
:1049800007F1080100221846FEF754FC0346002BED
:104990007FF458AF00BF00BF2037BD4680BD00BFC9
:1049A000747C0000F47C0000CC7B00007C7C000068
:1049B000A807002080B588B002AF44E02B4B1B68ED
:1049C000DB681B683B61294B1B68DB68DB68FB60AD
:1049D000FB6804331846FEF74FF9FB681B6AF8685A
:1049E0009847FB6893F8243003F00403002B2AD087
:1049F000FB689B693A691344BB60BA683B699A4299
:104A00000ED9FB68BA685A60FB68FA681A61174BDE
:104A10001A68FB68043319461046FEF7F4F812E0F2
:104A20000023009300233A690021F868FFF780FD16
:104A300078607B68002B06D10D4B0E4A40F2A931FD
:104A40000D48FDF7CDFD094B1B681B68002BB5D148
:104A5000064B1B687B61094B1B68044A1360074ABD
:104A60007B69136000BF1837BD4680BDA0070020DA
:104A7000747C0000107D0000CC7B0000A4070020A7
:104A800080B582B002AFFCF799F9154B1B68002B7B
:104A900020D11448FEF766F81348FEF763F8134B6D
:104AA000104A1A60124B104A1A6000230093114BEF
:104AB000114A0C210A20FEF775F90346084A1360D3
:104AC000074B1B68002B05D0054B1B680B4918468C
:104AD000FEF75AFEFCF7AAF900BFBD4680BD00BF35
:104AE000A8070020780700208C070020A0070020DE
:104AF000A40700202C080020B4070020A47C00009C
:104B000080B588B002AFF860B9607A60FB68002BAE
:104B100005D10F4B0F4A92210F48FDF761FDBB688D
:104B20007A6802FB03F3184601F07CF803467B61C8
:104B3000FB68002200927A697968B868FEF732F95A
:104B40000246FB689A6400BF1837BD4680BD00BFAF
:104B5000247D0000547D0000347D000080B582B0CB
:104B600000AF786039607B68986C00230A2239684E
:104B7000FEF7D4F9012318460837BD4680BD80B53D
:104B800082B000AF786039607B689B6C0122396825
:104B90001846FEF74FFB0346012B01D1012300E02D
:104BA000002318460837BD4680BD80B584B000AFED
:104BB000786039607B68986C07F10C0200233968D3
:104BC000FEF79EFA012318461037BD4680BD80B51A
:104BD00086B000AFF860B9607A607A68B968F86842
:104BE00000F0B8FC00224FF4C871F86800F060FDD6
:104BF00043F69820FBF75AFB00237B61F86800F02E
:104C00004FF80346002B06D07B6901337B617B693B
:104C1000032B00D9E6E700237B61F86800F082F8F7
:104C20000346002B06D07B6901337B617B69032B34
:104C300000D9D7E700237B61F86800F0B3F803469A
:104C4000002B06D07B6901337B617B69032B00D984
:104C5000C8E700237B61F86800F07CF80346002B6E
:104C600006D07B6901337B617B69032B00D9B9E7EF
:104C700000237B61F86800F0E9F80346002B06D0BA
:104C80007B6901337B617B69032B00D9AAE7002193
:104C9000F86800F01DF800BF1837BD4680BDFFFF63
:104CA00080B584B002AF78604FF47A730093054BFF
:104CB000054A0649786800F07FFC03461846083725
:104CC000BD4680BD647D00006C7D0000747D0000E9
:104CD00080B584B002AF78600B46FB70FB78002B88
:104CE0000AD14FF47A7300930A4B0B4A0B49786848
:104CF00000F062FC034609E04FF47A730093054B21
:104D0000054A0749786800F057FC034618460837FB
:104D1000BD4680BD647D00006C7D00007C7D000090
:104D2000887D000080B584B002AF78604FF47A735C
:104D30000093054B054A0649786800F03DFC0346A0
:104D400018460837BD4680BD647D00006C7D0000BC
:104D5000A47D000080B586B002AF78604FF47A730E
:104D600000930C4B0C4A0D49786800F025FCF86064
:104D7000FB68002B09D17B6898687B6803F11402FB
:104D80007B681833064901F045F8FB681846103770
:104D9000BD4680BD647D00006C7D0000B07D0000DC
:104DA000BC7D000080B584B002AF78604FF47A73A8
:104DB0000093054B054A0649786800F0FDFB034661
:104DC00018460837BD4680BD647D00006C7D00003C
:104DD000E07D000090B5C7B002AF07F10C04206081
:104DE00007F108000160391D0A603A46136007F1B7
:104DF000100300221A600433FC220021184600F040
:104E000026FF3B1D07F1080207F11000394609682B
:104E100000911B6812680A4900F0DCFF07F11001DD
:104E200007F10C004FF47A730093064B064A0068B2
:104E300000F0C2FB0346184607F58A77BD4690BDD1
:104E4000EC7D0000647D00006C7D000080B586B0C4
:104E500002AF78604FF47A730093104B104A1149F7
:104E6000786800F0A9FBF860FB68002B11D17B6823
:104E700098687B682C331A460B4900F0CBFF7B689F
:104E800003F140007B682C3307330822194600F0F9
:104E9000FFFFFB6818461037BD4680BD647D0000EB
:104EA0006C7D00001C7E0000287E000080B586B06E
:104EB00002AF7860786842F2107300931E4B1F4A6D
:104EC0001F4900F079FB0346002B2FD1786842F28E
:104ED00010730093184B194A1A4900F06DFB0346F2
:104EE000002B23D17B689B681749184600F0E3FF2D
:104EF000F8607B6803F11C017B6803F120007B688C
:104F000024337A6828320192009303460A460F49F7
:104F1000F86800F07FFF786842F210730093064B48
:104F2000064A0B4900F048FB002301E04FF0FF3335
:104F300018461037BD4680BD647D00006C7D0000C2
:104F4000387E0000487E0000547E00005C7E000039
:104F5000787E000080B5ADF5067D02AF3B1D186080
:104F60003B1D1B68C7F80C3207F10C0300221A60C6
:104F700004334FF4FE720021184600F068FE07F17A
:104F80000C034FF400720021184600F060FE07F198
:104F90000C030A49184600F01DFF07F10C014FF4FD
:104FA0007A730093064B074AD7F80C0200F004FB13
:104FB0000346184607F50477BD4680BD887E00008D
:104FC000647D00006C7D000080B5ADF5087D02AF0A
:104FD00007F10C03186007F1080319603B1D1A6004
:104FE00007F10C031B68C7F8143207F11403002201
:104FF0001A6004334FF4FE720021184600F027FEB9
:1050000007F114034FF400720021184600F01FFE50
:105010003B1D07F1080207F114001B6812680A49DA
:1050200000F0D8FE07F114014FF4FA630093074B28
:10503000074AD7F8140200F0BFFA0346184607F5EE
:105040000677BD4680BD00BFA87E0000647D0000DD
:10505000C07E000090B5ADF5097D02AF07F10C04EC
:10506000206007F108000160391D0A603A461360AC
:1050700007F10C031B68C7F8143207F11403002270
:105080001A6004334FF4FE720021184600F0DFFD71
:1050900007F114034FF400720021184600F0D7FD09
:1050A0003B1D1B68002B11D03B461B68002B0DD00D
:1050B0003B1D07F1080207F1140039460968009109
:1050C0001B6812680E4900F085FE07E007F108032F
:1050D00007F114001A680B4900F07CFE07F1140177
:1050E0004FF4FA630093084B084AD7F8140200F013
:1050F00063FA0346184607F50777BD4690BD00BF23
:10510000D87E0000F47E0000647D0000087F00006F
:1051100080B586B002AF78607B68FB604FF4FA63BD
:105120000093054B054A0649F86800F045FA034626
:1051300018461037BD4680BD647D0000207F00000A
:10514000387F000080B586B002AF78607B68FB6076
:105150004FF4FA630093054B054A0649F86800F0DE
:105160002BFA034618461037BD4680BD647D00000B
:10517000487F0000607F000090B5ADF5097D02AF6B
:1051800007F10C04206007F108000160391D0A6076
:105190003A46136007F10C031B68C7F8143207F195
:1051A000140300221A6004334FF4FE7200211846E3
:1051B00000F04DFD07F114034FF400720021184672
:1051C00000F045FD07F114003B461B68019307F111
:1051D00008031B680093D7F82C32D7F8282212490D
:1051E00000F0F8FD07F114014FF4FA6300930F4B40
:1051F0000F4AD7F8140200F0DFF90346002B02D063
:105200004FF0FF330BE0391D4FF4FA630093074B67
:10521000084A0968D7F8140200F0CEF90346184688
:1052200007F50777BD4690BD707F0000647D0000E4
:10523000907F0000947F000080B5ADF5087D02AF3F
:1052400007F10C03186007F1080319603B1D1A6091
:1052500007F10C031B68C7F8143207F1140300228E
:105260001A6004334FF4FE720021184600F0EFFC80
:1052700007F114034FF400720021184600F0E7FC18
:105280003B1D07F1080207F114001B6812680A4968
:1052900000F0A0FD07F114014FF4FA630093074BEF
:1052A000074AD7F8140200F087F90346184607F5B5
:1052B0000677BD4680BD00BFAC7F0000647D000066
:1052C000C47F000080B5ADF5067D02AF3B1D1860C0
:1052D0003B4619603B1D1B68C7F80C3207F10C03F5
:1052E00000221A6004334FF4FE720021184600F0C9
:1052F000AEFC07F10C034FF400720021184600F0D9
:10530000A6FC3B4607F10C001A680A4900F062FD52
:1053100007F10C014FF4FA630093074B074AD7F8E3
:105320000C0200F049F90346184607F50477BD461C
:1053300080BD00BFDC7F0000647D0000F07F0000C6
:1053400080B5ADF50E7D04AF3B1D18603B1D1B689D
:10535000C7F8203207F1200300221A6004334FF40B
:10536000FE720021184600F072FC07F120034FF492
:1053700000720021184600F06AFC07F120033D4945
:10538000184600F027FD07F120014FF4FA6300935F
:10539000394B394AD7F8200200F00EF9D7F82032FD
:1053A0009B683649184600F086FD0346002B02D064
:1053B0004FF0FF3359E0D7F820329B683049184648
:1053C00000F079FD0346002B4DD0D7F820329B68C2
:1053D0002C49184600F086FD03462B4A136007F15E
:1053E0000C031A460023136053609360D36013616B
:1053F00035E0254B186807F10C03191D07F10C0265
:1054000007F10C031033029307F10C030C330193E3
:1054100007F10C03083300930B461C4900F0FAFC1B
:105420000023C7F824320FE007F10C03D7F8242239
:1054300053F82230012B02D1D7F8243215E0D7F8E7
:1054400024320133C7F82432D7F82432042BEBD9A5
:105450000C49002000F046FD03460B4A13600A4B3E
:105460001B68002BC5D14FF0FF33184607F50A77AC
:10547000BD4680BD088000006C7D000018800000E3
:10548000308000003C800000740800204080000054
:1054900080B5ADF5087D02AF07F10C03186007F188
:1054A000080319603B1D1A6007F10C031868FFF729
:1054B00047FFC7F81402D7F81432B3F1FF3F02D107
:1054C0004FF0FF333BE007F10C031B68C7F81032C5
:1054D00007F1100300221A6004334FF4FE7200211A
:1054E000184600F0B4FB07F110034FF400720021DE
:1054F000184600F0ACFB07F11003D7F8142212494C
:10550000184600F067FC07F1100141F28833009360
:105510000E4B0F4AD7F8100200F04EF80346002B4E
:1055200002D04FF0FF330AE0D7F8103298683A1DE6
:1055300007F1080312681968FAF782FE002318467B
:1055400007F50677BD4680BD5C800000647D0000E5
:105550006C7D000080B485B000AFF860B9607A60FF
:10556000FB68BA681A60FB687A685A60FB68DB6897
:10557000002B0BD1FB689B68002B07D1FB684FF415
:105580000062DA60FB680B4A9A600AE0FB68DB683D
:10559000002B06D0FB689B68002B02D1FB68054AF4
:1055A0009A60FB6800221A7400BF1437BD465DF88C
:1055B000047B70477808002090B589B000AFF86090
:1055C000B9607A603B6002E00120FAF76FFEFB6889
:1055D0001B7CDBB2002BF7D1FB6801221A74FB683D
:1055E0005C68B86800F04CFC03461A46B96820466F
:1055F00000F0B1FA0346002B05D02A4B2A4A262197
:105600002A48FCF7EDFFFB689868FB68DB681A46E0
:10561000002100F01CFB0023FB610023BB61002381
:105620007B61FB685868FB689A68BB6913448022F9
:10563000194600F0C7FA38613B69002B1BD0BA69E4
:105640003B691344BB61FB689B687968184600F0AE
:1056500032FC0346002B02D000237B6119E0FB687B
:105660009B683968184600F026FC0346002B02D0E0
:1056700001237B610DE0FB690133FB61FA693B6B40
:105680009A4202D901237B6103E00120FAF70EFE62
:10569000C7E7FB6800221A747B6918462437BD46A9
:1056A00090BD00BFB081000014820000F0810000B6
:1056B00080B584B000AFF860B9607A607B68002B79
:1056C00015D0FB681B681B689B68FA68126800218C
:1056D00010469847B868FAF7E9FDFB681B681B6835
:1056E0009B68FA68126801211046984714E0FB682D
:1056F0001B681B689B68FA6812680121104698476E
:10570000B868FAF7D3FDFB681B681B689B68FA68EA
:10571000126800211046984700BF1037BD4680BD73
:1057200080B582B000AF78607B689B68DB68786882
:105730009847034618460837BD4680BD80B485B0FB
:1057400000AF78600B46FB707B68FB60FB68FA7803
:1057500083F8842000BF1437BD465DF8047B704792
:1057600080B485B000AF78607B68FB60FB6893F81D
:10577000843018461437BD465DF8047B704780B509
:1057800082B000AF78600B46FB707B683033FA1C48
:1057900011461846FFF7E2F900BF0837BD4680BD45
:1057A00080B584B000AF78600023FB737B68303332
:1057B00007F10F0211461846FFF7E1F9FB7B184687
:1057C0001037BD4680BDFFFF80B586B000AFF860E2
:1057D000B9607A603B60194B7B617B69BA681A607B
:1057E0007B690022DA607B6900221A617B69FA68B2
:1057F0009A607B697A685A617B693A689A617B69C9
:105800003A6A1A627B697A6A5A627B6900221A6173
:105810007B690022C3F888207B69303301220A218A
:105820001846FFF76DF97B6901211846FFF786FFDF
:105830007B6918461837BD4680BD00BF901C00200C
:1058400090B587B000AF78607B683B614FF0FF3365
:10585000FB607868FFF784FF03461A46654B1A70B1
:105860007868FFF77DFF0346013B052B00F29A8025
:1058700001A252F823F000BF215900009158000006
:10588000D15800000959000055590000A5590000E1
:105890007B689B689C687B68D9697B681A6A7B68AF
:1058A0005B6A7868A0470346002B0CD10321786817
:1058B000FFF744FF01213869FFF761FF3B690022D0
:1058C000C3F8882071E004217868FFF737FF6CE0A7
:1058D0007B689B68DB697A68916A7A68D26A7868C3
:1058E00098470346FB60FB68002B04D1062138690A
:1058F000FFF745FF58E0FB6813F1020F54D1042174
:105900007868FFF71BFF4FE002213869FFF737FF88
:105910007868FFF705FF05217868FFF70FFF44E07F
:105920007B689B681B687A6851697A6892697868B5
:1059300098470346002B08D104213869FFF71FFF61
:1059400002217868FFF7FAFE2FE004217868FFF75C
:10595000F5FE2AE03B69D3F888305A1C3B69C3F84E
:1059600088203B69D3F88830042B0DD80121786852
:10597000FFF7E4FE05213869FFF701FF7B689B68AC
:105980005B687868984710E006217868FFF7D6FED4
:1059900005213869FFF7F3FE7B689B685B687868D0
:1059A000984702E000BF00E000BF3869FFF7F8FE4B
:1059B0000346FB7200237B6112E00F4A7B6952F8B9
:1059C00023207B68DA607B68DB68002B05D07B686E
:1059D000DB68FA7A1146786898477B6901337B6106
:1059E0007B681B697A699A42E7D300BF00BF1C3706
:1059F000BD4690BD1C1D00207810002080B586B0EB
:105A000000AFF860B9601346FB800C2000F00AF983
:105A100003467B617B69FA681A607B69BA685A60E1
:105A20007B69FA881A817B6918461837BD4680BDA4
:105A300080B582B000AF78600B46FB707B681B6856
:105A40001B68FA7811467868984703461846083765
:105A5000BD4680BD80B584B000AF786039606820F5
:105A600000F0E0F80346FB60FB68002B01D1002347
:105A700017E0FB683A685A60FB687A681A60FB684E
:105A80000833012280211846FFF73AF8FB68074ADD
:105A90001A66FB68064A5A66FB68002283F85C2097
:105AA000FB6818461037BD4680BD00BFB55A0000E0
:105AB000F55A000080B586B000AFF860B9607A6032
:105AC000FB683B610023FB820BE03B6903F10800AC
:105AD000FB8ABA6813441946FFF767F8FB8A01335B
